:020000040001F9
:10F00000902B0020855C020047060200D30B020013
:10F01000B30C0200CF190200DF3202000000000032
:10F020000000000000000000000000001B33020090
:10F030002737020000000000474502000B4702008E
:10F0400069530200634902004F580200150602008E
:10F050006549020067490200B31E0200DD2002007C
:10F06000495C02006B5C0200775C0200A15C02005C
:10F07000A35C0200A55C0200A75C0200A95C020080
:10F08000AB5C0200FD430200AD5C0200AF5C02001D
:10F090000F440200B15C02005D3D0200B35C02005F
:10F0A000B55C0200B75C0200B95C0200BB5C020008
:10F0B000BD5C0200BF5C0200000000000000000018
:10F0C000C15C0200C35C0200C55C0200C75C0200B8
:10F0D000C95C0200CB5C0200CD5C020000000000B5
:10F0E0000000000000000000000000000000000020
:10F0F0000000000000000000000000000000000010
:10F1000000000000000000000000000000000000FF
:10F1100000000000000000000000000000000000EF
:10F400004FF0A040704701B56846FFF7F9FF0121B2
:10F41000009A914000F00FF801BD01B56846FFF772
:10F42000EFFF0121009A914000F008F801BD00298A
:10F4300000D1F2E7E7E7C0F808157047C0F80C15EF
:10F4400070470000002840D0DFF8CC160968DFF8CC
:10F45000CC2600BF00BF00BF00BF00BF00BF00BF81
:10F4600000BF91422FD000BF00BF00BF00BF00BF50
:10F4700000BF00BF00BF00BF00BF00BF00BF00BF94
:10F4800000BF00BF00BF00BF00BF00BF00BF00BF84
:10F4900000BF00BF00BF00BF00BF00BF00BF00BF74
:10F4A00000BF00BF00BF00BF00BF00BF00BF00BF64
:10F4B00000BF00BF00BF00BF00BF00BF00BF00BF54
:10F4C00000BF00BF00BF0138C3D17047DFF850064E
:10F4D0004169491C41610121017470471FB50FF258
:10F4E0003C000FC86C4684E80F0014208DF8030020
:10F4F00011208DF8020012208DF8010013208DF8E4
:10F500000000DFF8202669460FF2B00000F04EFF41
:10F51000002801D001F088F81FBD0000FFFFFFFFA9
:10F5200000FF0000000000800000000000B583B074
:10F530008DF8041010788DF8050000200090034627
:10F54000022201A90FF2740000F0A0FF00200EBDFE
:10F550001CB58DF8041010788DF80500DFF8C04553
:10F560000020207400900346022201A90FF24C00F3
:10F5700000F08CFF207C0028FCD0002016BD70B568
:10F5800082B014461D46DFF8986541F08000B074E3
:10F5900000203074681CC0B200903346012206F18E
:10F5A00012010FF2180000F071FF012D02D1307C22
:10F5B0000028FCD070782070002076BD003000401C
:10F5C0000300010010B5DFF860450C2304F184024C
:10F5D00022210020FFF7D3FF00200BE0DFF84015C9
:10F5E00001EB40018A78497811EB022104EB4002DB
:10F5F0009180401C0628F1DB10BDD0ED001A91ED82
:10F60000002A72EE200A30EE811A80EE811A30EE66
:10F61000610A40EE011AB7EE000A30EE410A20EE10
:10F62000200A81ED000AC0ED001AB0EE610A7047B1
:10F6300030B4DFF8F80490ED081AD0ED071ADFF8BF
:10F64000E814B1F9042000EE102AB8EEC00AD1ED9A
:10F65000070A30EE600A20EE210A20EE010A81ED51
:10F66000040AB1F9062000EE902AF8EEE00A91EDC6
:10F67000082A70EEC20A60EEA10A60EE810AC1EDAE
:10F68000050AB1F9082002EE102AB8EEC22AD1ED1F
:10F69000092A32EE622A62EE211A21EE811A81EDE8
:10F6A000061A90ED092AB1F90A2001EE902AF8EE27
:10F6B000E11AD0ED002A71EEE21A61EE821AC1ED74
:10F6C0000A1AB1F90C2002EE902AF8EEE22A90ED27
:10F6D000013A72EEC32A62EE822AC1ED0B2AB1F919
:10F6E0000E2003EE102AB8EEC33AD0ED023A33EE04
:10F6F000633A23EE022A81ED0C2A0A6E002A4FD0CB
:10F70000C268521CC260002313E09FEDC04A33EE72
:10F71000043AF4EE433AF1EE10FA01D584ED043ADE
:10F7200094ED0C3AD4ED043A33EE233A84ED0C3ADE
:10F730005B1C032B1BDA01EB4304B4F9044003EE1A
:10F74000104AF8EEC33A00EB8304C4ED043A01EB2F
:10F75000830595ED073A9FEDAE4A33EE044AB4EEC9
:10F76000634AF1EE10FAD0D584ED044AD8E740F6AA
:10F77000B9339A4214DB0022C2600A660EE000EB45
:10F78000820393ED0C3ADFEDA33A83EE233A01EBCB
:10F79000820484ED073A00241C63521C032AEEDB2A
:10F7A0000A78130020D1C0ED0A0AB1EE400A81EDBB
:10F7B000050AC1ED040A80ED0A1AB1EE600A81ED76
:10F7C000060A81ED041AC0ED0B2AB1EE610A81ED43
:10F7D0000B0AC1ED0A2A80ED0B2AB1EE620A81ED17
:10F7E0000C0A81ED0A2A61E0012A18D180ED0A1A7B
:10F7F000B1EE400A81ED060AC1ED040AB1EE410AFC
:10F8000081ED050A80ED0B2AB1EE610A81ED0C0A4B
:10F81000C1ED0A2AB1EE420A81ED0B0A46E0022A46
:10F8200010D180ED0A1A81ED060AB1EE410A81ED90
:10F83000040A80ED0B2AC1ED0C1AB1EE420A81EDEB
:10F840000A0A33E0032A10D180ED0A1AB1EE400A09
:10F8500081ED060A81ED041A80ED0B2AB1EE610AF2
:10F8600081ED0C0A81ED0A2A20E0042A10D1C0EDB6
:10F870000A0AB1EE400A81ED050AC1ED040AC0EDA5
:10F880000B2AB1EE610A81ED0B0AC1ED0A2A0DE0E7
:10F89000052A0BD1C0ED0A0A81ED050AC1ED040A63
:10F8A000C0ED0B2AC1ED0B1AC1ED0A2A30BC70471E
:10F8B000DFF8740290F901100A0014D190ED161AC5
:10F8C000B8EEC11AB4EE401AF1EE10FA0BD590ED75
:10F8D000151AB8EEC11AB4EE601AF1EE10FA02D59C
:10F8E000012141702DE0012A07D1F5EE400AF1EE29
:10F8F00010FA02D50021417023E0002917D190EDC4
:10F90000161AB8EEC11AB4EE401AF1EE10FA0ED57E
:10F91000416D494200EE101AB8EEC00AF4EE400AFA
:10F92000F1EE10FA03D54FF0FF31417009E012F10A
:10F93000010F06D1F5EE400AF1EE10FA01DD0021CB
:10F94000417090F901100A4690F902309A4204D0B1
:10F950008170806D484340B2704700207047DFF8E7
:10F96000200490F900100A0012D1DFF8BC2192EDBA
:10F97000171AB8EEC11AB4EE401AF1EE10FA07D514
:10F98000F5EE400AF1EE10FA02DD012101702CE0E3
:10F990000A46012A07D1B5EE400AF1EE10FA02D567
:10F9A0000021017021E0002915D1DFF87C11C96D1B
:10F9B000494201EE101AB8EEC11AB4EE410AF1EE56
:10F9C00010FA08D5F5EE400AF1EE10FA03DD4FF01B
:10F9D000FF31017009E012F1010F06D1B5EE400AC6
:10F9E000F1EE10FA01DD0021017090F900100A46D5
:10F9F00090F901309A4206D04170DFF82C01C06DB9
:10FA0000484340B27047002070470000000048C2E1
:10FA1000000048420000FA4410B4DFF8001801F179
:10FA20004500C27D02F00102531E9B41DB43DB0F08
:10FA30000370C27D920702D50122427002E00022CB
:10FA400042700271C27D02F00402531E9B41DB43EF
:10FA5000DB0F8370C27D02F00802531E9B41DB4323
:10FA6000DB0FC370C27DD20607D501220271427836
:10FA7000012A04D00122427001E000220271C27DFD
:10FA800002F02002531E9B41DB43DB0F4371C27D1A
:10FA900002F04002531E9B41DB43DB0F8371827EE9
:10FAA0006531130001D0CA7201E00422CA72C37E1C
:10FAB000DFF86C271C0002D08B73936502E00A23E9
:10FAC0008B739365037F1C0002D0CB73D36502E078
:10FAD0000A23CB73D365437F1C0002D00B741370D1
:10FAE00002E000230B741370827F130001D04A746C
:10FAF00001E000224A74C07F020001D0887401E056
:10FB0000002088740878020001D0C87401E00D203C
:10FB1000C87410BC70470000802300200024F4004B
:10FB200028230020CDF4010050220020442300208F
:10FB3000F8B50024DFF8E45605F1450630780028D2
:10FB400006D001202870A87B40F00100A87305E0D2
:10FB500020462870A87B00F0FE00A873707800286B
:10FB600048D005F12407B2EE040ADFED840ADFF87D
:10FB7000280590ED001A31EE201A21EE001ABDEE94
:10FB8000C11A11EE100A00B23860DFF8100590EDCE
:10FB9000001A31EE201A21EE001ABDEEC11A11EE44
:10FBA000100A00B27860DFF8DC0590ED001A71EE03
:10FBB000200A20EE800ABDEEC00A10EE100A00B244
:10FBC000B86020460DE000EBD071491005EB8102D2
:10FBD000526AC0EB4101C90008310A412918CA73B1
:10FBE000401C0628EFDB01206870A87B40F0020073
:10FBF000A87305E020466870A87B00F0FD00A8739C
:10FC0000DFF820060078B178002932D0002801D131
:10FC100000F003FE05F12407DFF8F80590ED000A77
:10FC2000BDEEC00A87ED030A20460BE0F96800EB41
:10FC3000D0725210C0EB4202D200083211412A1891
:10FC40005175401C0228F1DB00F0D3FD002809D0DB
:10FC5000DFF8C40500683874387C28770120DFF8A5
:10FC6000C01548670120A870A87B40F00400A87365
:10FC700009E0002801D000F0DEFD2046A870A87B36
:10FC800000F0FB00A873F078002833D000F0AAFE43
:10FC9000DFF87C15088000F0B5FEDFF88C25DFF872
:10FCA0008C3500F0C5FE2246DFF8843500F0C0FE3A
:10FCB00000F090FF00EE100ADFF8500580ED000A1A
:10FCC00010EE100A00F0CEFF2246DFF8683500F093
:10FCD000AFFE00F0EFFF05F124077874E87501200E
:10FCE000E870A87B40F00800A8730120DFF8301509
:10FCF000486705E02046E870A87B00F0F700A8738D
:10FD0000307900281BD0DFF81805C16C026D51EA6C
:10FD100002030ED005F12407B9743A75B97C29762F
:10FD2000397DA976A97B41F01001A97301214167B2
:10FD300005E020462871A87B00F0EF00A87320465C
:10FD40000DE005F12401498B00EBD0725210C0EB9D
:10FD50004202D200083211412A18D177401C0228F1
:10FD6000EFDB204604E02918897B0C19E4B2401C23
:10FD70001328F8DB85F82140F1BD00000000344372
:10FD8000373000202DE9F0412DED048BDFF8904451
:10FD9000D4F88000401CC4F88000DFF89C04007890
:10FDA000002810D0DFF87C040078002804D100F08F
:10FDB0002AFD00F0CAFF06E0DFF880040078002882
:10FDC00001D000F0C2FFDFF8545405F1440630784A
:10FDD000002803D0FFF720FE00203070B078002804
:10FDE00000F01481FFF7EEFBFFF722FC9FEDA94A1C
:10FDF000DFEDA83A9FEDA73AD4ED062A94ED052A47
:10FE0000D4ED041A94ED0C1AD4ED0B0A94ED0A0A01
:10FE100001F03AF800F0DCFF05F17007B879010055
:10FE200039D0DFF874829FED9E8A00EE100AB8EE9A
:10FE3000401AF0EE480A04F1940104F1900098EDA4
:10FE4000000AFFF7DAFB88ED000ADFF85082B87984
:10FE500000EE100AB8EE401AF0EE480A04F19C01D8
:10FE600004F1980098ED000AFFF7C7FB88ED000A3F
:10FE7000DFF81083B87900EE100AB8EE401AF0EE01
:10FE8000480A04F1A40104F1A00098ED000AFFF76C
:10FE9000B4FB88ED000A7079002800F0B78004F107
:10FEA0003C0204F1380104F1340094ED0C1AD4ED55
:10FEB0000B0A94ED0A0A00F05DFF04F1480204F118
:10FEC000440104F1400094ED061AD4ED050A94EDC6
:10FED000040A00F04FFFD4ED110A94ED100A20EE51
:10FEE000000A00EEA00A01F00FFBF7EE000A80EE18
:10FEF000800A84ED190AD4ED0E0A94ED0D0A20EE65
:10FF0000000A00EEA00A01F0FFFAF7EE000A80EE08
:10FF1000800A84ED1C0AB0EE080AD4ED120A20EE25
:10FF2000808A84ED128AD4ED190A20EE800A84EDCD
:10FF3000190A9FED959B94ED0F0ADFED950A30EEBF
:10FF4000200A10EE100A00F08DFE53EC192B00F081
:10FF50006FFD00F03FFEE063206F00F083FE53EC86
:10FF6000192B00F065FD00F035FE206794ED1F1A97
:10FF7000D4ED1E0A04F1AC0104F1A800B0EE480A69
:10FF8000FFF73BFB84ED120A94ED1F1AD4ED1E0A15
:10FF900004F1B40104F1B00094ED0F0AFFF72DFB5A
:10FFA00084ED0F0A94ED1F1AD4ED1E0A04F1BC0172
:10FFB00004F1B80094ED190AFFF71FFB84ED190A4C
:10FFC00094ED1F1AD4ED1E0A04F1C40104F1C0001F
:10FFD00094ED1C0AFFF711FBB0EE408A84ED1C8AF9
:10FFE00094ED190AD4ED1A0A70EE600AC4ED1B0AEA
:10FFF00084ED1A0A94ED0F0AFFF7B1FC2065D4EDE9
:020000040002F8
:10000000120AB0EE480AFFF753FCE064B07900280A
:1000100004D001210220FFF70AFA03E000210220A8
:10002000FFF705FA86480078002807D0F079002805
:1000300002D001F018FB01E001F00BFB707E80079D
:1000400001D501202066FFF773FD7078002810D0DD
:100050007C4C2068401C206095F87010884213DBAF
:10006000142205F10E01784801F04BFC00202060BD
:100070000AE0606F002807D0142205F10E017248D3
:1000800001F03FFC002060670020BDEC048BBDE860
:10009000F0810000000000006C210020742100208D
:1000A0000AD7A33C10B5694C4020A074012304F189
:1000B000120210210020FFF739FA0120FFF7C2F9E0
:1000C0000020A074012304F112021121FFF72EFA7F
:1000D0000120FFF7B7F98E20A074012304F112026A
:1000E00058210020FFF722FA0120FFF7ABF9082082
:1000F000A074012304F112025E210020FFF716FA1A
:100100000120FFF79FF98E20A074012304F1120251
:1001100058210020FFF70AFA0120FFF793F9082081
:10012000A074012304F1120259210020FFF7FEF907
:100130000120FFF787F90C20A074012304F11202BB
:100140005A210020FFF7F2F90120FFF77BF9802008
:10015000A074012304F112025B210020FFF7E6F9ED
:100160000120FFF76FF91020A074012304F112029F
:1001700015210020FFF7DAF90120BDE81040FFF754
:1001800061B90000702100206FA301BC0512843FFB
:1001900000007AC410B582B000208DF800002B4C0E
:1001A000A069002831D105E001236A460F21002013
:1001B000FFF7E5F99DF800006A28F5D14420A07406
:1001C000012304F1120212210020FFF7C1F97C2063
:1001D000A074012304F1120211210020FFF7B8F9E5
:1001E000012304F1120210210020FFF7B1F90020D1
:1001F000A074012304F112021521FFF7A9F9802050
:10020000A0740220A0740020A07413BD143000203C
:100210000E30002098210020C0210020D421002091
:1002200050220020393000205839B4C876BE15401D
:100230000000103F000034403A3000208C210020A4
:100240003B300020BC2F0020F02E0020282300206F
:1002500001224250704781B0002242504058009025
:10026000009801B070474058401E8041C043C00F05
:100270007047C0F804137047C0F80813704707218F
:10028000C0F80015704710B44FF4A1642044016019
:100290004260836010BC7047C0F82415704700F2BC
:1002A000445001604260704700F234500160426087
:1002B000704713465B1E9B41DB43DB0F012904D0D3
:1002C0000BD3032907D003D307E043F0020304E074
:1002D00043F0040301E043F00603C0F854357047CF
:1002E000C0F8C01570470121C0F8501570470021B3
:1002F000C0F8501570470121C0F840157047002123
:10030000C0F84015704700F06040B0F1005F01D1C7
:1003100001207047002070474FF0A040704771B532
:1003200081B00C4615461E4601A8FFF7F5FF44EACA
:10033000450141EA8602069942EA0122079942EA0A
:100340000141019A00EB8200C0F8001773BD00B5AF
:1003500083B00021019100910B4601221146FFF765
:10036000DEFF07BD00B583B00022019200920B466C
:100370001146FFF7D4FF07BD01B56846FFF7CCFF74
:100380000121009A914000F00BF801BD01B56846CB
:10039000FFF7C2FF0121009A914000F004F801BD6F
:1003A000C0F808157047C0F80C1570472DE9F843E0
:1003B00004460D46994E607916EB4017387E0028AA
:1003C00001D0082060E03A602878297B022902DA0F
:1003D000FFF7DCFF01E0FFF7CFFF012090492A780B
:1003E00041F8220095F80180B8F1FF0F06D0404691
:1003F000FFF7CCFF4046FFF7AAFF01E04FF0FF38C0
:1004000095F80290B9F1FF0F04D000214846FFF79C
:10041000A9FF01E04FF0FF39E878FF2804D0FFF78B
:10042000ABFFE878FFF793FF607906EB4010E978BF
:10043000817626684B46424629783046FFF723FFEF
:10044000A9683046FFF728FF6A7B297B3046FFF713
:1004500030FF69793046FFF743FF3868002803D042
:1004600040213046FFF705FF3046FFF708FF3868A8
:10047000002804D0297994F9040001F09DFA0020A5
:100480007876012038760020BDE8F28300B585B08B
:10049000009102938DF8042006998DF80C1000222B
:1004A000694600F075F805B000BD10B50446A07EA1
:1004B000FF2801D0FFF760FF002060762071201D2B
:1004C0002168BDE810400847002901D14021D3E64A
:1004D0004021CEE638B504460D46E807204602D551
:1004E000FFF701FF01E0FFF702FFA807204602D552
:1004F000BDE83240FFE6BDE8324000E7F8B504460B
:100500000D4616461F463068002803D0FFF7FBFE55
:10051000002806D0B068002807D0FFF7F4FE0028B6
:1005200003D1002068761020F2BD32793168204670
:10053000FFF7B5FE327BB1682046FFF7B5FE4FF4FA
:100540008C712046FFF787FE39462046FFF7C2FF31
:10055000380703D410212046FFF77AFE28680028C8
:100560000CD14FF48C712046FFF77DFE0028F8D0A7
:10057000A87EFF280AD0FFF7FFFE07E0B80800F0CA
:10058000010080F001012046FFF79EFF0020F2BD30
:10059000F8B504460D4616462048617910EB411720
:1005A000787E002801D01120F2BD3868002804D0E0
:1005B00016F0140F01D10120787695E80F0007F1AD
:1005C000080C8CE80F00787F00F0FE00787700F0D0
:1005D000FD007877B87EFF2801D0FFF7D7FE3346BD
:1005E0002A463946206801B0BDE8F04086E738B5B4
:1005F00004460D464FF48C71FFF735FE002808D0F5
:100600004FF48C712046FFF726FE2846BDE83240A5
:100610004BE731BD01490348E9E700007C2F00208A
:10062000000700500030004010B584B06946002239
:10063000134614461CC102906A46194644F2010052
:1006400001F0D8F91FBDFEE7012100F01F02914023
:100650008A4A400942F8201070474FF0A040704786
:1006600071B581B00C4615461E4601A8FFF7F5FF8F
:1006700044EA450141EA8602069942EA01220799C5
:1006800042EA0141019A00EB8200C0F8001773BDF5
:1006900000B583B00021019100910B460122114663
:1006A000FFF7DEFF07BD00B583B000220192009284
:1006B0000B461146FFF7D4FF07BD01B56846FFF7AB
:1006C000CCFF0121009A914000F01DF801BD01B559
:1006D0006846FFF7C2FF0121009A914000F016F82A
:1006E00001BD002900D1F2E7E7E701B56846FFF751
:1006F000B4FF00F005F80099C84000F0010002BD09
:10070000D0F810057047C0F808157047C0F80C15F0
:10071000704799E75A480178143100EE101A594988
:1007200081ED0B0A40788862D1ED030A91ED051A3C
:1007300030EEC11A81ED041AC1ED050A4A6B002A98
:1007400009D1F8EEC00AF4EE410AF1EE10FA02D532
:10075000012048637047012A10DBB8EEC00AB4EEEE
:10076000410AF1EE10FA09D54B6A5B1C4B629842C4
:1007700012DA00204862501C48637047012A0BDBE4
:1007800091ED0C0AB8EEC00AB4EE401AF1EE10FA80
:1007900002D5002048624863704710B5394C3A488A
:1007A0000078002804D000F02EF80120207010BD41
:1007B00000F086F86060B0F5702F06DDC043401C85
:1007C00080B2A0614042A06000E0A06094ED081AF1
:1007D000D4ED070A04F1400104F13C0094ED020A53
:1007E000B8EEC00AFEF709FF84ED030ABDE8104029
:1007F00090E72448416B826B8A4202D081630120DA
:1008000070470020704780B51E2001F02FFB60204C
:1008100000F076F8BDE80140B5E080B500211F206A
:10082000FFF75FFF01201949087007210620BDE886
:10083000044001F0C1B8002014490870062068E7A0
:1008400080B501F04DFA002801D0FFF7EDFE0FF260
:100850004C100068009003208DF801000C4A694696
:100860001E2001F070FA002801D0FFF7DDFE012103
:100870001E2001F09DFAFFF7DEFF01BD80E100E0E0
:100880004B2200208C2100203A30002039300020FB
:100890009B07020080B51F20FFF7FAFE242000F01E
:1008A0002FF8FFF7CDFFBDE801406CE080B50121D6
:1008B0001F20FFF716FF00211F20BDE8044010E7AE
:1008C00038B5002421461E2001F072FA254609E0C1
:1008D000FFF7ECFF64001E20FFF707FF002800D0A1
:1008E000641C6D1C182DF3DBFFF7E0FFFFF7DEFF44
:1008F000FFF7DCFF01211E2001F05AFA204632BD2D
:1009000038B50446002502E0FFF7D0FF6D1C1B2D13
:10091000FADB1E20FFF7BCFEFFF7C8FFFFF7C6FF9C
:10092000072506E000211E20FFF7DBFEFFF7BEFFD4
:100930006D1E2846C0B2002808D0CA202841C00732
:10094000F0D501211E20FFF7CCFEEFE7FFF7AEFF49
:10095000072506E000211E20FFF7C3FEFFF7A6FFD4
:100960006D1E002D08D420462841C007F2D5012174
:100970001E20FFF7B6FEF1E703211E20FFF793FECE
:10098000BDE8314092E780B500211F20FFF7A9FEA6
:1009900001211F20BDE80440A3E600000200000181
:1009A000704710B584B068460FF24C011CC91CC0DA
:1009B0001049002001F04BFC0020ADF80200694610
:1009C00001F081FC002801D0FFF72EFE03208DF8F6
:1009D00007006946012001F076FC002801D0FFF7EE
:1009E00023FE1FBD80B56946002001F08EFCBDF9D5
:1009F000000002BDA1090200000000000200000486
:100A000000000000010040F10780F446404200F081
:100A100003F851F00041604709D0B0FA80F18840F6
:100A2000C91CC1F58461090501EBD021400570475F
:100A3000B0B581EA030C0CF0004C40F2FF7515EAEA
:100A400011541DBF15EA1357AC42AF4239E0E41907
:100A500023EA455343F48013C90241F0004141EABF
:100A6000505EC7021100A7FB020200284FF00000F1
:100A7000EEFB01204FF00001E3FB072118BF42F01D
:100A80000102401800214941E3FB0E01A4F58064F6
:100A90000F0302D252004041494154F101046CDD80
:100AA000470872F1004250F1000051EB0451A1F5EA
:100AB00080115CBF41EA0C01B0BD4CEA0551002039
:100AC000B0BD05EA1357AC4214BFAF4241E050EA53
:100AD000410E1CBF52EA430E02E061460020B0BD49
:100AE00024423C441BD15FEA070EF6D0090302BF43
:100AF00001460020AEF1140EB1FA81F7AEEB070407
:100B000001FA07FE0C37C7F1200100FA07F7C840C9
:100B10004EEA000E23EA455343F48013A2E733F074
:100B20000043B3FA83F704BFB2FA82FE77440B3F67
:100B3000E41BB7F1200E2FBF02FA0EF3BB40C7F142
:100B4000200E22FA0EFE38BF43EA0E03BA40641CA0
:100B500082E750EA410E14BF52EA430E6FF00001E3
:100B60004FF4001717EB430F8ABF194617EB410FDD
:100B7000B5E74CEA05510020B0BDD4F10104B4F151
:100B800020070FDAC4F12007520828BF42F0010203
:100B900010FA07F501FA07F7E1BF2A43E0403843AE
:100BA000E1400FE0352C98DCC7F1200452EA400206
:100BB00020FA07F218BF42F0010231FA07F0A14013
:100BC0000A43002172F1004250F1000051EB0C0188
:100BD000B0BDFEE74FEAF17CBCF1E04C2CBFBCF5A8
:100BE000001F11E05FEA4C0C34BFBCF17F5F2EE0C8
:100BF0005FEA9C0C4FEA0C1C4FEA3C0CC10071F1FF
:100C000000414CEB50707047C90241EA5051C0029C
:100C100018BF41F0010141F000414FEA6C50C0F1B2
:100C20000900212810D240EACC7CCCF1200C11FA2A
:100C30000CF070F10040CCF1200C21FA0CF00CF01B
:100C4000004C40EB0C0070474FEACC7070474900F5
:100C500011F5001F04D84FEACC10FF30C0057047D3
:100C6000C81770475FF0FF0C1CEAD05114BF6145F4
:100C700006E0C110400721F0E04101F160517047EA
:100C800079B900F0004100020AD0B0FA80FC00FA05
:100C90000CF001F16051A1EB0C5101EBD0214005AA
:100CA000704741020CBF40F4E0016FF000010020EA
:100CB0007047FEE7F446400D40EAC120490006D2E5
:100CC00000F00EF8004248BF6FF00040604700F0AF
:100CD00007F84FF0004188428CBF08464042604709
:100CE00040F00040490DA1F58061491C05D4D1F1C7
:100CF0001F0154BFC840C01770474FF00000704735
:100D00004FF0A040704771B581B00C4615461E46A5
:100D100001A8FFF7F5FF44EA450141EA860206997A
:100D200042EA0122079942EA0141019A00EB82005E
:100D3000C0F8001773BD00B583B001920022009285
:100D40000B461146FFF7DFFF07BD80B501F0E1FD5F
:100D500001F082FE022201211020FFF7ECFF0222A7
:100D600001211620FFF7E7FFFFF79CF900F071FC67
:100D700032DF01BDDFF88C37D3ED001A61EE801A47
:100D800093ED012A42EE201A93ED022A42EE011A57
:100D9000C0ED001AD3ED031A61EE801A93ED042A18
:100DA00042EE201A93ED052A42EE011AC1ED001A17
:100DB000D3ED061A21EE800AD3ED071A01EEA00A40
:100DC000D3ED080A00EE810A82ED000A70470000A8
:100DD00010B52DED048BDFF82C472068FFF742FF9C
:100DE00041EC110BB0EE418AF0EE618AE068FFF74A
:100DF00039FF41EC100BB0EE481AF0EE681A02F021
:100E000081F851EC100BFFF7E5FEA0649FED1D9AF1
:100E100094ED120A20EE090A84ED120A206AFFF707
:100E200021FF41EC110BB0EE418AF0EE618AE069DE
:100E3000FFF718FF41EC100BB0EE481AF0EE681AFD
:100E400002F060F851EC100BFFF7C4FEE06494ED83
:100E5000130A20EE090A84ED130AA069FFF702FFC6
:100E600041EC100B02F0E8F851EC100BFFF7B2FE6A
:100E7000606494ED110A20EE090A84ED110ABDECBC
:100E8000048B10BDBE2E65422DE970432DED108BF5
:100E90002DED051A8FB0F0EE409AB0EE608AF0EEBC
:100EA000638AB0EE449ADFF85C6696ED09AAD6ED47
:100EB0000AAA96ED0BBAD6ED0CBAB0EE00CA6AEEED
:100EC0000CCACDED0CCA2AEE8CFA8DED03FA2BEE8E
:100ED0000C0A8DED020A6BEE8C0ACDED0B0A6CEE5E
:100EE0008B0ACDED0A0A20EE2B0A8DED0D0A2AEEB3
:100EF0000A0A8DED000A2AEE2A0A8DED040A2AEE6E
:100F00000B0A8DED090A2AEE2B0A8DED080A2AEE4E
:100F1000AADA2AEE8B0A8DED070A6AEEABDA2BEE1F
:100F20000BEA2BEE2B0A8DED060A6BEEABEA29EEEF
:100F3000A90A08EE080ADDED0F0A9DED0F1A00EE72
:100F4000810A10EE100AFFF78DFE41EC100B02F043
:100F50007BF851EC100BFFF73DFE00EE100AB5EEEA
:100F6000400AF1EE10FA00F0C482F7EE000A80EEBB
:100F7000800A69EE809A28EE008ADDED0F0A20EEE5
:100F8000800A8DED0F0A9DED130A2CEE800A8DED7F
:100F9000010A6CEEA8FA2CEE890ADDED130A6FEE59
:100FA00020CA9DED001A60EE810A4FEEEB0A40EE7A
:100FB0000B0A9DED131A41EE0D0A9DED031A21EE69
:100FC000281A41EE0B0A9DED031A21EE091A41EE93
:100FD0002B0A9DED131A41EE4E0A41EE6E0A9DED6D
:100FE000011A21EE2B1ADDED001A08EEA11A00EE0F
:100FF0006A1A0CEE8B1A08EECD1A08EE8E1A9DEDC9
:10100000020A20EE090A00EE2B1A08EEEE1A20EE74
:10101000A00A01EE010A10EE100AFFF723FE41ECD0
:10102000100B02F011F851EC100BFFF7D3FD00EE9E
:10103000900A2FEEAA0A9DED011A01EE4B0A9DEDD2
:10104000001A09EE010A0CEEAB0A09EE4D0A9DEDFD
:10105000021A21EE281A01EE2B0A09EE4E0A09EEB9
:101060002E0A20EE8C1A20EE0C2ADDED091A71EE04
:10107000AD1ACDED001A61EEA01AF6EE002A72EE5E
:10108000CD2A72EECE2A42EE801A71EEC91ADDED3B
:10109000042A9DED063A72EE832ACDED012ADDED9C
:1010A000072A9DED083A72EEC32ACDED052A62EEBD
:1010B000A02A9DED013A43EE002A72EEE82A9DED4A
:1010C000093A3DEEC3FAB6EE003A33EE4E3A33EE4D
:1010D0006E3A63EE204A4FEE004A2DEE8C7A9DED7B
:1010E0000A3A33EE473A33EE295A9DED043ADDEDE4
:1010F0000D3A43EE0C3A33EEC83A60EE8B5A20EECE
:10110000AB6A60EE2A3A20EE0B4ADDED036A23EE6D
:10111000268ADDED026A05EE268ADDED136A76EE9B
:10112000E46A04EE268A73EEC66A06EEA28A05EE2B
:10113000A18ADDED136A74EEE64AF7EE008A4DEE01
:101140004C8A2EEE0C9A79EE686ADDED0F7A76EE17
:10115000A76ADDED0A7A37EE677A37EE697A60EED4
:101160000A7A20EE2B0AB1EE00DADDED0B9A67EE7B
:10117000299ADDED0CCA43EE2C9A6AEE8DCA4CEE2C
:10118000A69A40EE249A75EEA75A45EEA29A02EE70
:101190006A6A46EE219A60EE8A5A60EEAA0A9DEDCE
:1011A0000B6A63EE06CA9DED0C6A45EE06CA2BEE8D
:1011B0000D5A45EE26CA21EE4B5A35EE675A45EEDA
:1011C00024CA30EE800A40EE22CAB0EE650A02EE72
:1011D0004B0A40EE21CA9DED030A27EE00DA9DED91
:1011E000020A03EE00DA41EE6B3A03EEA4DA34EEC3
:1011F000650A00EE22DA00EEA1DA28EE080A09EE0E
:10120000A90A0CEEAC0A0DEE0D0A10EE100AFFF75B
:1012100029FD41EC100B01F017FF51EC100BFFF70B
:10122000D9FC00EE100AF7EE000AC0EE80DAB6EE46
:1012300000EA9DED100A2AEEC00ADDED110A0BEE60
:10124000600ADDED120A0BEEE00A20EE0E0A10EE47
:10125000100AFFF707FD804689469FEDA80B01F0B5
:10126000F3FE53EC102B4FF00050DFF8CC12FFF7D9
:10127000DFFB4FF00052DFF8C432FFF7D9FB044622
:101280000D4628EE2D0A10EE100AFFF7EBFC224661
:101290002B46FFF7CDFB02460B464046494601F080
:1012A00053FFFFF797FC08EE100A9DED100A2AEE97
:1012B000000ADDED120A0BEE200ADDED110A0BEE3D
:1012C000E00A20EE0E0A10EE100AFFF7CBFC804673
:1012D00089469FED8A0B01F0B7FE53EC102B4FF0BF
:1012E0000050DFF85412FFF7A3FB4FF00052DFF875
:1012F0004C32FFF79DFB04460D4629EEAD0A10EE79
:10130000100AFFF7AFFC22462B46FFF791FB02467F
:101310000B464046494601F017FFFFF75BFC09EE1C
:10132000900A9DED110A2AEE000ADDED120A0AEE7E
:10133000E00ADDED100A0BEEA00A20EE0E0A10EE18
:10134000100AFFF78FFC804689469FED6C0B01F079
:101350007BFE53EC102B4FF00050DFF8DC11FFF751
:1013600067FB4FF00052DFF8D431FFF761FB044612
:101370000D462CEEAD0A10EE100AFFF773FC224664
:101380002B46FFF755FB02460B464046494601F007
:10139000DBFEFFF71FFC0CEE900A9DED120A2AEE11
:1013A000000ADDED110A0AEEA00ADDED100A0BEECF
:1013B000600A20EE0E0A10EE100AFFF753FC80467A
:1013C00089469FED4E0B01F03FFE53EC102B4FF082
:1013D0000050DFF86411FFF72BFB4FF00052DFF8ED
:1013E0005C31FFF725FB04460D462DEE2D0A10EE6D
:1013F000100AFFF737FC22462B46FFF719FB02467F
:101400000B464046494601F09FFEFFF7E3FB00EE26
:10141000100AD6ED100A08EE20AA49EEA0AA0CEE9A
:10142000A0BA40EE20BA2AEE0A0A0AEEAA0A0BEE89
:101430000B0A0BEEAB0A10EE100AFFF713FC41EC9F
:10144000100B01F001FE51EC100BFFF7C3FB00EE97
:10145000100AF7EE000A80EE800A6AEE000AC6ED76
:10146000090A6AEE800AC6ED0A0A6BEE000AC6EDAA
:101470000B0A2BEE800A86ED0C0A2EEE8C0AF7EE94
:10148000000A70EEC90A70EEC00AC6ED000ADDED72
:10149000050A60EE8C0AC6ED010ADDED000A60EE79
:1014A0008C0AC6ED020ADDED070A9DED081A70EE02
:1014B000810A60EE8C0AC6ED030A38EEC00A86ED9A
:1014C000040A9DED060ADDED040A30EE600A20EE06
:1014D0000C0A86ED050A2FEE0C0A86ED060A9DED34
:1014E000010A20EE0C0A86ED070A38EEC90A86EDDD
:1014F000080A14B0BDEC108BBDE87083000000003A
:101500000000E83F2821002081B08DED000A0C4842
:101510000099A0EB610000EE900AB6EE001A20EEF2
:10152000010A20EE200AB7EE081A00EE601A21EE3A
:10153000200A01B070470000FF210940C771AC3F8D
:10154000DF59375F4FF0A040704771B581B00C464E
:1015500015461E4601A8FFF7F5FF44EA450141EA9A
:101560008602069942EA0122079942EA0141019A5C
:1015700000EB8200C0F8001773BD00B583B00021F6
:10158000019100910B4601221146FFF7DEFF07BDD6
:1015900001B56846FFF7D6FF0121009A914000F09F
:1015A0003DF801BD01B56846FFF7CCFF0121009A67
:1015B000914000F036F801BD01B56846FFF7C2FF63
:1015C00000F2045001680122009B02FA03F38B43EE
:1015D0004360009B9A401140816001BD002900D109
:1015E000E0E7D5E701B56846FFF7ACFF00F010F87B
:1015F0000099C84000F0010002BD01B56846FFF740
:10160000A1FF00F008F80099C84000F0010002BDF9
:10161000D0F810057047D0F804057047C0F80815D9
:101620007047C0F80C15704780B50FF2B001085C28
:10163000FFF7E3FF401E8041C043C00F02BD012100
:101640000FF29802105CC9E700210FF29002105CC3
:10165000C4E780B5002003E00020FFF7F5FF01207C
:101660000028F9D001BD80B5002003E00020FFF77D
:10167000E6FF01200028F9D001BD0FF26001085CEF
:101680009AE780B5002003E00320FFF776FF0120F2
:101690000028F9D0BDE80140DBE780B50FF240013A
:1016A000085CFFF79FFF401E8041C043C00F80F0E1
:1016B000010002BD4FF0FF31002200E0521C042A5D
:1016C00005D20FF21C039B5C8342F7D111460846FA
:1016D00070470FF20C01085C704700000300000027
:1016E0000D0E0F108988818270474FF6FF7181823D
:1016F000704710B50446C8880246238A9A420CD126
:101700000A8A022A09D101F1120001F0E2FD401E0D
:101710008041C043C00FA07510BDA288904208D17F
:10172000A369180005D00A8A12312046BDE810408E
:10173000184710BD10B590B004460022032101A83F
:1017400001F0CEFD11208DF804008DF805009DF804
:10175000060000F0F90040F002008DF806000022BB
:101760001C2108A801F0BCFD9DF8200040F01000ED
:101770008DF82000002009900B900C9001A80D908E
:1017800000200E9020788DF80A000320ADF80800A4
:1017900000220146684601F0A3FD11208DF80000EB
:1017A0008DF801009DF8020000F0E10040F0030018
:1017B0008DF802000022142103A801F091FD02A877
:1017C0000390684604900120ADF814000020ADF8A5
:1017D00016001420ADF8180004F10C0303AA08A9A0
:1017E0006088A2DF10B010BD10B58EB00446002294
:1017F0001C2107A801F074FD9DF81C0000F0F70003
:1018000040F004008DF81C00002008900A900B9016
:101810000C900D9020788DF806000220ADF80400A1
:1018200000220321684601F05BFD11208DF80000C5
:101830008DF801009DF8020000F0E10040F0030087
:101840008DF802000022142102A801F049FD01A830
:101850000290684603900120ADF810000020ADF81A
:1018600012001420ADF81400231D02AA07A96088F5
:10187000A2DF0EB010BD00280CD000290AD00A88C3
:10188000102A04D0112A03D0502A02D0704729E729
:101890002BE72EE7704770B586B004460D460FF271
:1018A000B8000FC801AE86E80F00002C01D0002D53
:1018B00001D10E2023E04FF6FF70A0822868A061BE
:1018C0000020A075214601A863DF002817D12078E9
:1018D0008DF802000120ADF80000A21C6946A0DFCF
:1018E00000280CD129462046FFF724FF002806D106
:1018F00029462046FFF778FF002800D1002006B0D7
:1019000070BD34B584B004460D46002C01D10E20C4
:101910001FE0A08A4FF6FF71884202D0A07D002808
:1019200001D1082015E01046152801DB072010E042
:1019300000221021684601F0D3FCA089ADF8000018
:10194000039504A8029001208DF802006946A08A40
:10195000A6DF05B030BD00009ECADC240EE5A9E07C
:1019600093F3A3B50000406E012100F01F029140E7
:101970000D4A400942F820107047012100F01F0273
:1019800091400A4A400942F8201070474901002856
:1019900006D5074A00F00F00104400F8041C7047F9
:1019A000044A11547047000000E100E080E200E0CA
:1019B00018ED00E000E400E010B50446FFF7E6FF94
:1019C0002046FFF7DAFF2046BDE81040CCE7FEE7EF
:1019D000BFF34F8F0548016801F4E061044A1143E9
:1019E0000160BFF34F8F00BFFDE700BF0CED00E0CB
:1019F0000400FA05FFF7ECBF80B500F015F80068A9
:101A0000012801D1012002BD002002BD10B582B025
:101A1000044600F009F800210160204600F004F8B7
:101A200000680090009813BD00F1804000F5C040B0
:101A30007047DFF81C1608607047DFF8181608605A
:101A40007047DFF80C16096808407047DFF8081681
:101A500051F8202042F0010241F820207047DFF8C1
:101A6000F81551F820205208520041F82020704704
:101A700030B4DFF8E43553F82040DFF8E0552C406F
:101A800043F8204053F82040090201F4F8511204B1
:101A900002F440321143214343F8201030BC704718
:101AA000DFF8B41551F82000C0F304207047DFF8C8
:101AB000A81551F82000000C00F003007047002129
:101AC000DFF8942542F8201070474FF0A04070478F
:101AD00071B581B00C4615461E4601A8FFF7F5FF0B
:101AE00044EA450141EA8602069942EA0122079941
:101AF00042EA0141019A00EB8200C0F8001773BD71
:101B000000B583B00022019200920B461146FFF708
:101B1000DFFF07BD00B583B00021019100910B46A6
:101B20000122FFF7D5FF07BD01B56846FFF7CDFFDE
:101B3000009900EB8100D0F8001721F00201C0F8F5
:101B4000001701BD11B581B00C4601A8FFF7BDFF1C
:101B5000019900EB8101D1F8002722F44032C1F84D
:101B60000027019900EB8100D0F8001741EA0441F9
:101B7000C0F8001713BD01B56846FFF7A6FF00F0D7
:101B800012F80099C84000F0010002BD01B5684696
:101B9000FFF79BFF009900EB8100D0F80007000CD5
:101BA00000F0030002BDD0F810057047F8B50446F8
:101BB0000D46164668460FF2AC410A680260274699
:101BC00007E0684650F82700FFF7EDFF46F8040BE2
:101BD0007F1C28198742F4D3F1BD012200F00703CE
:101BE0009A40C008085C1040704710B4C2088B5C73
:101BF000012400F0070004FA00F01843885410BCD8
:101C00007047DFF85C14084490F9300008288041E0
:101C1000C00F401E8041C043C00F7047DFF8401422
:101C2000084490F93000082801DB012070470020AB
:101C30007047DFF82C14084490F93000C043C00FFF
:101C4000704730B4DFF81844251885F8301044F890
:101C50002120002B02D1214481F8480030BC70477C
:101C60004FF0FF31DFF8F823104480F83010704750
:101C7000DFF8EC13084490F930007047DFF8E01308
:101C800051F820007047F8B54FF0FF33140001D031
:101C9000002400E00824150001D0082502E00C25EE
:101CA00000E0641CAC420CD2DFF8B46356F8246048
:101CB0001F46BE42F5D113460A462146FFF7C1FF33
:101CC0002346184640B2F2BDDFF894134FF0FF32BE
:101CD00041F82020082802DB084480F8482070479B
:101CE00038B5DFF87C4394F85400002801D0082070
:101CF00032BD002503E02846FFF7B2FF6D1C202D02
:101D0000F9DB002503E02846FFF7DEFF6D1C0C2DF4
:101D1000F9DB07210620FFF74FFE4FF4BE70FFF7F7
:101D200075FE4FF00040FFF784FE012084F8540058
:101D3000002032BDDFF8280390F85410481E80417F
:101D4000C043C00F7047F8B506460F46154600243D
:101D5000FFF76FFF002801D0082427E0FA78294612
:101D60003046FFF790FF054615F1010F1DD0B878FA
:101D7000002803D03046FFF7D7FE03E079783046DD
:101D8000FFF7BEFE3A78F878002804D0314628469E
:101D9000FFF76EFE0AE0B248411991F8481041EA97
:101DA0008211284480F8481000E004242046F2BD47
:101DB00070B504460D46FFF731FF002820461AD0C3
:101DC000FFF756FFA649084490F848008009032809
:101DD00008D12046FFF7CFFE002801D0032106E0FE
:101DE000022104E0012801D1022100E00321204664
:101DF000BDE87040A6E6FFF704FF002819D0204692
:101E0000FFF736FF0646FFF721FEB00000F58070B1
:101E100000B2FFF7FBFD002D0BD02046FFF728FF97
:101E2000FFF72CFF002804D00120B040BDE870402F
:101E3000FFE570BD10B50446FFF7F0FE002804D0A2
:101E400000212046BDE810407CE62046FFF7D9FE81
:101E500000280AD02046FFF70BFF0446FFF7FFFDDE
:101E60000120A040BDE81040E7E510BD10B50446D4
:101E7000FFF7E0FF2046FFF7C4FE002804D020460D
:101E8000FFF7F6FEFFF71BFE2046FFF743FE204656
:101E9000FFF7EEFEC0B2FFF717FF2046BDE8104087
:101EA000DEE680B5FFF767FE401E8041C043C00FED
:101EB00002BD2DE9F04385B0002568462946016042
:101EC0004FF4807601270C4612E0304600B2FFF74F
:101ED00093FD002809D03846FFF7B3FD002804D051
:101EE000304600B2FFF792FD3D437F00361D641C73
:101EF000082CEAD34FF4BE70FFF77EFD00280AD00D
:101F00004FF4BE70FFF782FD45F000456A4601219F
:101F10000020FFF74BFE280618D00127002413E00D
:101F20002F420FD02046FFF7BBFD06462046FFF7A5
:101F3000BEFD80462046FFF7A1FE020002D04146CA
:101F4000304690477F00641C082CE9D3002D7CD5D7
:101F500003A800210160084603E04FF0FF30029023
:101F600001200028F9D000252C460BE00221304644
:101F7000FFF7E8FD6D1C4046002802D03946304688
:101F8000C047641C042C3CD23548204490F95000D2
:101F90000746FFB227F0C00610F1010FF1D002A9E9
:101FA0003046FFF71AFE0028EBD0B81100F0030707
:101FB0003046FFF75DFEFFF761FE8046002801D145
:101FC000032FDED1032F03D103A93046FFF70DFE07
:101FD0003046FFF7DBFD814669463046FFF7FDFDE1
:101FE000002802D0B9F1020F04D00028C9D1B9F1FC
:101FF000030FC6D1032FBED1B9F1020FB6D1032111
:10200000B5E72846C0B200281CD0012401AA214609
:102010000020FFF7CBFD002000E02046002804D17F
:10202000019800998842F8D00024002C01D00025A6
:1020300008E0002004E0019800900398029001203D
:102040000028F8D0EDB2002D8DD105B0BDE8F083A9
:10205000046300400863004010650040FFE0FCFF9F
:102060004C2D0020000000500121DFF858231150B2
:102070007047DFF850130858401E8041C043C00F1E
:10208000704781B0DFF83C1300220A5008580090D6
:10209000009801B0704710B40001DFF82C331C1811
:1020A0006260195010BC7047DFF820130860704759
:1020B000DFF81C13086070470120DFF81813086070
:1020C0007047DFF81423106051607047DFF80C137D
:1020D00008607047DFF808130860704770B584B077
:1020E000DFF8004304F12D054FF48270FFF7C1FFC4
:1020F000002827D04FF48270FFF7C3FF6878A978D3
:1021000081F0010108421DD100218DF800106168A5
:1021100001912189ADF80810E168002902D1002061
:1021200020740AE0228B6283616022810021E160D9
:10213000002802D10846FFF797FF684621688847C4
:102140000020A8706878002836D04FF48070FFF720
:1021500090FF002830D04FF48070FFF792FF29786D
:102160000A46638B10461E46B0420AD2981A608314
:102170006268238980B2181A02EB4000FFF7A1FFC2
:1021800013E018461646B04209D1E068002806D090
:102190000122AA7000226283FFF793FF05E09342B9
:1021A00003D10120A870002060834FF48270FFF7F4
:1021B00068FF0420FFF758FF4FF48870FFF759FFBE
:1021C00000280BD04FF48870FFF75BFF00202074CD
:1021D00002208DF800006846216888474FF48A7015
:1021E000FFF747FF002806D04FF48A70FFF749FF3A
:1021F000002020747FBD656926E0B5FA85F04FF0B8
:102200000041C1408D43800000F58C76304600B21D
:10221000FFF72FFF002817D0304600B2FFF731FF3D
:1022200001208DF8000036B2A6F58C70C0088DF83C
:102230000400F6B2B00800F0010080F001008DF853
:102240000500684621688847002DD6D17FBD70B54E
:102250000646DFF8904104F12C052878002801D0CB
:10226000082070BD080001D1072070BD002E01D1EB
:102270000FF2741621603078FFF728FF7078FFF7AF
:1022800029FFF078A8700120287000202074687061
:102290006061E8706FF00040FFF70AFF4FF4827052
:1022A000FFF7EFFEB1780720FFF786FB0220FFF76C
:1022B000FBFEA878002802D00120FFF7F5FEFFF70B
:1022C000FBFE002070BD38B504460D46454800F1C0
:1022D00010010A78002A01D0112032BD00EB440021
:1022E000027F002A02D14A7F521C4A77E97901779E
:1022F000297A41772946204601F018F82A7AE979A7
:102300002046FFF7C8FE002032BDF8B506460F464E
:10231000344C04F110052878002801D01120F2BDBA
:10232000012028700320FFF7C3FE01213846FFF784
:10233000C8FE687F022809DB002705E0002211465D
:102340003846FFF7A8FE7F1C082FF7DB04EB46009A
:10235000427F017F3046FFF79EFE0020FFF784FE9C
:102360000420FFF781FE42F2107600E0761E4FF463
:102370008270FFF77EFE002801D1002EF6D14FF4C7
:102380008270FFF77EFE687F02280DDB002607E0E3
:1023900004EB4000427F017F3046FFF77CFE761C55
:1023A000F6B230460828F3DBA87F002803D00320CC
:1023B000FFF77AFE02E00220FFF776FE0020287089
:1023C000F2BD000000700040107500400473004032
:1023D00008730040007500402C760040F075004006
:1023E000F47500400C2F0020030007004FF0A040C0
:1023F000704771B581B00C4615461E4601A8FFF71F
:10240000F5FF44EA450141EA8602069942EA0122C3
:10241000079942EA0141019A00EB8200C0F80017D7
:1024200073BD00B583B00021019100910B460122DC
:102430001146FFF7DEFF07BD00B583B00022019211
:1024400000920B461146FFF7D4FF07BD01B5684661
:10245000FFF7CCFF0121009A914000F01DF801BD6B
:1024600001B56846FFF7C2FF0121009A914000F0D4
:1024700016F801BD002900D1F2E7E7E701B568468B
:10248000FFF7B4FF00F005F80099C84000F0010024
:1024900002BDD0F810057047C0F808157047C0F8A5
:1024A0000C157047E0B511208DF8080009220FF2D5
:1024B0005C5102A87CDF002801D0FEF7B5F80022AD
:1024C0000821684600F00CFF1020ADF800003C2009
:1024D000ADF802000020ADF804004FF4C870ADF86C
:1024E000060068467ADF002801D0FEF79DF807BD98
:1024F00030B4DFF8DC0401230370002303E0CC5C7C
:10250000C5182C765B1C9342F9D330BC704780B55C
:10251000DFF8C00400906946DFF8BC04FFF7BBF9A0
:10252000002801D0FEF780F801BD0078002808D10E
:102530003B21DFF8A804008876DF002801D0FEF7F1
:1025400073B87047FEF770B800B587B000221C2141
:10255000684600F0C5FE002000904FF42030019046
:102560004FF47020029003208DF80C000020ADF88D
:102570000E008DF81000DFF868040590DFF86404A1
:102580000690684600F037FF002801D0FEF74CF8AF
:1025900007B000BD80B5002000F0ABFB002801D0E3
:1025A000FEF742F801F039F8002801D0FEF73CF8B8
:1025B00032DF002803D0BDE80240FEF735B801BD88
:1025C00080B500280AD003280BD1022000F091FB2F
:1025D000002806D0BDE80240FEF726B8BDE801405D
:1025E000D8E701BD10B588B004462088022851D034
:1025F00010280ED0112818D0132823D03B2839D00A
:1026000051284FD0522829D0552873D0562839D078
:1026100077E0072000F06DFB002801D0FEF704F8FA
:10262000A088DFF8B81308806BE0002000F061FBA1
:10263000002801D0FDF7F8FF4FF6FF70DFF89C137C
:1026400008805EE000231A468521DFF890030088A9
:102650007FDF002855D0FDF7E7FF52E000231A4640
:102660001146DFF878030088A9DF002849D0FDF77C
:10267000DBFF46E01321A08876DF002841D0FDF77C
:10268000D3FF3EE01321A08876DF002839D0FDF784
:10269000CBFF36E00021A08867DF002831D0FDF7AE
:1026A000C3FF2EE06846A11D102201F001F89DF83D
:1026B0000000002825D09DF80800042803D0062833
:1026C00001D005281DD19DF80000022803D1022069
:1026D0008DF8100002E001208DF810004FF4C17059
:1026E000ADF8140004A9A088A8DF002809D0FDF7E0
:1026F0009BFF06E01721A088ADDF002801D0FDF781
:1027000093FF08B010BD10B5044600F01CFF214631
:10271000B148FFF7B0F82046FFF764FF204601F00C
:10272000D8F92046BDE8104000F088BF00B589B058
:102730000FF2E8200068009000235022AA49684662
:1027400001F0CEFA002801D0FDF76EFF01AA0121A9
:10275000002001F013FB002801D0FDF765FF1720D2
:10276000ADF8140001A801F023FB002801D0FDF70B
:102770005BFF9E4801F0EAFA002801D0FDF754FF04
:1027800009B000BD80B5042806D0072810D00A285B
:102790001ED1BDE80140FDE613219048008876DF98
:1027A000082815D0002813D0BDE80240FDF73CBF33
:1027B0008A4800884FF6FF71884209D101F0A7F9D5
:1027C000082805D0002803D0BDE80240FDF72CBF43
:1027D00001BD00B5A7B000223C2118A800F080FD83
:1027E00002208DF8600000208DF8620005208DF831
:1027F000630000223C2109A800F072FD0120ADF821
:1028000034007B480E900022202101A800F068FDD2
:1028100001208DF80700402005901E200690002022
:102820000090744B01AA09A918A801F045F80028E6
:1028300001D0FDF7F9FE27B000BD10B582B0044607
:102840006D4A40F6CD41012000F05CFA002801D02D
:10285000FDF7EAFE6946002000F017FF002801D0CE
:10286000FDF7E2FE9DF80000022801D1012000E002
:102870000020207013BD3EDF002801D0FDF7D4BE3C
:10288000704710B501F05EFE5C4CA060E168411A33
:102890002161E0606088401C60806178002908D177
:1028A00080B2652805DB0120607000210220FFF75F
:1028B000E1FDFDF767FA01F045FE6061A168401A8D
:1028C000A0612169B0FBF1F000EE100AB8EE400AF9
:1028D00084ED010A2078401C207010BD80B5484A64
:1028E00001210FF2341001F0C2FD002803D0BDE831
:1028F0000240FDF799BE01BD80B50022422141484A
:1029000001F0CDFD002803D0BDE80240FDF78CBEEC
:1029100001BD80B53B4801F0DFFD002803D0BDE8D4
:102920000240FDF781BE01BD80B50220FFF779FDB1
:1029300001210220FFF79EFD00210A20FFF77CFD08
:1029400000210920FFF778FD0320FFF76AFD0A2028
:10295000FFF794FD00280DD001210320FFF78AFD29
:102960000A20FFF78BFD002804D00920FFF786FD21
:102970000128F5D10023244A0521184601F048FD1D
:10298000002801D0FDF750FE6846FFF756FFFFF71D
:10299000CDFEFFF787FDFFF7BAFDFFF71AFFFFF740
:1029A000D3FD032001F014F8002801D0FDF73CFE10
:1029B000FCF794FDFDF7EEFBFFF790FFFDF7F1FF4D
:1029C000FDF768FFFFF798FFFFF755FFFCE70000F2
:1029D00018220020F1240200F02E0020882300207D
:1029E0002B25020045250200A42D00200727020008
:1029F000D0210020C125020085270200BC2F002025
:102A0000832802005C2F0020102C00206F72696F59
:102A10007269302E310000005C2F00200100000799
:102A20004FF0A040704711B581B00C4601A8FFF7E8
:102A3000F7FF019900EB8101D1F8002722F4403221
:102A4000C1F80027019900EB8100D0F8001741EA96
:102A50000441C0F8001713BD10B5DFF87C4304F142
:102A6000200001F039FD04F14000BDE8104001F004
:102A700033BDFEF712BE2DE9F04106460F46002594
:102A8000FEF718FE0446042C39D2002F20D0022F66
:102A900030D034D2DFF8407304EB440007EB000879
:102AA00098F8005098F8010000280CD007F10E02A9
:102AB000786900EB8001490007F1600001F0EFFC4C
:102AC000002800D1BE7398F802003919087416E086
:102AD000C14F07F1600001F0FFFC04EB440007EB7D
:102AE000000898F802003919097C0246914206D183
:102AF000054604E0B84804EB440108444578280042
:102B000007D0B54FF969080003D02846BDE8F04169
:102B10000847BDE8F08102210078ACE770B50546B2
:102B20000026AD4C607B002803D030466073FEF772
:102B300090FD2846172800F2D080DFE800F0AC0CAA
:102B40000C2732425D6A707C707CCB8A8A8A8A8AC2
:102B5000ACB0B8C0CBCB2E460020FEF765FD0028F8
:102B60000AD00020FEF770FD022E02D14FF4E16082
:102B700035E04FF47A6032E00020FEF760FD022E6F
:102B800001D1C8202BE04FF4C87028E03046FEF792
:102B90004BFD00281FD03046FEF756FD4FF448701D
:102BA0001DE03046FEF740FD0028304604D0FEF719
:102BB0004BFD4FF47A6012E0FEF741FD4FF4C87010
:102BC0000DE03046FEF730FD002804D03046FEF719
:102BD0003BFDC82003E03046FEF731FDC8202573D9
:102BE000002261696423B0FBF3F0414304F120004B
:102BF00001F055FC064670E03046FEF73EFD06202B
:102C000020733246616904F1200001F048FC064659
:102C100063E03046FEF713FD072020735DE00120DE
:102C20006073FEF72AFD3246616904F1200001F06D
:102C300036FC064651E001206073FEF71EFD324669
:102C4000606900EB800104F1200001F028FC0646D9
:102C500043E004F1400001F03FFC0646D5F11100CD
:102C600015D0002E13D102280DD300226169C8238C
:102C700013FB00F06423B0FBF3F0414304F1400088
:102C800001F00DFC06460220FEF7D9FC25E00220EB
:102C9000FEF7DAFC21E0FEF7DCFC25731DE0FEF711
:102CA000D8FC3046FEF7CBFC1320207315E0FEF76E
:102CB000D0FC0120FEF7C3FC142020730DE0FEF7CA
:102CC000C8FC3046FEF7BBFC0120FEF7B8FC15201F
:102CD000207302E0FEF7C7FC2573304670BD3E4806
:102CE000017EC90701D5007B18E770470220FEF777
:102CF000C4BC01460020384A127ED20701D50846DE
:102D00000CE77047F8B504460D4600263248456189
:102D10008461C261A00723D5374606E0012211462F
:102D2000384600F035F806467F1C042F01D2002EED
:102D3000F4D0002E06D16A0804210FF2C80001F079
:102D40005DFC0646002E02D101F08EFC0646002EE8
:102D500006D1224A00210FF2A80001F088FB0646A6
:102D6000E00701D5FEF78DFC002E06D11C4A00219C
:102D70000FF2840001F07BFB0646002E06D1194AB3
:102D800001210FF2780001F072FB06463046F2BDD9
:102D9000002304281DD2012A05D1012902D100F106
:102DA0000E0200E01A4600290DD0022905D010D2EB
:102DB000094900EB40000A540CE0074900EB4000D1
:102DC0000844427006E0044900EB40000844827069
:102DD00000E0072318467047902B0020172B0200B5
:102DE000DF2C0200ED2C020080B5FEF772FC0321FF
:102DF000FFF719FE002002BDB02B0020D02B0020D1
:102E0000F02B00200D000300772A02000E000300C3
:102E1000772A02000F000300772A02001000030047
:102E2000772A020038B50FB4DDE9020101F036FC63
:102E30000546DDE9000101F031FC012DB8BF012894
:102E400030DA0198002807D5DDE9000181F0004162
:102E5000CDE90001082400E000240398002807D5EC
:102E6000DDE9020181F00041CDE9020184F00604B0
:102E7000DDE90201DDE9002301F030FC04D201F0BC
:102E800045FC41EC100B29E0002D08D5DDE90001DF
:102E9000DDE9022301F03AFC41EC100B20E09FED4C
:102EA000150B1DE0022808BFDDE9000120D0022D2E
:102EB00008BFDDE902011BD0854201990CBF9FEDDF
:102EC0000F0B9FED0C0B002903994CBF0824002425
:102ED000002948BF84F00604012801D184F00204CF
:102EE000224605B0BDE8304051EC100B01F03CBD6E
:102EF00005B030BD00000000000000000000000030
:102F00000000F03F80B553EC112B51EC100BFFF794
:102F100089FF41EC100B01BDD0B52DED048B82B0C3
:102F200041EC180B8DED008BDDE90023C3F30A5152
:102F300040F2FF72914212D019B9C3F31301084352
:102F400011D051EC180B0022002301F0C7FB3DBF4C
:102F500081F0004141EC180B0824002409E0C3F380
:102F600013010843EDD002B051EC180BBDEC048BFB
:102F7000D0BD51EC180B2B4A2B4B01F0AFFB1CD2F0
:102F80009FED2B9B51EC190B53EC182B00F0DCF848
:102F900006460F4653EC182B51EC190B01F0DCFDE3
:102FA00032463B46FDF744FD00F056F841EC100B6D
:102FB00051EC180B53EC102B1EE001221B4B01F0BF
:102FC0008DFB23D29FED1A9B51EC190B53EC182B60
:102FD00000F0BAF806460F4653EC182B51EC190BCB
:102FE00001F0BAFD32463B46FDF722FD00F034F811
:102FF00084F0020453EC182B01F088FB02B0224647
:10300000BDEC048BBDE8D04001F0AEBC01F018FE71
:103010002121016002B04FF0FF30BDEC048B6FF056
:103020000041D0BDCE3B7F669EA0E63F0000F03F52
:10303000000000000000F03F80B551EC100BFFF7DE
:103040006BFF41EC100B01BD51EC100B10B500F003
:1030500003F841EC100B10BD40F2FF7C0B0D4DD07E
:10306000634566D230B421EA035141F4801103F282
:10307000FD3C5FEA5C0C01D300184941890041EA3C
:10308000907180004FF440140023E202D50AB1F59C
:10309000100107D46D081DD2091B6419001849419D
:1030A000491BF7D56D080AD20919641B001849415C
:1030B000491BEFD56D08F7D301E0520817D0C018AF
:1030C00061419B1AAC4100184941801AA941F4D4CE
:1030D00052080AD0C01AA1419B186C4100184941FE
:1030E000801AA941E9D45208F4D15B1C6C416108F3
:1030F0004FEA330001EB0C5130BC704750EA01033A
:10310000FBD030B4B1FA81F311B9B0FA80F41B19D5
:103110000B3BB3F120042FBF00FA04F19940C3F137
:10312000200420FA04F438BF21439840D3F101036E
:103130009DE76345E1D011F5801FDED850EA4101DB
:10314000DBD0D94301F082BDF0B44FF0004591EAE5
:10315000030F44BF6B4001F009BD00BF841A71EB3F
:10316000030604D26E40001BB141121973414FF4A3
:10317000001C1CEB410F34BF7CEB430684E00C0DBC
:10318000A4EB1356362E7DDC012E43DC45EAC32327
:1031900043EA525312BFD20292025B08240545EA69
:1031A000C12141EA5051D2EBC020994125D407D129
:1031B000B0FA80F610FA06F164D00020203608E05C
:1031C000B1FA81F6B140C6F1200220FA02F21143B1
:1031D000B0404FEAF474B4EB465434F001064FEAC1
:1031E00074040AD8D6F50016760D04F00044F040B9
:1031F00061FA06F25040F1404840C00A40EA4150AE
:1032000021F0004128BF5FEA500550F1000044EB77
:10321000D12137E045EAC323DB0A45EAC121C90AC7
:10322000B6F120050EDD42EA0242120CC5F120067D
:1032300003FA06F6EB4042EA06056D42984161F159
:1032400000010DE062FA06F5F240554063FA06FC13
:1032500082EA0C02F3405A406D42904161EB030157
:1032600011F4801F05D1641E620502D06D0040413B
:10327000494121F48011430875F1004350F10000E9
:1032800041EB0451F0BC70471CEB410F15D223F009
:10329000004352EA43060BD04FEA4C0CBCEB410F03
:1032A00004D80C0D661E342EB7DDEBE7801A994169
:1032B00050EA410608BF0021E4E708BF1CEB430FBA
:1032C00028BF6FF00001DDE70178407841EA002077
:1032D000704780B5FFF7F8FF00F0010002BDFEE780
:1032E00062F30F2262F31F4200B500BF130096463F
:1032F0009446103928BFA0E80C50FAD85FEA417C08
:1033000028BF0CC048BF40F8042BC90728BF20F8CD
:10331000022B48BF00F8012B00BDFEE710B40001EE
:10332000164B1C186260195010BC70470A7802F0E6
:1033300003024B781B0103F030031A438B781B0206
:1033400003F4E0631A43CB781B0303F480531A435E
:103350000B791B0403F4E0231A434B791B0503F498
:1033600080131A438B791B0603F080731A43034BB7
:1033700003EB00139A600A7AC979CFE71075004011
:103380004088784902460B889A4204D34988814292
:1033900001D3012070470020704710B582B0724CF5
:1033A000E08B4FF6FF71884224D0217F491C2177A2
:1033B000227BC9B28A4208D36A4975DF002819D036
:1033C000A1690A0016D0884713BD00212177217C0E
:1033D000002907D03B2176DF002803D0A1690A002D
:1033E00000D088476169080004D000208DF80000F3
:1033F0006846884713BD38B504465B4D28462146CC
:103400001C2200F065F9002068772168554C0029DE
:10341000204614D0082200F04BF920467ADF00281D
:103420000CD14FF6FF70E883002028774F4A014601
:103430000FF24010BDE8384001F019B832BD7BDF13
:103440000028EED032BD10B582B0474C4848FFF797
:1034500097FF00281DD1607F002808D0616908000F
:103460001FD000208DF800006846884719E0207FB3
:10347000002801D1616800E0A168002204F1200069
:1034800001F00DF800280CD0A1690A0009D0884786
:1034900007E06169080004D001208DF8000068464B
:1034A00088470020607713BD10B501462E4C8888F0
:1034B000E0832F481031082200F0FAF8002020772E
:1034C000E089002802D1BDE81040BCE710BD10B56E
:1034D000254C4FF6FF70E0830020207704F1200098
:1034E00000F0FAFF002805D0A1690A0002D0BDE86B
:1034F0001040084710BD10B51B4CC188E2899142AD
:1035000016D1018A022913D11230FFF7E2FE0028FA
:1035100002D0BDE8104096E704F1200000F0DCFF87
:10352000002805D0A1690A0002D0BDE81040084774
:1035300010BD80B501460E480831082200F0B8F8E9
:10354000BDE801407FE70188102906D0112905D088
:10355000122905D0502902D07047A5E7B7E7CAE77E
:10356000E7E7000018300020F42D00209B33020014
:1035700020300020142E002080B5012200210846B2
:10358000FFF706FC002801D0072812D107220221EC
:103590000120FFF7FDFB002801D0072809D10422F4
:1035A00002210020FFF7F4FB002801D0072800D1FA
:1035B000002002BD80B5012202210020FFF7E8FBB8
:1035C000002801D0072812D1072202210120FFF78D
:1035D000DFFB002801D0072809D10A220021084674
:1035E000FFF7D6FB002801D0072800D1002002BD3C
:1035F00010B504460120FFF73CFA002802D0022053
:10360000207010BD0020FFF734FA002802D00B20F4
:10361000207010BD0020207010BD80B50020FFF785
:10362000E3FB002801D0062807D10120FFF7DCFBCF
:10363000002801D0062800D1002002BD10B5008866
:10364000102802D0112810D010BD184C6068002836
:1036500007D1FFF791FF002803D021680A0000D0AE
:1036600088476068401C606010BD104C6068401E58
:10367000606009D1FFF79EFF002805D021680A008D
:1036800002D0BDE81040084710BD38B50024074DF2
:103690002860002902D00846FFF7AAFF68680028C2
:1036A00002D1FFF787FF0446204632BD28300020B4
:1036B00062B38B0708D0521E11F8013B00F8013BA2
:1036C00000F024808B07F6D1830740F0208000BFF4
:1036D000103A07D330B4B1E83810103AA0E83810E7
:1036E000F9D230BC530724BFB1E80810A0E8081095
:1036F00044BF51F8043B40F8043BD20724BF31F8E3
:10370000022B20F8022B44BF0B7803707047083A55
:1037100007D3B1E80810083A40F8043B40F804CB5E
:10372000F7D25307E4E7FEE7DFF818048079704723
:10373000002100E0491C062904D2425C002AF9D08D
:103740000120704700207047C17B012903D1808888
:10375000DFF8F4134884704710B50021DFF8E42344
:103760001171DFF8E4438088618C88420AD101201E
:1037700000F02EF9002805D0A16A0A0002D0BDE8A9
:103780001040084710BD80B5684601F065FA009802
:10379000401E8041C043C00F02BD000038B5054641
:1037A000DFF8A44304F12D00FFF7C2FF6D1E032DC7
:1037B00018D8DFE805F002080D12617802461142C0
:1037C00001D0012032BDA178014201D0022032BDDA
:1037D000E078002801D0032032BD2079002801D0F4
:1037E000042032BD002032BD0121DFF85823517082
:1037F000DFF858134160012101700021818141816E
:10380000084670470221DFF83C235170DFF8381377
:1038100001F12C02426001220270CA68828189682B
:1038200041810020704738B50446DFF81C03016968
:1038300061814169A181DFF80C530078297981F019
:103840000101084211D0FFF76FFF00280DD00220C0
:103850002072DFF8FC020421C170002101F0E2FCBB
:10386000002805D10520687001E003206870002061
:1038700032BD38B50446B44881696181C169A1810E
:10388000B04D0078297981F00101084210D0FFF78E
:103890004BFF00280CD002202072AD480421C170DB
:1038A000002101F0BFFC002805D10620687001E06E
:1038B00004206870002032BDF8B504460D46002C87
:1038C00001D0002A01D10E20F2BD9F48012180F8CD
:1038D000201000219B4EB17092EC080B80EC080B7D
:1038E0004362069981624FF6FF71418400220721ED
:1038F0002C30FFF7F5FC964E00223C213046FFF7B6
:10390000EFFC20783070A078B070E078F0706078CC
:103910007070D4E90401C6E90401D4E90201C6E9E2
:103920000201D4E90601C6E90601606A002813D045
:10393000884800F1400171628860626A12880A80DA
:10394000626A92888A80002104E0636A9B685B5CFB
:103950004354491C9142F8D3A06A00281ED07D48E8
:1039600000F1400100F120024A6100F14C02B26214
:10397000A26A92880A82A26A12888A81002206E0DC
:10398000A36A9B689B5C871887F82030521C0B8ABF
:103990009A42F5D394F82C0086F82C00206A00286F
:1039A0000BD06C4800F15801316200F14001206AEF
:1039B00040884883206A008808836068002800D017
:1039C000706029463046BDE8F44001F02BBC000091
:1039D0007FB506465C4C94F82000002801D10820F1
:1039E00075E0584DAE70FFF7CEFE002803D00120E1
:1039F000287000206BE00022072104F12C00FFF763
:103A00006FFC6078002802D0A87801280AD0A0783E
:103A1000010002D0A978012904D000280CD0A87890
:103A2000022809D1616A080004D00120E87008204A
:103A3000884701E00020E8703046FFF7AFFEA8702D
:103A4000616A0A0010D0032801D004280CD1207824
:103A50002A7982F00102104206D00020A8710120CC
:103A600068710720884701E000206871002210215A
:103A70006846FFF735FC00208DF800008DF808003F
:103A8000A878042816D8DFE800F01303070B0F000E
:103A90006846FFF7A9FE0DE06846FFF7B3FE09E0B0
:103AA0006846FFF7C0FE05E06846FFF7E2FE01E06A
:103AB00000206870A878002803D0684673DF0028CB
:103AC00005D1616A080001D068788847002004B0F9
:103AD00070BD10B504462088102804D011280BD0E2
:103AE0001B2810D010BD01201B490870FDF7BBFD3D
:103AF0002046BDE8104027E6002017490870204600
:103B0000BDE8104028E601201449087010BD10B52A
:103B100074DF0C4C012020710020A0710C4806219C
:103B2000C170002101F07EFB00280AD1A078FFF7C8
:103B30004FFF002804D00449896A0A0000D0884752
:103B4000002010BD30300020A42E0020D02E0020F8
:103B5000342E0020F02C00203B3000203A30002092
:103B6000012100F01F029140DFF85822400942F87D
:103B700020107047012100F01F029140924A400935
:103B800042F820107047002807D5904900F00F0038
:103B9000084410F8040C400970478D49085C40093E
:103BA000704700F00301481E8041C00F7047014676
:103BB000202904DA8749C14001F0010070474029FB
:103BC00008DA0121203801FA00F0401E8041C0438C
:103BD000C00F704701207047082807D2002805D081
:103BE000012803D0042801D0052801D10020704706
:103BF0000120704710B50446FFF7D9FF002802D115
:103C000042F2010010BD2046FFF7BDFFFFF7E4FFC1
:103C1000002802D142F2020010BD6F4881680029DD
:103C20000AD0610950F82120012304F01F04A340A9
:103C30001A4340F8212002E02046FFF791FF0020C0
:103C400010BD6049420951F8221000F01F00C14028
:103C500001F001007047FDF7CDBE7CB55F4C2078C8
:103C6000002839D00025E068002801D1012600E0B5
:103C70002E46002D15D1607800282DD1684648DFEA
:103C8000052801D101250CE0002802D0FCF7CCFC6E
:103C900007E0009801F090FB2169080001D000982E
:103CA0008847002E14D16078002815D16088ADF8BF
:103CB000040001A9A06861DF052801D1012607E001
:103CC000002802D0FCF7B0FC02E0A068E168884759
:103CD000284631460842CCD073BD40480078704732
:103CE0002DE9F04104460D4616461F46002D04D02E
:103CF0002846FFF756FF002801D1072024E0DFF80F
:103D0000DC80C8F80850A8F80260C8F804700020E9
:103D1000FFF797FF050002D00020FFF72BFF304987
:103D2000204610DF040006D0002D02D00020FFF74F
:103D300017FF204608E0012088F8000001F041FB51
:103D40001620BDE8F04155E7BDE8F081010001D142
:103D50000E2070472149C8600020704780B51F4879
:103D60004068010006D08047002806D0BDE8024028
:103D7000FCF75ABCBDE801406FE701BD70B50546D0
:103D80000E46144600221C212046FFF7A9FA012006
:103D900020800020A061207D00F0FE0020752672AA
:103DA00065722846002801D00120A072002070BD55
:103DB00082B00C4900910099019101A960DF00993E
:103DC00002B0704700E100E080E100E018ED00E0A3
:103DD00000E400E0FC06FFBC00300020EC2F0020D7
:103DE000573C020028210020012100F01F029140D1
:103DF000DFF80427400942F820107047012100F045
:103E00001F029140DFF8F426400942F82010704765
:103E1000012100F01F029140DFF8E426400942F83A
:103E200020107047012100F01F029140DFF8D426D6
:103E3000400942F8201070474901002807D5DFF8F3
:103E4000C82600F00F00104400F8041C7047DFF88B
:103E5000BC261154704700F00301481E8041C00F7A
:103E600070470000002840D0DFF8A4160968DFF88A
:103E7000A42600BF00BF00BF00BF00BF00BF00BF3F
:103E800000BF91422FD000BF00BF00BF00BF00BFE6
:103E900000BF00BF00BF00BF00BF00BF00BF00BF2A
:103EA00000BF00BF00BF00BF00BF00BF00BF00BF1A
:103EB00000BF00BF00BF00BF00BF00BF00BF00BF0A
:103EC00000BF00BF00BF00BF00BF00BF00BF00BFFA
:103ED00000BF00BF00BF00BF00BF00BF00BF00BFEA
:103EE00000BF00BF00BF0138C3D17047DFF82816FC
:103EF0000860072111209FE780B5DFF820064FF406
:103F00008031016401601120FFF78CFF1120FFF761
:103F10006BFF0120DFF8081608602F20FFF7A2FFD3
:103F20000120DFF80016887201BD10B51120FFF7DF
:103F300065FFDFF8F4054FF4803101640160DFF8BC
:103F4000EC45012020602F20FFF78CFF01206060EE
:103F5000DFF8D045002020612F20FFF783FF0020ED
:103F6000A07210BDDFF8C80500687047401A20F045
:103F70007F407047DFF8BC150860704710B4DFF869
:103F8000A415CA68002A01D1C8601AE01368046841
:103F9000A34204D31B1B1360C261C86011E0114629
:103FA00002E0E41A0A46C969002902D00B68A3425C
:103FB000F7D3002902D00B681B1B0B600460C161A2
:103FC000D06110BC704710B4DFF85815CA681346AA
:103FD0001C4601E02346E469002C01D08442F9D15B
:103FE000002C15D0A3420BD1D069C860002807D19E
:103FF0000120DFF844251060002008610120C8720C
:104000002068E469DC61002C02D02168401820603F
:1040100010BC70471120FBE61420F9E680B5426918
:104020008069DFF80015CB69190008D001461046F9
:104030009847002806D0BDE80240FCF7F5BABDE875
:104040000240104701BDF8B5DFF8D844E668002EFD
:104050002AD00025FFF786FF2169FFF787FF074673
:104060000AE03F1A45193046F669017C002903D061
:1040700000210174FFF7D2FF002E02D03068874282
:10408000EFD2607A217A0246914206D1401C6072DA
:10409000C0B2022801D100206072607A04EB800077
:1040A0004561BDE8F140B7E7F1BD10B4DFF8741425
:1040B0000A7A13464C7AA34212D0521C0A72D2B228
:1040C000022A01D100220A720A7A01EB82025269A5
:1040D00002600869101820F07F400861012002E0AA
:1040E00000210160084610BC704770B5DFF8344409
:1040F0002578E66802E04068FFF765FF28466178AA
:10410000C0B2884219D06068EDB205EB450100EB02
:10411000C1006D1C2946A278C9B2914200D1002588
:1041200001780229E7D00329E8D1E0680028E5D02A
:1041300000210174C069E060F7E7E068B04201D097
:10414000012070BD002070BDF0B40024DFF8D473EE
:1041500011E0801B341900261E60DE69FE60DE68F7
:10416000002E08D0661826F07F465E60DE689E60EE
:104170001668DE611560FD68002D05D02B461E68AF
:10418000B042E6D2301A1860F0BC7047F8B5064667
:10419000DFF89043E5680BE000203860002078608D
:1041A000B860012038740020F8613846FFF7E6FE59
:1041B000002E03D12078617888423FD0002E02D0B3
:1041C0003746FE6921E02078616800EB400201EB90
:1041D000C201401C2070A278C0B2904201D10020E0
:1041E00020704F6808780128E2D1387C0028DFD1A0
:1041F00088687860C868B8600869F8604869B8611C
:10420000E07A002801D00020786022697868811A5D
:1042100021F07F41C94B994206D21146FFF7A6FE15
:10422000B96808183860B9E701461046FFF79EFEE6
:10423000B9688842B0D2081A3860AFE7E068A8428F
:1042400001D00120F2BD0020F2BD2DE9F041B54DB5
:10425000E868002831D00668FFF784FE04462F691D
:104260003946FFF783FE00F10308A87A002801D140
:10427000FFF742FEB04500D2B04608EB070020F041
:104280007F452846FFF776FEFFF76CFE064621467F
:104290002846FFF76BFE054621463046FFF766FECF
:1042A000C01C85420CD2FFF75DFEFFF763FE2F2096
:1042B000FFF7D8FDBDE8F041ACE6BDE8F04134E6DB
:1042C000BDE8F0812DE9FC4100200190954C256965
:1042D000E6686846FFF7E9FE0746FFF706FF8046F7
:1042E000002F06D001AA29460098FFF72DFF4FF0B6
:1042F00001080198FFF74AFF002801D04FF001089C
:10430000B8F1000F02D03046FFF79FFF0020E072A7
:10431000BDE8F38183494870704730B481494A78D9
:10432000531C1C468D78E4B2AC4200D100231C46DD
:104330000D78E4B2AC4201D1002005E0037048687A
:1043400002EB420100EBC10030BC70472DE9F8439D
:1043500005460E4617469846002420468DF8000074
:10436000684601F093F80DF10100FFF7D6FF814692
:10437000B9F1000F01D1042412E0012089F80000F6
:10438000C9F80450FFF7EEFDC9F80800C9F80C6041
:10439000C9F81070C9F814809DF80100FFF7BAFF42
:1043A0009DF8000001F073F8002C01D1FFF734FEF6
:1043B0002046BDE8F28370B582B004460D46002663
:1043C00030468DF80000684601F060F80DF10100FC
:1043D000FFF7A3FF002801D1042605E00570446023
:1043E0009DF80100FFF796FF9DF8000001F04FF8DF
:1043F000002E01D1FFF710FE304676BD5048002157
:10440000016441648164C164016041601BE659E755
:104410002DE9F04104460E46174698463846FFF708
:104420001AFD002801D107201FE0002F01D107202D
:104430001BE0FFF77AFD3B4DC5F81C80002028806B
:10444000AE706F60E86028811420FFF7EBFC072155
:104450001420FFF7F1FC1420FFF7C6FC2046FFF7FD
:1044600045FDFFF77FFD28610020BDE8F0812D4B61
:104470005B68002B01D108207047130001D0002891
:1044800001D1072070470068037C002B01D0082071
:10449000704700230374417442611846704718B492
:1044A000204B5B68002B08D0002806D0052901D2DC
:1044B00007200FE04369002B01D108200AE0437C6C
:1044C000012B01D10C4600E000241346224601B026
:1044D00010BC3BE712BC704712494968002904D060
:1044E000002802D04169002901D10820704700212D
:1044F000017402215FE7000000E100E080E100E0DC
:1045000000E200E080E200E018ED00E000E400E0FE
:10451000802300200024F40008150140041301400A
:10452000001001403C2F00200813014004100140FE
:10453000041501404015014008100140FFFF7F00B5
:10454000001101400EE5FEE7F8B500244E4E0127AC
:1045500008E00022514081F001016A68130000D098
:104560009047641C20463178C0B288421DD27068E2
:10457000E4B200EBC405287807FA00F13269114271
:10458000EFD022EA01013161FDF78BFC014628786A
:10459000F26807FA00F31A4001FA00F39A42E0D1F8
:1045A0006A78012AD5D13A46D4E7F1BD70B50646FE
:1045B000012000FA06F4344D05F11400FFF78CFFDA
:1045C00000281AD12869204215D13046FDF769FC30
:1045D0000028E86802D02043E86001E0A043E860DA
:1045E0002869204328610022A96805F11400BDE86C
:1045F0007040FFF754BFA043286170BD70B582B012
:1046000004460D461646052E01D2072076BDFDF75D
:1046100091FB002803D1FDF763FB002823D11A4842
:104620004460057086600021C16001612846451E16
:10463000002812D00FF2600000680090EDB204EB89
:10464000C50080788DF80100104A694614F83500DD
:10465000FDF779FB0028E9D076BD0D4A00210FF265
:104660003400FFF704FF76BD10B5002406E00121F9
:10467000406810F83400FDF79BFB641C0248017889
:104680008C42F4D3002010BD702E0020AD450200F6
:1046900049450200842E00200300000003B4DDE938
:1046A0000023C3F30A5140F2FF72914206D001B1D8
:1046B0000CE0C3F31301084306D00BE0C3F313016E
:1046C000084314BF0220012002B070474FF0FF30B2
:1046D00002B070476FF0010002B070474FF4001C49
:1046E0001CEB410F94BF1CEB430F09E041EA030CA4
:1046F00050EA4C0C52EA0C0C03D2994208BF90428B
:10470000704714BF8B4282427047FEE72DE9F041AB
:1047100040F2FF7581EA030C0CF0004C15EA1154CD
:104720001DBF15EA1357AC42AF42E9E0BC41C1F3EB
:104730001301C3F31303801A994143F4801304D285
:10474000641E4000494180185941C90241EA505154
:10475000B1FBF3F603FB1611A2FB0675D7EBC020E5
:10476000A94102D2761E80185941C90241EA50512E
:10477000B1FBF3FE03FB1E11A2FB0E75D7EBC020AD
:10478000A94103D2AEF1010E80185941890241EAD4
:104790009051760546EA8E2EB1FBF3F603FB161117
:1047A000A2FB0675D7EB8020A94102D2761E8018A5
:1047B0005941C90241EA50514EEA060EB1FBF3F6E7
:1047C00003FB1611A2FB0675D7EBC020A94102D24C
:1047D000761E80185941C90241EA5051B1FBF3F7E6
:1047E00003FB1711A2FB0735D3EBC020A94167F1EA
:1047F00000070CBF004247F0010766F3D5274FEAD8
:104800001E31B80814F5806414DDBD0775F100424F
:1048100050EB0E5051EB045111F5801F5CBF41EA83
:104820000C01BDE8F0814CF07F6141F0E0410020D7
:10483000BDE8F081BD076D0840EA0E5041F48011DB
:10484000D4F10104B4F120060ADAC4F12006020012
:10485000E04001FA06F3E1401843B24015430EE090
:10486000342C14DCC6F1200445EA40056D0820FA1A
:1048700006F2154321FA06F0A1400D43002175F11F
:10488000004250F1000051EB0C01BDE8F081002026
:104890005FEA0C01BDE8F081CFB992185B41B3FA31
:1048A00083F704BFB2FA82F6BF190B3FB7F12006B7
:1048B0002FBF02FA06F3BB40C7F1200622FA06F624
:1048C00038BF3343BA401CB1E419641E2FE77F425E
:1048D00031F00041B1FA81F404BFB0FA80F6A419B6
:1048E0000B3CB4F120062FBF00FA06F1A140C4F141
:1048F000200620FA06F638BF3143A0403C1B16E7DD
:10490000AC421ABF05EA1357AF4214E050EA410621
:104910001CBF52EA4306BFE750EA410730466146F2
:104920001CBF41EA0551BDE8F08152EA430C08BFC3
:10493000C143BDE8F08100204FF4001616EB410F93
:1049400098BF16EB430F08BF16EB410F24BFC143BE
:1049500005E016EB430F0CBF61464CEA0551BDE87C
:10496000F081FEE7FEE7FEE7D0B51446544A554B0A
:1049700000F08EFD2DED048B41EC180B1DD89FED42
:10498000529B53EC182B51EC190BFCF751F80022F9
:104990004F4B00F0E1F806460F4653EC182B51EC54
:1049A000190B00F0D9F802460B4630463946FFF79E
:1049B000ADFE41EC180B44F0010451EC180B002241
:1049C000444BFFF78BFE05D301224FF0795300F0E3
:1049D0005FFD51D853EC182BFCF72AF841EC190B6A
:1049E00053EC182BFCF724F806460F4653EC192B12
:1049F00039483A49FCF71CF8394A3A4B00F0ACF810
:104A000053EC192BFCF714F8374A384B00F0A4F894
:104A100032463B46FCF70CF853EC182B00F09CF8A0
:104A200006460F4653EC192B31483249FCF700F883
:104A3000314A324B00F090F853EC192BFBF7F8FF9A
:104A40002F4A304B00F088F853EC192BFBF7F0FF9E
:104A50002D4A2E4B00F080F853EC192BFBF7E8FFA2
:104A600000222B4B00F078F802460B4630463946C0
:104A7000FFF74CFE41EC180BA00705D551EC180BC5
:104A800081F0004141EC180B14F007020BD00FF23B
:104A9000880303EBC20251EC180BD2E9002300F0AB
:104AA0005BF841EC180B200705D551EC180B81F091
:104AB000004141EC180B51EC180BBDEC048BD0BD40
:104AC00057CD9E5E1426D13FAA4C58E87AB6FB3FDC
:104AD0000000F0BF000040BE845D57134B57B03F4D
:104AE000B2934C19ED5EE43FBEDE02B90240F83FDE
:104AF000DE39028FC7C0743F8AAB1283000CC83FF7
:104B000024D7E508B6D8F03F0F34580E5895FD3F2E
:104B10000000F03F00000000000000000000000066
:104B200066732D3852C1E03F182D4454FB21F93FE4
:104B300066732D3852C1F03F182D4454FB21F93FC4
:104B400066732D3852C10040182D4454FB21094092
:104B50003FD038C6A6F10440F0B44FF0004591EACA
:104B6000030C44BF6B40FEF7F9BA00BF841A71EB27
:104B7000030603D2001BB141121973414FF4001C0C
:104B80001CEB410F34BF7CEB430443E00C0DA4EB62
:104B90001356352E50DC45EAC323DB0A45EAC12112
:104BA000C912B6F120050DDD63FA05F6EB4086EA81
:104BB0000305124218BF45F00105C01851F100016C
:104BC0000CD213E062FA06F5F2405540F3415A4028
:104BD000B340F3405A408018594107D349085FEA6F
:104BE00030005FEA350528BF45F0010501F5801169
:104BF000420875F1004250F1000041EB0451F0BC55
:104C00004FF4001C1CEB410F38BF70470020090D0A
:104C1000090570471CEB410F10D252EA43060BD036
:104C2000BCEB410F05D80C0DAB43661E342EB5DD31
:104C300002E0AB4380185941F0BC7047F0BC7047AC
:104C4000014800F03CBC0000842300201FB5FFF7A2
:104C5000F7FF212101601FBD002801D1032070470B
:104C60000249496E0160002070470000882C002036
:104C70000870000A48700220704730B583B00446BF
:104C80000D4628880930824201D20C203EBD68467C
:104C90006DDF002822D10820298860542888401C14
:104CA00028801B2180B221542888401C288006229D
:104CB0000DF1010180B22044FEF7FAFC2888801D26
:104CC00028809DF8001049084A1E9241D243D20F15
:104CD00080B222542888401C288000203EBDF0B4B9
:104CE00082B005460C462878012804D1697800294D
:104CF00001D1072049E011880E461F4606F1020C3B
:104D0000674506D3012806D168783018801C874291
:104D100001D20C2039E0581A831EADF800306946E4
:104D200010882044801C7DDF00282ED1297802299C
:104D300007D11846BDF8006080B2B04201D3092007
:104D40000DE00820012908D119466E7889B2B142D8
:104D500000D93146ADF8001001E0ADF80030BDF8E3
:104D60000010FF2901D30C200FE0491C1388E154E7
:104D70001188491C118089B260541088401C108031
:104D8000BDF80010081810800020F6BC704710B560
:104D900082B003460C462088001D824201D20C20BE
:104DA00016BD684679DF002815D1032021885854A4
