:020000040001F9
:10F00000C8290020598302001B1A0200731C020049
:10F01000531D0200332F02000F52020000000000B7
:10F02000000000000000000000000000E3560200A5
:10F030005F6B020000000000DB780200ED8202003E
:10F04000637702000F830200DF8102007112020069
:10F050001B830200C5830200F9340200E737020077
:10F06000C7830200C9830200CB830200CD83020064
:10F07000CF830200D1830200D3830200D583020034
:10F08000D7830200C5670200D9830200DB83020038
:10F09000F1670200DD830200215F0200DF830200CE
:10F0A000E1830200E3830200E5830200E7830200BC
:10F0B00079510200E9830200000000000000000016
:10F0C000EB830200ED830200EF830200F183020074
:10F0D000F3830200F5830200F783020000000000C2
:10F0E0000000000000000000000000000000000020
:10F0F0000000000000000000000000000000000010
:10F1000000000000000000000000000000000000FF
:10F1100000000000000000000000000000000000EF
:10F40000DFF8FC1B0968491CDFF8F42B11600121AF
:10F41000DFF8F02B117070471FB5DFF8EC0B0FC849
:10F420006C4684E80F0014208DF8030011208DF83D
:10F43000020012208DF8010013208DF80000DFF883
:10F44000CC2B6946DFF8C80B01F0ABFD0400002CA3
:10F4500002D0200001F01AFF1FBDF0B583B00400F8
:10F460000D0016001F008DF8045030788DF805004F
:10F470000020DFF8901B087000200090002302227B
:10F4800001A9DFF88C0B01F008FEDFF8780B00789B
:10F490000028FAD00020FEBDF8B504000D001600CB
:10F4A0001F0055F08000DFF86C1B08700020DFF8AB
:10F4B000541B0870781CC0B20090DFF85C3B01223E
:10F4C000DFF8501BDFF8480B01F0E7FDBFB2012F5A
:10F4D00004D1DFF8300B00780028FAD0DFF8380BC1
:10F4E000407830700020F2BD80B50C23DFF82C2B63
:10F4F00022210020FFF7D0FF0020062812DADFF8D3
:10F50000181B01EB400189780902DFF80C2B02EB94
:10F510004002527851FA82F1DFF8042B22F81010E1
:10F52000401CEAE701BDF0EE401A90ED004AB0EE53
:10F53000442A91ED004A34EE204AF0EE442A32EE9D
:10F54000814A82EE844AF0EE443A31EEC24AF0EE4D
:10F55000424A44EE234AB0EE640AB7EE004A34EE63
:10F56000634A24EE224AB0EE443A81ED003A80ED3F
:10F57000000A7047DFF8A80AB0F9000000EE100A90
:10F58000B8EEC00ADFF89C0AD0ED000A30EE600A3F
:10F59000DFF8940AD0ED000A20EE200ADFF88C0A8A
:10F5A000D0ED000A20EE200ADFF8840A80ED000A80
:10F5B000DFF86C0AB0F9020000EE100AB8EEC00ADB
:10F5C000DFF8600AD0ED010A30EE600ADFF8580A71
:10F5D000D0ED000A20EE200ADFF8500AD0ED000A34
:10F5E00020EE200ADFF8480A80ED010ADFF8300A31
:10F5F000B0F9040000EE100AB8EEC00ADFF8240AE1
:10F60000D0ED020A30EE600ADFF81C0AD0ED000AE5
:10F6100020EE200ADFF8140AD0ED000A20EE200ABE
:10F62000DFF80C0A80ED020ADFF8F409B0F90600F1
:10F6300000EE100AB8EEC00ADFF8F809D0ED000AB3
:10F6400030EE600ADFF8F009D0ED000A20EE200A63
:10F65000DFF8E80980ED000ADFF8C409B0F9080016
:10F6600000EE100AB8EEC00ADFF8C809D0ED010AB2
:10F6700030EE600ADFF8C009D0ED000A20EE200A63
:10F68000DFF8B80980ED010ADFF89409B0F90A0043
:10F6900000EE100AB8EEC00ADFF89809D0ED020AB1
:10F6A00030EE600ADFF89009D0ED000A20EE200A63
:10F6B000DFF8880980ED020ADFF884090068002875
:10F6C00000F0A480DFF87C090068401CDFF87419A2
:10F6D0000860002003286EDADFF8441931F91010B1
:10F6E00000EE101AB8EEC00ADFF85C1901EB8001D9
:10F6F00081ED000ADFF82C1901EB800191ED000A81
:10F70000DFED410A30EE200ADFF83C1901EB800101
:10F71000D1ED000AB4EE600AF1EE10FA10D5DFF870
:10F72000041901EB800191ED000ADFED370A30EE9C
:10F73000200ADFF8141901EB800181ED000A24E0B2
:10F74000DFF8E01801EB800191ED000ADFEDE10A3E
:10F7500030EE200ADFF8F01801EB8001D1ED000A4D
:10F76000F4EE400AF1EE10FA0FD5DFF8B81801EB0D
:10F77000800191ED000ADFEDD70A30EE200ADFF8B4
:10F78000C81801EB800181ED000ADFF8C01801EB19
:10F79000800191ED000ADFF8B01801EB8001D1ED96
:10F7A000000A30EE200ADFF8A41801EB800181ED99
:10F7B000000A401C8EE7DFF88C08006840F6B9317B
:10F7C000884223DB0020DFF87C1808600020DFF887
:10F7D000701808600020032818DADFF8701801EBB1
:10F7E000800191ED000ADFEDBC0A80EE200ADFF80F
:10F7F000341801EB800181ED000ADFF85018002277
:10F8000041F82020401CE6E700004842DFF84008AD
:10F810000078002858D1DFF818084068DFF834185D
:10F820000860DFF80C08DFF8081891ED000AB1EE67
:10F83000400A80ED010ADFF8F807DFF818180968B8
:10F840000160DFF8EC078068DFF808180860DFF86F
:10F85000E007DFF8DC1791ED000AB1EE400A80ED19
:10F86000020ADFF8CC07DFF8EC1709680160DFF85F
:10F87000CC074068DFF8E0170860DFF8C007DFF862
:10F88000BC1791ED000AB1EE400A80ED010ADFF8E5
:10F89000AC07DFF8C41709680160DFF8A0078068CB
:10F8A000DFF8B4170860DFF89407DFF8901791EDE0
:10F8B000000AB1EE400A80ED020ADFF88007DFF8A7
:10F8C00098170968016004E1DFF8840700780128CF
:10F8D00040D1DFF85C078068DFF878170860DFF850
:10F8E0005007DFF84C1791ED000AB1EE400A80EDA9
:10F8F000020ADFF83C074068DFF834170860DFF8D9
:10F900003007DFF8501791ED000AB1EE400A80EDA4
:10F91000010ADFF828078068DFF83C170860DFF885
:10F920001C07DFF8181791ED000AB1EE400A80EDD0
:10F93000020ADFF808074068DFF800170860DFF800
:10F94000FC06DFF8141791ED000AB1EE400A80EDD5
:10F95000010ABEE0DFF8F806007802282CD1DFF8B3
:10F96000D0068068DFF8EC160860DFF8C406DFF820
:10F97000C01609688160DFF8B806DFF8D81691ED87
:10F98000000AB1EE400A80ED000ADFF8B006806898
:10F99000DFF8C4160860DFF8A406DFF8A0160968CF
:10F9A0008160DFF89806DFF8B01691ED000AB1EE3D
:10F9B000400A80ED000A8CE0DFF894060078032806
:10F9C0002CD1DFF86C068068DFF888160860DFF855
:10F9D0006006DFF85C1691ED000AB1EE400A80ED9A
:10F9E000020ADFF84C06DFF86C1609680160DFF8E0
:10F9F0004C068068DFF860160860DFF84006DFF824
:10FA00003C1691ED000AB1EE400A80ED020ADFF8E3
:10FA10002C06DFF84416096801605AE0DFF830066A
:10FA2000007804282CD1DFF808064068DFF8241697
:10FA30000860DFF8FC05DFF8F81591ED000AB1EE7B
:10FA4000400A80ED010ADFF8E805DFF808160968CA
:10FA50000160DFF8E8054068DFF8FC150860DFF8B2
:10FA6000DC05DFF8D81591ED000AB1EE400A80ED13
:10FA7000010ADFF8C805DFF8E0150968016028E031
:10FA8000DFF8CC050078052823D1DFF8A40540680D
:10FA9000DFF8C0150860DFF89805DFF894150968ED
:10FAA0004160DFF88C05DFF8AC1509680160DFF80C
:10FAB0008C054068DFF8A0150860DFF88005DFF8E6
:10FAC0007C1509684160DFF87405DFF88C1509685A
:10FAD00001607047000048C20000FA44DFF87C056E
:10FAE00090F9000000281AD1DFF8780590ED001A8F
:10FAF000B8EEC11AB4EE401AF1EE10FA0FD5DFF8E5
:10FB0000600590ED001AB8EEC11AB4EE601AF1EE7D
:10FB100010FA04D50120DFF84415087043E0DFF83F
:10FB20003C0590F90000012809D1F5EE400AF1EEFC
:10FB300010FA04D50020DFF82415087033E0DFF850
:10FB40001C0590F9000000281DD1DFF8180590ED84
:10FB5000001AB8EEC11AB4EE401AF1EE10FA12D53E
:10FB6000DFF8FC040068404201EE100AB8EEC11A4A
:10FB7000F4EE410AF1EE10FA05D55FF0FF30DFF840
:10FB8000DC1408700FE0DFF8D40490F9000010F1E5
:10FB9000010F08D1F5EE400AF1EE10FA03DD002066
:10FBA000DFF8B8140870DFF8B40490F90000DFF84B
:10FBB000B81491F9001088420ED0DFF8A004007844
:10FBC000DFF8A4140870DFF894040078DFF89414C8
:10FBD0000968484340B200E000207047010000205F
:10FBE000DFF8882492F90020012A11DBDFF8802455
:10FBF00092ED001AB8EEC11AB4EE401AF1EE10FA06
:10FC00001DD5BDEEC01ADFF8682482ED001A16E09B
:10FC1000DFF8582492F90020002A10D5DFF850248C
:10FC200092ED001AB8EEC11AB4EE401AF1EE10FAD5
:10FC300005D5BDEEC01ADFF8382482ED001ADFF8D2
:10FC40002C2492F90020002A1AD1DFF8182492ED12
:10FC5000001AB8EEC11AB4EE401AF1EE10FA0FD540
:10FC6000DFF8FC2392ED001AB8EEC11AB4EE601A68
:10FC7000F1EE10FA04D50122DFF8F0331A7059E0E2
:10FC8000DFF8E82392F90020012A13D1DFF8D0230E
:10FC90001268022392FBF3F201EE102AB8EEC11AA9
:10FCA000F4EE410AF1EE10FA04D50222DFF8BC337B
:10FCB0001A703FE0DFF8B42392F90020002A1DD12A
:10FCC000DFF8A02392ED001AB8EEC11AB4EE401A84
:10FCD000F1EE10FA12D5DFF888231268524201EED5
:10FCE000102AB8EEC11AF4EE410AF1EE10FA05D569
:10FCF0005FF0FF32DFF874331A701BE0DFF86C231B
:10FD000092F9002012F1010F14D1DFF85423126888
:10FD10005242022392FBF3F201EE102AB8EEC11A0E
:10FD2000B4EE601AF1EE10FA04D57FF00102DFF8AC
:10FD30003C331A70DFF8342392F90020022A06D0EF
:10FD4000DFF8282392F9002012F1020F17D1DFF813
:10FD50001C2392F90020022392FBF3F2DFF8103308
:10FD60001B685A4310000022DFF800331A7000228B
:10FD7000DFF8FC321A60DFF8FC2212680A6040B239
:10FD80007047DFF8F40290F9000000281AD1DFF87C
:10FD9000EC0290ED001AB8EEC11AB4EE401AF1EE82
:10FDA00010FA0FD5DFF8D80290ED001AB8EEC11A9C
:10FDB000B4EE601AF1EE10FA04D50120DFF8B812A3
:10FDC000087043E0DFF8B00290F90000012809D183
:10FDD000B5EE400AF1EE10FA04D50020DFF89812D3
:10FDE000087033E0DFF8900290F9000000281DD180
:10FDF000DFF888020068404201EE100AB8EEC11A2E
:10FE0000B4EE410AF1EE10FA10D5DFF8740290ED6D
:10FE1000001AB8EEC11AB4EE601AF1EE10FA05D568
:10FE20005FF0FF30DFF8501208700FE0DFF8480293
:10FE300090F9000010F1010F08D1B5EE400AF1EE83
:10FE400010FA03DD0020DFF830120870DFF8280216
:10FE500090F90000DFF82C1291F9001088420ED0C2
:10FE6000DFF814020078DFF81C120870DFF80802CF
:10FE70000078DFF808120968484340B200E000202B
:10FE8000704701000020DFF8002292F90020012ACB
:10FE900011DBDFF8E02192ED001AB8EEC11AB4EEE2
:10FEA000401AF1EE10FA1DD5BDEEC01ADFF8C421DC
:10FEB00082ED001A16E0DFF8D02192F90020002A26
:10FEC00010D5DFF8B02192ED001AB8EEC11AB4EEE9
:10FED000410AF1EE10FA05D5BDEEC01ADFF8942103
:10FEE00082ED001ADFF8A02192F90020002A1AD131
:10FEF000DFF8882192ED001AB8EEC11AB4EE401A6C
:10FF0000F1EE10FA0FD5DFF8782192ED001AB8EE75
:10FF1000C11AB4EE601AF1EE10FA04D50122DFF82E
:10FF200068311A7044E0DFF8602192F90020012A5C
:10FF300009D1B5EE400AF1EE10FA04D50222DFF83D
:10FF400048311A7034E0DFF8402192F90020002A8D
:10FF50001DD1DFF828211268524201EE102AB8EEB6
:10FF6000C11AB4EE410AF1EE10FA10D5DFF81021F3
:10FF700092ED001AB8EEC11AB4EE601AF1EE10FA62
:10FF800005D55FF0FF32DFF800311A7010E0DFF8BE
:10FF9000F82092F9002012F1010F09D1B5EE400AC4
:10FFA000F1EE10FA04DD7FF00102DFF8DC301A70A8
:10FFB000DFF8D42092F90020022A06D0DFF8C8200A
:10FFC00092F9002012F1020F17D10022DFF8B830A9
:10FFD0001A70DFF8A020126810000022DFF89430B9
:10FFE0001A60DFF8882092F90020DFF884301B685F
:10FFF0005A43022392FBF3F20A6040B270470000BA
:020000040002F8
:10000000782F0020C22100204883020001F4010063
:1000100098830200A42F0020D82D0020182E002045
:10002000242E0020482E0020A4210020A8210020FA
:100030003C2E00206C2E0020AC210020602E0020E1
:10004000582F0020542F0020302E0020542E002046
:10005000C02F00205C2F0020602F0020C12F002027
:100060009421002098210020C22F0020C32F0020BF
:100070007C2F0020802F0020C52F0020A0210020F1
:100080009C210020C62F0020C42F0020DFF80C0C7C
:10009000007EC00704D50120DFF8001C487003E093
:1000A0000020DFF8F81B4870DFF8F00B007E8007B7
:1000B00004D50120DFF8E41B887007E00020DFF89A
:1000C000DC1B88700020DFF8D41B4871DFF8CC0BF4
:1000D000007E400704D50120DFF8C01BC87003E094
:1000E0000020DFF8B81BC870DFF8B00B007E0007F7
:1000F00004D50120DFF8A41B087103E00020DFF81D
:100100009C1B0871DFF8940B007EC0060DD5012002
:10011000DFF8881B4871DFF8840B8078012808D04D
:100120000120DFF8781B887003E00020DFF86C1BEB
:100130004871DFF8680B007E800604D50120DFF8E7
:100140005C1B887103E00020DFF8501B8871DFF82A
:100150004C0B007E400604D50120DFF8401BC8711F
:1001600003E00020DFF8341BC871DFF8300B807E1D
:10017000002807D0DFF8240B807EDFF8201B81F8F1
:100180002D0004E00020DFF8141B81F82D00DFF8BB
:100190000C0BC07E002807D0DFF8000BC07EDFF814
:1001A000FC1A81F82E0004E00020DFF8F01A81F834
:1001B0002E00DFF8E80A007F00280ED0DFF8DC0A06
:1001C000007FDFF8D81A81F82F00DFF8D00A90F806
:1001D0002F00DFF8C01A08600BE00A20DFF8BC1A15
:1001E00081F82F00DFF8B40A90F82F00DFF8A41A86
:1001F0000860DFF8A80A407F00280ED0DFF89C0ACC
:10020000407FDFF8981A81F83000DFF8900A90F804
:100210003000DFF8841A08600BE00A20DFF87C1A4F
:1002200081F83000DFF8740A90F83000DFF8681ABF
:100230000860DFF8680A807F00280ED0DFF85C0ACB
:10024000807FDFF8581A81F83100DFF8500A90F803
:100250003100DFF84C1A08700BE00020DFF83C1A80
:1002600081F83100DFF8340A90F83100DFF8301AF5
:100270000870DFF8280AC07F002807D0DFF81C0AC2
:10028000C07FDFF8181A81F8320004E00020DFF8A0
:100290000C1A81F83200DFF8040A90F820000028D8
:1002A00008D0DFF8F80990F82000DFF8F01981F89D
:1002B000330004E00020DFF8E41981F83300DFF8B0
:1002C000DC0990F82100002808D0DFF8D00990F868
:1002D0002100DFF8C81981F8340004E00D20DFF8B0
:1002E000BC1981F83400DFF8B40990F82200002826
:1002F00008D0DFF8A80990F82200DFF8A01981F8EB
:100300002C0004E00420DFF8941981F82C00DFF8B9
:100310008C0990F82300002808D0DFF8800990F8B5
:100320002300DFF8781981F8350004E00020DFF8B9
:100330006C1981F83500704710B50024DFF85C09AE
:10034000407800280CD00120DFF8D4190870DFF8BD
:10035000D009807B50F00100DFF8C41988730BE0EE
:100360000020DFF8BC190870DFF8B409807B10F0BA
:10037000FE00DFF8AC198873DFF8200980780028C8
:1003800062D0DFF8A00990ED000ADFEDCF0A30EE71
:10039000200AF2EE040A20EE200ABDEEC00A10EE9A
:1003A000100A00B2DFF878194862DFF87C0990ED96
:1003B000000ADFEDC50A30EE200AF2EE040A20EE54
:1003C000200ABDEEC00A10EE100A00B2DFF8501984
:1003D0008862DFF8580990ED000ADFEDBB0A30EEC5
:1003E000200AF2EE040A20EE200ABDEEC00A10EE4A
:1003F000100A00B2DFF82819C8620020062816DAB1
:100400000221022290FBF2F2DFF8143903EB8202A0
:10041000526A90FBF1F301FB03F1091AC90008319C
:100420000A41DFF8FC180144CA73401CE6E70120CA
:10043000DFF8EC184870DFF8E808807B50F0020025
:10044000DFF8DC1888730BE00020DFF8D418487060
:10045000DFF8CC08807B10F0FD00DFF8C41888734B
:10046000DFF83808C078002846D0DFF8C4080078E4
:10047000002801D101F0B5F8994890ED000ABDEED1
:10048000C00ADFF89C0880ED0C0A0020022811DA6F
:100490000221DFF88C28126B90FBF1F301FB03F1D2
:1004A000091AC90008310A41DFF8741801444A7575
:1004B000401CEBE701F07DF8002810D08948006867
:1004C000DFF85C1881F83400DFF8540890F8340045
:1004D000DFF84C1808770120DFF858180860012071
:1004E000DFF83C188870DFF83808807B50F0040093
:1004F000DFF82C18887312E0DFF834080078002841
:1005000001D001F077F80020DFF814188870DFF8C8
:100510001008807B10F0FB00DFF804188873DFF808
:100520007C07007900283ED001F083F96B490880F0
:100530006A48B0F9000001F089F9DFF8FC27DFF81C
:10054000FC3701F099F90022DFF8F43701F066FA80
:1005500001F090FB604908605F48006801F0D2FB41
:100560000022DFF8E03701F087F901F0F3FBDFF854
:10057000B01781F83500DFF8A80790F83500DFF8EC
:10058000A017C8750120DFF89817C870DFF890072A
:10059000807B50F00800DFF8881788730120DFF8AF
:1005A000941708600BE00020DFF87417C870DFF8BC
:1005B0007007807B10F0F700DFF864178873DFF8AE
:1005C000DC064079002855D0DFF87C0700683F49F9
:1005D00009680843002841D03C480068DFF840170C
:1005E00081F836003A480068DFF8341781F83700A0
:1005F000DFF854070068DFF8281781F8380035481D
:100600000068DFF81C1781F83900DFF8140790F84C
:100610003600DFF80C170876DFF8040790F837008B
:10062000DFF8FC164876DFF8F80690F83800DFF8B7
:10063000F0168876DFF8E80690F83900DFF8E01663
:10064000C876DFF8DC06807B50F01000DFF8D016AB
:1006500088730120DFF8DC1608600BE00020DFF86B
:10066000C0160871DFF8B806807B10F0EF00DFF8E5
:10067000B0168873DFF8D4060088DFF8A416C887A0
:100680000020022811DA0221DFF89426D28F90FB95
:10069000F1F301FB03F1091AC90008310A41DFF83F
:1006A00080160144CA77401CEBE70020132806DAC5
:1006B000DFF86C160144897B0C19401CF6E7DFF863
:1006C000600680F8214010BD00003443442F002014
:1006D000482F0020502F0020402F0020A22F002064
:1006E0000C2F0020202F002010B50024DFF860061A
:1006F0000068401CDFF858160860DFF858060078DC
:10070000002810D0DFF828060078002804D100F077
:100710005EFF01F07AFB06E0DFF83C060078002877
:1007200001D001F072FBDFF874050078002805D0D5
:10073000FFF7ACFC0020DFF864150870DFF85C05FB
:100740008078002800F0E281FEF7CEFEFEF712FF6F
:100750009FEDDB4ADFEDDA3A9FEDD93ADFF8FC0591
:10076000D0ED022ADFF8F40590ED012ADFF8EC0560
:10077000D0ED001ADFF8E80590ED021ADFF8E00589
:10078000D0ED010ADFF8D80590ED000A01F00EFC6B
:1007900001F092FBDFF8040590F83200002847D002
:1007A000DFF8F80490F8320000EE100AB8EE401AB4
:1007B000DFEDC40ADFF8AC15DFF8AC05DFF864251F
:1007C00092ED000AFEF7AFFEDFF8580580ED000A53
:1007D000DFF8C80490F8320000EE100AB8EE401AB4
:1007E000DFEDB80ADFF88415DFF88405DFF8382577
:1007F00092ED000AFEF797FEDFF82C0580ED000A67
:10080000DFF8980490F8320000EE100AB8EE401AB3
:10081000DFEDAC0ADFF85C15DFF85C05DFF80C25CE
:1008200092ED000AFEF77FFEDFF8000580ED000A7A
:10083000DFF868044079002800F06881DFF83C2583
:10084000DFF83C15DFF83C05DFF8143593ED021AAC
:10085000DFF80C35D3ED010ADFF8043593ED000A1B
:1008600001F0ECFADFF82025DFF82015DFF820058D
:10087000DFF8E83493ED021ADFF8E034D3ED010A33
:10088000DFF8D83493ED000A01F0D8FADFF800055C
:1008900090ED000ADFF8F804D0ED000A20EE200AFF
:1008A000DFF8EC04D0ED010ADFF8E40490ED011A62
:1008B00000EE810A02F080F8F7EE000A80EE800A6E
:1008C000DFF8D00480ED000ADFF8B80490ED000AEC
:1008D000DFF8B004D0ED000A20EE200ADFF8A4040F
:1008E000D0ED010ADFF89C0490ED011A00EE810AB8
:1008F00002F062F8F7EE000A80EE800ADFF8980452
:1009000080ED000ADFF88804806801F0FBF900221E
:10091000DFF8883400F0B0FF01F0ACF9DFF87014B4
:100920008860DFF87004006801F0ECF90022DFF85D
:100930006C3400F0A1FF01F09DF9DFF85814086055
:10094000DFF8400490ED020ADFEDD10A30EE200A14
:10095000DFF8300480ED020ADFF82804806801F037
:10096000D1F9DFF83C24DFF83C3400F085FF01F0DA
:1009700081F9DFF810148860DFF81C04006801F0CA
:10098000C1F9DFF81C24DFF81C3400F075FF01F01A
:1009900071F9DFF804140860DFF80C0490ED000A28
:1009A000F8EE000A30EE201ADFF80004D0ED000A5D
:1009B000DFF8FC13DFF8FC03DFF8D42392ED020A22
:1009C000FEF7B1FDDFF8C80380ED020ADFF8D803B7
:1009D00090ED001ADFF8D403D0ED000ADFF8D81349
:1009E000DFF8D803DFF89C2392ED020AFEF79BFDA7
:1009F000DFF8900380ED020ADFF8AC0390ED001AF7
:100A0000DFF8A803D0ED000ADFF8B413DFF8B40371
:100A1000DFF8802392ED000AFEF785FDDFF874030E
:100A200080ED000ADFF8800390ED001ADFF87C0308
:100A3000D0ED000ADFF89013DFF89003DFF85823B9
:100A400092ED000AFEF76FFDDFF84C0380ED000A1F
:100A5000DFF8400390ED000ADFF87403D0ED000AE0
:100A600030EE600ADFF86C0380ED000ADFF8600307
:100A7000DFF8201309680160884890F835000028E5
:100A800022D1DFF8500390ED000AF2EE040A60EE86
:100A9000200ADFF8F00290ED020AFFF772F9DFF8A2
:100AA000A8120860DFF8E802D0ED020ADFF8E802D9
:100AB00090ED000AFFF712F8DFF81C13086025E03C
:100AC000000000000AD7A33CDFF81003DFF804138E
:100AD00091ED000AF2EE040A60EE200ADFF8A4129B
:100AE00091ED020AFFF7CDF9DFF85C120860DFF83C
:100AF000F002DFF89C12D1ED020ADFF89C1291EDB2
:100B0000000AFFF76BF8DFF8D012086063488079BD
:100B100000280ED0614890F82D00002803D16420F1
:100B200001F090FF08E05D4890F82D0001F08AFF89
:100B300002E0002001F086FFDFF8A802007800281C
:100B400015D05648C07900280ED0544890F82E0091
:100B5000002803D1642001F07BFF08E04F4890F8A3
:100B60002E0001F075FF02E0002001F071FF4B48FC
:100B7000407E800703D50120DFF86C120860FFF784
:100B8000DBFB4648407800281AD0DFF86002006896
:100B9000401CDFF858120860DFF8500200683F4937
:100BA00091F82C10884219DB1422DFF84412DFF888
:100BB000440202F033F90020DFF8301208600DE043
:100BC0005C480068002809D01422DFF82412DFF8FE
:100BD000240202F023F90020564908602000C0B228
:100BE00010BD80B55C20DFF8101208700123DFF81B
:100BF000082210210020FEF730FC0020DFF8F81159
:100C000008700123DFF8F02111210020FEF725FCF8
:100C1000E820DFF8E41108700123DFF8DC21582117
:100C20000020FEF71AFC0A20DFF8CC11087001231F
:100C3000DFF8C42159210020FEF70FFC7F20DFF8E8
:100C4000B81108700123DFF8B0215A210020FEF707
:100C500004FC8020DFF8A01108700123DFF8982140
:100C60005B210020FEF7F9FB08206349087001238F
:100C7000614A5E210020FEF7F0FB10205E490870FB
:100C800001235D4A15210020FEF7E7FB01BD0000AE
:100C900000007AC498210020A02100205C210020BF
:100CA000C02F002080B500208DF800005348006858
:100CB000002834D19DF800006A2806D001236A4636
:100CC0000F210020FEF7E8FBF4E744204A490870B2
:100CD0000123494A12210020FEF7BFFB7C20464930
:100CE00008700123444A11210020FEF7B6FB0123BE
:100CF000414A10210020FEF7B0FB00203E49087059
:100D000001233D4A15210020FEF7A7FB80203A4928
:100D1000087002203849087000203749087001BD6A
:100D2000502B0020D02E0020D82E0020D42E0020C2
:100D3000B82F0020742F00205839B4C876BE154053
:100D40000000D040000034404C2F0020A02F002095
:100D5000842F0020BE2F0020B92F00203C2E002021
:100D6000602E0020B02D0020AC2D0020B82D0020DA
:100D7000B42D0020C02D0020BC2D0020802E00208E
:100D80007C2E0020782E00208C2E0020882E002023
:100D9000842E0020642F0020702F002000000840C7
:100DA0006FA301BC0512843FB4210020B0210020B4
:100DB000042C0020002C00200C2C0020082C0020EB
:100DC000142C0020102C00201C2C0020182C00209B
:100DD000682F00206C2F0020442F0020482F002077
:100DE000502F0020BF2F0020582F0020BA2F0020A6
:100DF0005E2B0020902D0020A42F0020882F0020A3
:100E00000122C9B24250704781B0002209B242505B
:100E100009B242580092009A01B0704709B2405896
:100E2000002801D0012000E00020C0B27047C0F8C7
:100E300004137047C0F8081370470721C0F8001565
:100E40007047C0F80815C0F80C25C0F81035704779
:100E5000C0F824157047C0F84415D2B2C0F8482530
:100E60007047C0F83415D2B2C0F838257047D2B2F6
:100E7000002A01D1002300E00123C9B2012904D0D6
:100E800002D3032907D003D307E053F0020304E0A1
:100E900053F0040301E053F00603C0F854357047E3
:100EA000C9B2C0F8C01570470121C0F8501570478D
:100EB0000021C0F8501570470121C0F84015704757
:100EC0000021C0F84015704710F06040B0F1005F9D
:100ED00001D1012000E00020C0B2704701005FF0A6
:100EE000A04070472DE9F14181B00E0017009846EF
:100EF000089C099D01A8FFF7F1FFF6B2FFB256EA80
:100F000047015FFA88F851EA8801E4B251EA042106
:100F1000EDB251EA0541019A00EB8202C2F80017D6
:100F2000BDE8F3811CB50400002001900020009072
:100F30000023012201212000FFF7D4FF13BD30B5AB
:100F400083B004000D0000200190002000902B00D1
:100F5000DBB2002200212000FFF7C4FF37BD11B52E
:100F600081B001A8FFF7BAFF04000120019910FA2F
:100F700001F1200000F00FF813BD11B581B001A8F8
:100F8000FFF7ACFF04000120019910FA01F12000E5
:100F900000F004F813BDC0F808157047C0F80C1530
:100FA00070472DE9F84F04000D001600B448617930
:100FB000490100EB0107387E002803D00820804655
:100FC000404668E03E60287B022803DA2878FFF775
:100FD000D4FF02E02878FFF7C2FF0120A9492A7850
:100FE00041F822006878FF2808D068788146484692
:100FF000FFF7C3FF4846FFF795FF02E05FF0FF30C1
:101000008146A878FF2806D0A8788246002150465D
:10101000FFF795FF02E05FF0FF308246E878FF2897
:1010200005D0E878FFF79BFFE878FFF77BFF94484F
:10103000617949010844E9788176206883465346FE
:101040004A4629785846FFF7FCFEA9685846FFF73C
:10105000FFFE6A7B297B5846FFF709FF69795846EE
:10106000FFF71EFF3868002803D040215846FFF7DD
:10107000DEFE5846FFF7E1FE3868002804D02979E3
:1010800094F9040001F02AFF0020787601203876D8
:10109000002080464046BDE8F28F2DE9FF41050063
:1010A0000E00170098460A9C0096CDF808808DF82F
:1010B00004708DF80C4000226946280000F08DF87D
:1010C00004B0BDE8F08110B50400A07EFF2802D076
:1010D000A07EFFF744FF0020607600202071201DD5
:1010E0002168884710BD38B504000D00EDB2002D11
:1010F00004D140212000FFF79DFE03E040212000A5
:10110000FFF795FE31BD38B504000D00E80703D5A3
:101110002000FFF7C9FE02E02000FFF7C9FEA80784
:1011200003D52000FFF7C8FE02E02000FFF7C8FE4D
:1011300031BD2DE9F04104000D0016001F0030689C
:10114000002804D03068FFF7BFFE002807D0B06841
:1011500000280AD0B068FFF7B7FE002805D10020AC
:10116000687610208046404635E0327931682000AC
:10117000FFF771FE327BB1682000FFF772FE4FF47B
:101180008C712000FFF740FE39002000FFF7BBFF05
:10119000380703D410212000FFF732FE286800280A
:1011A0000DD14FF48C712000FFF738FE0028F8D0E5
:1011B000A87EFF280CD0A87EFFF7D1FE08E0B80873
:1011C00010F0010090F00101C9B22000FFF78BFF81
:1011D000002080464046BDE8F0812DE9F041804680
:1011E0000C001500264898F80510490100EB01068F
:1011F0000027707E002803D011200700380022E06D
:101200003068002804D015F0140F01D10120707649
:1012100094E80F0016F1080C8CE80F00707F10F0B6
:10122000FE007077707F10F0FD007077B07EFF28B1
:1012300002D0B07EFFF7A1FE2B0022003100D8F8CB
:101240000000FFF776FFBDE8F08138B504000D001F
:101250004FF48C712000FFF7E1FD002807D04FF418
:101260008C712000FFF7D0FD2800FFF72CFF31BD67
:1012700010B5034C21000448FFF7E7FF10BD000044
:10128000342D0020000700500030004010B584B01D
:10129000040068460021002200230EC00C3802948E
:1012A0006A46002144F2010001F03CFE1FBD6400CB
:1012B000012110F01F029140DFF8942340B243094E
:1012C00042F82310704701005FF0A04070472DE9FD
:1012D000F14181B00E0017009846089C099D01A8B5
:1012E000FFF7F1FFF6B2FFB256EA47015FFA88F85E
:1012F00051EA8801E4B251EA0421EDB251EA054114
:10130000019A00EB8202C2F80017BDE8F3811CB518
:101310000400002001900020009000230122012100
:101320002000FFF7D4FF13BD30B583B004000D00DB
:1013300000200190002000902B00DBB20022002151
:101340002000FFF7C4FF37BD11B581B001A8FFF73A
:10135000BAFF04000120019910FA01F1200000F009
:101360002DF813BD11B581B001A8FFF7ACFF040043
:101370000120019910FA01F1200000F022F813BDBC
:1013800038B504000D00002D03D12000FFF7EAFF5F
:1013900002E02000FFF7D8FF31BD11B581B001A8F0
:1013A000FFF791FF0400200000F005F80199C84004
:1013B00010F0010016BDD0F810057047C0F80815F0
:1013C0007047C0F80C157047A24900283DD0A24ACA
:1013D000126800BF00BF00BF00BF00BF00BF00BF5A
:1013E00000BF8A422FD000BF00BF00BF00BF00BFB8
:1013F00000BF00BF00BF00BF00BF00BF00BF00BFF5
:1014000000BF00BF00BF00BF00BF00BF00BF00BFE4
:1014100000BF00BF00BF00BF00BF00BF00BF00BFD4
:1014200000BF00BF00BF00BF00BF00BF00BF00BFC4
:1014300000BF00BF00BF00BF00BF00BF00BF00BFB4
:1014400000BF00BF00BF0138C3D1704710B5040012
:10145000200040B2FFF72CFF10BD804890F8330009
:1014600014307F4908607D4890F834007D49086059
:101470007D4890ED000A7D48D0ED000A30EE600A0C
:101480007B4880ED000A794877490968016079480E
:101490000068002810D1724890ED000AB8EEC00A2A
:1014A0007348D0ED000AB4EE600AF1EE10FA03D5ED
:1014B0000120704908603BE06E480068012820DB8D
:1014C000674890ED000AB8EEC00A6948D0ED000AFE
:1014D000B4EE600AF1EE10FA13D567480068401CBC
:1014E000654908605F4800686349096888421FDAF7
:1014F0000020614908605F480068401C5D49086041
:1015000016E05C480068012812DB5C4890ED000A98
:10151000B8EEC00A5648D0ED000AF4EE400AF1EEEB
:1015200010FA05D500205449086000205149086090
:10153000704738B504000D0051480078002805D0E8
:1015400000F045F801204F49087031E000F0CBF879
:101550004D4908604C480068B0F5702F10DD4A48CE
:101560000068C043401C494908604848006880B290
:10157000464908604548006840424549086003E024
:101580004148006842490860424890ED001A4248CC
:10159000D0ED000A414942483D4A92ED000AB8EEBA
:1015A000C00AFDF7C0FF304880ED000AFFF755FF85
:1015B00031BD3C4800682F490968884205D02D4854
:1015C000006838490860012000E00020704780B5BD
:1015D0001E2001F074FF642000F0A5F800F0EFF881
:1015E00001BD80B50120304908700721062001F0B7
:1015F00075FC01BD80B500202B4908700620FFF75F
:1016000025FF00F0DCF801BD38B501F067FE0400ED
:101610002500002D02D02800FFF738FE234800687F
:10162000009003208DF80100214A69461E2001F038
:101630008BFE04002500002D02D02800FFF726FEB7
:1016400001211E2001F0C7FEFFF7D4FF31BD0000CD
:1016500080E100E00024F400B82100205C2100209B
:1016600048210020442100200C2F0020142F0020AE
:10167000102F0020202F00201C2F00204C210020A4
:10168000BE2F0020B92F0020042F0020182F00208B
:10169000082F0020402100203C210020BC2E0020EB
:1016A000B82E0020242F0020B82F0020B083020085
:1016B0003315020080B51F20FFF729FE242000F01B
:1016C00032F81420FFF780FEFFF79EFF00F077F856
:1016D00001BD80B501211F20FFF752FE00211F2010
:1016E000FFF74EFE01BD38B5002400211E2001F099
:1016F00072FE0025182D0ADAFFF7EBFF64001E20AA
:10170000FFF74BFE002800D0641C6D1CF2E7FFF7CA
:10171000E0FFFFF7DEFFFFF7DCFF01211E2001F0F5
:101720005AFE200032BDF8B5040000200600F6B2D3
:101730001B2E03DAFFF7CDFF761CF8E71E20FFF71C
:10174000E6FDFFF7C6FFFFF7C4FFCA20050007202C
:101750000600F6B2002E12D00120B0402900C9B216
:10176000014204D001211E20FFF70AFE03E0002100
:101770001E20FFF705FEFFF7ACFF761EE9E7FFF737
:10178000A8FF25000727002F12D40120B840290008
:10179000C9B2014204D001211E20FFF7F1FD03E090
:1017A00000211E20FFF7ECFDFFF793FF7F1EEAE705
:1017B00003211E20FFF7B8FDFFF78BFFF1BD80B5B9
:1017C00001211F20FFF7DCFD6E20FFF7FDFD00214A
:1017D0001F20FFF7D5FD01BD70473EB5684619498A
:1017E0002CC92CC00C390C381749002002F01FF905
:1017F000040000208DF8030000208DF802006946E7
:10180000002002F070F904002500002D02D028000D
:10181000FFF73CFD03208DF807006946012002F028
:1018200062F904002500002D02D02800FFF72EFDEC
:1018300037BD80B56946002002F08FF9BDF9000080
:1018400002BD000080830200D9170200010040F1B0
:101850000780F446404200F003F851F00041604731
:1018600009D0B0FA80F18840C91CC1F5846109052E
:1018700001EBD02140057047B0B581EA030C0CF0B4
:10188000004C40F2FF7515EA11541DBF15EA1357BD
:10189000AC42AF4239E0E41923EA455343F48013E4
:1018A000C90241F0004141EA505EC7021100A7FBA6
:1018B000020200284FF00000EEFB01204FF0000173
:1018C000E3FB072118BF42F0010240180021494103
:1018D000E3FB0E01A4F580640F0302D252004041E5
:1018E000494154F101046CDD470872F1004250F1A6
:1018F000000051EB0451A1F580115CBF41EA0C01DD
:10190000B0BD4CEA05510020B0BD05EA1357AC420A
:1019100014BFAF4241E050EA410E1CBF52EA430EF1
:1019200002E061460020B0BD24423C441BD15FEA86
:10193000070EF6D0090302BF01460020AEF1140ED7
:10194000B1FA81F7AEEB070401FA07FE0C37C7F1D5
:10195000200100FA07F7C8404EEA000E23EA45537B
:1019600043F48013A2E733F00043B3FA83F704BFD4
:10197000B2FA82FE77440B3FE41BB7F1200E2FBF73
:1019800002FA0EF3BB40C7F1200E22FA0EFE38BF5A
:1019900043EA0E03BA40641C82E750EA410E14BFCA
:1019A00052EA430E6FF000014FF4001717EB430F9C
:1019B0008ABF194617EB410FB5E74CEA05510020E5
:1019C000B0BDD4F10104B4F120070FDAC4F120074F
:1019D000520828BF42F0010210FA07F501FA07F792
:1019E000E1BF2A43E0403843E1400FE0352C98DC6A
:1019F000C7F1200452EA400220FA07F218BF42F071
:101A0000010231FA07F0A1400A43002172F10042BD
:101A100050F1000051EB0C01B0BDFEE72DE9F041A3
:101A200040F2FF7581EA030C0CF0004C15EA1154EA
:101A30001DBF15EA1357AC42AF42E9E0BC41C1F308
:101A40001301C3F31303801A994143F4801304D2A2
:101A5000641E4000494180185941C90241EA505171
:101A6000B1FBF3F603FB1611A2FB0675D7EBC02002
:101A7000A94102D2761E80185941C90241EA50514B
:101A8000B1FBF3FE03FB1E11A2FB0E75D7EBC020CA
:101A9000A94103D2AEF1010E80185941890241EAF1
:101AA0009051760546EA8E2EB1FBF3F603FB161134
:101AB000A2FB0675D7EB8020A94102D2761E8018C2
:101AC0005941C90241EA50514EEA060EB1FBF3F604
:101AD00003FB1611A2FB0675D7EBC020A94102D269
:101AE000761E80185941C90241EA5051B1FBF3F703
:101AF00003FB1711A2FB0735D3EBC020A94167F107
:101B000000070CBF004247F0010766F3D5274FEAF4
:101B10001E31B80814F5806414DDBD0775F100426C
:101B200050EB0E5051EB045111F5801F5CBF41EAA0
:101B30000C01BDE8F0814CF07F6141F0E0410020F4
:101B4000BDE8F081BD076D0840EA0E5041F48011F8
:101B5000D4F10104B4F120060ADAC4F1200602002F
:101B6000E04001FA06F3E1401843B24015430EE0AD
:101B7000342C14DCC6F1200445EA40056D0820FA37
:101B800006F2154321FA06F0A1400D43002175F13C
:101B9000004250F1000051EB0C01BDE8F081002043
:101BA0005FEA0C01BDE8F081CFB992185B41B3FA4E
:101BB00083F704BFB2FA82F6BF190B3FB7F12006D4
:101BC0002FBF02FA06F3BB40C7F1200622FA06F641
:101BD00038BF3343BA401CB1E419641E2FE77F427B
:101BE00031F00041B1FA81F404BFB0FA80F6A419D3
:101BF0000B3CB4F120062FBF00FA06F1A140C4F15E
:101C0000200620FA06F638BF3143A0403C1B16E7F9
:101C1000AC421ABF05EA1357AF4214E050EA41063E
:101C20001CBF52EA4306BFE750EA4107304661460F
:101C30001CBF41EA0551BDE8F08152EA430C08BFE0
:101C4000C143BDE8F08100204FF4001616EB410FB0
:101C500098BF16EB430F08BF16EB410F24BFC143DB
:101C600005E016EB430F0CBF61464CEA0551BDE899
:101C7000F081FEE74FEAF17CBCF1E04C2CBFBCF5F3
:101C8000001F11E05FEA4C0C34BFBCF17F5F2EE017
:101C90005FEA9C0C4FEA0C1C4FEA3C0CC10071F14E
:101CA00000414CEB50707047C90241EA5051C002EC
:101CB00018BF41F0010141F000414FEA6C50C0F102
:101CC0000900212810D240EACC7CCCF1200C11FA7A
:101CD0000CF070F10040CCF1200C21FA0CF00CF06B
:101CE000004C40EB0C0070474FEACC707047490045
:101CF00011F5001F04D84FEACC10FF30C005704723
:101D0000C81770475FF0FF0C1CEAD05114BF614543
:101D100006E0C110400721F0E04101F16051704739
:101D200079B900F0004100020AD0B0FA80FC00FA54
:101D30000CF001F16051A1EB0C5101EBD0214005F9
:101D4000704741020CBF40F4E0016FF00001002039
:101D50007047FEE7F446400D40EAC120490006D234
:101D600000F00EF8004248BF6FF00040604700F0FE
:101D700007F84FF0004188428CBF08464042604758
:101D800040F00040490DA1F58061491C05D4D1F116
:101D90001F0154BFC840C01770474FF00000704784
:101DA00001005FF0A04070472DE9F14181B00E00C5
:101DB00017009846089C099D01A8FFF7F1FFF6B2AD
:101DC000FFB256EA47015FFA88F851EA8801E4B2A7
:101DD00051EA0421EDB251EA0541019A00EB820279
:101DE000C2F80017BDE8F3817CB504000D001600B1
:101DF0003000C0B20190002000902B00DBB2002226
:101E000000212000FFF7D0FF73BD80B502F075FA06
:101E100002F018FB022200211020FFF7E5FF02224A
:101E200001211620FFF7E0FFFEF7DBFE002000F0A7
:101E300009FE002000F00CFE32DF01BDDFF8583B48
:101E4000D3ED001A61EE801ADFF84C3B93ED012AC6
:101E500042EE201ADFF8403B93ED022A42EE011ACF
:101E6000C0ED001ADFF8303BD3ED031A61EE801AA3
:101E7000DFF8243B93ED042A42EE201ADFF8183BEA
:101E800093ED052A42EE011AC1ED001ADFF8083B76
:101E9000D3ED061A61EE801ADFF8FC3A93ED072ABB
:101EA00042EE201ADFF8F03A93ED082A42EE011ACA
:101EB000C2ED001A7047000080B52DED028BDFF8EF
:101EC000D80A0068FFF71EFF41EC110BB0EE418A03
:101ED000F0EE618ADFF8C00AC068FFF713FF41EC3B
:101EE000100BB0EE481AF0EE681A02F029FD51EC22
:101EF000100BFFF7BFFEDFF8981A0860DFF8900AB2
:101F000090ED000ADFED280A20EE200ADFF8800AB3
:101F100080ED000ADFF8800A006AFFF7F3FE41EC6B
:101F2000110BB0EE418AF0EE618ADFF86C0AC069ED
:101F3000FFF7E8FE41EC100BB0EE481AF0EE681A1D
:101F400002F0FEFC51EC100BFFF794FEDFF8441A90
:101F50000860DFF8400A90ED000ADFED130A20EE7A
:101F6000200ADFF8300A80ED000ADFF82C0A8069C9
:101F7000FFF7C8FE41EC100B02F07CFD51EC100B9A
:101F8000FFF778FEDFF81C1A0860DFF8180A90EDFA
:101F9000000ADFED050A20EE200ADFF8080A80EDCE
:101FA000000ABDEC028B01BDBE2E6542F8B52DEDD9
:101FB000108B2DED071A99B0F0EE408AB0EE608AD2
:101FC000DFF8E40990ED009ADFF8DC09D0ED019A22
:101FD000DFF8D40990ED02AADFF8CC09D0ED03AA0E
:101FE000B0EE000A29EE000A8DED0C0AB0EE000AF0
:101FF00029EE800A8DED090AB0EE000A2AEE000AE9
:102000008DED080AB0EE000A2AEE800A8DED0B0A6B
:10201000B0EE000A29EE000A20EE0A0A8DED070A4A
:10202000B0EE000A2AEE000A20EE2A0A8DED060A1A
:1020300029EE090A8DED0A0A29EE29CA69EE0ACAB3
:1020400029EE2A0A8DED020A29EEA9DA29EE8A0A7A
:102050008DED010A69EEAADA2AEE0AEA2AEE2A0AC8
:102060008DED000A2AEEAAFA28EEA80A08EE080A60
:10207000DDED190A9DED191A00EE810A10EE100A25
:10208000FFF740FE41EC100B02F0FCFC51EC100B92
:10209000FFF7F0FD0EEE900AF5EE40EAF1EE10FAD1
:1020A00000F07284B7EE000AC0EE2EEA68EEAE8A47
:1020B00028EE2E8A9DED190A20EE2E0A8DED190AC2
:1020C000B0EE000A29EE000ADDED1D0A20EE200A1E
:1020D0008DED120AB0EE000A29EE000ADDED1E0AAF
:1020E00020EE200A8DED110AB0EE000A29EE000A5A
:1020F000DDED1F0A20EE200A8DED100AB0EE000A79
:1021000029EE800ADDED1D0A20EE200A8DED0F0A72
:102110009DED1D0ADDED0A0A20EE200ADDED110A13
:1021200000EEEA0ADDED100A00EE8A0ADDED1D0A76
:1021300000EE8D0ADDED090A9DED1E1A60EE810AA2
:1021400000EE8A0ADDED090A9DED1F1A60EE810A94
:1021500000EEAA0ADDED1D0A00EECE0ADDED1D0A35
:1021600000EECF0A8DED140A9DED120A20EE2A0A28
:10217000DDED1E0A9DED0A1A00EE810ADDED100A62
:1021800000EEE90ADDED0F0A00EE8A0ADDED1E0A17
:1021900000EECD0ADDED1E0A00EE8E0ADDED080A26
:1021A0009DED1F1A60EE810A00EEAA0ADDED1E0AFF
:1021B00000EECF0A8DED130A9DED140ADDED140A31
:1021C00020EE200ADDED130A9DED131A00EE810AC0
:1021D00010EE100AFFF796FD41EC100B02F052FCD6
:1021E00051EC100BFFF746FD0BEE100A9DED120AA5
:1021F000B1EE400A20EE0A0ADDED110A00EEA90A4E
:10220000DDED1F0A9DED0A1A00EE810ADDED0F0AD1
:1022100000EEAA0ADDED1F0A00EECD0ADDED080A88
:102220009DED1E1A60EE810A00EEAA0ADDED1F0A7E
:1022300000EECE0ADDED1F0A00EE8F0AF0EE40BA86
:10224000B0EE000A2BEE000A8DED0E0AB0EE000A89
:102250002BEE800A8DED0D0AB0EE000A2DEE800AFD
:10226000DDED070A30EE600A30EE680ADDED080A9F
:10227000F1EE600A20EE800AF0EE000A9DED061AEB
:102280000CEE201A71EE480A9DED091A00EE810A43
:102290006BEE8A0AB6EE001A31EE4E1A31EE4F1A84
:1022A00021EE0B1A7DEEEC1A01EEAB1ADDED1D1AD4
:1022B00031EEC11A00EE810AF1EE4B0A60EEAA0A75
:1022C0004BEEA90A9DED011ADDED021A31EE611AFD
:1022D00021EE0B1ADDED001A7CEE211A01EEAB1A8D
:1022E000DDED1E1A31EE611A00EE810A6BEE0A0A6C
:1022F0003CEEAD1A21EE0B1AF6EE001A71EECD1A75
:1023000071EECE1A01EEAB1ADDED1F1A31EE611A35
:1023100000EE810A8DED050AB0EE000A2DEE800A6E
:10232000DDED070A30EE600A30EE680ADDED0B0ADB
:1023300020EE200AF0EE000A9DED061A0CEE201A9F
:1023400071EE480A9DED0C1A00EE810AF1EE000ACA
:1023500069EEA00AB0EE001A2EEE011AF0EE001A95
:10236000B7EE002A0DEE612A31EE421ADDED191AA0
:1023700031EE811A00EE810A6BEEAA0AB6EE001A5F
:1023800031EE4E1A31EE4F1A21EE0B1A7DEEEC1A99
:1023900001EEAB1ADDED1D1A31EE611A00EE810A75
:1023A0006BEE0A0A4BEE890A9DED011ADDED021A69
:1023B00031EE611A21EE0B1ADDED001A7CEE211AC6
:1023C00001EEAB1ADDED1E1A31EE611A00EE810A44
:1023D0006BEE2A0A9DED0D1A41EE690A3CEEAD1A2C
:1023E00021EE0B1AF6EE001A71EECD1A71EECE1A2E
:1023F00001EEAB1ADDED1F1A31EE611A00EE810A13
:102400008DED040AB0EE000A2DEE800ADDED070A1C
:1024100030EE600A30EE680ADDED0C0AF1EE600A7B
:1024200020EE800AF0EE000A9DED061A0CEE201A4E
:1024300071EE480A9DED0B1A00EE810AF1EE000ADA
:102440006AEE200AB0EE001A2EEE011AF0EE001A23
:10245000B7EE002A0DEE612A31EE421ADDED191AAF
:1024600031EE811A00EE810ADDED0E0AF1EE600A0E
:1024700060EE8A0A4BEEC90AB6EE001A31EE4E1A29
:1024800031EE4F1A21EE0B1A7DEEEC1A01EEAB1A6B
:10249000DDED1D1A31EE611A00EE810A6BEE290A9C
:1024A0004BEEAA0A9DED011ADDED021A31EE611A1A
:1024B00021EE0B1ADDED001A7CEE211A01EEAB1AAB
:1024C000DDED1E1A31EE611A00EE810A6BEE090A8B
:1024D0009DED0D1A41EE4A0A3CEEAD1A21EE0B1AA3
:1024E000F6EE001A71EECD1A71EECE1A01EEAB1AAD
:1024F000DDED1F1A31EE611A00EE810A8DED030A3F
:10250000B0EE000A2DEE800ADDED070A30EE600A1B
:1025100030EE680ADDED090A20EE200AF0EE000A2E
:102520009DED061A0CEE201A71EE480A9DED081A70
:1025300000EE810ADDED0E0AF1EE600A60EEAA0AF5
:102540004BEEA90AB6EE001A31EE4E1A31EE4F1AD2
:1025500021EE0B1A7DEEEC1A01EEAB1ADDED1D1A21
:1025600031EE611A00EE810AF1EE4B0A60EE890A43
:102570004BEE8A0A9DED011ADDED021A31EE611A69
:1025800021EE0B1ADDED001A7CEE211A01EEAB1ADA
:10259000DDED1E1A31EE611A00EE810A6BEE290A9A
:1025A0003CEEAD1A21EE0B1AF6EE001A71EECD1AC2
:1025B00071EECE1A01EEAB1ADDED1F1A31EE611A83
:1025C00000EE810AF0EE40FA9DED050ADDED050A08
:1025D00020EE200ADDED040A9DED041A00EE810ACA
:1025E000DDED030A9DED031A00EE810A0FEEAF0A3E
:1025F00010EE100AFFF786FB41EC100B02F042FAD6
:1026000051EC100BFFF736FB0EEE900AB7EE000A06
:10261000C0EE2EEA9DED050A20EE2E0A8DED050A8C
:102620009DED040A20EE2E0A8DED040A9DED030AAD
:1026300020EE2E0A8DED030A6FEEAEFAB1EE690AB6
:10264000DDED1A0A20EE200ADDED1B0A0AEE600A13
:10265000DDED1C0A0AEEE00AF6EE000A20EE200A82
:1026600010EE100AFFF74EFB04000D009FEDCB0BA0
:1026700002F008FA53EC102B5FF00050DFF82C1337
:10268000FFF7FAF85FF00052DFF82433FFF7F4F8B1
:1026900006000F000598FFF735FB32003B00FFF7FF
:1026A000EBF802000B002000290002F06BFAFFF7A4
:1026B000E1FA18909DED1A0A29EE000ADDED1C0AD8
:1026C0000AEE200ADDED1B0A0AEEE00AF6EE000A29
:1026D00020EE200A10EE100AFFF714FB04000D0094
:1026E0009FEDAE0B02F0CEF953EC102B5FF00050D3
:1026F000DFF8B812FFF7C0F85FF00052DFF8B03231
:10270000FFF7BAF806000F000498FFF7FBFA320053
:102710003B00FFF7B1F802000B002000290002F097
:1027200031FAFFF7A7FA17909DED1B0A29EE000A70
:10273000DDED1C0A09EEE00ADDED1A0A0AEEA00A38
:10274000F6EE000A20EE200A10EE100AFFF7DAFA81
:1027500004000D009FED910B02F094F953EC102B47
:102760005FF00050DFF84412FFF786F85FF0005288
:10277000DFF83C32FFF780F806000F000398FFF700
:10278000C1FA32003B00FFF777F802000B0020008F
:10279000290002F0F7F9FFF76DFA16909DED1C0A7B
:1027A00029EE000ADDED1B0A09EEA00ADDED1A0A8A
:1027B0000AEE600AF6EE000A20EE200A10EE100A79
:1027C000FFF7A0FA04000D009FED740B02F05AF918
:1027D00053EC102B5FF00050DFF8D011FFF74CF8EE
:1027E0005FF00052DFF8C831FFF746F806000F002F
:1027F0001FEE900AFFF786FA32003B00FFF73CF825
:1028000002000B002000290002F0BCF9FFF732FAA9
:1028100015909DED180ADFF89C01D0ED000A00EE3E
:10282000209A9DED170ADFF88C01D0ED000A40EEEA
:10283000209A9DED160ADFF87C01D0ED000A00EE2B
:1028400020AA9DED150ADFF86C01D0ED000A40EEDC
:1028500020AA29EE090A09EEA90A0AEE0A0A0AEED6
:10286000AA0A10EE100AFFF74DFA41EC100B02F025
:1028700009F951EC100BFFF7FDF90EEE900AB7EED7
:10288000000AC0EE2EEA29EE2E0ADFF81C0180EDC8
:10289000000A29EEAE0ADFF8100180ED010A2AEEE7
:1028A0002E0ADFF8040180ED020A2AEEAE0ADFF8F4
:1028B000F80080ED030AB0EE000AF7EE000A4EEED3
:1028C000400AB0EE000A4FEE400A3348C0ED000A5D
:1028D0009DED010ADDED020A30EE600AF0EE000A1D
:1028E00020EE200A2C4880ED010A3DEEAC0AF0EE05
:1028F000000A20EE200A284880ED020A9DED010A18
:10290000DDED020A30EE200AF0EE000A20EE200A89
:10291000214880ED030AB0EE000AF7EE000A4DEE02
:10292000400AB0EE000A4FEE400A1B48C0ED040A10
:102930009DED000A30EE4C0AF0EE000A20EE200A6F
:10294000154880ED050A3DEEEC0AF0EE000A20EE97
:10295000200A114880ED060A9DED000A30EE0C0AAF
:10296000F0EE000A20EE200A0B4880ED070AB0EED8
:10297000000AF7EE000A4DEE400AB0EE000A4EEEF5
:10298000400A0548C0ED080A20B0BDEC108BF1BD2F
:10299000D42E0020D82E0020302C00200000000073
:1029A0000000E83FD02E002028210020FF21094010
:1029B000C771AC3F3821002081B0F0EE400AB6EE7E
:1029C000000A20EE801AB0EE600A8DED000A0A4877
:1029D0000099B0EB61000090DDED001AB0EE610AE5
:1029E00061EE001AB7EE082A01EEC02A22EE000AB4
:1029F00001B0704700000000DF59375F3EB5684600
:102A000016492CC92CC00C390C3815480088ADF873
:102A1000060000226946134802F094FA04002500DB
:102A2000002D02D02800FEF731FC64200E490880FA
:102A300064200D494880022301220C49094802F014
:102A4000FEFA37BDC0B2D0F16401074A1180704769
:102A5000C0B2D0F16401044A51807047688302001B
:102A6000AE12020050210020C02E00203883020048
:102A70008A88828270474FF6FF728282704770B5F3
:102A800004000D00AE1D3088218A88420ED1708965
:102A900002280BD116F10C0002F07EFB002802D0B8
:102AA0000120A0750FE00020A0750CE03088A188FF
:102AB000884208D1A069002805D0728916F10C015E
:102AC0002000A369984770BD2DE9F24F92B0040031
:102AD000032004900020039001AD039A049928007C
:102AE00002F062FB9DF8040010F0F00050F00100CD
:102AF0008DF804009DF8040010F00F0050F0100055
:102B00008DF804009DF8050010F0F00050F0010071
:102B10008DF805009DF8050010F00F0050F0100032
:102B20008DF805009DF8060010F0F90050F0020045
:102B30008DF806001C2500260AAF32002900380057
:102B400002F032FB9DF8280050F010008DF82800AC
:102B500000200B9000200D9000200E9001A80F90F7
:102B60000020109020788DF80A000320ADF80800AE
:102B700003275FF00008E94642463900484602F064
:102B800013FB9DF8000010F0F00050F001008DF8EC
:102B900000009DF8000010F00F0050F010008DF8BC
:102BA00000009DF8010010F0F00050F001008DF8D9
:102BB00001009DF8010010F00F0050F010008DF89A
:102BC00001009DF8020010F0F90050F002008DF8AD
:102BD00002009DF8020010F0F7008DF802009DF849
:102BE000020010F0EF008DF802009DF8020050F096
:102BF00001008DF802005FF014095FF0000A0DF18A
:102C0000140B52464946584602F0CEFA02A80590E7
:102C1000684606900120ADF81C000020ADF81E00AB
:102C20001420ADF8200014F10C0305AA0AA960884D
:102C3000A2DF13B0BDE8F08F2DE9F24F8EB0040093
:102C40001C25002607AF32002900380002F0ACFA3C
:102C50009DF81C0010F0F7008DF81C009DF81C007A
:102C600050F004008DF81C000020089000200A900D
:102C700000200B9000200C9000200D9020788DF803
:102C800006000220ADF8040003275FF00008E946C3
:102C900042463900484602F087FA9DF8000010F0DD
:102CA000F00050F001008DF800009DF8000010F0D9
:102CB0000F0050F010008DF800009DF8010010F09A
:102CC000F00050F001008DF801009DF8010010F0B7
:102CD0000F0050F010008DF801009DF8020010F078
:102CE000F90050F002008DF802009DF8020010F08B
:102CF000F7008DF802009DF8020010F0EF008DF84B
:102D000002009DF8020050F001008DF802005FF013
:102D100014095FF0000A0DF1080B52464946584667
:102D200002F042FA01A80290684603900120ADF833
:102D300010000020ADF812001420ADF81400231D7F
:102D400002AA07A96088A2DF0FB0BDE8F08F38B5EE
:102D500004000D00002C01D0002D00D116E02888C1
:102D6000102804D0112807D050280AD00EE02900DE
:102D70002000FFF77DFE09E029002000FFF77BFE21
:102D800004E029002000FFF77AFEFFE731BDF0B52F
:102D900085B004000D0020480FC801AF87E80F0080
:102DA000002C01D10E2034E0002D01D10E2030E0A6
:102DB0004FF6FF70A0822868A0610020A075210056
:102DC00001A863DF0600002E01D0300021E020784A
:102DD0008DF802000120ADF80000A21C6946012018
:102DE000A0DF0600002E01D0300012E029002000F4
:102DF000FFF76AFE0600002E01D0300009E029002E
:102E00002000FFF719FF0600002E01D0300000E07F
:102E1000002005B0F0BD0000288302002DE9F44138
:102E200085B004000D00002C01D10E2023E0A08A03
:102E30004FF6FF71884202D0A07D002801D1082002
:102E400019E0BDF81400152801DB072013E0102657
:102E50000027E8463A003100404602F0A5F9A08973
:102E6000ADF80000039505A8029001208DF802003E
:102E70006946A08AA6DF06B0BDE8F081012110F006
:102E80001F029140114A40B2430942F82310704793
:102E9000012110F01F0291400D4A40B2430942F84F
:102EA0002310704710B440B2002808D54A01094BDE
:102EB00040B210F00F04234403F8042C03E04A014D
:102EC000054B40B21A5410BC7047000000E100E00E
:102ED00080E200E018ED00E000E400E038B5040016
:102EE0000D00EDB22900200040B2FFF7DBFF20000B
:102EF00040B2FFF7CDFF200040B2FFF7BFFF31BD6A
:102F0000BFF34F8F0548006810F4E06004490843A0
:102F100002490860BFF34F8F00BFFDE70CED00E0F2
:102F20000400FA0570B504000D001600FFF7E8FF75
:102F300070BDFEE710B50400200000B200F019F8E3
:102F40000068012801D1012000E00020C0B210BDBE
:102F500010B582B00400200000B200F00AF8002191
:102F60000160200000B200F004F8006800900098B2
:102F700013BD00B200F1804010F5C0407047DFF88B
:102F8000B41708607047DFF8B01708607047DFF8C3
:102F9000A417096808407047DFF8A01751F82010FF
:102FA00051F00101DFF8942742F820107047DFF854
:102FB0008C1751F8201049084900DFF8802742F8A3
:102FC0002010704730B4DFF8743753F82030DFF842
:102FD00070472340DFF8644744F82030DFF85C375F
:102FE00053F820300C0214F4F854D2B2150415F43E
:102FF00040352C432343DFF8444744F8203030BCAD
:103000007047DFF8381751F82000C0F304207047EC
:10301000DFF8281751F82000000C10F0030070476B
:103020000021DFF8182742F82010704701005FF0F8
:10303000A04070472DE9F14181B00E00170098467D
:10304000089C099D01A8FFF7F1FFF6B2FFB256EA0E
:1030500047015FFA88F851EA8801E4B251EA042195
:10306000EDB251EA0541019A00EB8202C2F8001765
:10307000BDE8F38130B583B004000D00002001905D
:10308000002000902B00DBB2002200212000FFF77F
:10309000D1FF37BD1CB50400002001900020009036
:1030A0000023012200212000FFF7C4FF13BD01B55A
:1030B0006846FFF7BBFF009900EB8101D1F80017CC
:1030C00031F00201009A00EB8202C2F8001701BD44
:1030D00011B581B00C0001A8FFF7A8FF019900EB22
:1030E0008101D1F8001731F44031019A00EB8202DE
:1030F000C2F80017019900EB8101D1F80017E4B282
:1031000051EA0441019A00EB8202C2F8001713BD94
:1031100011B581B001A8FFF789FF0400200000F07D
:1031200012F80199C84010F0010016BD01B56846BB
:10313000FFF77CFF009900EB8100D0F80007000C3E
:1031400010F0030002BDD0F810057047F8B5040078
:103150000D0016006846DFF8EC150A6802602700CB
:103160002819874208D2684650F82700FFF7EBFF7E
:103170003060361D7F1CF3E7F1BDC20810F0070078
:10318000012313FA00F08A5C1040704710B4C208A3
:1031900010F007008B5C0124844023438B5410BC47
:1031A0007047DFF8A415014491F93010002908D4C4
:1031B000DFF89415084490F93000082801DA01205E
:1031C00000E00020002801D0012000E00020C0B273
:1031D0007047DFF87415084490F93000082801DBC7
:1031E000012000E00020C0B27047DFF85C15084401
:1031F00090F93000002801D4012000E00020C0B286
:10320000704710B4DFF84045044484F83010DFF80C
:10321000384544F82120DBB2002B04D1DFF82845E3
:103220000C4484F8480010BC70475FF0FF31DFF8B1
:103230001825024482F830107047DFF80C15084456
:1032400090F930007047DFF8001551F82000704702
:103250002DE9F04704000D0016005FF0FF37F6B2CD
:10326000002E02D05FF0000901E05FF00809F6B21D
:10327000002E02D05FF0080A01E05FF00C0AC84699
:10328000D04514D2DFF8C00450F828005FF0FF31B9
:10329000884209D13300DBB22A0041462000FFF703
:1032A000B0FF4046070002E018F10108E8E73800E7
:1032B00040B2BDE8F0875FF0FF31DFF88C24C0B288
:1032C00042F82010C0B2082807DB5FF0FF31DFF8BA
:1032D0007824C0B2024482F84810704738B5DFF84D
:1032E000680490F85400002803D00820040020004F
:1032F00029E000200500EDB2202D05DAEDB228000E
:10330000FFF793FF6D1CF6E700200500EDB20C2DD2
:1033100005DA2800C0B2FFF7CEFF6D1CF6E70721E3
:103320000620FFF7DBFD4FF4BE70FFF711FE5FF0E4
:103330000040FFF724FE0120DFF80C1481F8540050
:1033400000200400200032BD2DE9F04104000D00F2
:10335000160000272000FFF748FF002802D00820B1
:10336000070035E0EA7831002000FFF771FF804662
:103370004FFA88F818F1010F28D0A878002803D058
:103380002000FFF794FE03E069782000FFF772FE4B
:10339000E878002807D02A7821004FFA88F84046BC
:1033A000FFF710FE14E0DFF8A0034FFA88F840445E
:1033B00090F8480095F9001050EA8110DFF8881362
:1033C0004FFA88F8414481F8480001E004200700E2
:1033D0003800BDE8F0812DE9F04104000D00200027
:1033E000FFF7F7FE002827D02000FFF726FFDFF8C1
:1033F000581340B2084490F848603000C0B28709C2
:10340000FFB2032F0AD12000FFF782FE002802D06E
:103410005FF003080AE05FF0020807E0FFB2012F47
:1034200002D15FF0020801E05FF003084146C9B233
:103430002000FFF74DFE23E02000FFF7B2FE00283A
:103440001ED02000FFF7F9FE0600B00010F58077CF
:103450003000FFF7A1FD380000B2FFF779FDEDB2B3
:10346000002D0DD02000FFF7E8FE40B2FFF7EBFE85
:1034700080464046002803D00120B040FFF77FFD82
:10348000BDE8F08138B504002000FFF7A2FE002857
:1034900004D000212000FFF71BFE0FE02000FFF703
:1034A00080FE00280AD02000FFF7C7FE0500280094
:1034B000FFF77DFD0120A840FFF765FD31BD10B588
:1034C00004002000FFF7DEFF2000FFF76AFE00285F
:1034D00005D02000FFF7B1FE40B2FFF7A1FD2000AC
:1034E000FFF7D8FD2000FFF7A8FEC0B2FFF7E3FE0C
:1034F0002000FFF79AFE10BD2DE9F04F87B00024A1
:1035000002A8002101604FF48070ADF8020001258F
:1035100000200600082E17D2BDF90200FFF70AFDB1
:10352000002809D02800FFF732FD002804D0BDF99B
:103530000200FFF70DFD2C436D00BDF80200001DD9
:10354000ADF80200761CE5E74FF4BE70FFF7F2FC21
:1035500000280AD04FF4BE70FFF7FAFC54F0004484
:1035600002AA01210020FFF7F1FD20061DD0012055
:10357000050000200600082E17D2254212D0300088
:10358000FFF73FFD07003000FFF742FD80463000A7
:10359000FFF759FE81464846002803D04146C9B28C
:1035A0003800C8476D00761CE5E7002C40F1BE806E
:1035B000002706A80021016000208046B8F1000F16
:1035C00007D15FF0FF3005A941F8280018F1010884
:1035D000F4E70020070000200600042E69D25A48B4
:1035E000304490F850008DF801009DF8010030F053
:1035F000C00001905448304490F9500010F1010F80
:1036000055D005A90198FFF7B8FD00284FD09DF8C7
:103610000100C0B280098DF800000198FFF70DFE8F
:1036200040B2FFF710FE81464846002803D19DF8BE
:10363000000003283BD19DF80000032803D106A910
:103640000198FFF7A3FD0198FFF770FD824602A9DC
:103650000198FFF792FD04900498002804D05FFAC7
:103660008AFABAF1020F07D0049800281FD15FFA36
:103670008AFABAF1030F1AD19DF8000003280FD17E
:103680005FFA8AFABAF1020F02D15FF0030B01E090
:103690005FF0020B5946C9B20198FFF719FD7F1C74
:1036A0004846002803D09DF800100198C847761CB2
:1036B00093E7FFB2002F35D05FF0010903AA012183
:1036C0000020FFF743FD00208046B8F1000F0DD128
:1036D00003A850F8280002A951F82810884202D007
:1036E0000020814602E018F10108EEE75FFA89F94F
:1036F000B9F1000F02D00020070013E0002080463F
:10370000B8F1000F0ED103A850F8280002A941F823
:10371000280006A850F8280005A941F8280018F14B
:103720000108EDE7FFB2002F7FF453AF07B0BDE80B
:10373000F08F000004630040086300401065004003
:10374000FFE0FCFFBC830200A82A00200121DFF873
:103750000C25C0B211507047DFF8001500B20858B0
:10376000002801D0012000E00020C0B2704781B0E5
:103770000021DFF8E82400B21150DFF8E01400B2B5
:1037800009580091009901B0704710B4D2B2DFF827
:10379000D034C0B2040123445A60C9B2DFF8C03447
:1037A000C0B20401195110BC7047DFF8B8140860AA
:1037B0007047DFF8B414086070470120DFF8AC14DC
:1037C00008607047DFF8A8241060DFF8A8241160B3
:1037D0007047C0B2DFF8A01408607047C0B2DFF8CD
:1037E0009C140860704770B58AB04FF48270FFF780
:1037F000B3FF00284ED04FF48270FFF7B8FFDFF818
:10380000800490F82E00DFF8781491F82F1091F0D2
:10381000010108423ED100208DF80C00DFF8600461
:1038200040680490DFF858040089ADF81400DFF810
:103830005004C068002804D10020DFF84414087444
:103840001EE0DFF83C04008BDFF834144883DFF817
:103850003004C068DFF828144860DFF82404008BC7
:10386000DFF81C1408810020DFF81414C860DFF8AA
:10387000100490F82E00002802D10020FFF766FF08
:1038800003A8DFF8FC13096888470020DFF8F0136D
:1038900081F82F00DFF8E80390F82E0000286DD0A3
:1038A0004FF48070FFF758FF002867D04FF4807006
:1038B000FFF75DFFDFF8C80390F82D00DFF8C013B5
:1038C000498B80B288421DD2DFF8B403408BDFF809
:1038D000B01391F82D10401ADFF8A4134883DFF8D5
:1038E000A00390F82D10DFF898034068DFF89023CC
:1038F0001289DFF88C335B8BD21A00EB4200FFF7A2
:1039000061FF34E0DFF87803408BDFF8741391F83F
:103910002D1089B2884217D1DFF86403C0680028EF
:1039200012D00120DFF8581381F82F000020DFF8B3
:1039300050134883DFF8480390F82D10DFF8400358
:10394000C068FFF73FFF12E0DFF83403408BDFF879
:10395000301391F82D1089B2884208D10120DFF888
:10396000201381F82F000020DFF8141348834FF450
:103970008270FFF7FCFE0420FFF7E8FE4FF488702A
:10398000FFF7EAFE00280FD04FF48870FFF7EFFE34
:103990000020DFF8EC12087402208DF8180006A849
:1039A000DFF8DC12096888474FF48A70FFF7D4FE0D
:1039B000002808D04FF48A70FFF7D9FE0020DFF806
:1039C000C012087431E0DFF8B8024669002E2CD02E
:1039D000B6FA86F004005FF00040E0408643A000A5
:1039E00010F58C700500280000B2FFF7B5FE002826
:1039F000ECD0280000B2FFF7BAFE01208DF80000DD
:103A00002DB2B5F58C70C0088DF804002800C0B246
:103A1000800810F0010090F001008DF80500684664
:103A2000DFF85C1209688847D0E70AB070BD70B54E
:103A300004000D00DFF8480290F82C00002803D0A5
:103A40000820060030004DE02800002803D10720A0
:103A50000600300046E0002C02D1DFF82802040006
:103A6000DFF81C0205602078FFF7B3FE6078FFF7EF
:103A7000B5FEE078DFF8081281F82E000120DFF8AB
:103A8000001281F82C000020DFF8F41108740020E7
:103A9000DFF8EC1181F82D000020DFF8E411486117
:103AA0000020DFF8DC1181F82F007FF00040FFF7E5
:103AB00080FE4FF48270FFF75AFEA1780720FFF7CF
:103AC0000DFA0220FFF771FEDFF8B40190F82E0026
:103AD000002802D00120FFF768FEFFF76EFE0020ED
:103AE0000600300070BD70B504000D00DFF89001D5
:103AF000007C002803D01120060030002CE0DFF805
:103B00008001E4B200EB4400007F002808D1DFF818
:103B1000700190F82D00401CDFF8641181F82D0031
:103B2000E879DFF85C11E4B201EB44010877287A08
:103B3000DFF84C11E4B201EB440148772900200082
:103B4000C0B201F073FB2A7AE9792000C0B2FFF716
:103B50001CFE00200600300070BD2DE9F04104007D
:103B60000D00DFF81C01007C002803D011200600A6
:103B7000300070E00120DFF8081108740320FFF71F
:103B800018FE01212800FFF71DFE3D4890F82D008A
:103B900002280BDB0027FFB2082F07DA00220021E2
:103BA0003800C0B2FFF7F1FD7F1CF4E73448E4B2FF
:103BB00000EB4400427F3248E4B200EB4400017F56
:103BC0002000C0B2FFF7E1FD0020FFF7BFFD042099
:103BD000FFF7BCFD42F210774FF48270FFF7BCFD97
:103BE000002803D1002F01D07F1EF5E74FF482702B
:103BF000FFF7BDFD224890F82D00022819DB5FF089
:103C000000085FFA88F8B8F1080F12DA1C485FFA6A
:103C100088F800EB4800427F19485FFA88F800EB0B
:103C20004800017F4046C0B2FFF7AFFD18F1010820
:103C3000E7E7134890F82E00002803D00320FFF791
:103C4000B4FD02E00220FFF7B0FD00200C4908742B
:103C5000002006003000BDE8F08100000070004048
:103C60001075004004730040087300400075004068
:103C70002C76004030760040F0750040F47500402E
:103C8000D02B0020C083020001005FF0A0407047ED
:103C90002DE9F14181B00E0017009846089C099D5E
:103CA00001A8FFF7F1FFF6B2FFB256EA47015FFA4B
:103CB00088F851EA8801E4B251EA0421EDB251EAF0
:103CC0000541019A00EB8202C2F80017BDE8F381BA
:103CD00030B583B004000D0000200190002000905A
:103CE0002B00DBB2002200212000FFF7D1FF37BDFF
:103CF00011B581B001A8FFF7C7FF0400200000F054
:103D000005F80199C84010F0010016BDD0F8100563
:103D10007047FEB501208DF800009DF8000010F0FE
:103D20000F0050F010008DF800000922DFF8601637
:103D300068467CDF04002500002D02D02800FDF736
:103D4000A5FA0825002601AF32002900380001F04D
:103D50002BFA1020ADF804003C20ADF8060000203E
:103D6000ADF808004FF4C870ADF80A0001A87ADF7A
:103D700004002700002F02D03800FDF787FA042046
:103D800077DF04002500002D02D02800FDF77EFA21
:103D9000F7BD30B40123DFF8FC452370002392B255
:103DA000934206D2CC5CDFF8EC551D442C765B1CAC
:103DB000F5E730BC7047F8B5042500266F463200A1
:103DC0002900380001F0F0F9DFF8CC0500906946D1
:103DD000DFF8C805FEF7DBFF04002700002F02D044
:103DE0003800FDF753FAF1BD70B5040020780028C3
:103DF0000BD13B21DFF8A805008876DF05002E00F7
:103E0000002E02D03000FDF741FA70BD10B504005D
:103E10002000FDF73BFA10BDF0B587B01C25002649
:103E20006F4632002900380001F0BEF900200090F2
:103E30005FF4203001905FF47020029003208DF831
:103E40000C000020ADF80E0000208DF81000DFF807
:103E500054050590DFF850050690684601F06CFAAD
:103E600004002700002F02D03800FDF70FFA07B03A
:103E7000F0BD38B5002000F09CFC04002500002DAA
:103E800002D02800FDF702FA01F09EFB0400250095
:103E9000002D02D02800FDF7F9F932DF04002500DB
:103EA000002D02D02800FDF7F1F931BD70B50400F6
:103EB000E4B2200000280CD003280DD1022000F02D
:103EC00078FC05002E00002E02D03000FDF7DEF950
:103ED00002E0FFF7CEFFFFE770BD70B588B00400C9
:103EE0002088012813D0022865D0102810D011286E
:103EF0001DD013282BD03B2847D0512866D05228FC
:103F000034D0552800F09180562849D098E097E0A9
:103F1000072000F04EFC05002E00002E02D03000DD
:103F2000FDF7B4F9A088DFF87814088088E0002055
:103F300000F03FFC05002E00002E02D03000FDF7FF
:103F4000A5F94FF6FF70DFF85814088078E00023D9
:103F500000228521DFF8480400887FDF05002E005D
:103F6000002E02D03000FDF791F969E00023002215
:103F70000021DFF82C040088A9DF05002E00002EA8
:103F800002D03000FDF782F95AE01321A08876DFD5
:103F900005002E00002E02D03000FDF777F94FE02B
:103FA0001321A08876DF05002E00002E02D03000FD
:103FB000FDF76CF944E00021A08867DF05002E00C2
:103FC000002E02D03000FDF761F939E06846A11DEE
:103FD000102201F04BFB9DF80000002824D09DF832
:103FE0000800042807D09DF80800062803D09DF893
:103FF0000800052818D19DF80000022803D10220EE
:104000008DF8100002E001208DF810004FF4C1700F
:10401000ADF8140004A9A088A8DF05002E00002E2A
:1040200002D03000FDF732F90AE01721A088ADDF99
:1040300005002E00002E02D03000FDF727F9FFE723
:1040400008B070BD10B50400200001F042FA210054
:10405000DFF84803FEF77BFE2000FFF73EFF20005D
:1040600001F0C7FD200001F0C6FA10BD70B588B0A0
:10407000DFF838030068009000235022DFF8301387
:10408000684601F005FF05002E00002E02D030002A
:10409000FDF7FCF801AA0121002001F054FF040003
:1040A0002600002E02D03000FDF7F0F81720ADF802
:1040B000140001A801F066FF04002500002D02D0C5
:1040C0002800FDF7E3F8DFF8EC0201F01FFF040021
:1040D0002500002D02D02800FDF7D8F808B070BDEB
:1040E0002DE9F04FA7B03C25002618AF320029007B
:1040F000380001F059F802208DF8600000208DF89A
:10410000620005208DF863003C275FF000080DF188
:10411000240942463900484601F046F80120ADF82E
:104120003400A5480E905FF020095FF0000A0DF101
:10413000040B52464946584601F036F801208DF8E6
:104140000700402005901E200690002000909B4B09
:1041500001AA09A918A801F0C0FB0400A346BBF1FD
:10416000000F02D05846FDF791F827B0BDE8F08F58
:1041700038B53EDF04002500002D02D02800FDF7F1
:1041800085F831BD10B5040002F014FC8C490860BC
:104190008B4800688B490968401A8B490860884839
:1041A00000688849086089480088401C8749088061
:1041B00087480078002809D184480088652805DBF5
:1041C0000120834908700020FEF73CFCFCF78CFAC4
:1041D0000A20FFF78DFD002821D00920FFF788FD78
:1041E00000281CD17B480078401C7A490870794827
:1041F00090F90000652803DB7FF0630075490870C3
:10420000744890F90000012802DB7248007803E04E
:10421000704890F900004042C0B2FEF719FC0A2035
:10422000FFF766FD00282DD16B480078002829D1C2
:104230006A480078401C69490870684890F9000095
:10424000042807DB00206549087062480078401C9C
:10425000604908705F4890F90000652803DB7FF033
:1042600063005C4908705B4890F90000012802DB9C
:104270005848007803E0574890F900004042C0B227
:10428000FEF7E6FB02F096FB5549086054480068CB
:104290004B490968401A53490860524800684A4926
:1042A0000968B0FBF1F000EE100AB8EE400A4E4883
:1042B00080ED000A4D480078401C4C49087010BD44
:1042C00038B54B4A01214B4802F0D0FA04002500D2
:1042D000002D02D02800FCF7D9FF31BD38B50022EF
:1042E00042214448006802F0E0FA04002500002D55
:1042F00002D02800FCF7CAFF31BD38B53D48006840
:1043000002F0FCFA04002500002D02D02800FCF782
:10431000BDFF31BD70B500210A20FFF7D9FC002197
:104320000920FFF7D5FCFEF769FB6420FEF78AFB46
:104330000023314A0521002002F05EFA05002E001C
:10434000002E02D03000FCF7A1FFFFF78FFEFFF731
:10435000E0FCFFF730FDFFF7C3FEFFF75DFD032034
:1043600001F092FB04002600002E02D03000FCF782
:104370008DFFFBF751F8FCF795FCFFF7A1FFFDF768
:104380002CFAFDF797F9FFF7A9FFFFF7F1FEFCE71D
:10439000748302005C210020933D0200902D0020D8
:1043A000C0210020E93D02000D3E0200B88302005A
:1043B000002B00204540020058210020AD3E0200A5
:1043C0002C2F0020302F0020342F0020A02F002081
:1043D000BB2F0020BC2F0020BF2F0020BD2F0020AE
:1043E000382F00203C2F0020282F0020BA2F00203B
:1043F00085410200B4830200C829002001005FF05B
:10440000A040704711B581B00C0001A8FFF7F6FF7E
:10441000019900EB8101D1F8001731F44031019A84
:1044200000EB8202C2F80017019900EB8101D1F87C
:104430000017E4B251EA0441019A00EB8202C2F88B
:10444000001713BD80B5DFF8E803006802F056FAE4
:10445000DFF8E003006802F051FA01BD70B5040016
:1044600000250026DFF8D8030078002805D00020BA
:10447000DFF8CC13087002F015FBE4B2002C37D043
:10448000022C3BD03AD3042C00F0948064D3062C49
:1044900000F0E680C0F0BA80082C00F0F580C0F093
:1044A000ED800A2C00F01181C0F0FD800C2C00F092
:1044B0002D81C0F019810E2C00F02D81C0F02B81D0
:1044C000102C00F02881C0F02681122C00F04A81C7
:1044D000C0F02181142C00F05281C0F04881162CCC
:1044E00000F06081C0F05381172C00F05B815EE129
:1044F00002F0D8FADFF84C03047058E1002002F013
:10450000B4FA00280BD0002002F0C4FAE4B2022C66
:1045100002D14FF4E1660CE04FF47A6609E0002026
:1045200002F0B0FAE4B2022C01D1C82601E04FF447
:10453000C876DFF8100304700022DFF8000300687B
:104540006421B6FBF1F101FB00F1DFF8E402006841
:1045500002F0ABF905002AE1002002F086FA0028FB
:104560000BD0002002F096FAE4B2032C02D14FF4F3
:1045700048760CE04FF47A6609E0002002F082FAF7
:10458000E4B2032C01D1C82601E04FF4C876DFF86D
:10459000B40204700022DFF8A40200686421B6FBB4
:1045A000F1F101FB00F1DFF88802006802F07DF90B
:1045B0000500FCE0002002F058FA00280BD0002093
:1045C00002F068FAE4B2042C02D14FF47A660DE0EE
:1045D0004FF47A660AE0002002F054FAE4B2042CA8
:1045E00002D14FF4C87601E04FF4C87695480470C4
:1045F0000022924800686421B6FBF1F101FB00F152
:104600008B48006802F051F90500D0E0002002F06C
:104610002CFA00280AD0002002F03CFAE4B2052C63
:1046200001D1C8260CE04FF47A6609E0002002F0C0
:1046300029FAE4B2052C01D1C82601E04FF4C8766E
:104640008048047000227D4800686421B6FBF1F1C7
:1046500001FB00F17648006802F027F90500A6E0AA
:10466000002002F035FA7748047000227348016890
:104670006F48006802F019F9050098E0002002F088
:1046800001FA7048047092E001206D490870012021
:1046900002F01EFA0022694801686548006802F0CD
:1046A00004F9050083E0012065490870012002F04B
:1046B0000FFA002261480068052101FB00F15C4807
:1046C000006802F0F2F8050071E001205C49087012
:1046D000012002F0FDF900225848016854480068A2
:1046E00002F0E3F8050062E001205549087001205E
:1046F00002F0EEF9002251480068052101FB00F1AB
:104700004B48006802F0D1F8050050E002F0D5F9FE
:104710004C4804704BE04748006802F0EFF8050091
:10472000E4B2D4F111000600002E17D0002D15D1EF
:10473000022E0FD3002241480068C82101FB06F178
:104740006423B1FBF3F101FB00F13A48006802F089
:10475000ACF80500022002F095F902E0022002F018
:1047600099F924E002F09EF9364804701FE002F047
:1047700099F9002002F086F93248047017E002F03F
:1047800091F9012002F07EF92E4804700FE002F04A
:1047900089F9002002F076F9012002F073F9294826
:1047A000047004E002F089F926480470FFE728004D
:1047B00070BD38B50400002523480078C00704D533
:1047C0002000C0B2FFF74AFE0500280032BD30B419
:1047D00003000020042B26D2D2B2012A06D1C9B28E
:1047E000012902D113F10E0200E00022C9B2002912
:1047F0000FD0022906D013D20F4C032505FB03F579
:10480000625512E00C4C032505FB03F52C44627045
:104810000BE0094C032505FB03F52C44A27004E0D2
:104820000724200001E00724200030BC704700006E
:10483000A8830200AC8302000C2E0020F42E00207E
:10484000B72F0020B62F0020F82E002010B504004E
:10485000200002F044F90321FFF7D4FD002010BD31
:1048600038B50FB4DDE9020102F042F90546DDE991
:10487000000102F03DF9012DB8BF012830DA01989E
:10488000002807D5DDE9000181F00041CDE90001F4
:10489000082400E000240398002807D5DDE9020180
:1048A00081F00041CDE9020184F00604DDE9020156
:1048B000DDE9002302F03CF904D2FDF7AFF841EC4A
:1048C000100B29E0002D08D5DDE90001DDE9022308
:1048D000FDF7A4F841EC100B20E09FED150B1DE057
:1048E000022808BFDDE9000120D0022D08BFDDE964
:1048F00002011BD0854201990CBF9FED0F0B9FED6C
:104900000C0B002903994CBF08240024002948BF40
:1049100084F00604012801D184F00204224605B087
:10492000BDE8304051EC100B02F01AB905B030BDB3
:104930000000000000000000000000000000F03F48
:1049400080B553EC112B51EC100BFFF789FF41ECB4
:10495000100B01BDD0B52DED048B82B041EC180BCE
:104960008DED008BDDE90023C3F30A5140F2FF72A5
:10497000914212D019B9C3F31301084311D051EC7D
:10498000180B0022002302F0D3F83DBF81F0004154
:1049900041EC180B0824002409E0C3F31301084379
:1049A000EDD002B051EC180BBDEC048BD0BD51EC36
:1049B000180B2B4A2B4B02F0BBF81CD29FED2B9B04
:1049C00051EC190B53EC182B00F0DCF806460F469F
:1049D00053EC182B51EC190B02F0BAF932463B4656
:1049E000FCF74AFF00F056F841EC100B51EC180BA5
:1049F00053EC102B1EE001221B4B02F099F823D23E
:104A00009FED1A9B51EC190B53EC182B00F0BAF8E0
:104A100006460F4653EC182B51EC190B02F098F98F
:104A200032463B46FCF728FF00F034F884F00204DD
:104A300053EC182BFCF7F2FF02B02246BDEC048BBE
:104A4000BDE8D04002F08CB802F0F6F921210160F7
:104A500002B04FF0FF30BDEC048B6FF00041D0BDD1
:104A6000CE3B7F669EA0E63F0000F03F00000000C6
:104A70000000F03F80B551EC100BFFF76BFF41ECED
:104A8000100B01BD51EC100B10B500F003F841EC18
:104A9000100B10BD40F2FF7C0B0D4DD0634566D26C
:104AA00030B421EA035141F4801103F2FD3C5FEA86
:104AB0005C0C01D300184941890041EA90718000E3
:104AC0004FF440140023E202D50AB1F5100107D4D7
:104AD0006D081DD2091B641900184941491BF7D5FF
:104AE0006D080AD20919641B00184941491BEFD50A
:104AF0006D08F7D301E0520817D0C01861419B1A26
:104B0000AC4100184941801AA941F4D452080AD096
:104B1000C01AA1419B186C4100184941801AA94153
:104B2000E9D45208F4D15B1C6C4161084FEA3300B0
:104B300001EB0C5130BC704750EA0103FBD030B49C
:104B4000B1FA81F311B9B0FA80F41B190B3BB3F140
:104B500020042FBF00FA04F19940C3F1200420FA89
:104B600004F438BF21439840D3F101039DE7634526
:104B7000E1D011F5801FDED850EA4101DBD0D943E6
:104B800002F060B9F0B44FF0004591EA030F44BF62
:104B90006B4002F0E7B800BF841A71EB030604D241
:104BA0006E40001BB141121973414FF4001C1CEB05
:104BB000410F34BF7CEB430684E00C0DA4EB13568D
:104BC000362E7DDC012E43DC45EAC32343EA5253F3
:104BD00012BFD20292025B08240545EAC12141EAD4
:104BE0005051D2EBC020994125D407D1B0FA80F6BC
:104BF00010FA06F164D00020203608E0B1FA81F600
:104C0000B140C6F1200220FA02F21143B0404FEA4F
:104C1000F474B4EB465434F001064FEA74040AD835
:104C2000D6F50016760D04F00044F04061FA06F265
:104C30005040F1404840C00A40EA415021F0004154
:104C400028BF5FEA500550F1000044EBD12137E066
:104C500045EAC323DB0A45EAC121C90AB6F12005AA
:104C60000EDD42EA0242120CC5F1200603FA06F6F6
:104C7000EB4042EA06056D42984161F100010DE00A
:104C800062FA06F5F240554063FA06FC82EA0C022D
:104C9000F3405A406D42904161EB030111F4801FD3
:104CA00005D1641E620502D06D004041494121F4E6
:104CB0008011430875F1004350F1000041EB0451AD
:104CC000F0BC70471CEB410F15D223F0004352EAB1
:104CD00043060BD04FEA4C0CBCEB410F04D80C0D33
:104CE000661E342EB7DDEBE7801A994150EA410683
:104CF00008BF0021E4E708BF1CEB430F28BF6FF09B
:104D00000001DDE70122C9B24250704781B00022A4
:104D100009B2425009B242580092009A01B070475D
:104D200009B24058002801D0012000E00020C0B2A4
:104D30007047C0F800127047C0F800137047D0F8F1
:104D40000403C9B2084201D0012000E00020C0B233
:104D500070470121C0F80015704710B400231A00F5
:104D6000D2B2022A09DAD2B251F82230D2B200EB22
:104D70008204C4F86035521CF2E710BC7047C9B217
:104D8000C0F80C15D2B2C0F804259BB2C0F80835A3
:104D9000704770B504000D00160032682900C9B2D2
:104DA000200000F013F8B2882900C9B2200000F0FA
