:020000040001F9
:10F00000C829002031860200F31A02004B1D0200BD
:10F010002B1E02000B310200D3540200000000003E
:10F02000000000000000000000000000A7590200DE
:10F03000B37B020000000000C5850200E7850200E6
:10F040003B7A0200F3850200B7840200A912020095
:10F050009186020093860200D1360200BF39020079
:10F060009586020097860200998602009B86020020
:10F070009D8602009F860200A1860200A3860200F0
:10F08000A5860200916A0200A7860200A9860200F6
:10F09000BD6A0200AB860200ED610200AD8602008F
:10F0A000AF860200B1860200B3860200B586020078
:10F0B00039540200B7860200000000000000000082
:10F0C000B9860200BB860200BD860200BF86020030
:10F0D000C1860200C3860200C5860200000000004F
:10F0E0000000000000000000000000000000000020
:10F0F0000000000000000000000000000000000010
:10F1000000000000000000000000000000000000FF
:10F1100000000000000000000000000000000000EF
:10F40000DFF8FC1B0968491CDFF8F42B11600121AF
:10F41000DFF8F02B117070471FB5DFF8EC0B0FC849
:10F420006C4684E80F0014208DF8030011208DF83D
:10F43000020012208DF8010013208DF80000DFF883
:10F44000CC2B6946DFF8C80B01F0C7FD0400002C87
:10F4500002D0200001F036FF1FBDF0B583B00400DC
:10F460000D0016001F008DF8045030788DF805004F
:10F470000020DFF8901B087000200090002302227B
:10F4800001A9DFF88C0B01F024FEDFF8780B00787F
:10F490000028FAD00020FEBDF8B504000D001600CB
:10F4A0001F0055F08000DFF86C1B08700020DFF8AB
:10F4B000541B0870781CC0B20090DFF85C3B01223E
:10F4C000DFF8501BDFF8480B01F003FEBFB2012F3D
:10F4D00004D1DFF8300B00780028FAD0DFF8380BC1
:10F4E000407830700020F2BD80B50C23DFF82C2B63
:10F4F00022210020FFF7D0FF0020062812DADFF8D3
:10F50000181B01EB400189780902DFF80C2B02EB94
:10F510004002527851FA82F1DFF8042B22F81010E1
:10F52000401CEAE701BDF0EE401A90ED004AB0EE53
:10F53000442A91ED004A34EE204AF0EE442A32EE9D
:10F54000814A82EE844AF0EE443A31EEC24AF0EE4D
:10F55000424A44EE234AB0EE640AB7EE004A34EE63
:10F56000634A24EE224AB0EE443A81ED003A80ED3F
:10F57000000A7047DFF8A80AB0F9000000EE100A90
:10F58000B8EEC00ADFF89C0AD0ED000A30EE600A3F
:10F59000DFF8940AD0ED000A20EE200ADFF88C0A8A
:10F5A000D0ED000A20EE200ADFF8840A80ED000A80
:10F5B000DFF86C0AB0F9020000EE100AB8EEC00ADB
:10F5C000DFF8600AD0ED010A30EE600ADFF8580A71
:10F5D000D0ED000A20EE200ADFF8500AD0ED000A34
:10F5E00020EE200ADFF8480A80ED010ADFF8300A31
:10F5F000B0F9040000EE100AB8EEC00ADFF8240AE1
:10F60000D0ED020A30EE600ADFF81C0AD0ED000AE5
:10F6100020EE200ADFF8140AD0ED000A20EE200ABE
:10F62000DFF80C0A80ED020ADFF8F409B0F90600F1
:10F6300000EE100AB8EEC00ADFF8F809D0ED000AB3
:10F6400030EE600ADFF8F009D0ED000A20EE200A63
:10F65000DFF8E80980ED000ADFF8C409B0F9080016
:10F6600000EE100AB8EEC00ADFF8C809D0ED010AB2
:10F6700030EE600ADFF8C009D0ED000A20EE200A63
:10F68000DFF8B80980ED010ADFF89409B0F90A0043
:10F6900000EE100AB8EEC00ADFF89809D0ED020AB1
:10F6A00030EE600ADFF89009D0ED000A20EE200A63
:10F6B000DFF8880980ED020ADFF884090068002875
:10F6C00000F0A480DFF87C090068401CDFF87419A2
:10F6D0000860002003286EDADFF8441931F91010B1
:10F6E00000EE101AB8EEC00ADFF85C1901EB8001D9
:10F6F00081ED000ADFF82C1901EB800191ED000A81
:10F70000DFED410A30EE200ADFF83C1901EB800101
:10F71000D1ED000AB4EE600AF1EE10FA10D5DFF870
:10F72000041901EB800191ED000ADFED370A30EE9C
:10F73000200ADFF8141901EB800181ED000A24E0B2
:10F74000DFF8E01801EB800191ED000ADFEDE10A3E
:10F7500030EE200ADFF8F01801EB8001D1ED000A4D
:10F76000F4EE400AF1EE10FA0FD5DFF8B81801EB0D
:10F77000800191ED000ADFEDD70A30EE200ADFF8B4
:10F78000C81801EB800181ED000ADFF8C01801EB19
:10F79000800191ED000ADFF8B01801EB8001D1ED96
:10F7A000000A30EE200ADFF8A41801EB800181ED99
:10F7B000000A401C8EE7DFF88C08006840F6B9317B
:10F7C000884223DB0020DFF87C1808600020DFF887
:10F7D000701808600020032818DADFF8701801EBB1
:10F7E000800191ED000ADFEDBC0A80EE200ADFF80F
:10F7F000341801EB800181ED000ADFF85018002277
:10F8000041F82020401CE6E700004842DFF84008AD
:10F810000078002858D1DFF818084068DFF834185D
:10F820000860DFF80C08DFF8081891ED000AB1EE67
:10F83000400A80ED010ADFF8F807DFF818180968B8
:10F840000160DFF8EC078068DFF808180860DFF86F
:10F85000E007DFF8DC1791ED000AB1EE400A80ED19
:10F86000020ADFF8CC07DFF8EC1709680160DFF85F
:10F87000CC074068DFF8E0170860DFF8C007DFF862
:10F88000BC1791ED000AB1EE400A80ED010ADFF8E5
:10F89000AC07DFF8C41709680160DFF8A0078068CB
:10F8A000DFF8B4170860DFF89407DFF8901791EDE0
:10F8B000000AB1EE400A80ED020ADFF88007DFF8A7
:10F8C00098170968016004E1DFF8840700780128CF
:10F8D00040D1DFF85C078068DFF878170860DFF850
:10F8E0005007DFF84C1791ED000AB1EE400A80EDA9
:10F8F000020ADFF83C074068DFF834170860DFF8D9
:10F900003007DFF8501791ED000AB1EE400A80EDA4
:10F91000010ADFF828078068DFF83C170860DFF885
:10F920001C07DFF8181791ED000AB1EE400A80EDD0
:10F93000020ADFF808074068DFF800170860DFF800
:10F94000FC06DFF8141791ED000AB1EE400A80EDD5
:10F95000010ABEE0DFF8F806007802282CD1DFF8B3
:10F96000D0068068DFF8EC160860DFF8C406DFF820
:10F97000C01609688160DFF8B806DFF8D81691ED87
:10F98000000AB1EE400A80ED000ADFF8B006806898
:10F99000DFF8C4160860DFF8A406DFF8A0160968CF
:10F9A0008160DFF89806DFF8B01691ED000AB1EE3D
:10F9B000400A80ED000A8CE0DFF894060078032806
:10F9C0002CD1DFF86C068068DFF888160860DFF855
:10F9D0006006DFF85C1691ED000AB1EE400A80ED9A
:10F9E000020ADFF84C06DFF86C1609680160DFF8E0
:10F9F0004C068068DFF860160860DFF84006DFF824
:10FA00003C1691ED000AB1EE400A80ED020ADFF8E3
:10FA10002C06DFF84416096801605AE0DFF830066A
:10FA2000007804282CD1DFF808064068DFF8241697
:10FA30000860DFF8FC05DFF8F81591ED000AB1EE7B
:10FA4000400A80ED010ADFF8E805DFF808160968CA
:10FA50000160DFF8E8054068DFF8FC150860DFF8B2
:10FA6000DC05DFF8D81591ED000AB1EE400A80ED13
:10FA7000010ADFF8C805DFF8E0150968016028E031
:10FA8000DFF8CC050078052823D1DFF8A40540680D
:10FA9000DFF8C0150860DFF89805DFF894150968ED
:10FAA0004160DFF88C05DFF8AC1509680160DFF80C
:10FAB0008C054068DFF8A0150860DFF88005DFF8E6
:10FAC0007C1509684160DFF87405DFF88C1509685A
:10FAD00001607047000048C20000FA44DFF87C056E
:10FAE00090F9000000281AD1DFF8780590ED001A8F
:10FAF000B8EEC11AB4EE401AF1EE10FA0FD5DFF8E5
:10FB0000600590ED001AB8EEC11AB4EE601AF1EE7D
:10FB100010FA04D50120DFF84415087043E0DFF83F
:10FB20003C0590F90000012809D1F5EE400AF1EEFC
:10FB300010FA04D50020DFF82415087033E0DFF850
:10FB40001C0590F9000000281DD1DFF8180590ED84
:10FB5000001AB8EEC11AB4EE401AF1EE10FA12D53E
:10FB6000DFF8FC040068404201EE100AB8EEC11A4A
:10FB7000F4EE410AF1EE10FA05D55FF0FF30DFF840
:10FB8000DC1408700FE0DFF8D40490F9000010F1E5
:10FB9000010F08D1F5EE400AF1EE10FA03DD002066
:10FBA000DFF8B8140870DFF8B40490F90000DFF84B
:10FBB000B81491F9001088420ED0DFF8A004007844
:10FBC000DFF8A4140870DFF894040078DFF89414C8
:10FBD0000968484340B200E000207047010000205F
:10FBE000DFF8882492F90020012A11DBDFF8802455
:10FBF00092ED001AB8EEC11AB4EE401AF1EE10FA06
:10FC00001DD5BDEEC01ADFF8682482ED001A16E09B
:10FC1000DFF8582492F90020002A10D5DFF850248C
:10FC200092ED001AB8EEC11AB4EE401AF1EE10FAD5
:10FC300005D5BDEEC01ADFF8382482ED001ADFF8D2
:10FC40002C2492F90020002A1AD1DFF8182492ED12
:10FC5000001AB8EEC11AB4EE401AF1EE10FA0FD540
:10FC6000DFF8FC2392ED001AB8EEC11AB4EE601A68
:10FC7000F1EE10FA04D50122DFF8F0331A7059E0E2
:10FC8000DFF8E82392F90020012A13D1DFF8D0230E
:10FC90001268022392FBF3F201EE102AB8EEC11AA9
:10FCA000F4EE410AF1EE10FA04D50222DFF8BC337B
:10FCB0001A703FE0DFF8B42392F90020002A1DD12A
:10FCC000DFF8A02392ED001AB8EEC11AB4EE401A84
:10FCD000F1EE10FA12D5DFF888231268524201EED5
:10FCE000102AB8EEC11AF4EE410AF1EE10FA05D569
:10FCF0005FF0FF32DFF874331A701BE0DFF86C231B
:10FD000092F9002012F1010F14D1DFF85423126888
:10FD10005242022392FBF3F201EE102AB8EEC11A0E
:10FD2000B4EE601AF1EE10FA04D57FF00102DFF8AC
:10FD30003C331A70DFF8342392F90020022A06D0EF
:10FD4000DFF8282392F9002012F1020F17D1DFF813
:10FD50001C2392F90020022392FBF3F2DFF8103308
:10FD60001B685A4310000022DFF800331A7000228B
:10FD7000DFF8FC321A60DFF8FC2212680A6040B239
:10FD80007047DFF8F40290F9000000281AD1DFF87C
:10FD9000EC0290ED001AB8EEC11AB4EE401AF1EE82
:10FDA00010FA0FD5DFF8D80290ED001AB8EEC11A9C
:10FDB000B4EE601AF1EE10FA04D50120DFF8B812A3
:10FDC000087043E0DFF8B00290F90000012809D183
:10FDD000B5EE400AF1EE10FA04D50020DFF89812D3
:10FDE000087033E0DFF8900290F9000000281DD180
:10FDF000DFF888020068404201EE100AB8EEC11A2E
:10FE0000B4EE410AF1EE10FA10D5DFF8740290ED6D
:10FE1000001AB8EEC11AB4EE601AF1EE10FA05D568
:10FE20005FF0FF30DFF8501208700FE0DFF8480293
:10FE300090F9000010F1010F08D1B5EE400AF1EE83
:10FE400010FA03DD0020DFF830120870DFF8280216
:10FE500090F90000DFF82C1291F9001088420ED0C2
:10FE6000DFF814020078DFF81C120870DFF80802CF
:10FE70000078DFF808120968484340B200E000202B
:10FE8000704701000020DFF8002292F90020012ACB
:10FE900011DBDFF8E02192ED001AB8EEC11AB4EEE2
:10FEA000401AF1EE10FA1DD5BDEEC01ADFF8C421DC
:10FEB00082ED001A16E0DFF8D02192F90020002A26
:10FEC00010D5DFF8B02192ED001AB8EEC11AB4EEE9
:10FED000410AF1EE10FA05D5BDEEC01ADFF8942103
:10FEE00082ED001ADFF8A02192F90020002A1AD131
:10FEF000DFF8882192ED001AB8EEC11AB4EE401A6C
:10FF0000F1EE10FA0FD5DFF8782192ED001AB8EE75
:10FF1000C11AB4EE601AF1EE10FA04D50122DFF82E
:10FF200068311A7044E0DFF8602192F90020012A5C
:10FF300009D1B5EE400AF1EE10FA04D50222DFF83D
:10FF400048311A7034E0DFF8402192F90020002A8D
:10FF50001DD1DFF828211268524201EE102AB8EEB6
:10FF6000C11AB4EE410AF1EE10FA10D5DFF81021F3
:10FF700092ED001AB8EEC11AB4EE601AF1EE10FA62
:10FF800005D55FF0FF32DFF800311A7010E0DFF8BE
:10FF9000F82092F9002012F1010F09D1B5EE400AC4
:10FFA000F1EE10FA04DD7FF00102DFF8DC301A70A8
:10FFB000DFF8D42092F90020022A06D0DFF8C8200A
:10FFC00092F9002012F1020F17D10022DFF8B830A9
:10FFD0001A70DFF8A020126810000022DFF89430B9
:10FFE0001A60DFF8882092F90020DFF884301B685F
:10FFF0005A43022392FBF3F20A6040B270470000BA
:020000040002F8
:100000007C2F0020C22100202086020001F4010084
:1000100064860200A82F0020D82D0020182E002072
:10002000242E0020482E0020A4210020A8210020FA
:100030003C2E00206C2E0020AC210020602E0020E1
:100040005C2F0020582F0020302E0020542E00203E
:10005000C52F0020602F0020642F0020C62F002015
:100060009421002098210020C72F0020C82F0020B5
:10007000802F0020842F0020CA2F0020A0210020E4
:100080009C210020CB2F0020C92F0020DFF8480C36
:10009000407EC00704D50120DFF83C1C487003E017
:1000A0000020DFF8341C4870DFF82C0C407E8007FD
:1000B00004D50120DFF8201C887007E00020DFF85D
:1000C000181C88700020DFF8101C4871DFF8080C3D
:1000D000407E400704D50120DFF8FC1BC87003E018
:1000E0000020DFF8F41BC870DFF8EC0B407E00073F
:1000F00004D50120DFF8E01B087103E00020DFF8E1
:10010000D81B0871DFF8D00B407EC0060DD501204A
:10011000DFF8C41B4871DFF8C00B8078012808D0D5
:100120000120DFF8B41B887003E00020DFF8A81B73
:100130004871DFF8A40B407E800604D50120DFF86B
:10014000981B887103E00020DFF88C1B8871DFF8B2
:10015000880B407E400604D50120DFF87C1BC87167
:1001600003E00020DFF8701BC871DFF86C0B407EE5
:10017000000604D50120DFF8601B087203E00020B0
:10018000DFF8541B0872DFF8500BC07E002807D040
:10019000DFF8440BC07EDFF8401B81F82E0004E03E
:1001A0000020DFF8341B81F82E00DFF82C0B007FD5
:1001B000002807D0DFF8200B007FDFF81C1B81F838
:1001C0002F0004E00020DFF8101B81F82F00DFF87B
:1001D000080B407F00280ED0DFF8FC0A407FDFF8D4
:1001E000F81A81F83000DFF8F00A90F83000DFF8F4
:1001F000DC1A08600BE00A20DFF8DC1A81F8300016
:10020000DFF8D40A90F83000DFF8C01A0860DFF891
:10021000C80A807F00280ED0DFF8BC0A807FDFF894
:10022000B81A81F83100DFF8B00A90F83100DFF831
:10023000A01A08600BE00A20DFF89C1A81F8310050
:10024000DFF8940A90F83100DFF8841A0860DFF8CC
:10025000880AC07F00280ED0DFF87C0AC07FDFF854
:10026000781A81F83200DFF8700A90F83200DFF86F
:10027000641A08700BE00020DFF85C1A81F8320085
:10028000DFF8540A90F83200DFF8481A0870DFF8F7
:10029000480A90F82000002808D0DFF83C0A90F8BF
:1002A0002000DFF8341A81F8330004E00020DFF882
:1002B000281A81F83300DFF8200A90F8210000287E
:1002C00008D0DFF8140A90F82100DFF80C1A81F842
:1002D000340004E00020DFF8001A81F83400DFF871
:1002E000F80990F82200002808D0DFF8EC0990F80F
:1002F0002200DFF8E41981F8350004E00D20DFF872
:10030000D81981F83500DFF8D00990F823000028CB
:1003100008D0DFF8C40990F82300DFF8BC1981F891
:100320002D0004E00420DFF8B01981F82D00DFF87B
:10033000A80990F82400002808D0DFF89C0990F85C
:100340002400DFF8941981F8360004E00020DFF87B
:10035000881981F83600704710B50024DFF8780955
:10036000407800280CD00120DFF8F0190870DFF881
:10037000EC09807B50F00100DFF8E01988730BE096
:100380000020DFF8D8190870DFF8D009807B10F062
:10039000FE00DFF8C8198873DFF83C098078002870
:1003A00062D0DFF8380990ED000ADFEDCF0A30EEB9
:1003B000200AF2EE040A20EE200ABDEEC00A10EE7A
:1003C000100A00B2DFF894194862DFF8940990ED42
:1003D000000ADFEDC50A30EE200AF2EE040A20EE34
:1003E000200ABDEEC00A10EE100A00B2DFF86C1948
:1003F0008862DFF8700990ED000ADFEDBB0A30EE8D
:10040000200AF2EE040A20EE200ABDEEC00A10EE29
:10041000100A00B2DFF84419C8620020062816DA74
:100420000221022290FBF2F2DFF8303903EB820264
:10043000526A90FBF1F301FB03F1091AC90008317C
:100440000A41DFF818190144CA73401CE6E701208D
:10045000DFF808194870DFF80409807B50F00200CB
:10046000DFF8F81888730BE00020DFF8F018487008
:10047000DFF8E808807B10F0FD00DFF8E0188873F3
:10048000DFF85408C078002846D0DFF8DC08007890
:10049000002801D101F0CDF8994890ED000ABDEE99
:1004A000C00ADFF8B80880ED0C0A0020022811DA33
:1004B0000221DFF8A828126B90FBF1F301FB03F196
:1004C000091AC90008310A41DFF8901801444A7539
:1004D000401CEBE701F089F8002810D0894800683B
:1004E000DFF8781881F83400DFF8700890F83400ED
:1004F000DFF8681808770120DFF87018086001201D
:10050000DFF858188870DFF85408807B50F004003A
:10051000DFF84818887312E0DFF84C0800780028EC
:1005200001D001F08FF80020DFF830188870DFF874
:100530002C08807B10F0FB00DFF820188873DFF8B0
:100540009807007900283ED001F0DFF96B49088058
:100550006A48B0F9000001F0E5F9DFF81428DFF887
:10056000143801F0F5F90022DFF80C3801F0C2FA76
:1005700001F0ECFB604908605F48006801F02EFC68
:100580000022DFF8F83701F0E3F901F04FFCDFF863
:10059000CC1781F83500DFF8C40790F83500DFF894
:1005A000BC17C8750120DFF8B417C870DFF8AC07B6
:1005B000807B50F00800DFF8A41788730120DFF873
:1005C000AC1708600BE00020DFF89017C870DFF868
:1005D0008C07807B10F0F700DFF880178873DFF856
:1005E000F8064079002855D0DFF8940700683F49A5
:1005F00009680843002841D03C480068DFF85C17D0
:1006000081F836003A480068DFF8501781F8370063
:10061000DFF86C070068DFF8441781F838003548C8
:100620000068DFF8381781F83900DFF8300790F8F4
:100630003600DFF828170876DFF8200790F8370033
:10064000DFF818174876DFF8140790F83800DFF85D
:100650000C178876DFF8040790F83900DFF8FC16ED
:10066000C876DFF8F806807B50F01000DFF8EC1653
:1006700088730120DFF8F41608600BE00020DFF833
:10068000DC160871DFF8D406807B10F0EF00DFF88D
:10069000CC168873DFF8EC060088DFF8C016C88730
:1006A0000020022811DA0221DFF8B026D28F90FB59
:1006B000F1F301FB03F1091AC90008310A41DFF81F
:1006C0009C160144CA77401CEBE70020132806DA89
:1006D000DFF888160144897B0C19401CF6E7DFF827
:1006E0007C0680F8214010BD00003443482F0020D4
:1006F0004C2F0020542F0020442F0020A62F002034
:100700000C2F0020202F002010B50024DFF87806E1
:100710000068401CDFF870160860DFF8700600788B
:10072000002810D0DFF840060078002804D100F03F
:100730006AFF01F0D6FB06E0DFF8540600780028D7
:1007400001D001F0CEFBDFF890050078002805D03D
:10075000FFF79CFC0020DFF880150870DFF87805B3
:100760008078002800F0E281FEF7BEFEFEF702FF6F
:100770009FEDDB4ADFEDDA3A9FEDD93ADFF8140658
:10078000D0ED022ADFF80C0690ED012ADFF804060E
:10079000D0ED001ADFF8000690ED021ADFF8F80538
:1007A000D0ED010ADFF8F00590ED000A01F06CFCD5
:1007B00001F0F0FBDFF8200590F83300002847D067
:1007C000DFF8140590F8330000EE100AB8EE401A76
:1007D000DFEDC40ADFF8C415DFF8C405DFF8FC2438
:1007E00092ED000AFEF79FFEDFF8F00480ED000AAC
:1007F000DFF8E40490F8330000EE100AB8EE401A77
:10080000DFEDB80ADFF89C15DFF89C05DFF850250E
:1008100092ED000AFEF787FEDFF8440580ED000A3E
:10082000DFF8B40490F8330000EE100AB8EE401A76
:10083000DFEDAC0ADFF87415DFF87405DFF8242566
:1008400092ED000AFEF76FFEDFF8180580ED000A52
:10085000DFF884044079002800F06881DFF854252F
:10086000DFF85415DFF85405DFF82C3593ED021A44
:10087000DFF82435D3ED010ADFF81C3593ED000ACB
:1008800001F04AFBDFF83825DFF83815DFF83805C6
:10089000DFF8003593ED021ADFF8F834D3ED010AE2
:1008A000DFF8F03493ED000A01F036FBDFF81805AD
:1008B00090ED000ADFF81005D0ED000A20EE200AC6
:1008C000DFF80405D0ED010ADFF8FC0490ED011A11
:1008D00000EE810A02F0DEF8F7EE000A80EE800AF0
:1008E000DFF8E80480ED000ADFF8D00490ED000A9C
:1008F000DFF8C804D0ED000A20EE200ADFF8BC04BF
:10090000D0ED010ADFF8B40490ED011A00EE810A7F
:1009100002F0C0F8F7EE000A80EE800ADFF8B004BB
:1009200080ED000ADFF8A004806801F057FA002289
:10093000DFF8A03401F00CF801F008FADFF88814B1
:100940008860DFF88804006801F048FA0022DFF8C8
:10095000843400F0FDFF01F0F9F9DFF8701408604D
:10096000DFF8580490ED020ADFEDAC0A30EE200A01
:10097000DFF8480480ED020ADFF84004806801F0E7
:100980002DFADFF85424DFF8543400F0E1FF01F0D1
:10099000DDF9DFF828148860DFF83404006801F01E
:1009A0001DFADFF83424DFF8343400F0D1FF01F011
:1009B000CDF9DFF81C140860DFF8240490ED000A7C
:1009C000F8EE000A30EE201ADFF81804D0ED000A25
:1009D000DFF81414DFF81404DFF8EC2392ED020AB8
:1009E000FEF7A1FDDFF8E00380ED020ADFF8F00377
:1009F00090ED001ADFF8EC03D0ED000ADFF8F013F9
:100A0000DFF8F003DFF8B42392ED020AFEF78BFD66
:100A1000DFF8A80380ED020ADFF8C40390ED001AA6
:100A2000DFF8C003D0ED000ADFF8CC13DFF8CC0309
:100A3000DFF8982392ED000AFEF775FDDFF88C03CE
:100A400080ED000ADFF8980390ED001ADFF89403B8
:100A5000D0ED000ADFF8A813DFF8A803DFF8702351
:100A600092ED000AFEF75FFDDFF8640380ED000AF7
:100A7000DFF8580390ED000ADFF88C03D0ED000A90
:100A800030EE600ADFF8840380ED000ADFF87803B7
:100A9000DFF83813096801608F4890F836000028A5
:100AA00022D1DFF8680390ED000AF2EE040A60EE4E
:100AB000200ADFF8080390ED020AFFF762F9DFF879
:100AC000C0120860DFF80003D0ED020ADFF800036F
:100AD00090ED000AFFF702F8DFF83413086025E014
:100AE000000000000AD7A33CDFF82803DFF81C133E
:100AF00091ED000AF2EE040A60EE200ADFF8BC1263
:100B000091ED020AFFF7BDF9DFF874120860DFF813
:100B10000803DFF8B412D1ED020ADFF8B41291ED48
:100B2000000AFFF75BF8DFF8E8120860DFF8EC0274
:100B3000007800283BD06848807900280ED06648AD
:100B400090F82E00002803D1642002F049F808E054
:100B5000614890F82E0002F043F802E0002002F015
:100B60003FF85D48C07900280ED05B4890F82F0010
:100B7000002803D1642002F039F808E0564890F8C4
:100B80002F0002F033F802E0002002F02FF8524864
:100B9000007A002803D00120DFF8F01108704E48D9
:100BA000807E800703D50120DFF874120860FFF70C
:100BB000D3FBDFF86802007800282CD04648407844
:100BC00000281AD0DFF85C020068401CDFF85412DD
:100BD0000860DFF8500200683F4991F82D10884204
:100BE00019DB1422DFF84012DFF8400202F002FAAB
:100BF0000020DFF8301208600DE05C480068002833
:100C000009D01422DFF82012DFF8200202F0F2F9F6
:100C10000020564908602000C0B210BD00007AC410
:100C200080B51C20DFF8081208700123DFF80022CD
:100C300010210020FEF711FC0020DFF8F4110870ED
:100C40000123DFF8EC2111210020FEF706FC8E20A5
:100C5000DFF8DC1108700123DFF8D42158210020CF
:100C6000FEF7FBFB0920DFF8C81108700123DFF84D
:100C7000C02159210020FEF7F0FB0020DFF8B01161
:100C800008700123DFF8A8215A210020FEF7E5FBB8
:100C90008020DFF89C1108700123DFF894215B218C
:100CA0000020FEF7DAFB0820614908700123604A42
:100CB0005E210020FEF7D1FB10205D490870012362
:100CC0005B4A15210020FEF7C8FB01BD98210020DA
:100CD000A0210020C52F00205C210020D02E002064
:100CE00080B500208DF8000052480068002834D1FB
:100CF0009DF800006A2806D001236A460F210020D3
:100D0000FEF7CAFBF4E74420494908700123484A2A
:100D100012210020FEF7A1FB7C2045490870012329
:100D2000434A11210020FEF798FB0123404A10217D
:100D30000020FEF792FB00203D49087001233C4A49
:100D400015210020FEF789FB802039490870022018
:100D50003749087000203649087001BD502B00202B
:100D6000D82E0020D42E0020BC2F0020782F002069
:100D70005839B4C876BE15400000D0400000344059
:100D8000502F0020A42F0020882F0020C32F0020E8
:100D9000BD2F00203C2E0020602E0020B02D002012
:100DA000AC2D0020B82D0020B42D0020C02D002037
:100DB000BC2D0020802E00207C2E0020782E0020CC
:100DC0008C2E0020882E0020842E0020682F0020EA
:100DD000742F0020000008406FA301BC0512843F5F
:100DE000B4210020B0210020042C0020002C002081
:100DF0000C2C0020082C0020142C0020102C00208B
:100E00001C2C0020182C00206C2F0020702F00209C
:100E1000482F00204C2F0020542F0020C42F0020EA
:100E20005C2F0020BE2F00205E2B0020902D002084
:100E3000A82F00208C2F00200122C9B242507047F9
:100E400081B0002209B2425009B242580092009A81
:100E500001B0704709B24058002801D0012000E0DD
:100E60000020C0B27047C0F804137047C0F80813E0
:100E700070470721C0F800157047C0F80815C0F882
:100E80000C25C0F810357047C0F824157047C0F81D
:100E90004415D2B2C0F848257047C0F83415D2B214
:100EA000C0F838257047D2B2002A01D1002300E0F3
:100EB0000123C9B2012904D002D3032907D003D3E7
:100EC00007E053F0020304E053F0040301E053F0A1
:100ED0000603C0F854357047C9B2C0F8C015704752
:100EE0000121C0F8501570470021C0F85015704717
:100EF0000121C0F8401570470021C0F84015704727
:100F000010F06040B0F1005F01D1012000E000204E
:100F1000C0B2704701005FF0A04070472DE9F14179
:100F200081B00E0017009846089C099D01A8FFF7A4
:100F3000F1FFF6B2FFB256EA47015FFA88F851EACC
:100F40008801E4B251EA0421EDB251EA0541019A67
:100F500000EB8202C2F80017BDE8F3811CB5040063
:100F60000020019000200090002301220121200098
:100F7000FFF7D4FF13BD30B583B004000D0000208F
:100F80000190002000902B00DBB200220021200005
:100F9000FFF7C4FF37BD11B581B001A8FFF7BAFF55
:100FA00004000120019910FA01F1200000F00FF86F
:100FB00013BD11B581B001A8FFF7ACFF04000120FB
:100FC000019910FA01F1200000F004F813BDC0F8F7
:100FD00008157047C0F80C1570472DE9F84F04004C
:100FE0000D001600B4486179490100EB0107387E15
:100FF000002803D008208046404668E03E60287BF9
:10100000022803DA2878FFF7D4FF02E02878FFF7F8
:10101000C2FF0120A9492A7841F822006878FF28F8
:1010200008D0687881464846FFF7C3FF4846FFF777
:1010300095FF02E05FF0FF308146A878FF2806D0D8
:10104000A878824600215046FFF795FF02E05FF046
:10105000FF308246E878FF2805D0E878FFF79BFF4D
:10106000E878FFF77BFF9448617949010844E97803
:1010700081762068834653464A4629785846FFF7CA
:10108000FCFEA9685846FFF7FFFE6A7B297B58469D
:10109000FFF709FF69795846FFF71EFF38680028F7
:1010A00003D040215846FFF7DEFE5846FFF7E1FE29
:1010B0003868002804D0297994F9040001F0FAFF77
:1010C0000020787601203876002080464046BDE832
:1010D000F28F2DE9FF4105000E00170098460A9C8B
:1010E0000096CDF808808DF804708DF80C40002231
:1010F0006946280000F08DF804B0BDE8F08110B515
:101100000400A07EFF2802D0A07EFFF744FF00204D
:10111000607600202071201D2168884710BD38B5F9
:1011200004000D00EDB2002D04D140212000FFF796
:101130009DFE03E040212000FFF795FE31BD38B54C
:1011400004000D00E80703D52000FFF7C9FE02E008
:101150002000FFF7C9FEA80703D52000FFF7C8FE4F
:1011600002E02000FFF7C8FE31BD2DE9F041040088
:101170000D0016001F003068002804D03068FFF70B
:10118000BFFE002807D0B06800280AD0B068FFF77B
:10119000B7FE002805D10020687610208046404622
:1011A00035E0327931682000FFF771FE327BB1689B
:1011B0002000FFF772FE4FF48C712000FFF740FE15
:1011C00039002000FFF7BBFF380703D410212000AF
:1011D000FFF732FE286800280DD14FF48C712000F3
:1011E000FFF738FE0028F8D0A87EFF280CD0A87E94
:1011F000FFF7D1FE08E0B80810F0010090F00101FF
:10120000C9B22000FFF78BFF002080464046BDE8B2
:10121000F0812DE9F04180460C001500264898F831
:101220000510490100EB01060027707E002803D05D
:1012300011200700380022E03068002804D015F0A3
:10124000140F01D10120707694E80F0016F1080CFC
:101250008CE80F00707F10F0FE007077707F10F048
:10126000FD007077B07EFF2802D0B07EFFF7A1FEB0
:101270002B0022003100D8F80000FFF776FFBDE810
:10128000F08138B504000D004FF48C712000FFF799
:10129000E1FD002807D04FF48C712000FFF7D0FD4E
:1012A0002800FFF72CFF31BD10B5034C2100044886
:1012B000FFF7E7FF10BD0000342D002000070050AD
:1012C0000030004010B584B00400684600210022C0
:1012D00000230EC00C3802946A46002144F201003B
:1012E00001F00CFF1FBD6400012110F01F029140AE
:1012F000DFF8A82340B2430942F8231070470100E9
:101300005FF0A04070472DE9F14181B00E00170059
:101310009846089C099D01A8FFF7F1FFF6B2FFB2BD
:1013200056EA47015FFA88F851EA8801E4B251EAC7
:101330000421EDB251EA0541019A00EB8202C2F8A4
:101340000017BDE8F3811CB50400002001900020C7
:1013500000900023012201212000FFF7D4FF13BDDC
:1013600030B583B004000D000020019000200090F3
:101370002B00DBB2002200212000FFF7C4FF37BDA5
:1013800011B581B001A8FFF7BAFF0400012001994F
:1013900010FA01F1200000F02DF813BD11B581B055
:1013A00001A8FFF7ACFF04000120019910FA01F138
:1013B000200000F022F813BD38B504000D00002D08
:1013C00003D12000FFF7EAFF02E02000FFF7D8FF7B
:1013D00031BD11B581B001A8FFF791FF04002000D5
:1013E00000F005F80199C84010F0010016BDD0F8D2
:1013F00010057047C0F808157047C0F80C15704705
:10140000A74900283DD0A74A126800BF00BF00BF0F
:1014100000BF00BF00BF00BF00BF8A422FD000BF87
:1014200000BF00BF00BF00BF00BF00BF00BF00BFC4
:1014300000BF00BF00BF00BF00BF00BF00BF00BFB4
:1014400000BF00BF00BF00BF00BF00BF00BF00BFA4
:1014500000BF00BF00BF00BF00BF00BF00BF00BF94
:1014600000BF00BF00BF00BF00BF00BF00BF00BF84
:1014700000BF00BF00BF00BF00BF00BF00BF0138FA
:10148000C3D1704710B50400200040B2FFF72CFF15
:1014900010BD854890F834001430844908608248B3
:1014A00090F8350082490860824890ED000A824831
:1014B000D0ED000A30EE600A804880ED000A7E48D8
:1014C0007C49096801607E480068002810D177488F
:1014D00090ED000AB8EEC00A7848D0ED000AB4EEEC
:1014E000600AF1EE10FA03D50120754908603BE06F
:1014F00073480068012820DB6C4890ED000AB8EEC4
:10150000C00A6E48D0ED000AB4EE600AF1EE10FA9F
:1015100013D56C480068401C6A490860644800683C
:101520006849096888421FDA0020664908606448F3
:101530000068401C6249086016E0614800680128A4
:1015400012DB614890ED000AB8EEC00A5B48D0EDAE
:10155000000AF4EE400AF1EE10FA05D500205949D0
:101560000860002056490860704738B504000D0037
:1015700056480078002805D000F045F8012054496D
:10158000087031E000F0DEF8524908605148006808
:10159000B0F5702F10DD4F480068C043401C4E4925
:1015A00008604D48006880B24B4908604A480068AE
:1015B00040424A49086003E04648006847490860DD
:1015C000474890ED001A4748D0ED000A4649474881
:1015D000424A92ED000AB8EEC00AFDF7A4FF354872
:1015E00080ED000AFFF755FF31BD414800683449DE
:1015F0000968884205D0324800683D4908600120EA
:1016000000E00020704780B51E2002F044F8402022
:1016100000F0FCF800F0B6F8402807D04FF47A70DC
:10162000FFF7EEFE402000F0F1F8F3E700F03AF9A2
:1016300001BD80B501202F4908700721062001F067
:1016400039FD01BD80B500202A4908700620FFF74A
:1016500019FF01BD38B501F02DFF04002500002D54
:1016600002D02800FFF72EFE2348006800900320D8
:101670008DF80100214A69461E2001F051FF040047
:101680002500002D02D02800FFF71CFE01211E209E
:1016900001F08DFFFFF7D6FF31BD000080E100E0D3
:1016A0000024F400B82100205C2100204821002003
:1016B000442100200C2F0020142F0020102F002088
:1016C000202F00201C2F00204C210020C32F0020A1
:1016D000BD2F0020042F0020182F0020082F0020ED
:1016E000402100203C210020BC2E0020B82E0020EC
:1016F000242F0020BC2F00207C8602006B150200E6
:1017000080B51F20FFF71FFE242000F07FF800F0B7
:1017100039F8242807D04FF47A70FFF771FE24209F
:1017200000F074F8F3E7FFF795FF00F0BBF801BD98
:1017300080B501211F20FFF73FFE00211F20FFF78A
:101740003BFE01BD38B5002400211E2001F02FFF13
:101750000025182D0ADAFFF7EBFF64001E20FFF7C3
:1017600038FE002800D0641C6D1CF2E7FFF7E0FF94
:10177000FFF7DEFFFFF7DCFF01211E2001F017FF5E
:10178000200032BD38B50025EDB21B2D03DAFFF77E
:10179000CFFF6D1CF8E71E20FFF7D5FDFFF7C8FF50
:1017A000FFF7C6FFAC2004000725012D12DB012046
:1017B000A8402100C9B2014204D001211E20FFF738
:1017C000FBFD03E000211E20FFF7F6FDFFF7B0FF51
:1017D0006D1EEAE703211E20FFF7C2FDFFF7A8FFF9
:1017E000002004000025EDB2082D0ADA6400FFF79E
:1017F0009FFF1E20FFF7EDFD002800D0641C6D1C2C
:10180000F1E7FFF795FF2000C0B232BDF8B5040044
:1018100000200600F6B21B2E03DAFFF789FF761CC4
:10182000F8E71E20FFF78FFDFFF782FFFFF780FF2D
:10183000CA20050007200600F6B2002E12D00120B3
:10184000B0402900C9B2014204D001211E20FFF797
:10185000B3FD03E000211E20FFF7AEFDFFF768FF98
:10186000761EE9E7FFF764FF25000727002F12D453
:101870000120B8402900C9B2014204D001211E2034
:10188000FFF79AFD03E000211E20FFF795FDFFF70B
:101890004FFF7F1EEAE703211E20FFF761FDFFF7E0
:1018A00047FFF1BD80B501211F20FFF785FD01BD78
:1018B00070473EB5684619492CC92CC00C390C3804
:1018C0001749002002F09FF9040000208DF8030062
:1018D00000208DF802006946002002F0F0F90400B3
:1018E0002500002D02D02800FFF7ECFC03208DF826
:1018F00007006946012002F0E2F904002500002DEE
:1019000002D02800FFF7DEFC37BD80B56946002015
:1019100002F00FFABDF9000002BD00004C86020083
:10192000B1180200010040F10780F446404200F087
:1019300003F851F00041604709D0B0FA80F18840C7
:10194000C91CC1F58461090501EBD0214005704730
:10195000B0B581EA030C0CF0004C40F2FF7515EABB
:1019600011541DBF15EA1357AC42AF4239E0E419D8
:1019700023EA455343F48013C90241F0004141EA90
:10198000505EC7021100A7FB020200284FF00000C2
:10199000EEFB01204FF00001E3FB072118BF42F0EE
:1019A0000102401800214941E3FB0E01A4F58064C7
:1019B0000F0302D252004041494154F101046CDD51
:1019C000470872F1004250F1000051EB0451A1F5BB
:1019D00080115CBF41EA0C01B0BD4CEA055100200A
:1019E000B0BD05EA1357AC4214BFAF4241E050EA24
:1019F000410E1CBF52EA430E02E061460020B0BD1A
:101A000024423C441BD15FEA070EF6D0090302BF13
:101A100001460020AEF1140EB1FA81F7AEEB0704D7
:101A200001FA07FE0C37C7F1200100FA07F7C8409A
:101A30004EEA000E23EA455343F48013A2E733F045
:101A40000043B3FA83F704BFB2FA82FE77440B3F38
:101A5000E41BB7F1200E2FBF02FA0EF3BB40C7F113
:101A6000200E22FA0EFE38BF43EA0E03BA40641C71
:101A700082E750EA410E14BF52EA430E6FF00001B4
:101A80004FF4001717EB430F8ABF194617EB410FAE
:101A9000B5E74CEA05510020B0BDD4F10104B4F122
:101AA00020070FDAC4F12007520828BF42F00102D4
:101AB00010FA07F501FA07F7E1BF2A43E04038437F
:101AC000E1400FE0352C98DCC7F1200452EA4002D7
:101AD00020FA07F218BF42F0010231FA07F0A140E4
:101AE0000A43002172F1004250F1000051EB0C0159
:101AF000B0BDFEE72DE9F04140F2FF7581EA030C2D
:101B00000CF0004C15EA11541DBF15EA1357AC42F6
:101B1000AF42E9E0BC41C1F31301C3F31303801AE0
:101B2000994143F4801304D2641E40004941801857
:101B30005941C90241EA5051B1FBF3F603FB1611BA
:101B4000A2FB0675D7EBC020A94102D2761E8018F1
:101B50005941C90241EA5051B1FBF3FE03FB1E118A
:101B6000A2FB0E75D7EBC020A94103D2AEF1010E46
:101B700080185941890241EA9051760546EA8E2E35
:101B8000B1FBF3F603FB1611A2FB0675D7EB802021
:101B9000A94102D2761E80185941C90241EA50512A
:101BA0004EEA060EB1FBF3F603FB1611A2FB067517
:101BB000D7EBC020A94102D2761E80185941C90234
:101BC00041EA5051B1FBF3F703FB1711A2FB0735B4
:101BD000D3EBC020A94167F100070CBF004247F0DA
:101BE000010766F3D5274FEA1E31B80814F5806463
:101BF00014DDBD0775F1004250EB0E5051EB04515E
:101C000011F5801F5CBF41EA0C01BDE8F0814CF08A
:101C10007F6141F0E0410020BDE8F081BD076D0823
:101C200040EA0E5041F48011D4F10104B4F12006D1
:101C30000ADAC4F120060200E04001FA06F3E140AE
:101C40001843B24015430EE0342C14DCC6F12004D6
:101C500045EA40056D0820FA06F2154321FA06F020
:101C6000A1400D43002175F1004250F1000051EBFD
:101C70000C01BDE8F08100205FEA0C01BDE8F081B5
:101C8000CFB992185B41B3FA83F704BFB2FA82F678
:101C9000BF190B3FB7F120062FBF02FA06F3BB4076
:101CA000C7F1200622FA06F638BF3343BA401CB10A
:101CB000E419641E2FE77F4231F00041B1FA81F44C
:101CC00004BFB0FA80F6A4190B3CB4F120062FBF74
:101CD00000FA06F1A140C4F1200620FA06F638BF4A
:101CE0003143A0403C1B16E7AC421ABF05EA13572C
:101CF000AF4214E050EA41061CBF52EA4306BFE778
:101D000050EA4107304661461CBF41EA0551BDE833
:101D1000F08152EA430C08BFC143BDE8F0810020C6
:101D20004FF4001616EB410F98BF16EB430F08BF98
:101D300016EB410F24BFC14305E016EB430F0CBF68
:101D400061464CEA0551BDE8F081FEE74FEAF17CBF
:101D5000BCF1E04C2CBFBCF5001F11E05FEA4C0C5D
:101D600034BFBCF17F5F2EE05FEA9C0C4FEA0C1C95
:101D70004FEA3C0CC10071F100414CEB50707047D0
:101D8000C90241EA5051C00218BF41F0010141F0BF
:101D900000414FEA6C50C0F10900212810D240EAFE
:101DA000CC7CCCF1200C11FA0CF070F10040CCF19D
:101DB000200C21FA0CF00CF0004C40EB0C007047AA
:101DC0004FEACC707047490011F5001F04D84FEA64
:101DD000CC10FF30C0057047C81770475FF0FF0C8C
:101DE0001CEAD05114BF614506E0C110400721F044
:101DF000E04101F16051704779B900F00041000203
:101E00000AD0B0FA80FC00FA0CF001F16051A1EBAD
:101E10000C5101EBD0214005704741020CBF40F44A
:101E2000E0016FF0000100207047FEE7F446400D2E
:101E300040EAC120490006D200F00EF8004248BF37
:101E40006FF00040604700F007F84FF00041884213
:101E50008CBF08464042604740F00040490DA1F564
:101E60008061491C05D4D1F11F0154BFC840C0177F
:101E700070474FF00000704701005FF0A0407047CE
:101E80002DE9F14181B00E0017009846089C099D8C
:101E900001A8FFF7F1FFF6B2FFB256EA47015FFA79
:101EA00088F851EA8801E4B251EA0421EDB251EA1E
:101EB0000541019A00EB8202C2F80017BDE8F381E8
:101EC0007CB504000D0016003000C0B20190002067
:101ED00000902B00DBB2002200212000FFF7D0FF92
:101EE00073BD80B502F007FB02F0ACFB00F084FE8E
:101EF000022200211020FFF7E3FF02220121162019
:101F0000FFF7DEFFFEF78CFE01200249086032DF9A
:101F100001BD0000402F0020DFF8583BD3ED001A30
:101F200061EE801ADFF84C3B93ED012A42EE201A55
:101F3000DFF8403B93ED022A42EE011AC0ED001A91
:101F4000DFF8303BD3ED031A61EE801ADFF8243B53
:101F500093ED042A42EE201ADFF8183B93ED052A90
:101F600042EE011AC1ED001ADFF8083BD3ED061A64
:101F700061EE801ADFF8FC3A93ED072A42EE201A50
:101F8000DFF8F03A93ED082A42EE011AC2ED001A8A
:101F90007047000080B52DED028BDFF8D80A00688D
:101FA000FFF71CFF41EC110BB0EE418AF0EE618AA5
:101FB000DFF8C00AC068FFF711FF41EC100BB0EE6C
:101FC000481AF0EE681A02F0BBFD51EC100BFFF757
:101FD000BDFEDFF8981A0860DFF8900A90ED000A5D
:101FE000DFED280A20EE200ADFF8800A80ED000AE3
:101FF000DFF8800A006AFFF7F1FE41EC110BB0EE4A
:10200000418AF0EE618ADFF86C0AC069FFF7E6FEEC
:1020100041EC100BB0EE481AF0EE681A02F090FD99
:1020200051EC100BFFF792FEDFF8441A0860DFF85E
:10203000400A90ED000ADFED130A20EE200ADFF8D7
:10204000300A80ED000ADFF82C0A8069FFF7C6FE2F
:1020500041EC100B02F00EFE51EC100BFFF776FE78
:10206000DFF81C1A0860DFF8180A90ED000ADFEDAF
:10207000050A20EE200ADFF8080A80ED000ABDEC10
:10208000028B01BDBE2E6542F8B52DED108B2DEDF6
:10209000071A99B0F0EE408AB0EE608ADFF8E409E2
:1020A00090ED009ADFF8DC09D0ED019ADFF8D40951
:1020B00090ED02AADFF8CC09D0ED03AAB0EE000A39
:1020C00029EE000A8DED0C0AB0EE000A29EE800A16
:1020D0008DED090AB0EE000A2AEE000A8DED080A1D
:1020E000B0EE000A2AEE800A8DED0B0AB0EE000A6F
:1020F00029EE000A20EE0A0A8DED070AB0EE000A6A
:102100002AEE000A20EE2A0A8DED060A29EE090AB7
:102110008DED0A0A29EE29CA69EE0ACA29EE2A0AB1
:102120008DED020A29EEA9DA29EE8A0A8DED010A5F
:1021300069EEAADA2AEE0AEA2AEE2A0A8DED000AE8
:102140002AEEAAFA28EEA80A08EE080ADDED190A16
:102150009DED191A00EE810A10EE100AFFF73EFEFF
:1021600041EC100B02F08EFD51EC100BFFF7EEFD71
:102170000EEE900AF5EE40EAF1EE10FA00F07284ED
:10218000B7EE000AC0EE2EEA68EEAE8A28EE2E8A7E
:102190009DED190A20EE2E0A8DED190AB0EE000A07
:1021A00029EE000ADDED1D0A20EE200A8DED120A4F
:1021B000B0EE000A29EE000ADDED1E0A20EE200A2C
:1021C0008DED110AB0EE000A29EE000ADDED1F0ABE
:1021D00020EE200A8DED100AB0EE000A29EE800AEA
:1021E000DDED1D0A20EE200A8DED0F0A9DED1D0A82
:1021F000DDED0A0A20EE200ADDED110A00EEEA0A02
:10220000DDED100A00EE8A0ADDED1D0A00EE8D0AF2
:10221000DDED090A9DED1E1A60EE810A00EE8A0AC4
:10222000DDED090A9DED1F1A60EE810A00EEAA0A93
:10223000DDED1D0A00EECE0ADDED1D0A00EECF0A2F
:102240008DED140A9DED120A20EE2A0ADDED1E0A1C
:102250009DED0A1A00EE810ADDED100A00EEE90A92
:10226000DDED0F0A00EE8A0ADDED1E0A00EECD0A52
:10227000DDED1E0A00EE8E0ADDED080A9DED1F1A47
:1022800060EE810A00EEAA0ADDED1E0A00EECF0A1A
:102290008DED130A9DED140ADDED140A20EE200ADF
:1022A000DDED130A9DED131A00EE810A10EE100AFF
:1022B000FFF794FD41EC100B02F0E4FC51EC100B25
:1022C000FFF744FD0BEE100A9DED120AB1EE400A35
:1022D00020EE0A0ADDED110A00EEA90ADDED1F0A63
:1022E0009DED0A1A00EE810ADDED0F0A00EEAA0A42
:1022F000DDED1F0A00EECD0ADDED080A9DED1E1A88
:1023000060EE810A00EEAA0ADDED1F0A00EECE0A99
:10231000DDED1F0A00EE8F0AF0EE40BAB0EE000AC3
:102320002BEE000A8DED0E0AB0EE000A2BEE800AAD
:102330008DED0D0AB0EE000A2DEE800ADDED070AE4
:1023400030EE600A30EE680ADDED080AF1EE600A50
:1023500020EE800AF0EE000A9DED061A0CEE201A1F
:1023600071EE480A9DED091A00EE810A6BEE8A0AA9
:10237000B6EE001A31EE4E1A31EE4F1A21EE0B1A5C
:102380007DEEEC1A01EEAB1ADDED1D1A31EEC11A2D
:1023900000EE810AF1EE4B0A60EEAA0A4BEEA90AA2
:1023A0009DED011ADDED021A31EE611A21EE0B1AD4
:1023B000DDED001A7CEE211A01EEAB1ADDED1E1ADE
:1023C00031EE611A00EE810A6BEE0A0A3CEEAD1A9C
:1023D00021EE0B1AF6EE001A71EECD1A71EECE1A3E
:1023E00001EEAB1ADDED1F1A31EE611A00EE810A23
:1023F0008DED050AB0EE000A2DEE800ADDED070A2C
:1024000030EE600A30EE680ADDED0B0A20EE200A9D
:10241000F0EE000A9DED061A0CEE201A71EE480A45
:102420009DED0C1A00EE810AF1EE000A69EEA00A99
:10243000B0EE001A2EEE011AF0EE001AB7EE002AE6
:102440000DEE612A31EE421ADDED191A31EE811AD4
:1024500000EE810A6BEEAA0AB6EE001A31EE4E1AB1
:1024600031EE4F1A21EE0B1A7DEEEC1A01EEAB1A8B
:10247000DDED1D1A31EE611A00EE810A6BEE0A0ADB
:102480004BEE890A9DED011ADDED021A31EE611A5B
:1024900021EE0B1ADDED001A7CEE211A01EEAB1ACB
:1024A000DDED1E1A31EE611A00EE810A6BEE2A0A8A
:1024B0009DED0D1A41EE690A3CEEAD1A21EE0B1AA4
:1024C000F6EE001A71EECD1A71EECE1A01EEAB1ACD
:1024D000DDED1F1A31EE611A00EE810A8DED040A5E
:1024E000B0EE000A2DEE800ADDED070A30EE600A3C
:1024F00030EE680ADDED0C0AF1EE600A20EE800A8B
:10250000F0EE000A9DED061A0CEE201A71EE480A54
:102510009DED0B1A00EE810AF1EE000A6AEE200A28
:10252000B0EE001A2EEE011AF0EE001AB7EE002AF5
:102530000DEE612A31EE421ADDED191A31EE811AE3
:1025400000EE810ADDED0E0AF1EE600A60EE8A0A05
:102550004BEEC90AB6EE001A31EE4E1A31EE4F1AA2
:1025600021EE0B1A7DEEEC1A01EEAB1ADDED1D1A11
:1025700031EE611A00EE810A6BEE290A4BEEAA0ACF
:102580009DED011ADDED021A31EE611A21EE0B1AF2
:10259000DDED001A7CEE211A01EEAB1ADDED1E1AFC
:1025A00031EE611A00EE810A6BEE090A9DED0D1AFB
:1025B00041EE4A0A3CEEAD1A21EE0B1AF6EE001A75
:1025C00071EECD1A71EECE1A01EEAB1ADDED1F1AC7
:1025D00031EE611A00EE810A8DED030AB0EE000AB9
:1025E0002DEE800ADDED070A30EE600A30EE680A53
:1025F000DDED090A20EE200AF0EE000A9DED061A34
:102600000CEE201A71EE480A9DED081A00EE810AC0
:10261000DDED0E0AF1EE600A60EEAA0A4BEEA90AA1
:10262000B6EE001A31EE4E1A31EE4F1A21EE0B1AA9
:102630007DEEEC1A01EEAB1ADDED1D1A31EE611ADA
:1026400000EE810AF1EE4B0A60EE890A4BEE8A0A2F
:102650009DED011ADDED021A31EE611A21EE0B1A21
:10266000DDED001A7CEE211A01EEAB1ADDED1E1A2B
:1026700031EE611A00EE810A6BEE290A3CEEAD1ACA
:1026800021EE0B1AF6EE001A71EECD1A71EECE1A8B
:1026900001EEAB1ADDED1F1A31EE611A00EE810A70
:1026A000F0EE40FA9DED050ADDED050A20EE200A68
:1026B000DDED040A9DED041A00EE810ADDED030A4A
:1026C0009DED031A00EE810A0FEEAF0A10EE100A1C
:1026D000FFF784FB41EC100B02F0D4FA51EC100B25
:1026E000FFF734FB0EEE900AB7EE000AC0EE2EEABA
:1026F0009DED050A20EE2E0A8DED050A9DED040ADA
:1027000020EE2E0A8DED040A9DED030A20EE2E0A1E
:102710008DED030A6FEEAEFAB1EE690ADDED1A0A2D
:1027200020EE200ADDED1B0A0AEE600ADDED1C0A30
:102730000AEEE00AF6EE000A20EE200A10EE100A79
:10274000FFF74CFB04000D009FEDCB0B02F09AFA53
:1027500053EC102B5FF00050DFF82C13FFF7F8F864
:102760005FF00052DFF82433FFF7F2F806000F00A5
:102770000598FFF733FB32003B00FFF7E9F8020052
:102780000B002000290002F0FDFAFFF7DFFA189095
:102790009DED1A0A29EE000ADDED1C0A0AEE200A58
:1027A000DDED1B0A0AEEE00AF6EE000A20EE200A32
:1027B00010EE100AFFF712FB04000D009FEDAE0BA8
:1027C00002F060FA53EC102B5FF00050DFF8B81203
:1027D000FFF7BEF85FF00052DFF8B032FFF7B8F84D
:1027E00006000F000498FFF7F9FA32003B00FFF7EC
:1027F000AFF802000B002000290002F0C3FAFFF737
:10280000A5FA17909DED1B0A29EE000ADDED1C0AC2
:1028100009EEE00ADDED1A0A0AEEA00AF6EE000A59
:1028200020EE200A10EE100AFFF7D8FA04000D007F
:102830009FED910B02F026FA53EC102B5FF0005045
:10284000DFF84412FFF784F85FF00052DFF83C3203
:10285000FFF77EF806000F000398FFF7BFFA32007B
:102860003B00FFF775F802000B002000290002F082
:1028700089FAFFF76BFA16909DED1C0A29EE000A03
:10288000DDED1B0A09EEA00ADDED1A0A0AEE600A68
:10289000F6EE000A20EE200A10EE100AFFF79EFA6C
:1028A00004000D009FED740B02F0ECF953EC102BBB
:1028B0005FF00050DFF8D011FFF74AF85FF00052E8
:1028C000DFF8C831FFF744F806000F001FEE900A4A
:1028D000FFF784FA32003B00FFF73AF802000B00E2
:1028E0002000290002F04EFAFFF730FA15909DED16
:1028F000180ADFF89C01D0ED000A00EE209A9DED49
:10290000170ADFF88C01D0ED000A40EE209A9DED09
:10291000160ADFF87C01D0ED000A00EE20AA9DED3A
:10292000150ADFF86C01D0ED000A40EE20AA29EE6E
:10293000090A09EEA90A0AEE0A0A0AEEAA0A10EE24
:10294000100AFFF74BFA41EC100B02F09BF951EC27
:10295000100BFFF7FBF90EEE900AB7EE000AC0EE7F
:102960002EEA29EE2E0ADFF81C0180ED000A29EE7E
:10297000AE0ADFF8100180ED010A2AEE2E0ADFF818
:10298000040180ED020A2AEEAE0ADFF8F80080EDBD
:10299000030AB0EE000AF7EE000A4EEE400AB0EE6F
:1029A000000A4FEE400A3348C0ED000A9DED010ACF
:1029B000DDED020A30EE600AF0EE000A20EE200A99
:1029C0002C4880ED010A3DEEAC0AF0EE000A20EE44
:1029D000200A284880ED020A9DED010ADDED020A79
:1029E00030EE200AF0EE000A20EE200A214880EDA9
:1029F000030AB0EE000AF7EE000A4DEE400AB0EE10
:102A0000000A4FEE400A1B48C0ED040A9DED000A83
:102A100030EE4C0AF0EE000A20EE200A154880ED58
:102A2000050A3DEEEC0AF0EE000A20EE200A1148FD
:102A300080ED060A9DED000A30EE0C0AF0EE000A69
:102A400020EE200A0B4880ED070AB0EE000AF7EEF0
:102A5000000A4DEE400AB0EE000A4EEE400A05486C
:102A6000C0ED080A20B0BDEC108BF1BDD42E0020C3
:102A7000D82E0020302C0020000000000000E83F8D
:102A8000D02E002028210020FF210940C771AC3F33
:102A90003821002081B0F0EE400AB6EE000A20EEA8
:102AA000801AB0EE600A8DED000A0A480099B0EB7A
:102AB00061000090DDED001AB0EE610A61EE001ACF
:102AC000B7EE082A01EEC02A22EE000A01B07047D4
:102AD00000000000DF59375F01005FF0A040704741
:102AE0002DE9F14181B00E0017009846089C099D20
:102AF00001A8FFF7F1FFF6B2FFB256EA47015FFA0D
:102B000088F851EA8801E4B251EA0421EDB251EAB1
:102B10000541019A00EB8202C2F80017BDE8F3817B
:102B20001CB5040000200190002000900023012229
:102B300001212000FFF7D4FF13BD11B581B001A81A
:102B4000FFF7CAFF04000120019910FA01F12000EB
:102B500000F01CF813BD11B581B001A8FFF7BCFF50
:102B600004000120019910FA01F1200000F011F891
:102B700013BD38B504000D00002D03D12000FFF770
:102B8000EAFF02E02000FFF7D8FF31BDC0F80815CA
:102B90007047C0F80C1570473EB5684625492CC9EA
:102BA0002CC00C390C3824480088ADF806000022EF
:102BB0006946224802F0DCFA04002500002D02D00C
:102BC0002800FEF77FFB64201D49088064201C4913
:102BD0004880022301221B49184802F058FB37BDE8
:102BE000C0B250F40041164A11807047C0B250F490
:102BF0000041134A5180704780B50020FFF7F0FF75
:102C00000020FFF7F3FF01210C4802F089FB0B487D
:102C100002F002FB0220FFF783FF00210220FFF7F2
:102C2000A8FF0320FFF77CFF00210320FFF7A1FF8F
:102C300001BD00002C6E0200E612020050210020AF
:102C4000C02E0020108602008A88828270474FF6CC
:102C5000FF728282704770B504000D00AE1D30888F
:102C6000218A88420ED1708902280BD116F10C00FE
:102C700002F0F4FB002802D00120A0750FE0002034
:102C8000A0750CE03088A188884208D1A06900288E
:102C900005D0728916F10C012000A369984770BD18
:102CA0002DE9F24F92B0040003200490002003901D
:102CB00001AD039A0499280002F0D8FB9DF80400A6
:102CC00010F0F00050F001008DF804009DF80400B1
:102CD00010F00F0050F010008DF804009DF8050072
:102CE00010F0F00050F001008DF805009DF805008F
:102CF00010F00F0050F010008DF805009DF8060050
:102D000010F0F90050F002008DF806001C25002696
:102D10000AAF32002900380002F0A8FB9DF8280015
:102D200050F010008DF8280000200B9000200D902E
:102D300000200E9001A80F900020109020788DF8B0
:102D40000A000320ADF8080003275FF00008E946F9
:102D500042463900484602F089FB9DF8000010F019
:102D6000F00050F001008DF800009DF8000010F018
:102D70000F0050F010008DF800009DF8010010F0D9
:102D8000F00050F001008DF801009DF8010010F0F6
:102D90000F0050F010008DF801009DF8020010F0B7
:102DA000F90050F002008DF802009DF8020010F0CA
:102DB000F7008DF802009DF8020010F0EF008DF88A
:102DC00002009DF8020050F001008DF802005FF053
:102DD00014095FF0000A0DF1140B5246494658469B
:102DE00002F044FB02A80590684606900120ADF869
:102DF0001C000020ADF81E001420ADF8200014F1D6
:102E00000C0305AA0AA96088A2DF13B0BDE8F08F01
:102E10002DE9F24F8EB004001C25002607AF3200CA
:102E20002900380002F022FB9DF81C0010F0F7008A
:102E30008DF81C009DF81C0050F004008DF81C005B
:102E40000020089000200A9000200B9000200C9099
:102E500000200D9020788DF806000220ADF80400C7
:102E600003275FF00008E94642463900484602F071
:102E7000FDFA9DF8000010F0F00050F001008DF810
:102E800000009DF8000010F00F0050F010008DF8C9
:102E900000009DF8010010F0F00050F001008DF8E6
:102EA00001009DF8010010F00F0050F010008DF8A7
:102EB00001009DF8020010F0F90050F002008DF8BA
:102EC00002009DF8020010F0F7008DF802009DF856
:102ED000020010F0EF008DF802009DF8020050F0A3
:102EE00001008DF802005FF014095FF0000A0DF197
:102EF000080B52464946584602F0B8FA01A802901B
:102F0000684603900120ADF810000020ADF81200D3
:102F10001420ADF81400231D02AA07A96088A2DFBF
:102F20000FB0BDE8F08F38B504000D00002C01D0C3
:102F3000002D00D116E02888102804D0112807D0D1
:102F400050280AD00EE029002000FFF77DFE09E09E
:102F500029002000FFF77BFE04E029002000FFF796
:102F60007AFEFFE731BDF0B585B004000D002048C2
:102F70000FC801AF87E80F00002C01D10E2034E00C
:102F8000002D01D10E2030E04FF6FF70A08228689E
:102F9000A0610020A075210001A863DF0600002EBB
:102FA00001D0300021E020788DF802000120ADF83A
:102FB0000000A21C69460120A0DF0600002E01D0FF
:102FC000300012E029002000FFF76AFE0600002E04
:102FD00001D0300009E029002000FFF719FF0600AA
:102FE000002E01D0300000E0002005B0F0BD000050
:102FF000008602002DE9F44185B004000D00002C8C
:1030000001D10E2023E0A08A4FF6FF71884202D042
:10301000A07D002801D1082019E0BDF81400152872
:1030200001DB072013E010260027E8463A003100B4
:10303000404602F01BFAA089ADF80000039505A8F0
:10304000029001208DF802006946A08AA6DF06B032
:10305000BDE8F081012110F01F029140114A40B2F9
:10306000430942F823107047012110F01F029140DC
:103070000D4A40B2430942F82310704710B440B2E1
:10308000002808D54A01094B40B210F00F04234430
:1030900003F8042C03E04A01054B40B21A5410BC5B
:1030A0007047000000E100E080E200E018ED00E081
:1030B00000E400E038B504000D00EDB22900200066
:1030C00040B2FFF7DBFF200040B2FFF7CDFF20004A
:1030D00040B2FFF7BFFF31BDBFF34F8F0548006817
:1030E00010F4E0600449084302490860BFF34F8FC1
:1030F00000BFFDE70CED00E00400FA0570B5040028
:103100000D001600FFF7E8FF70BDFEE710B50400E4
:10311000200000B200F019F80068012801D1012058
:1031200000E00020C0B210BD10B582B00400200045
:1031300000B200F00AF800210160200000B200F0A7
:1031400004F800680090009813BD00B200F18040C0
:1031500010F5C0407047DFF8B41708607047DFF81B
:10316000B01708607047DFF8A41709680840704777
:10317000DFF8A01751F8201051F00101DFF8942773
:1031800042F820107047DFF88C1751F820104908DA
:103190004900DFF8802742F82010704730B4DFF88C
:1031A000743753F82030DFF870472340DFF8644766
:1031B00044F82030DFF85C3753F820300C0214F468
:1031C000F854D2B2150415F440352C432343DFF8EC
:1031D000444744F8203030BC7047DFF8381751F8C6
:1031E0002000C0F304207047DFF8281751F82000B2
:1031F000000C10F0030070470021DFF8182742F898
:103200002010704701005FF0A04070472DE9F141A8
:1032100081B00E0017009846089C099D01A8FFF791
:10322000F1FFF6B2FFB256EA47015FFA88F851EAB9
:103230008801E4B251EA0421EDB251EA0541019A54
:1032400000EB8202C2F80017BDE8F38130B583B00D
:1032500004000D0000200190002000902B00DBB244
:10326000002200212000FFF7D1FF37BD1CB504006C
:103270000020019000200090002301220021200066
:10328000FFF7C4FF13BD01B56846FFF7BBFF009908
:1032900000EB8101D1F8001731F00201009A00EB38
:1032A0008202C2F8001701BD11B581B00C0001A85F
:1032B000FFF7A8FF019900EB8101D1F8001731F465
:1032C0004031019A00EB8202C2F80017019900EB2D
:1032D0008101D1F80017E4B251EA0441019A00EBF0
:1032E0008202C2F8001713BD11B581B001A8FFF723
:1032F00089FF0400200000F012F80199C84010F086
:10330000010016BD01B56846FFF77CFF009900EB90
:103310008100D0F80007000C10F0030002BDD0F8C7
:1033200010057047F8B504000D0016006846DFF878
:10333000EC150A68026027002819874208D26846FF
:1033400050F82700FFF7EBFF3060361D7F1CF3E7D6
:10335000F1BDC20810F00700012313FA00F08A5CE7
:103360001040704710B4C20810F007008B5C0124B5
:10337000844023438B5410BC7047DFF8A4150144EC
:1033800091F93010002908D4DFF89415084490F919
:103390003000082801DA012000E00020002801D0D8
:1033A000012000E00020C0B27047DFF87415084427
:1033B00090F93000082801DB012000E00020C0B2B5
:1033C0007047DFF85C15084490F93000002801D4FC
:1033D000012000E00020C0B2704710B4DFF8404583
:1033E000044484F83010DFF8384544F82120DBB27B
:1033F000002B04D1DFF828450C4484F8480010BCA9
:1034000070475FF0FF31DFF81825024482F8301072
:103410007047DFF80C15084490F930007047DFF86A
:10342000001551F8200070472DE9F04704000D0009
:1034300016005FF0FF37F6B2002E02D05FF00009F1
:1034400001E05FF00809F6B2002E02D05FF0080A32
:1034500001E05FF00C0AC846D04514D2DFF8C00482
:1034600050F828005FF0FF31884209D13300DBB209
:103470002A0041462000FFF7B0FF4046070002E067
:1034800018F10108E8E7380040B2BDE8F0875FF0C6
:10349000FF31DFF88C24C0B242F82010C0B20828F7
:1034A00007DB5FF0FF31DFF87824C0B2024482F816
:1034B0004810704738B5DFF8680490F854000028C9
:1034C00003D008200400200029E000200500EDB210
:1034D000202D05DAEDB22800FFF793FF6D1CF6E70B
:1034E00000200500EDB20C2D05DA2800C0B2FFF770
:1034F000CEFF6D1CF6E707210620FFF7DBFD4FF43A
:10350000BE70FFF711FE5FF00040FFF724FE0120C0
:10351000DFF80C1481F8540000200400200032BDB4
:103520002DE9F04104000D00160000272000FFF7F0
:1035300048FF002802D00820070035E0EA78310073
:103540002000FFF771FF80464FFA88F818F1010F4D
:1035500028D0A878002803D02000FFF794FE03E0CD
:1035600069782000FFF772FEE878002807D02A78F3
:1035700021004FFA88F84046FFF710FE14E0DFF80C
:10358000A0034FFA88F8404490F8480095F90010DD
:1035900050EA8110DFF888134FFA88F8414481F827
:1035A000480001E0042007003800BDE8F0812DE963
:1035B000F04104000D002000FFF7F7FE002827D09F
:1035C0002000FFF726FFDFF8581340B2084490F8B8
:1035D00048603000C0B28709FFB2032F0AD1200033
:1035E000FFF782FE002802D05FF003080AE05FF0D8
:1035F000020807E0FFB2012F02D15FF0020801E0EC
:103600005FF003084146C9B22000FFF74DFE23E0FA
:103610002000FFF7B2FE00281ED02000FFF7F9FEC1
:103620000600B00010F580773000FFF7A1FD3800EC
:1036300000B2FFF779FDEDB2002D0DD02000FFF7AD
:10364000E8FE40B2FFF7EBFE80464046002803D07C
:103650000120B040FFF77FFDBDE8F08138B50400E0
:103660002000FFF7A2FE002804D000212000FFF771
:103670001BFE0FE02000FFF780FE00280AD020008C
:10368000FFF7C7FE05002800FFF77DFD0120A840D9
:10369000FFF765FD31BD10B504002000FFF7DEFF28
:1036A0002000FFF76AFE002805D02000FFF7B1FEDA
:1036B00040B2FFF7A1FD2000FFF7D8FD2000FFF783
:1036C000A8FEC0B2FFF7E3FE2000FFF79AFE10BD90
:1036D0002DE9F04F87B0002402A8002101604FF4CB
:1036E0008070ADF80200012500200600082E17D2D8
:1036F000BDF90200FFF70AFD002809D02800FFF7F6
:1037000032FD002804D0BDF90200FFF70DFD2C4367
:103710006D00BDF80200001DADF80200761CE5E763
:103720004FF4BE70FFF7F2FC00280AD04FF4BE70D1
:10373000FFF7FAFC54F0004402AA01210020FFF731
:10374000F1FD20061DD00120050000200600082EF6
:1037500017D2254212D03000FFF73FFD070030009E
:10376000FFF742FD80463000FFF759FE814648468C
:10377000002803D04146C9B23800C8476D00761C06
:10378000E5E7002C40F1BE80002706A8002101607B
:1037900000208046B8F1000F07D15FF0FF3005A987
:1037A00041F8280018F10108F4E700200700002084
:1037B0000600042E69D25A48304490F850008DF823
:1037C00001009DF8010030F0C000019054483044E1
:1037D00090F9500010F1010F55D005A90198FFF79D
:1037E000B8FD00284FD09DF80100C0B280098DF8C7
:1037F00000000198FFF70DFE40B2FFF710FE814672
:103800004846002803D19DF8000003283BD19DF8CD
:103810000000032803D106A90198FFF7A3FD019832
:10382000FFF770FD824602A90198FFF792FD049010
:103830000498002804D05FFA8AFABAF1020F07D080
:10384000049800281FD15FFA8AFABAF1030F1AD13F
:103850009DF8000003280FD15FFA8AFABAF1020F2F
:1038600002D15FF0030B01E05FF0020B5946C9B2D1
:103870000198FFF719FD7F1C4846002803D09DF8EA
:1038800000100198C847761C93E7FFB2002F35D08F
:103890005FF0010903AA01210020FFF743FD00208A
:1038A0008046B8F1000F0DD103A850F8280002A9F6
:1038B00051F82810884202D00020814602E018F119
:1038C0000108EEE75FFA89F9B9F1000F02D0002094
:1038D000070013E000208046B8F1000F0ED103A8C6
:1038E00050F8280002A941F8280006A850F828003E
:1038F00005A941F8280018F10108EDE7FFB2002FF3
:103900007FF453AF07B0BDE8F08F000004630040C0
:103910000863004010650040FFE0FCFF888602005D
:10392000A82A00200121DFF80C25C0B211507047F1
:10393000DFF8001500B20858002801D0012000E08F
:103940000020C0B2704781B00021DFF8E82400B247
:103950001150DFF8E01400B209580091009901B04D
:10396000704710B4D2B2DFF8D034C0B2040123449F
:103970005A60C9B2DFF8C034C0B20401195110BC9A
:103980007047DFF8B81408607047DFF8B4140860B7
:1039900070470120DFF8AC1408607047DFF8A824F6
:1039A0001060DFF8A82411607047C0B2DFF8A014DF
:1039B00008607047C0B2DFF89C140860704770B5AB
:1039C0008AB04FF48270FFF7B3FF00284ED04FF457
:1039D0008270FFF7B8FFDFF8800490F82E00DFF860
:1039E000781491F82F1091F0010108423ED1002087
:1039F0008DF80C00DFF8600440680490DFF858048C
:103A00000089ADF81400DFF85004C068002804D124
:103A10000020DFF8441408741EE0DFF83C04008B3B
:103A2000DFF834144883DFF83004C068DFF8281466
:103A30004860DFF82404008BDFF81C1408810020A4
:103A4000DFF81414C860DFF8100490F82E00002886
:103A500002D10020FFF766FF03A8DFF8FC13096816
:103A600088470020DFF8F01381F82F00DFF8E80323
:103A700090F82E0000286DD04FF48070FFF758FFAB
:103A8000002867D04FF48070FFF75DFFDFF8C803B0
:103A900090F82D00DFF8C013498B80B288421DD208
:103AA000DFF8B403408BDFF8B01391F82D10401A03
:103AB000DFF8A4134883DFF8A00390F82D10DFF897
:103AC00098034068DFF890231289DFF88C335B8B12
:103AD000D21A00EB4200FFF761FF34E0DFF8780311
:103AE000408BDFF8741391F82D1089B2884217D1FA
:103AF000DFF86403C068002812D00120DFF85813F3
:103B000081F82F000020DFF850134883DFF84803C6
:103B100090F82D10DFF84003C068FFF73FFF12E078
:103B2000DFF83403408BDFF8301391F82D1089B2A1
:103B3000884208D10120DFF8201381F82F000020EF
:103B4000DFF8141348834FF48270FFF7FCFE042063
:103B5000FFF7E8FE4FF48870FFF7EAFE00280FD069
:103B60004FF48870FFF7EFFE0020DFF8EC120874C6
:103B700002208DF8180006A8DFF8DC1209688847D3
:103B80004FF48A70FFF7D4FE002808D04FF48A70F3
:103B9000FFF7D9FE0020DFF8C012087431E0DFF82B
:103BA000B8024669002E2CD0B6FA86F004005FF009
:103BB0000040E0408643A00010F58C70050028000E
:103BC00000B2FFF7B5FE0028ECD0280000B2FFF7E6
:103BD000BAFE01208DF800002DB2B5F58C70C0083A
:103BE0008DF804002800C0B2800810F0010090F0A9
:103BF00001008DF805006846DFF85C120968884707
:103C0000D0E70AB070BD70B504000D00DFF84802BF
:103C100090F82C00002803D00820060030004DE06A
:103C20002800002803D107200600300046E0002CC1
:103C300002D1DFF828020400DFF81C0205602078BA
:103C4000FFF7B3FE6078FFF7B5FEE078DFF8081203
:103C500081F82E000120DFF8001281F82C000020EE
:103C6000DFF8F41108740020DFF8EC1181F82D0062
:103C70000020DFF8E41148610020DFF8DC1181F852
:103C80002F007FF00040FFF780FE4FF48270FFF7B7
:103C90005AFEA1780720FFF70DFA0220FFF771FE08
:103CA000DFF8B40190F82E00002802D00120FFF7C1
:103CB00068FEFFF76EFE00200600300070BD70B594
:103CC00004000D00DFF89001007C002803D01120D3
:103CD000060030002CE0DFF88001E4B200EB440085
:103CE000007F002808D1DFF8700190F82D00401CFB
:103CF000DFF8641181F82D00E879DFF85C11E4B297
:103D000001EB44010877287ADFF84C11E4B201EBAB
:103D10004401487729002000C0B201F0E9FB2A7A6B
:103D2000E9792000C0B2FFF71CFE00200600300039
:103D300070BD2DE9F04104000D00DFF81C01007C8E
:103D4000002803D011200600300070E00120DFF8C9
:103D5000081108740320FFF718FE01212800FFF75F
:103D60001DFE3D4890F82D0002280BDB0027FFB216
:103D7000082F07DA002200213800C0B2FFF7F1FD5A
:103D80007F1CF4E73448E4B200EB4400427F324841
:103D9000E4B200EB4400017F2000C0B2FFF7E1FD78
:103DA0000020FFF7BFFD0420FFF7BCFD42F21077B3
:103DB0004FF48270FFF7BCFD002803D1002F01D023
:103DC0007F1EF5E74FF48270FFF7BDFD224890F8A3
:103DD0002D00022819DB5FF000085FFA88F8B8F1BF
:103DE000080F12DA1C485FFA88F800EB4800427F9F
:103DF00019485FFA88F800EB4800017F4046C0B2DE
:103E0000FFF7AFFD18F10108E7E7134890F82E001F
:103E1000002803D00320FFF7B4FD02E00220FFF7E3
:103E2000B0FD00200C490874002006003000BDE8F9
:103E3000F0810000007000401075004004730040E5
:103E400008730040007500402C760040307600403A
:103E5000F0750040F4750040D02B00208C860200E5
:103E600001005FF0A04070472DE9F14181B00E00E4
:103E700017009846089C099D01A8FFF7F1FFF6B2CC
:103E8000FFB256EA47015FFA88F851EA8801E4B2C6
:103E900051EA0421EDB251EA0541019A00EB820298
:103EA000C2F80017BDE8F38130B583B004000D00FF
:103EB00000200190002000902B00DBB200220021A6
:103EC0002000FFF7D1FF37BD11B581B001A8FFF782
:103ED000C7FF0400200000F005F80199C84010F069
:103EE000010016BDD0F810057047FEB501208DF811
:103EF00000009DF8000010F00F0050F010008DF849
:103F000000000922DFF8841668467CDF04002500E3
:103F1000002D02D02800FDF7D5F90825002601AFB5
:103F200032002900380001F0A1FA1020ADF8040099
:103F30003C20ADF806000020ADF808004FF4C87032
:103F4000ADF80A0001A87ADF04002700002F02D094
:103F50003800FDF7B7F9042077DF04002500002DB5
:103F600002D02800FDF7AEF9F7BD30B40123DFF829
:103F700020462370002392B2934206D2CC5CDFF835
:103F800010561D446C765B1CF5E730BC7047F8B5E5
:103F9000042500266F4632002900380001F066FA39
:103FA000DFF8F00500906946DFF8EC05FEF7DBFF6F
:103FB00004002700002F02D03800FDF783F9F1BD7F
:103FC00070B50400207800280BD13B21DFF8CC0528
:103FD000008876DF05002E00002E02D03000FDF7AD
:103FE00071F970BD10B504002000FDF76BF910BD2C
:103FF000F0B587B01C2500266F4632002900380036
:1040000001F034FA002000905FF4203001905FF45A
:104010007020029003208DF80C000020ADF80E00F7
:1040200000208DF81000DFF878050590DFF87405A2
:104030000690684601F0E2FA04002700002F02D043
:104040003800FDF73FF907B0F0BD38B5002000F0AB
:10405000B0FC04002500002D02D02800FDF732F945
:1040600001F014FC04002500002D02D02800FDF70B
:1040700029F932DF04002500002D02D02800FDF7C9
:1040800021F931BD70B50400E4B2200000280CD045
:1040900003280DD1022000F08CFC05002E00002E1C
:1040A00002D03000FDF70EF902E0FFF7CEFFFFE788
:1040B00070BD70B588B004002088012813D0022894
:1040C00065D0102810D011281DD013282BD03B28E4
:1040D00047D0512866D0522834D0552800F091801E
:1040E000562849D098E097E0072000F062FC0500D0
:1040F0002E00002E02D03000FDF7E4F8A088DFF893
:104100009C14088088E0002000F053FC05002E007D
:10411000002E02D03000FDF7D5F84FF6FF70DFF823
:104120007C14088078E0002300228521DFF86C04ED
:1041300000887FDF05002E00002E02D03000FDF742
:10414000C1F869E0002300220021DFF85004008854
:10415000A9DF05002E00002E02D03000FDF7B2F8D6
:104160005AE01321A08876DF05002E00002E02D031
:104170003000FDF7A7F84FE01321A08876DF050097
:104180002E00002E02D03000FDF79CF844E0002104
:10419000A08867DF05002E00002E02D03000FDF75A
:1041A00091F839E06846A11D102201F0C1FB9DF88D
:1041B0000000002824D09DF80800042807D09DF8AE
:1041C0000800062803D09DF80800052818D19DF89E
:1041D0000000022803D102208DF8100002E0012027
:1041E0008DF810004FF4C170ADF8140004A9A08838
:1041F000A8DF05002E00002E02D03000FDF762F887
:104200000AE01721A088ADDF05002E00002E02D0A5
:104210003000FDF757F8FFE708B070BD10B5040097
:10422000200001F0B8FA2100DFF86C03FEF77BFEF6
:104230002000FFF73EFF200001F03DFE200001F0CE
:104240003CFB10BD70B588B0DFF85C0300680090DF
:1042500000235022DFF85413684601F07FFF050069
:104260002E00002E02D03000FDF72CF801AA01210B
:10427000002001F0CEFF04002600002E02D0300006
:10428000FDF720F81720ADF8140001A801F0E0FFB9
:1042900004002500002D02D02800FDF713F8DFF8F8
:1042A000100301F099FF04002500002D02D0280022
:1042B000FDF708F808B070BD2DE9F04FA7B03C2518
:1042C000002618AF32002900380001F0CFF8022094
:1042D0008DF8600000208DF8620005208DF86300E5
:1042E0003C275FF000080DF124094246390048469A
:1042F00001F0BCF80120ADF83400AE480E905FF03C
:1043000020095FF0000A0DF1040B52464946584659
:1043100001F0ACF801208DF80700402005901E2028
:10432000069000200090A44B01AA09A918A801F04A
:1043300036FC0400A346BBF1000F02D05846FCF740
:10434000C1FF27B0BDE8F08F38B53EDF040025007F
:10435000002D02D02800FCF7B5FF31BD10B50400D8
:1043600002F08EFC954908609448006894490968F9
:10437000401A944908609148006891490860924841
:104380000088401C9049088090480078002809D196
:104390008D480088652805DB01208C4908700020C5
:1043A000FEF71EFCFCF7B0F90A20FFF78DFD002890
:1043B00021D18748007800281DD186480078401C0C
:1043C00084490870834890F90000652803DB7FF07A
:1043D0006300804908707F4890F90000012802DBE3
:1043E0007C48007803E07B4890F900004042C0B26E
:1043F000FEF7FCFB44E00A20FFF766FD002808D02A
:104400000920FFF761FD002803D0002072490870E1
:1044100036E00A20FFF758FD002831D00920FFF7C9
:1044200053FD00282CD101206B4908706B4800789F
:10443000401C6A490870694890F90000052807DBAC
:1044400000206649087063480078401C6149087084
:10445000604890F90000652803DB7FF063005D4948
:1044600008705C4890F90000012802DB5948007888
:1044700003E0584890F900004042C0B2FEF7B6FB96
:1044800002F0FEFB56490860554800684B49096830
:10449000401A54490860534800684A490968B0FB0B
:1044A000F1F000EE100AB8EE400A4F4880ED000A25
:1044B0004E480078401C4D49087010BD38B54C4A34
:1044C00001214C4802F038FB04002500002D02D0E9
:1044D0002800FCF7F7FE31BD38B5002242214548DF
:1044E000006802F048FB04002500002D02D02800DF
:1044F000FCF7E8FE31BD38B53E48006802F064FBC9
:1045000004002500002D02D02800FCF7DBFE31BDA1
:1045100070B500210A20FFF7C7FC00210920FFF732
:10452000C3FCFEF739FB6420FEF75AFBFDF7E8F801
:104530000023314A0521002002F0C4FA05002E00B4
:10454000002E02D03000FCF7BDFEFFF77BFEFFF728
:10455000CCFCFFF71CFDFFF7AFFEFFF749FD032082
:1045600001F0F4FB04002600002E02D03000FCF71E
:10457000A9FEFAF751FFFCF7B3FBFFF79FFFFDF72A
:1045800098F9FFF7A9FFFFF7DFFEFCE7408602007E
:104590005C2100206B3F0200902D0020C0210020F4
:1045A000C13F0200E53F020084860200002B00208C
:1045B0001D42020058210020854002002C2F0020BF
:1045C000302F0020342F0020A42F0020BF2F0020E8
:1045D000C42F0020C12F0020C02F0020C22F002098
:1045E000382F00203C2F0020282F0020BE2F002035
:1045F0005D43020080860200C829002001005FF0B0
:10460000A040704711B581B00C0001A8FFF7F6FF7C
:10461000019900EB8101D1F8001731F44031019A82
:1046200000EB8202C2F80017019900EB8101D1F87A
:104630000017E4B251EA0441019A00EB8202C2F889
:10464000001713BD80B5DFF8E803006802F0BCFA7C
:10465000DFF8E003006802F0B7FA01BD70B50400AE
:1046600000250026DFF8D8030078002805D00020B8
:10467000DFF8CC13087002F07BFBE4B2002C37D0DB
:10468000022C3BD03AD3042C00F0948064D3062C47
:1046900000F0E680C0F0BA80082C00F0F580C0F091
:1046A000ED800A2C00F01181C0F0FD800C2C00F090
:1046B0002D81C0F019810E2C00F02D81C0F02B81CE
:1046C000102C00F02881C0F02681122C00F04A81C5
:1046D000C0F02181142C00F05281C0F04881162CCA
:1046E00000F06081C0F05381172C00F05B815EE127
:1046F00002F03EFBDFF84C03047058E1002002F0AA
:104700001AFB00280BD0002002F02AFBE4B2022C96
:1047100002D14FF4E1660CE04FF47A6609E0002024
:1047200002F016FBE4B2022C01D1C82601E04FF4DE
:10473000C876DFF8100304700022DFF80003006879
:104740006421B6FBF1F101FB00F1DFF8E40200683F
:1047500002F011FA05002AE1002002F0ECFA00282C
:104760000BD0002002F0FCFAE4B2032C02D14FF48B
:1047700048760CE04FF47A6609E0002002F0E8FA8F
:10478000E4B2032C01D1C82601E04FF4C876DFF86B
:10479000B40204700022DFF8A40200686421B6FBB2
:1047A000F1F101FB00F1DFF88802006802F0E3F9A3
:1047B0000500FCE0002002F0BEFA00280BD000202B
:1047C00002F0CEFAE4B2042C02D14FF47A660DE086
:1047D0004FF47A660AE0002002F0BAFAE4B2042C40
:1047E00002D14FF4C87601E04FF4C87695480470C2
:1047F0000022924800686421B6FBF1F101FB00F150
:104800008B48006802F0B7F90500D0E0002002F004
:1048100092FA00280AD0002002F0A2FAE4B2052C95
:1048200001D1C8260CE04FF47A6609E0002002F0BE
:104830008FFAE4B2052C01D1C82601E04FF4C87606
:104840008048047000227D4800686421B6FBF1F1C5
:1048500001FB00F17648006802F08DF90500A6E042
:10486000002002F09BFA7748047000227348016828
:104870006F48006802F07FF9050098E0002002F020
:1048800067FA7048047092E001206D4908700120B9
:1048900002F084FA0022694801686548006802F065
:1048A0006AF9050083E0012065490870012002F0E3
:1048B00075FA002261480068052101FB00F15C489F
:1048C000006802F058F9050071E001205C490870A9
:1048D000012002F063FA0022584801685448006839
:1048E00002F049F9050062E00120554908700120F5
:1048F00002F054FA002251480068052101FB00F142
:104900004B48006802F037F9050050E002F03BFA2E
:104910004C4804704BE04748006802F055F9050028
:10492000E4B2D4F111000600002E17D0002D15D1ED
:10493000022E0FD3002241480068C82101FB06F176
:104940006423B1FBF3F101FB00F13A48006802F087
:1049500012F90500022002F0FBF902E0022002F049
:10496000FFF924E002F004FA364804701FE002F078
:10497000FFF9002002F0ECF93248047017E002F071
:10498000F7F9012002F0E4F92E4804700FE002F07C
:10499000EFF9002002F0DCF9012002F0D9F92948F2
:1049A000047004E002F0EFF926480470FFE72800E5
:1049B00070BD38B50400002523480078C00704D531
:1049C0002000C0B2FFF74AFE0500280032BD30B417
:1049D00003000020042B26D2D2B2012A06D1C9B28C
:1049E000012902D113F10E0200E00022C9B2002910
:1049F0000FD0022906D013D20F4C032505FB03F577
:104A0000625512E00C4C032505FB03F52C44627043
:104A10000BE0094C032505FB03F52C44A27004E0D0
:104A20000724200001E00724200030BC704700006C
:104A300074860200788602000C2E0020F42E0020DE
:104A4000BB2F0020BA2F0020F82E002010B5040044
:104A5000200002F0AAF90321FFF7D4FD002010BDC9
:104A600038B50FB4DDE9020102F0A8F90546DDE929
:104A7000000102F0A3F9012DB8BF012830DA019836
:104A8000002807D5DDE9000181F00041CDE90001F2
:104A9000082400E000240398002807D5DDE902017E
:104AA00081F00041CDE9020184F00604DDE9020154
:104AB000DDE9002302F0A2F904D2FDF71BF841EC76
:104AC000100B29E0002D08D5DDE90001DDE9022306
:104AD000FDF710F841EC100B20E09FED150B1DE0E9
:104AE000022808BFDDE9000120D0022D08BFDDE962
:104AF00002011BD0854201990CBF9FED0F0B9FED6A
:104B00000C0B002903994CBF08240024002948BF3E
:104B100084F00604012801D184F00204224605B085
:104B2000BDE8304051EC100B02F086B905B030BD45
:104B30000000000000000000000000000000F03F46
:104B400080B553EC112B51EC100BFFF789FF41ECB2
:104B5000100B01BDD0B52DED048B82B041EC180BCC
:104B60008DED008BDDE90023C3F30A5140F2FF72A3
:104B7000914212D019B9C3F31301084311D051EC7B
:104B8000180B0022002302F039F93DBF81F00041EB
:104B900041EC180B0824002409E0C3F31301084377
:104BA000EDD002B051EC180BBDEC048BD0BD51EC34
:104BB000180B2B4A2B4B02F021F91CD29FED2B9B9B
:104BC00051EC190B53EC182B00F0DCF806460F469D
:104BD00053EC182B51EC190B02F026FA32463B46E7
:104BE000FCF7B6FE00F056F841EC100B51EC180B38
:104BF00053EC102B1EE001221B4B02F0FFF823D2D6
:104C00009FED1A9B51EC190B53EC182B00F0BAF8DE
:104C100006460F4653EC182B51EC190B02F004FA20
:104C200032463B46FCF794FE00F034F884F0020470
:104C300053EC182BFCF75EFF02B02246BDEC048B50
:104C4000BDE8D04002F0F8B802F062FA212101601C
:104C500002B04FF0FF30BDEC048B6FF00041D0BDCF
:104C6000CE3B7F669EA0E63F0000F03F00000000C4
:104C70000000F03F80B551EC100BFFF76BFF41ECEB
:104C8000100B01BD51EC100B10B500F003F841EC16
:104C9000100B10BD40F2FF7C0B0D4DD0634566D26A
:104CA00030B421EA035141F4801103F2FD3C5FEA84
:104CB0005C0C01D300184941890041EA90718000E1
:104CC0004FF440140023E202D50AB1F5100107D4D5
:104CD0006D081DD2091B641900184941491BF7D5FD
:104CE0006D080AD20919641B00184941491BEFD508
:104CF0006D08F7D301E0520817D0C01861419B1A24
:104D0000AC4100184941801AA941F4D452080AD094
:104D1000C01AA1419B186C4100184941801AA94151
:104D2000E9D45208F4D15B1C6C4161084FEA3300AE
:104D300001EB0C5130BC704750EA0103FBD030B49A
:104D4000B1FA81F311B9B0FA80F41B190B3BB3F13E
:104D500020042FBF00FA04F19940C3F1200420FA87
:104D600004F438BF21439840D3F101039DE7634524
:104D7000E1D011F5801FDED850EA4101DBD0D943E4
:104D800002F0CCB9F0B44FF0004591EA030F44BFF4
:104D90006B4002F053B900BF841A71EB030604D2D2
:104DA0006E40001BB141121973414FF4001C1CEB03
