:020000040001F9
:10F00000C829002021870200771B0200CF1D0200C3
:10F01000AF1E0200F7310200C355020000000000DD
:10F02000000000000000000000000000975A0200ED
:10F03000A37C020000000000B5860200D786020013
:10F040002B7B0200E3860200A78502004113020029
:10F050008187020083870200BD370200AB3A0200BD
:10F060008587020087870200898702008B8702005C
:10F070008D8702008F87020091870200938702002C
:10F0800095870200816B0200978702009987020032
:10F09000AD6B02009B870200DD6202009D870200CB
:10F0A0009F870200A1870200A3870200A5870200B4
:10F0B00029550200A78702000000000000000000A0
:10F0C000A9870200AB870200AD870200AF8702006C
:10F0D000B1870200B3870200B5870200000000007C
:10F0E0000000000000000000000000000000000020
:10F0F0000000000000000000000000000000000010
:10F1000000000000000000000000000000000000FF
:10F1100000000000000000000000000000000000EF
:10F40000DFF8FC1B0968491CDFF8F42B11600121AF
:10F41000DFF8F02B117070471FB5DFF8EC0B0FC849
:10F420006C4684E80F0014208DF8030011208DF83D
:10F43000020012208DF8010013208DF80000DFF883
:10F44000CC2B6946DFF8C80B01F013FE0400002C3A
:10F4500002D0200001F082FF1FBDF0B583B0040090
:10F460000D0016001F008DF8045030788DF805004F
:10F470000020DFF8901B087000200090002302227B
:10F4800001A9DFF88C0B01F070FEDFF8780B007833
:10F490000028FAD00020FEBDF8B504000D001600CB
:10F4A0001F0055F08000DFF86C1B08700020DFF8AB
:10F4B000541B0870781CC0B20090DFF85C3B01223E
:10F4C000DFF8501BDFF8480B01F04FFEBFB2012FF1
:10F4D00004D1DFF8300B00780028FAD0DFF8380BC1
:10F4E000407830700020F2BD80B50C23DFF82C2B63
:10F4F00022210020FFF7D0FF0020062812DADFF8D3
:10F50000181B01EB400189780902DFF80C2B02EB94
:10F510004002527851FA82F1DFF8042B22F81010E1
:10F52000401CEAE701BDF0EE401A90ED004AB0EE53
:10F53000442A91ED004A34EE204AF0EE442A32EE9D
:10F54000814A82EE844AF0EE443A31EEC24AF0EE4D
:10F55000424A44EE234AB0EE640AB7EE004A34EE63
:10F56000634A24EE224AB0EE443A81ED003A80ED3F
:10F57000000A7047DFF8A80AB0F9000000EE100A90
:10F58000B8EEC00ADFF89C0AD0ED000A30EE600A3F
:10F59000DFF8940AD0ED000A20EE200ADFF88C0A8A
:10F5A000D0ED000A20EE200ADFF8840A80ED000A80
:10F5B000DFF86C0AB0F9020000EE100AB8EEC00ADB
:10F5C000DFF8600AD0ED010A30EE600ADFF8580A71
:10F5D000D0ED000A20EE200ADFF8500AD0ED000A34
:10F5E00020EE200ADFF8480A80ED010ADFF8300A31
:10F5F000B0F9040000EE100AB8EEC00ADFF8240AE1
:10F60000D0ED020A30EE600ADFF81C0AD0ED000AE5
:10F6100020EE200ADFF8140AD0ED000A20EE200ABE
:10F62000DFF80C0A80ED020ADFF8F409B0F90600F1
:10F6300000EE100AB8EEC00ADFF8F809D0ED000AB3
:10F6400030EE600ADFF8F009D0ED000A20EE200A63
:10F65000DFF8E80980ED000ADFF8C409B0F9080016
:10F6600000EE100AB8EEC00ADFF8C809D0ED010AB2
:10F6700030EE600ADFF8C009D0ED000A20EE200A63
:10F68000DFF8B80980ED010ADFF89409B0F90A0043
:10F6900000EE100AB8EEC00ADFF89809D0ED020AB1
:10F6A00030EE600ADFF89009D0ED000A20EE200A63
:10F6B000DFF8880980ED020ADFF884090068002875
:10F6C00000F0A480DFF87C090068401CDFF87419A2
:10F6D0000860002003286EDADFF8441931F91010B1
:10F6E00000EE101AB8EEC00ADFF85C1901EB8001D9
:10F6F00081ED000ADFF82C1901EB800191ED000A81
:10F70000DFED410A30EE200ADFF83C1901EB800101
:10F71000D1ED000AB4EE600AF1EE10FA10D5DFF870
:10F72000041901EB800191ED000ADFED370A30EE9C
:10F73000200ADFF8141901EB800181ED000A24E0B2
:10F74000DFF8E01801EB800191ED000ADFEDE10A3E
:10F7500030EE200ADFF8F01801EB8001D1ED000A4D
:10F76000F4EE400AF1EE10FA0FD5DFF8B81801EB0D
:10F77000800191ED000ADFEDD70A30EE200ADFF8B4
:10F78000C81801EB800181ED000ADFF8C01801EB19
:10F79000800191ED000ADFF8B01801EB8001D1ED96
:10F7A000000A30EE200ADFF8A41801EB800181ED99
:10F7B000000A401C8EE7DFF88C08006840F6B9317B
:10F7C000884223DB0020DFF87C1808600020DFF887
:10F7D000701808600020032818DADFF8701801EBB1
:10F7E000800191ED000ADFEDBC0A80EE200ADFF80F
:10F7F000341801EB800181ED000ADFF85018002277
:10F8000041F82020401CE6E700004842DFF84008AD
:10F810000078002858D1DFF818084068DFF834185D
:10F820000860DFF80C08DFF8081891ED000AB1EE67
:10F83000400A80ED010ADFF8F807DFF818180968B8
:10F840000160DFF8EC078068DFF808180860DFF86F
:10F85000E007DFF8DC1791ED000AB1EE400A80ED19
:10F86000020ADFF8CC07DFF8EC1709680160DFF85F
:10F87000CC074068DFF8E0170860DFF8C007DFF862
:10F88000BC1791ED000AB1EE400A80ED010ADFF8E5
:10F89000AC07DFF8C41709680160DFF8A0078068CB
:10F8A000DFF8B4170860DFF89407DFF8901791EDE0
:10F8B000000AB1EE400A80ED020ADFF88007DFF8A7
:10F8C00098170968016004E1DFF8840700780128CF
:10F8D00040D1DFF85C078068DFF878170860DFF850
:10F8E0005007DFF84C1791ED000AB1EE400A80EDA9
:10F8F000020ADFF83C074068DFF834170860DFF8D9
:10F900003007DFF8501791ED000AB1EE400A80EDA4
:10F91000010ADFF828078068DFF83C170860DFF885
:10F920001C07DFF8181791ED000AB1EE400A80EDD0
:10F93000020ADFF808074068DFF800170860DFF800
:10F94000FC06DFF8141791ED000AB1EE400A80EDD5
:10F95000010ABEE0DFF8F806007802282CD1DFF8B3
:10F96000D0068068DFF8EC160860DFF8C406DFF820
:10F97000C01609688160DFF8B806DFF8D81691ED87
:10F98000000AB1EE400A80ED000ADFF8B006806898
:10F99000DFF8C4160860DFF8A406DFF8A0160968CF
:10F9A0008160DFF89806DFF8B01691ED000AB1EE3D
:10F9B000400A80ED000A8CE0DFF894060078032806
:10F9C0002CD1DFF86C068068DFF888160860DFF855
:10F9D0006006DFF85C1691ED000AB1EE400A80ED9A
:10F9E000020ADFF84C06DFF86C1609680160DFF8E0
:10F9F0004C068068DFF860160860DFF84006DFF824
:10FA00003C1691ED000AB1EE400A80ED020ADFF8E3
:10FA10002C06DFF84416096801605AE0DFF830066A
:10FA2000007804282CD1DFF808064068DFF8241697
:10FA30000860DFF8FC05DFF8F81591ED000AB1EE7B
:10FA4000400A80ED010ADFF8E805DFF808160968CA
:10FA50000160DFF8E8054068DFF8FC150860DFF8B2
:10FA6000DC05DFF8D81591ED000AB1EE400A80ED13
:10FA7000010ADFF8C805DFF8E0150968016028E031
:10FA8000DFF8CC050078052823D1DFF8A40540680D
:10FA9000DFF8C0150860DFF89805DFF894150968ED
:10FAA0004160DFF88C05DFF8AC1509680160DFF80C
:10FAB0008C054068DFF8A0150860DFF88005DFF8E6
:10FAC0007C1509684160DFF87405DFF88C1509685A
:10FAD00001607047000048C20000FA44DFF87C056E
:10FAE00090F9000000281AD1DFF8780590ED001A8F
:10FAF000B8EEC11AB4EE401AF1EE10FA0FD5DFF8E5
:10FB0000600590ED001AB8EEC11AB4EE601AF1EE7D
:10FB100010FA04D50120DFF84415087043E0DFF83F
:10FB20003C0590F90000012809D1F5EE400AF1EEFC
:10FB300010FA04D50020DFF82415087033E0DFF850
:10FB40001C0590F9000000281DD1DFF8180590ED84
:10FB5000001AB8EEC11AB4EE401AF1EE10FA12D53E
:10FB6000DFF8FC040068404201EE100AB8EEC11A4A
:10FB7000F4EE410AF1EE10FA05D55FF0FF30DFF840
:10FB8000DC1408700FE0DFF8D40490F9000010F1E5
:10FB9000010F08D1F5EE400AF1EE10FA03DD002066
:10FBA000DFF8B8140870DFF8B40490F90000DFF84B
:10FBB000B81491F9001088420ED0DFF8A004007844
:10FBC000DFF8A4140870DFF894040078DFF89414C8
:10FBD0000968484340B200E000207047010000205F
:10FBE000DFF8882492F90020012A11DBDFF8802455
:10FBF00092ED001AB8EEC11AB4EE401AF1EE10FA06
:10FC00001DD5BDEEC01ADFF8682482ED001A16E09B
:10FC1000DFF8582492F90020002A10D5DFF850248C
:10FC200092ED001AB8EEC11AB4EE401AF1EE10FAD5
:10FC300005D5BDEEC01ADFF8382482ED001ADFF8D2
:10FC40002C2492F90020002A1AD1DFF8182492ED12
:10FC5000001AB8EEC11AB4EE401AF1EE10FA0FD540
:10FC6000DFF8FC2392ED001AB8EEC11AB4EE601A68
:10FC7000F1EE10FA04D50122DFF8F0331A7059E0E2
:10FC8000DFF8E82392F90020012A13D1DFF8D0230E
:10FC90001268022392FBF3F201EE102AB8EEC11AA9
:10FCA000F4EE410AF1EE10FA04D50222DFF8BC337B
:10FCB0001A703FE0DFF8B42392F90020002A1DD12A
:10FCC000DFF8A02392ED001AB8EEC11AB4EE401A84
:10FCD000F1EE10FA12D5DFF888231268524201EED5
:10FCE000102AB8EEC11AF4EE410AF1EE10FA05D569
:10FCF0005FF0FF32DFF874331A701BE0DFF86C231B
:10FD000092F9002012F1010F14D1DFF85423126888
:10FD10005242022392FBF3F201EE102AB8EEC11A0E
:10FD2000B4EE601AF1EE10FA04D57FF00102DFF8AC
:10FD30003C331A70DFF8342392F90020022A06D0EF
:10FD4000DFF8282392F9002012F1020F17D1DFF813
:10FD50001C2392F90020022392FBF3F2DFF8103308
:10FD60001B685A4310000022DFF800331A7000228B
:10FD7000DFF8FC321A60DFF8FC2212680A6040B239
:10FD80007047DFF8F40290F9000000281AD1DFF87C
:10FD9000EC0290ED001AB8EEC11AB4EE401AF1EE82
:10FDA00010FA0FD5DFF8D80290ED001AB8EEC11A9C
:10FDB000B4EE601AF1EE10FA04D50120DFF8B812A3
:10FDC000087043E0DFF8B00290F90000012809D183
:10FDD000B5EE400AF1EE10FA04D50020DFF89812D3
:10FDE000087033E0DFF8900290F9000000281DD180
:10FDF000DFF888020068404201EE100AB8EEC11A2E
:10FE0000B4EE410AF1EE10FA10D5DFF8740290ED6D
:10FE1000001AB8EEC11AB4EE601AF1EE10FA05D568
:10FE20005FF0FF30DFF8501208700FE0DFF8480293
:10FE300090F9000010F1010F08D1B5EE400AF1EE83
:10FE400010FA03DD0020DFF830120870DFF8280216
:10FE500090F90000DFF82C1291F9001088420ED0C2
:10FE6000DFF814020078DFF81C120870DFF80802CF
:10FE70000078DFF808120968484340B200E000202B
:10FE8000704701000020DFF8002292F90020012ACB
:10FE900011DBDFF8E02192ED001AB8EEC11AB4EEE2
:10FEA000401AF1EE10FA1DD5BDEEC01ADFF8C421DC
:10FEB00082ED001A16E0DFF8D02192F90020002A26
:10FEC00010D5DFF8B02192ED001AB8EEC11AB4EEE9
:10FED000410AF1EE10FA05D5BDEEC01ADFF8942103
:10FEE00082ED001ADFF8A02192F90020002A1AD131
:10FEF000DFF8882192ED001AB8EEC11AB4EE401A6C
:10FF0000F1EE10FA0FD5DFF8782192ED001AB8EE75
:10FF1000C11AB4EE601AF1EE10FA04D50122DFF82E
:10FF200068311A7044E0DFF8602192F90020012A5C
:10FF300009D1B5EE400AF1EE10FA04D50222DFF83D
:10FF400048311A7034E0DFF8402192F90020002A8D
:10FF50001DD1DFF828211268524201EE102AB8EEB6
:10FF6000C11AB4EE410AF1EE10FA10D5DFF81021F3
:10FF700092ED001AB8EEC11AB4EE601AF1EE10FA62
:10FF800005D55FF0FF32DFF800311A7010E0DFF8BE
:10FF9000F82092F9002012F1010F09D1B5EE400AC4
:10FFA000F1EE10FA04DD7FF00102DFF8DC301A70A8
:10FFB000DFF8D42092F90020022A06D0DFF8C8200A
:10FFC00092F9002012F1020F17D10022DFF8B830A9
:10FFD0001A70DFF8A020126810000022DFF89430B9
:10FFE0001A60DFF8882092F90020DFF884301B685F
:10FFF0005A43022392FBF3F20A6040B270470000BA
:020000040002F8
:100000009C2F0020C22100201087020001F4010073
:1000100054870200C82F0020E82D0020282E002041
:10002000342E0020582E0020A4210020A8210020DA
:100030004C2E00207C2E0020AC210020702E0020B1
:100040007C2F0020782F0020402E0020642E0020DE
:10005000E52F0020802F0020842F0020E62F002095
:100060009421002098210020E72F0020E82F002075
:10007000A02F0020A42F0020EA2F0020A021002084
:100080009C210020EB2F0020E92F0020DFF8D00C6E
:10009000807E042805D1DFF8C80C807E082800F097
:1000A0006681DFF8BC0C407EC00704D50120DFF874
:1000B000B01C487003E00020DFF8A41C4870DFF893
:1000C000A00C407E800704D50120DFF8941C8870C6
:1000D00007E00020DFF8881C88700020DFF8801C13
:1000E0004871DFF87C0C407E400704D50120DFF822
:1000F000701CC87003E00020DFF8641CC870DFF8D3
:10010000600C407E000704D50120DFF8541C087104
:1001100003E00020DFF8481C0871DFF8440C407E43
:10012000C0060DD50120DFF8381C4871DFF8300C0F
:100130008078012808D00120DFF8241C887003E0B3
:100140000020DFF81C1C4871DFF8140C407E80068C
:1001500004D50120DFF8081C887103E00020DFF8D7
:10016000001C8871DFF8F80B407E400604D50120A2
:10017000DFF8EC1BC87103E00020DFF8E41BC87156
:10018000DFF8DC0B407E000604D50120DFF8D01B31
:10019000087203E00020DFF8C81B0872DFF8C00B0C
:1001A000C07E002807D0DFF8B80BC07EDFF8B01B98
:1001B00081F82E0004E00020DFF8A41B81F82E0057
:1001C000DFF89C0B007F002807D0DFF8940B007F3E
:1001D000DFF88C1B81F82F0004E00020DFF8801B83
:1001E00081F82F00DFF8780B407F00280ED0DFF871
:1001F000700B407FDFF8681B81F83000DFF8600B80
:1002000090F83000DFF8A81A08600BE00A20DFF849
:10021000501B81F83000DFF8480B90F83000DFF811
:10022000901A0860DFF8380B807F00280ED0DFF8C6
:10023000300B807FDFF8281B81F83100DFF8200BBE
:1002400090F83100DFF81C1B08600BE00A20DFF893
:10025000101B81F83100DFF8080B90F83100DFF84F
:10026000041B0860DFF8F80AC07F00280ED0DFF812
:10027000F00AC07FDFF8E81A81F83200DFF8E00A00
:1002800090F83200DFF8E01A08700BE00020DFF889
:10029000D01A81F83200DFF8C80A90F83200DFF88F
:1002A000C81A0870DFF8B80A90F82000002808D0B3
:1002B000DFF8AC0A90F82000DFF8A41A81F83300C8
:1002C00004E00020DFF8981A81F83300DFF8900A84
:1002D00090F82100002808D0DFF8840A90F8210067
:1002E000DFF87C1A81F8340004E00020DFF8701A8F
:1002F00081F83400DFF8680A90F82200002808D05E
:10030000DFF85C0A90F82200DFF8541A81F8350013
:1003100004E00020DFF8481A81F83500DFF8400AD1
:1003200090F82300002808D0DFF8340A90F8230062
:10033000DFF82C1A81F82D0004E00420DFF8201AE1
:1003400081F82D00DFF8180A90F82400002808D062
:10035000DFF80C0A90F82400DFF8041A81F8360060
:100360001AE00020DFF8F81981F8360014E0DFF811
:10037000F009807E042805D10120DFF8E41981F816
:10038000370009E0DFF8D809807E082804D1022070
:10039000DFF8CC1981F837007047000010B5002451
:1003A000DFF8BC09407800280CD00120DFF8441A9F
:1003B0000870DFF8400A807B50F00100DFF8341A43
:1003C00088730BE00020DFF82C1A0870DFF8240A8D
:1003D000807B10F0FE00DFF81C1A8873DFF88009BC
:1003E0008078002862D0DFF8840990ED000ADFED04
:1003F000D10A30EE200AF2EE040A20EE200ABDEE09
:10040000C00A10EE100A00B2DFF8E8194862DFF8FF
:10041000600990ED000ADFEDC70A30EE200AF2EE27
:10042000040A20EE200ABDEEC00A10EE100A00B247
:10043000DFF8C0198862DFF83C0990ED000ADFEDB3
:10044000BD0A30EE200AF2EE040A20EE200ABDEECC
:10045000C00A10EE100A00B2DFF89819C862002036
:10046000062816DA0221022290FBF2F2DFF8843924
:1004700003EB8202526A90FBF1F301FB03F1091ACC
:10048000C90008310A41DFF86C190144CA73401CE5
:10049000E6E70120DFF85C194870DFF85809807B37
:1004A00050F00200DFF84C1988730BE00020DFF8F1
:1004B00044194870DFF83C09807B10F0FD00DFF83C
:1004C00034198873DFF89808C078002846D0DFF820
:1004D00028090078002801D101F0FBF89B4890ED35
:1004E000000ABDEEC00ADFF80C0980ED0C0A0020FE
:1004F000022811DA0221DFF8FC28126B90FBF1F3DD
:1005000001FB03F1091AC90008310A41DFF8E418B8
:1005100001444A75401CEBE701F0B7F8002810D001
:100520008B480068DFF8CC1881F83400DFF8C40885
:1005300090F83400DFF8BC1808770120DFF8BC1809
:1005400008600120DFF8AC188870DFF8A808807B0D
:1005500050F00400DFF89C18887312E0DFF8980868
:100560000078002801D001F0BDF80020DFF88418E1
:100570008870DFF88008807B10F0FB00DFF87418CB
:100580008873DFF8DC070079002842D001F0FFF91A
:100590006D4908806C48B0F9000001F005FADFF8F9
:1005A0006028DFF8603801F015FA0022DFF85838CB
:1005B00001F0E2FA01F00CFC624908606148006851
:1005C00001F04EFC0022DFF8443801F003FA01F09C
:1005D0006FFCDFF8201881F83500DFF8180890F874
:1005E0003500DFF81018C8750120DFF80818C8704A
:1005F0000020DFF86C170871DFF8F807807B50F0F7
:100600000800DFF8F01788730120DFF8F0170860A2
:100610000BE00020DFF8DC17C870DFF8D807807B1C
:1006200010F0F700DFF8CC178873DFF83407407953
:10063000002855D0DFF8D80700683F49096808430B
:10064000002841D03C480068DFF8A81781F8360040
:100650003A480068DFF89C1781F83700DFF8B007E8
:100660000068DFF8901781F8380035480068DFF837
:10067000841781F83900DFF87C0790F83600DFF83E
:1006800074170876DFF86C0790F83700DFF8641706
:100690004876DFF8600790F83800DFF8581788765A
:1006A000DFF8500790F83900DFF84817C876DFF810
:1006B0004407807B50F01000DFF838178873012062
:1006C000DFF8381708600BE00020DFF82817087102
:1006D000DFF82007807B10F0EF00DFF81817887331
:1006E000DFF830070088DFF80C17C88700200228E1
:1006F00011DA0221DFF8FC26D28F90FBF1F301FB27
:1007000003F1091AC90008310A41DFF8E81601446B
:10071000CA77401CEBE70020132806DADFF8D4166E
:100720000144897B0C19401CF6E7DFF8C80680F805
:10073000214010BD00003443682F00206C2F0020A2
:10074000742F0020642F0020C62F00201C2F0020B3
:10075000342F002038B50024DFF8BC060068401CA8
:10076000DFF8B4160860DFF8B4060078002810D06F
:10077000DFF884060078002804D100F094FF01F02F
:10078000F2FB06E0DFF898060078002801D001F0BF
:10079000EAFBDFF8CC050078002805D0FFF776FCEF
:1007A0000020DFF8BC150870DFF8B4058078002859
:1007B00000F0DE81FEF798FEFEF7DCFE9FEDD94AE1
:1007C000DFEDD83A9FEDD73ADFF85806D0ED022A90
:1007D000DFF8500690ED012ADFF84806D0ED001A48
:1007E000DFF8440690ED021ADFF83C06D0ED010A6E
:1007F000DFF8340690ED000A01F088FC01F00CFCF3
:10080000DFF85C0590F83300002847D0DFF850058A
:1008100090F8330000EE100AB8EE401ADFEDC20A7D
:10082000DFF80816DFF80806DFF8402592ED000A29
:10083000FEF779FEDFF8340580ED000ADFF82005C9
:1008400090F8330000EE100AB8EE401ADFEDB60A59
:10085000DFF8E015DFF8E005DFF8142592ED000A77
:10086000FEF761FEDFF8080580ED000ADFF8F0040E
:1008700090F8330000EE100AB8EE401ADFEDAA0A35
:10088000DFF8B815DFF8B805DFF8E82492ED000AC4
:10089000FEF749FEDFF8DC0480ED000ADFF8C00453
:1008A0004079002800F06481DFF89825DFF898157A
:1008B000DFF89805DFF8703593ED021ADFF8683538
:1008C000D3ED010ADFF8603593ED000A01F066FB15
:1008D000DFF87C25DFF87C15DFF87C05DFF8443590
:1008E00093ED021ADFF83C35D3ED010ADFF8343519
:1008F00093ED000A01F052FBDFF85C0590ED000A71
:10090000DFF85405D0ED000A20EE200ADFF8480594
:10091000D0ED010ADFF8400590ED011A00EE810AE2
:1009200002F0FAF8F7EE000A80EE800ADFF82C05F4
:1009300080ED000ADFF8140590ED000ADFF80C05E1
:10094000D0ED000A20EE200ADFF80005D0ED010A04
:10095000DFF8F80490ED011A00EE810A02F0DCF8ED
:10096000F7EE000A80EE800ADFF8F40480ED000A5A
:10097000DFF8E404806801F073FA0022DFF8E43461
:1009800001F028F801F024FADFF8CC148860DFF8D1
:10099000CC04006801F064FA0022DFF8C83401F0EA
:1009A00019F801F015FADFF8B4140860DFF89C04B8
:1009B00090ED020ADFEDBD0A30EE200ADFF88C046C
:1009C00080ED020ADFF88404806801F049FADFF85C
:1009D0009824DFF8983400F0FDFF01F0F9F9DFF812
:1009E0006C148860DFF87804006801F039FADFF8E9
:1009F0007824DFF8783400F0EDFF01F0E9F9DFF852
:100A000060140860DFF8680490ED001ADFF86404F1
:100A1000D0ED000ADFF86014DFF86004DFF8382456
:100A200092ED020AFEF77FFDDFF82C0480ED020A4A
:100A3000DFF83C0490ED001ADFF83804D0ED000A2E
:100A4000DFF83C14DFF83C04DFF8002492ED020AE2
:100A5000FEF769FDDFF8F40380ED020ADFF8100409
:100A600090ED001ADFF80C04D0ED000ADFF818143E
:100A7000DFF81804DFF8E42392ED000AFEF753FDD7
:100A8000DFF8D80380ED000ADFF8E40390ED001AE8
:100A9000DFF8E003D0ED000ADFF8F413DFF8F40329
:100AA000DFF8BC2392ED000AFEF73DFDDFF8B0034E
:100AB00080ED000ADFF8A40390ED000ADFF8D80308
:100AC000D0ED000A30EE600ADFF8D00380ED000AB6
:100AD000DFF8C403DFF8841309680160A04890F8C8
:100AE0003600002822D1DFF8B40390ED000AF2EEC0
:100AF000040A60EE200ADFF8540390ED020AFFF7C3
:100B000040F9DFF80C130860DFF84C03D0ED020A5F
:100B1000DFF84C0390ED000AFEF7E0FFDFF88013EA
:100B2000086025E0000000000AD7A33CDFF874034A
:100B3000DFF8681391ED000AF2EE040A60EE200A75
:100B4000DFF8081391ED020AFFF79BF9DFF8C012F6
:100B50000860DFF85403DFF80013D1ED020ADFF874
:100B6000001391ED000AFFF739F8DFF8341308603D
:100B7000DFF838030078002861D0794880790028B0
:100B80000ED0774890F82E00002803D1642002F0A0
:100B900069F808E0724890F82E0002F063F802E06D
:100BA000002002F05FF86E48C07900280ED06C4833
:100BB00090F82F00002803D1642002F059F808E0D3
:100BC000674890F82F0002F053F802E0002002F08E
:100BD0004FF86348007A002803D00120DFF83C1268
:100BE00008705F48807E800703D50120DFF8C012BF
:100BF00008605B4890F8370001280ED100200728D4
:100C00000BDADFF8B012096801EB800151F8041C1F
:100C1000DFF8A4221154401CF1E7514890F8370046
:100C200002280CD10025072D09DA3C21DFF88402C7
:100C3000006800EB850002F05AF86D1CF3E7FFF73F
:100C4000ADFBDFF86802007800282CD044484078DB
:100C500000281AD0DFF864020068401CDFF85C123C
:100C60000860DFF8580200683D4991F82D1088426D
:100C700019DB1422DFF84812DFF8480202F030FADC
:100C80000020DFF8381208600DE05C48006800289A
:100C900009D01422DFF82812DFF8280202F020FA27
:100CA0000020564908602000C0B232BD00007AC45E
:100CB0009821002080B51C20DFF80C120870012359
:100CC000DFF8042210210020FEF7C7FB0020DFF828
:100CD000F81108700123DFF8F02111210020FEF740
:100CE000BCFB8E20DFF8E01108700123DFF8D8216B
:100CF00058210020FEF7B1FB0920DFF8CC11087065
:100D00000123DFF8C42159210020FEF7A6FB0020B3
:100D1000DFF8B41108700123DFF8AC215A2100205C
:100D2000FEF79BFB8020DFF8A01108700123DFF89D
:100D300098215B210020FEF790FB08206249087093
:100D40000123614A5E210020FEF787FB10205E49E7
:100D5000087001235C4A15210020FEF77EFB01BDCF
:100D600058210020A0210020E52F0020E02E0020A7
:100D7000E82E0020E42E002080B500208DF8000031
:100D800052480068002834D19DF800006A2806D037
:100D900001236A460F210020FEF77EFBF4E7442082
:100DA000494908700123484A12210020FEF755FBEB
:100DB0007C20454908700123434A11210020FEF799
:100DC0004CFB0123404A10210020FEF746FB002087
:100DD0003D49087001233C4A15210020FEF73DFBE8
:100DE00080203949087002203749087000203649B0
:100DF000087001BD502B0020DC2F0020982F002010
:100E00005839B4C876BE15400000D04000003440C8
:100E1000702F0020C42F0020A82F0020E32F0020D7
:100E2000DD2F00204C2E0020702E0020B02D002041
:100E3000AC2D0020B82D0020B42D0020C02D0020A6
:100E4000BC2D0020902E00208C2E0020882E00200B
:100E50009C2E0020982E0020942E0020882F002009
:100E6000942F0020000008406FA301BC0512843FAE
:100E7000B4210020B0210020042C0020002C0020F0
:100E80000C2C0020082C0020142C0020102C0020FA
:100E90001C2C0020182C00208C2F0020902F0020CC
:100EA000682F00206C2F0020742F0020E42F0020DA
:100EB0007C2F0020442F0020D82D0020DE2F002082
:100EC0005E2B0020902D0020C82F0020AC2F00208A
:100ED0000122C9B24250704781B0002209B242508B
:100EE00009B242580092009A01B0704709B24058C6
:100EF000002801D0012000E00020C0B27047C0F8F7
:100F000004137047C0F8081370470721C0F8001594
:100F10007047C0F80815C0F80C25C0F810357047A8
:100F2000C0F824157047C0F84415D2B2C0F848255F
:100F30007047C0F83415D2B2C0F838257047D2B225
:100F4000002A01D1002300E00123C9B2012904D005
:100F500002D3032907D003D307E053F0020304E0D0
:100F600053F0040301E053F00603C0F85435704712
:100F7000C9B2C0F8C01570470121C0F850157047BC
:100F80000021C0F8501570470121C0F84015704786
:100F90000021C0F84015704710F06040B0F1005FCC
:100FA00001D1012000E00020C0B2704701005FF0D5
:100FB000A04070472DE9F14181B00E00170098461E
:100FC000089C099D01A8FFF7F1FFF6B2FFB256EAAF
:100FD00047015FFA88F851EA8801E4B251EA042136
:100FE000EDB251EA0541019A00EB8202C2F8001706
:100FF000BDE8F3811CB504000020019000200090A2
:101000000023012201212000FFF7D4FF13BD30B5DA
:1010100083B004000D0000200190002000902B0000
:10102000DBB2002200212000FFF7C4FF37BD11B55D
:1010300081B001A8FFF7BAFF04000120019910FA5E
:1010400001F1200000F00FF813BD11B581B001A827
:10105000FFF7ACFF04000120019910FA01F1200014
:1010600000F004F813BDC0F808157047C0F80C155F
:1010700070472DE9F84F04000D001600B44861795F
:10108000490100EB0107387E002803D00820804684
:10109000404668E03E60287B022803DA2878FFF7A4
:1010A000D4FF02E02878FFF7C2FF0120A9492A787F
:1010B00041F822006878FF2808D0687881464846C1
:1010C000FFF7C3FF4846FFF795FF02E05FF0FF30F0
:1010D0008146A878FF2806D0A8788246002150468D
:1010E000FFF795FF02E05FF0FF308246E878FF28C7
:1010F00005D0E878FFF79BFFE878FFF77BFF94487F
:10110000617949010844E97881762068834653462D
:101110004A4629785846FFF7FCFEA9685846FFF76B
:10112000FFFE6A7B297B5846FFF709FF697958461D
:10113000FFF71EFF3868002803D040215846FFF70C
:10114000DEFE5846FFF7E1FE3868002804D0297912
:1011500094F9040002F024F8002078760120387613
:10116000002080464046BDE8F28F2DE9FF41050092
:101170000E00170098460A9C0096CDF808808DF85E
:1011800004708DF80C4000226946280000F08DF8AC
:1011900004B0BDE8F08110B50400A07EFF2802D0A5
:1011A000A07EFFF744FF0020607600202071201D04
:1011B0002168884710BD38B504000D00EDB2002D40
:1011C00004D140212000FFF79DFE03E040212000D4
:1011D000FFF795FE31BD38B504000D00E80703D5D3
:1011E0002000FFF7C9FE02E02000FFF7C9FEA807B4
:1011F00003D52000FFF7C8FE02E02000FFF7C8FE7D
:1012000031BD2DE9F04104000D0016001F003068CB
:10121000002804D03068FFF7BFFE002807D0B06870
:1012200000280AD0B068FFF7B7FE002805D10020DB
:10123000687610208046404635E0327931682000DB
:10124000FFF771FE327BB1682000FFF772FE4FF4AA
:101250008C712000FFF740FE39002000FFF7BBFF34
:10126000380703D410212000FFF732FE2868002839
:101270000DD14FF48C712000FFF738FE0028F8D014
:10128000A87EFF280CD0A87EFFF7D1FE08E0B808A2
:1012900010F0010090F00101C9B22000FFF78BFFB0
:1012A000002080464046BDE8F0812DE9F0418046AF
:1012B0000C001500264898F80510490100EB0106BE
:1012C0000027707E002803D011200700380022E09C
:1012D0003068002804D015F0140F01D10120707679
:1012E00094E80F0016F1080C8CE80F00707F10F0E6
:1012F000FE007077707F10F0FD007077B07EFF28E1
:1013000002D0B07EFFF7A1FE2B0022003100D8F8FA
:101310000000FFF776FFBDE8F08138B504000D004E
:101320004FF48C712000FFF7E1FD002807D04FF447
:101330008C712000FFF7D0FD2800FFF72CFF31BD96
:1013400010B5034C21000448FFF7E7FF10BD000073
:10135000342D0020000700500030004010B584B04C
:10136000040068460021002200230EC00C380294BD
:101370006A46002144F2010001F036FF1FBD6400FF
:10138000012110F01F029140DFF8B02340B2430961
:1013900042F82310704701005FF0A04070472DE92C
:1013A000F14181B00E0017009846089C099D01A8E4
:1013B000FFF7F1FFF6B2FFB256EA47015FFA88F88D
:1013C00051EA8801E4B251EA0421EDB251EA054143
:1013D000019A00EB8202C2F80017BDE8F3811CB548
:1013E0000400002001900020009000230122012130
:1013F0002000FFF7D4FF13BD30B583B004000D000B
:1014000000200190002000902B00DBB20022002180
:101410002000FFF7C4FF37BD11B581B001A8FFF769
:10142000BAFF04000120019910FA01F1200000F038
:101430002DF813BD11B581B001A8FFF7ACFF040072
:101440000120019910FA01F1200000F022F813BDEB
:1014500038B504000D00002D03D12000FFF7EAFF8E
:1014600002E02000FFF7D8FF31BD11B581B001A81F
:10147000FFF791FF0400200000F005F80199C84033
:1014800010F0010016BDD0F810057047C0F808151F
:101490007047C0F80C157047A94900283DD0A94AEB
:1014A000126800BF00BF00BF00BF00BF00BF00BF89
:1014B00000BF8A422FD000BF00BF00BF00BF00BFE7
:1014C00000BF00BF00BF00BF00BF00BF00BF00BF24
:1014D00000BF00BF00BF00BF00BF00BF00BF00BF14
:1014E00000BF00BF00BF00BF00BF00BF00BF00BF04
:1014F00000BF00BF00BF00BF00BF00BF00BF00BFF4
:1015000000BF00BF00BF00BF00BF00BF00BF00BFE3
:1015100000BF00BF00BF0138C3D1704710B5040041
:10152000200040B2FFF72CFF10BD874890F8340030
:10153000143086490860844890F835008449086072
:10154000844890ED000A8448D0ED000A30EE600A2D
:10155000824880ED000A80487E4909680160804821
:101560000068002810D1794890ED000AB8EEC00A52
:101570007A48D0ED000AB4EE600AF1EE10FA03D515
:101580000120774908603FE071480068002824D0B6
:1015900073480068012820DB6C4890ED000AB8EE23
:1015A000C00A6E48D0ED000AB4EE600AF1EE10FAFF
:1015B00013D56C480068401C6A490860644800689C
:1015C0006849096888421FDA002066490860644853
:1015D0000068401C6249086016E061480068012804
:1015E00012DB614890ED000AB8EEC00A5B48D0ED0E
:1015F000000AF4EE400AF1EE10FA05D50020594930
:101600000860002056490860704738B504000D0096
:1016100056480078002805D000F045F801205449CC
:10162000087031E000F0DEF8524908605148006867
:10163000B0F5702F10DD4F480068C043401C4E4984
:1016400008604D48006880B24B4908604A4800680D
:1016500040424A49086003E046480068474908603C
:10166000474890ED001A4748D0ED000A46494748E0
:10167000424A92ED000AB8EEC00AFDF754FF354821
:1016800080ED000AFFF751FF31BD41480068344941
:101690000968884205D0324800683D490860012049
:1016A00000E00020704780B51E2002F06AF840205C
:1016B00000F0FCF800F0B6F8402807D04FF47A703C
:1016C000FFF7EAFE402000F0F1F8F3E700F03AF906
:1016D00001BD80B501202F4908700721062001F0C7
:1016E0005FFD01BD80B500202A4908700620FFF784
:1016F00015FF01BD38B501F053FF04002500002D92
:1017000002D02800FFF72AFE23480068009003203B
:101710008DF80100214A69461E2001F077FF040080
:101720002500002D02D02800FFF718FE01211E2001
:1017300001F0B3FFFFF7D6FF31BD000080E100E00C
:101740000024F400B821002058210020442100206A
:10175000302F00201C2F0020242F0020202F0020BD
:10176000342F00202C2F002048210020E32F0020C0
:10177000DD2F0020142F0020282F0020182F0020FC
:10178000402100203C210020CC2E0020C82E00202B
:10179000382F0020DC2F00206C8702000B1602007F
:1017A00080B51F20FFF71BFE242000F07FF800F01B
:1017B00039F8242807D04FF47A70FFF76DFE242003
:1017C00000F074F8F3E7FFF795FF00F0BBF801BDF8
:1017D00080B501211F20FFF73BFE00211F20FFF7EE
:1017E00037FE01BD38B5002400211E2001F055FF51
:1017F0000025182D0ADAFFF7EBFF64001E20FFF723
:1018000034FE002800D0641C6D1CF2E7FFF7E0FFF7
:10181000FFF7DEFFFFF7DCFF01211E2001F03DFF97
:10182000200032BD38B50025EDB21B2D03DAFFF7DD
:10183000CFFF6D1CF8E71E20FFF7D1FDFFF7C8FFB3
:10184000FFF7C6FFAC2004000725012D12DB0120A5
:10185000A8402100C9B2014204D001211E20FFF797
:10186000F7FD03E000211E20FFF7F2FDFFF7B0FFB8
:101870006D1EEAE703211E20FFF7BEFDFFF7A8FF5C
:10188000002004000025EDB2082D0ADA6400FFF7FD
:101890009FFF1E20FFF7E9FD002800D0641C6D1C8F
:1018A000F1E7FFF795FF2000C0B232BDF8B50400A4
:1018B00000200600F6B21B2E03DAFFF789FF761C24
:1018C000F8E71E20FFF78BFDFFF782FFFFF780FF91
:1018D000CA20050007200600F6B2002E12D0012013
:1018E000B0402900C9B2014204D001211E20FFF7F7
:1018F000AFFD03E000211E20FFF7AAFDFFF768FF00
:10190000761EE9E7FFF764FF25000727002F12D4B2
:101910000120B8402900C9B2014204D001211E2093
:10192000FFF796FD03E000211E20FFF791FDFFF772
:101930004FFF7F1EEAE703211E20FFF75DFDFFF743
:1019400047FFF1BD80B501211F20FFF781FD01BDDB
:1019500070473EB5684612492CC92CC00C390C386A
:101960001049002002F0C5F9040000208DF80300A2
:1019700000208DF802006946002002F016FA0400EB
:101980002500002D02D02800FFF7E8FC37BD80B508
:101990006946002002F043FABDF9000002BD0000D4
:1019A0003C87020051190200010040F10780F44613
:1019B000404200F003F851F00041604709D0B0FA0E
:1019C00080F18840C91CC1F58461090501EBD02173
:1019D00040057047B0B581EA030C0CF0004C40F2B2
:1019E000FF7515EA11541DBF15EA1357AC42AF42FB
:1019F00039E0E41923EA455343F48013C90241F066
:101A0000004141EA505EC7021100A7FB0202002814
:101A10004FF00000EEFB01204FF00001E3FB072137
:101A200018BF42F00102401800214941E3FB0E01BA
:101A3000A4F580640F0302D252004041494154F1A1
:101A400001046CDD470872F1004250F1000051EBD7
:101A50000451A1F580115CBF41EA0C01B0BD4CEA14
:101A600005510020B0BD05EA1357AC4214BFAF4288
:101A700041E050EA410E1CBF52EA430E02E06146CB
:101A80000020B0BD24423C441BD15FEA070EF6D0D3
:101A9000090302BF01460020AEF1140EB1FA81F72E
:101AA000AEEB070401FA07FE0C37C7F1200100FA7C
:101AB00007F7C8404EEA000E23EA455343F480136B
:101AC000A2E733F00043B3FA83F704BFB2FA82FE11
:101AD00077440B3FE41BB7F1200E2FBF02FA0EF341
:101AE000BB40C7F1200E22FA0EFE38BF43EA0E03B8
:101AF000BA40641C82E750EA410E14BF52EA430E1A
:101B00006FF000014FF4001717EB430F8ABF19461F
:101B100017EB410FB5E74CEA05510020B0BDD4F1F9
:101B20000104B4F120070FDAC4F12007520828BFDE
:101B300042F0010210FA07F501FA07F7E1BF2A4364
:101B4000E0403843E1400FE0352C98DCC7F1200439
:101B500052EA400220FA07F218BF42F0010231FABD
:101B600007F0A1400A43002172F1004250F1000049
:101B700051EB0C01B0BDFEE72DE9F04140F2FF75DD
:101B800081EA030C0CF0004C15EA11541DBF15EA54
:101B90001357AC42AF42E9E0BC41C1F31301C3F3B8
:101BA0001303801A994143F4801304D2641E400049
:101BB000494180185941C90241EA5051B1FBF3F63D
:101BC00003FB1611A2FB0675D7EBC020A94102D278
:101BD000761E80185941C90241EA5051B1FBF3FE0B
:101BE00003FB1E11A2FB0E75D7EBC020A94103D247
:101BF000AEF1010E80185941890241EA90517605F3
:101C000046EA8E2EB1FBF3F603FB1611A2FB067516
:101C1000D7EB8020A94102D2761E80185941C90213
:101C200041EA50514EEA060EB1FBF3F603FB1611E2
:101C3000A2FB0675D7EBC020A94102D2761E801800
:101C40005941C90241EA5051B1FBF3F703FB1711A7
:101C5000A2FB0735D3EBC020A94167F100070CBFF9
:101C6000004247F0010766F3D5274FEA1E31B80856
:101C700014F5806414DDBD0775F1004250EB0E5081
:101C800051EB045111F5801F5CBF41EA0C01BDE826
:101C9000F0814CF07F6141F0E0410020BDE8F0812F
:101CA000BD076D0840EA0E5041F48011D4F10104E3
:101CB000B4F120060ADAC4F120060200E04001FA7D
:101CC00006F3E1401843B24015430EE0342C14DC17
:101CD000C6F1200445EA40056D0820FA06F21543D6
:101CE00021FA06F0A1400D43002175F1004250F1A8
:101CF000000051EB0C01BDE8F08100205FEA0C010F
:101D0000BDE8F081CFB992185B41B3FA83F704BF05
:101D1000B2FA82F6BF190B3FB7F120062FBF02FAC5
:101D200006F3BB40C7F1200622FA06F638BF33435C
:101D3000BA401CB1E419641E2FE77F4231F0004124
:101D4000B1FA81F404BFB0FA80F6A4190B3CB4F1E7
:101D500020062FBF00FA06F1A140C4F1200620FAA8
:101D600006F638BF3143A0403C1B16E7AC421ABF11
:101D700005EA1357AF4214E050EA41061CBF52EA8D
:101D80004306BFE750EA4107304661461CBF41EABF
:101D90000551BDE8F08152EA430C08BFC143BDE8DC
:101DA000F08100204FF4001616EB410F98BF16EBA0
:101DB000430F08BF16EB410F24BFC14305E016EBEC
:101DC000430F0CBF61464CEA0551BDE8F081FEE7C8
:101DD0004FEAF17CBCF1E04C2CBFBCF5001F11E0D8
:101DE0005FEA4C0C34BFBCF17F5F2EE05FEA9C0CD5
:101DF0004FEA0C1C4FEA3C0CC10071F100414CEB66
:101E000050707047C90241EA5051C00218BF41F0FA
:101E1000010141F000414FEA6C50C0F10900212856
:101E200010D240EACC7CCCF1200C11FA0CF070F10D
:101E30000040CCF1200C21FA0CF00CF0004C40EBEF
:101E40000C0070474FEACC707047490011F5001F35
:101E500004D84FEACC10FF30C0057047C817704750
:101E60005FF0FF0C1CEAD05114BF614506E0C110C1
:101E7000400721F0E04101F16051704779B900F06D
:101E8000004100020AD0B0FA80FC00FA0CF001F127
:101E90006051A1EB0C5101EBD0214005704741028C
:101EA0000CBF40F4E0016FF0000100207047FEE736
:101EB000F446400D40EAC120490006D200F00EF879
:101EC000004248BF6FF00040604700F007F84FF055
:101ED000004188428CBF08464042604740F00040C5
:101EE000490DA1F58061491C05D4D1F11F0154BFF2
:101EF000C840C01770474FF00000704701005FF006
:101F0000A04070472DE9F14181B00E0017009846BE
:101F1000089C099D01A8FFF7F1FFF6B2FFB256EA4F
:101F200047015FFA88F851EA8801E4B251EA0421D6
:101F3000EDB251EA0541019A00EB8202C2F80017A6
:101F4000BDE8F3817CB504000D0016003000C0B27E
:101F50000190002000902B00DBB200220021200025
:101F6000FFF7D0FF73BD80B502F03BFB02F0E2FB50
:101F700000F084FE022200211020FFF7E3FF02227E
:101F800001211620FFF7DEFFFEF794FE0120024933
:101F9000086032DF01BD0000602F0020DFF8583BF1
:101FA000D3ED001A61EE801ADFF84C3B93ED012A65
:101FB00042EE201ADFF8403B93ED022A42EE011A6E
:101FC000C0ED001ADFF8303BD3ED031A61EE801A42
:101FD000DFF8243B93ED042A42EE201ADFF8183B89
:101FE00093ED052A42EE011AC1ED001ADFF8083B15
:101FF000D3ED061A61EE801ADFF8FC3A93ED072A5A
:1020000042EE201ADFF8F03A93ED082A42EE011A68
:10201000C2ED001A7047000080B52DED028BDFF88D
:10202000D80A0068FFF71CFF41EC110BB0EE418AA3
:10203000F0EE618ADFF8C00AC068FFF711FF41ECDB
:10204000100BB0EE481AF0EE681A02F0F1FD51ECF8
:10205000100BFFF7BDFEDFF8981A0860DFF8900A52
:1020600090ED000ADFED280A20EE200ADFF8800A52
:1020700080ED000ADFF8800A006AFFF7F1FE41EC0C
:10208000110BB0EE418AF0EE618ADFF86C0AC0698C
:10209000FFF7E6FE41EC100BB0EE481AF0EE681ABE
:1020A00002F0C6FD51EC100BFFF792FEDFF8441A68
:1020B0000860DFF8400A90ED000ADFED130A20EE19
:1020C000200ADFF8300A80ED000ADFF82C0A806968
:1020D000FFF7C6FE41EC100B02F044FE51EC100B72
:1020E000FFF776FEDFF81C1A0860DFF8180A90ED9B
:1020F000000ADFED050A20EE200ADFF8080A80ED6D
:10210000000ABDEC028B01BDBE2E6542F8B52DED77
:10211000108B2DED071A99B0F0EE408AB0EE608A70
:10212000DFF8E40990ED009ADFF8DC09D0ED019AC0
:10213000DFF8D40990ED02AADFF8CC09D0ED03AAAC
:10214000B0EE000A29EE000A8DED0C0AB0EE000A8E
:1021500029EE800A8DED090AB0EE000A2AEE000A87
:102160008DED080AB0EE000A2AEE800A8DED0B0A0A
:10217000B0EE000A29EE000A20EE0A0A8DED070AE9
:10218000B0EE000A2AEE000A20EE2A0A8DED060AB9
:1021900029EE090A8DED0A0A29EE29CA69EE0ACA52
:1021A00029EE2A0A8DED020A29EEA9DA29EE8A0A19
:1021B0008DED010A69EEAADA2AEE0AEA2AEE2A0A67
:1021C0008DED000A2AEEAAFA28EEA80A08EE080AFF
:1021D000DDED190A9DED191A00EE810A10EE100AC4
:1021E000FFF73EFE41EC100B02F0C4FD51EC100B6A
:1021F000FFF7EEFD0EEE900AF5EE40EAF1EE10FA72
:1022000000F07284B7EE000AC0EE2EEA68EEAE8AE5
:1022100028EE2E8A9DED190A20EE2E0A8DED190A60
:10222000B0EE000A29EE000ADDED1D0A20EE200ABC
:102230008DED120AB0EE000A29EE000ADDED1E0A4D
:1022400020EE200A8DED110AB0EE000A29EE000AF8
:10225000DDED1F0A20EE200A8DED100AB0EE000A17
:1022600029EE800ADDED1D0A20EE200A8DED0F0A11
:102270009DED1D0ADDED0A0A20EE200ADDED110AB2
:1022800000EEEA0ADDED100A00EE8A0ADDED1D0A15
:1022900000EE8D0ADDED090A9DED1E1A60EE810A41
:1022A00000EE8A0ADDED090A9DED1F1A60EE810A33
:1022B00000EEAA0ADDED1D0A00EECE0ADDED1D0AD4
:1022C00000EECF0A8DED140A9DED120A20EE2A0AC7
:1022D000DDED1E0A9DED0A1A00EE810ADDED100A01
:1022E00000EEE90ADDED0F0A00EE8A0ADDED1E0AB6
:1022F00000EECD0ADDED1E0A00EE8E0ADDED080AC5
:102300009DED1F1A60EE810A00EEAA0ADDED1E0A9D
:1023100000EECF0A8DED130A9DED140ADDED140ACF
:1023200020EE200ADDED130A9DED131A00EE810A5E
:1023300010EE100AFFF794FD41EC100B02F01AFDAD
:1023400051EC100BFFF744FD0BEE100A9DED120A45
:10235000B1EE400A20EE0A0ADDED110A00EEA90AEC
:10236000DDED1F0A9DED0A1A00EE810ADDED0F0A70
:1023700000EEAA0ADDED1F0A00EECD0ADDED080A27
:102380009DED1E1A60EE810A00EEAA0ADDED1F0A1D
:1023900000EECE0ADDED1F0A00EE8F0AF0EE40BA25
:1023A000B0EE000A2BEE000A8DED0E0AB0EE000A28
:1023B0002BEE800A8DED0D0AB0EE000A2DEE800A9C
:1023C000DDED070A30EE600A30EE680ADDED080A3E
:1023D000F1EE600A20EE800AF0EE000A9DED061A8A
:1023E0000CEE201A71EE480A9DED091A00EE810AE2
:1023F0006BEE8A0AB6EE001A31EE4E1A31EE4F1A23
:1024000021EE0B1A7DEEEC1A01EEAB1ADDED1D1A72
:1024100031EEC11A00EE810AF1EE4B0A60EEAA0A13
:102420004BEEA90A9DED011ADDED021A31EE611A9B
:1024300021EE0B1ADDED001A7CEE211A01EEAB1A2B
:10244000DDED1E1A31EE611A00EE810A6BEE0A0A0A
:102450003CEEAD1A21EE0B1AF6EE001A71EECD1A13
:1024600071EECE1A01EEAB1ADDED1F1A31EE611AD4
:1024700000EE810A8DED050AB0EE000A2DEE800A0D
:10248000DDED070A30EE600A30EE680ADDED0B0A7A
:1024900020EE200AF0EE000A9DED061A0CEE201A3E
:1024A00071EE480A9DED0C1A00EE810AF1EE000A69
:1024B00069EEA00AB0EE001A2EEE011AF0EE001A34
:1024C000B7EE002A0DEE612A31EE421ADDED191A3F
:1024D00031EE811A00EE810A6BEEAA0AB6EE001AFE
:1024E00031EE4E1A31EE4F1A21EE0B1A7DEEEC1A38
:1024F00001EEAB1ADDED1D1A31EE611A00EE810A14
:102500006BEE0A0A4BEE890A9DED011ADDED021A07
:1025100031EE611A21EE0B1ADDED001A7CEE211A64
:1025200001EEAB1ADDED1E1A31EE611A00EE810AE2
:102530006BEE2A0A9DED0D1A41EE690A3CEEAD1ACA
:1025400021EE0B1AF6EE001A71EECD1A71EECE1ACC
:1025500001EEAB1ADDED1F1A31EE611A00EE810AB1
:102560008DED040AB0EE000A2DEE800ADDED070ABB
:1025700030EE600A30EE680ADDED0C0AF1EE600A1A
:1025800020EE800AF0EE000A9DED061A0CEE201AED
:1025900071EE480A9DED0B1A00EE810AF1EE000A79
:1025A0006AEE200AB0EE001A2EEE011AF0EE001AC2
:1025B000B7EE002A0DEE612A31EE421ADDED191A4E
:1025C00031EE811A00EE810ADDED0E0AF1EE600AAD
:1025D00060EE8A0A4BEEC90AB6EE001A31EE4E1AC8
:1025E00031EE4F1A21EE0B1A7DEEEC1A01EEAB1A0A
:1025F000DDED1D1A31EE611A00EE810A6BEE290A3B
:102600004BEEAA0A9DED011ADDED021A31EE611AB8
:1026100021EE0B1ADDED001A7CEE211A01EEAB1A49
:10262000DDED1E1A31EE611A00EE810A6BEE090A29
:102630009DED0D1A41EE4A0A3CEEAD1A21EE0B1A41
:10264000F6EE001A71EECD1A71EECE1A01EEAB1A4B
:10265000DDED1F1A31EE611A00EE810A8DED030ADD
:10266000B0EE000A2DEE800ADDED070A30EE600ABA
:1026700030EE680ADDED090A20EE200AF0EE000ACD
:102680009DED061A0CEE201A71EE480A9DED081A0F
:1026900000EE810ADDED0E0AF1EE600A60EEAA0A94
:1026A0004BEEA90AB6EE001A31EE4E1A31EE4F1A71
:1026B00021EE0B1A7DEEEC1A01EEAB1ADDED1D1AC0
:1026C00031EE611A00EE810AF1EE4B0A60EE890AE2
:1026D0004BEE8A0A9DED011ADDED021A31EE611A08
:1026E00021EE0B1ADDED001A7CEE211A01EEAB1A79
:1026F000DDED1E1A31EE611A00EE810A6BEE290A39
:102700003CEEAD1A21EE0B1AF6EE001A71EECD1A60
:1027100071EECE1A01EEAB1ADDED1F1A31EE611A21
:1027200000EE810AF0EE40FA9DED050ADDED050AA6
:1027300020EE200ADDED040A9DED041A00EE810A68
:10274000DDED030A9DED031A00EE810A0FEEAF0ADC
:1027500010EE100AFFF784FB41EC100B02F00AFBAD
:1027600051EC100BFFF734FB0EEE900AB7EE000AA7
:10277000C0EE2EEA9DED050A20EE2E0A8DED050A2B
:102780009DED040A20EE2E0A8DED040A9DED030A4C
:1027900020EE2E0A8DED030A6FEEAEFAB1EE690A55
:1027A000DDED1A0A20EE200ADDED1B0A0AEE600AB2
:1027B000DDED1C0A0AEEE00AF6EE000A20EE200A21
:1027C00010EE100AFFF74CFB04000D009FEDCB0B41
:1027D00002F0D0FA53EC102B5FF00050DFF82C130E
:1027E000FFF7F8F85FF00052DFF82433FFF7F2F854
:1027F00006000F000598FFF733FB32003B00FFF7A0
:10280000E9F802000B002000290002F033FBFFF77B
:10281000DFFA18909DED1A0A29EE000ADDED1C0A78
:102820000AEE200ADDED1B0A0AEEE00AF6EE000AC7
:1028300020EE200A10EE100AFFF712FB04000D0034
:102840009FEDAE0B02F096FA53EC102B5FF00050A8
:10285000DFF8B812FFF7BEF85FF00052DFF8B032D1
:10286000FFF7B8F806000F000498FFF7F9FA3200F6
:102870003B00FFF7AFF802000B002000290002F038
:10288000F9FAFFF7A5FA17909DED1B0A29EE000A49
:10289000DDED1C0A09EEE00ADDED1A0A0AEEA00AD7
:1028A000F6EE000A20EE200A10EE100AFFF7D8FA22
:1028B00004000D009FED910B02F05CFA53EC102B1D
:1028C0005FF00050DFF84412FFF784F85FF0005229
:1028D000DFF83C32FFF77EF806000F000398FFF7A1
:1028E000BFFA32003B00FFF775F802000B00200032
:1028F000290002F0BFFAFFF76BFA16909DED1C0A53
:1029000029EE000ADDED1B0A09EEA00ADDED1A0A28
:102910000AEE600AF6EE000A20EE200A10EE100A17
:10292000FFF79EFA04000D009FED740B02F022FAEF
:1029300053EC102B5FF00050DFF8D011FFF74AF88E
:102940005FF00052DFF8C831FFF744F806000F00CF
:102950001FEE900AFFF784FA32003B00FFF73AF8C7
:1029600002000B002000290002F084FAFFF730FA81
:1029700015909DED180ADFF89C01D0ED000A00EEDD
:10298000209A9DED170ADFF88C01D0ED000A40EE89
:10299000209A9DED160ADFF87C01D0ED000A00EECA
:1029A00020AA9DED150ADFF86C01D0ED000A40EE7B
:1029B00020AA29EE090A09EEA90A0AEE0A0A0AEE75
:1029C000AA0A10EE100AFFF74BFA41EC100B02F0C6
:1029D000D1F951EC100BFFF7FBF90EEE900AB7EEB0
:1029E000000AC0EE2EEA29EE2E0ADFF81C0180ED67
:1029F000000A29EEAE0ADFF8100180ED010A2AEE86
:102A00002E0ADFF8040180ED020A2AEEAE0ADFF892
:102A1000F80080ED030AB0EE000AF7EE000A4EEE71
:102A2000400AB0EE000A4FEE400A3348C0ED000AFB
:102A30009DED010ADDED020A30EE600AF0EE000ABB
:102A400020EE200A2C4880ED010A3DEEAC0AF0EEA3
:102A5000000A20EE200A284880ED020A9DED010AB6
:102A6000DDED020A30EE200AF0EE000A20EE200A28
:102A7000214880ED030AB0EE000AF7EE000A4DEEA1
:102A8000400AB0EE000A4FEE400A1B48C0ED040AAF
:102A90009DED000A30EE4C0AF0EE000A20EE200A0E
:102AA000154880ED050A3DEEEC0AF0EE000A20EE36
:102AB000200A114880ED060A9DED000A30EE0C0A4E
:102AC000F0EE000A20EE200A0B4880ED070AB0EE77
:102AD000000AF7EE000A4DEE400AB0EE000A4EEE94
:102AE000400A0548C0ED080A20B0BDEC108BF1BDCE
:102AF000E42E0020E82E0020302C002000000000F2
:102B00000000E83FE02E002028210020FF2109409E
:102B1000C771AC3F3821002081B0F0EE400AB6EE1C
:102B2000000A20EE801AB0EE600A8DED000A0A4815
:102B30000099B0EB61000090DDED001AB0EE610A83
:102B400061EE001AB7EE082A01EEC02A22EE000A52
:102B500001B0704700000000DF59375F01005FF0EF
:102B6000A04070472DE9F14181B00E001700984652
:102B7000089C099D01A8FFF7F1FFF6B2FFB256EAE3
:102B800047015FFA88F851EA8801E4B251EA04216A
:102B9000EDB251EA0541019A00EB8202C2F800173A
:102BA000BDE8F3811CB504000020019000200090D6
:102BB0000023012201212000FFF7D4FF13BD11B52E
:102BC00081B001A8FFF7CAFF04000120019910FAA3
:102BD00001F1200000F01CF813BD11B581B001A86F
:102BE000FFF7BCFF04000120019910FA01F1200059
:102BF00000F011F813BD38B504000D00002D03D10D
:102C00002000FFF7EAFF02E02000FFF7D8FF31BD08
:102C1000C0F808157047C0F80C1570473EB56846F7
:102C200025492CC92CC00C390C3824480088ADF833
:102C3000060000226946224802F012FB040025002B
:102C4000002D02D02800FEF789FB64201D49088072
:102C500064201C494880022301221B49184802F0C5
:102C60008EFB37BDC0B250F40041164A1180704748
:102C7000C0B250F40041134A5180704780B5002023
:102C8000FFF7F0FF0020FFF7F3FF01210C4802F0EF
:102C9000BFFB0B4802F038FB0220FFF783FF002147
:102CA0000220FFF7A8FF0320FFF77CFF002103208D
:102CB000FFF7A1FF01BD00001C6F02007E130200A0
:102CC0004C210020D02E002000870200124800680E
:102CD0001249086012480068401E124908600F48F7
:102CE00000681049096848430F490860704701228D
:102CF0000E4B1A600E4A1268002AFBD001600C4A83
:102D00001268002AFBD00022084B1A60084A126899
:102D1000002AFBD070470000100000103C2F00205C
:102D200014000010402F0020442F002004E5014033
:102D300000E401408A88828270474FF6FF728282E7
:102D4000704770B504000D00AE1D3088218A88429E
:102D50000ED1708902280BD116F10C0002F0F6FB9F
:102D6000002802D00120A0750FE00020A0750CE023
:102D70003088A188884208D1A069002805D07289CE
:102D800016F10C012000A369984770BD2DE9F24FA0
:102D900092B00400032004900020039001AD039A38
:102DA0000499280002F0DAFB9DF8040010F0F0000E
:102DB00050F001008DF804009DF8040010F00F00A1
:102DC00050F010008DF804009DF8050010F0F000A0
:102DD00050F001008DF805009DF8050010F00F007F
:102DE00050F010008DF805009DF8060010F0F90075
:102DF00050F002008DF806001C2500260AAF3200B4
:102E00002900380002F0AAFB9DF8280050F01000BD
:102E10008DF8280000200B9000200D9000200E90CF
:102E200001A80F900020109020788DF80A00032050
:102E3000ADF8080003275FF00008E9464246390074
:102E4000484602F08BFB9DF8000010F0F00050F0B7
:102E500001008DF800009DF8000010F00F0050F008
:102E600010008DF800009DF8010010F0F00050F007
:102E700001008DF801009DF8010010F00F0050F0E6
:102E800010008DF801009DF8020010F0F90050F0DC
:102E900002008DF802009DF8020010F0F7008DF896
:102EA00002009DF8020010F0EF008DF802009DF87E
:102EB000020050F001008DF802005FF014095FF08D
:102EC000000A0DF1140B52464946584602F046FBE3
:102ED00002A80590684606900120ADF81C0000206D
:102EE000ADF81E001420ADF8200014F10C0305AA63
:102EF0000AA96088A2DF13B0BDE8F08F2DE9F24F78
:102F00008EB004001C25002607AF320029003800CF
:102F100002F024FB9DF81C0010F0F7008DF81C0057
:102F20009DF81C0050F004008DF81C000020089053
:102F300000200A9000200B9000200C9000200D90A3
:102F400020788DF806000220ADF8040003275FF01A
:102F50000008E94642463900484602F0FFFA9DF86B
:102F6000000010F0F00050F001008DF800009DF816
:102F7000000010F00F0050F010008DF800009DF8D8
:102F8000010010F0F00050F001008DF801009DF8F4
:102F9000010010F00F0050F010008DF801009DF8B6
:102FA000020010F0F90050F002008DF802009DF8C8
:102FB000020010F0F7008DF802009DF8020010F0FA
:102FC000EF008DF802009DF8020050F001008DF82E
:102FD00002005FF014095FF0000A0DF1080B524681
:102FE0004946584602F0BAFA01A802906846039092
:102FF0000120ADF810000020ADF812001420ADF84B
:103000001400231D02AA07A96088A2DF0FB0BDE843
:10301000F08F38B504000D00002C01D0002D00D138
:1030200016E02888102804D0112807D050280AD08C
:103030000EE029002000FFF77DFE09E029002000B6
:10304000FFF77BFE04E029002000FFF77AFEFFE790
:1030500031BDF0B585B004000D0020480FC801AFA8
:1030600087E80F00002C01D10E2034E0002D01D1A3
:103070000E2030E04FF6FF70A0822868A06100208B
:10308000A075210001A863DF0600002E01D03000EA
:1030900021E020788DF802000120ADF80000A21C8C
:1030A00069460120A0DF0600002E01D0300012E0AA
:1030B00029002000FFF76AFE0600002E01D0300034
:1030C00009E029002000FFF719FF0600002E01D0BB
:1030D000300000E0002005B0F0BD0000F0860200E6
:1030E0002DE9F44185B004000D00002C01D10E2023
:1030F00023E0A08A4FF6FF71884202D0A07D00280D
:1031000001D1082019E0BDF81400152801DB0720C3
:1031100013E010260027E8463A003100404602F04E
:103120001DFAA089ADF80000039505A802900120C2
:103130008DF802006946A08AA6DF06B0BDE8F081DE
:10314000012110F01F029140114A40B2430942F898
:1031500023107047012110F01F0291400D4A40B228
:10316000430942F82310704710B440B2002808D534
:103170004A01094B40B210F00F04234403F8042C19
:1031800003E04A01054B40B21A5410BC70470000DE
:1031900000E100E080E200E018ED00E000E400E083
:1031A00038B504000D00EDB22900200040B2FFF751
:1031B000DBFF200040B2FFF7CDFF200040B2FFF759
:1031C000BFFF31BDBFF34F8F0548006810F4E060CA
:1031D0000449084302490860BFF34F8F00BFFDE771
:1031E0000CED00E00400FA0570B504000D001600B7
:1031F000FFF7E8FF70BDFEE710B50400200000B245
:1032000000F019F80068012801D1012000E0002039
:10321000C0B210BD10B582B00400200000B200F0B2
:103220000AF800210160200000B200F004F80068F4
:103230000090009813BD00B200F1804010F5C0402E
:103240007047DFF8B41708607047DFF8B017086000
:103250007047DFF8A417096808407047DFF8A01727
:1032600051F8201051F00101DFF8942742F82010A6
:103270007047DFF88C1751F8201049084900DFF833
:10328000802742F82010704730B4DFF8743753F8C5
:103290002030DFF870472340DFF8644744F82030DF
:1032A000DFF85C3753F820300C0214F4F854D2B233
:1032B000150415F440352C432343DFF8444744F804
:1032C000203030BC7047DFF8381751F82000C0F3C9
:1032D00004207047DFF8281751F82000000C10F088
:1032E000030070470021DFF8182742F820107047CC
:1032F00001005FF0A04070472DE9F14181B00E0060
:1033000017009846089C099D01A8FFF7F1FFF6B247
:10331000FFB256EA47015FFA88F851EA8801E4B241
:1033200051EA0421EDB251EA0541019A00EB820213
:10333000C2F80017BDE8F38130B583B004000D007A
:1033400000200190002000902B00DBB20022002121
:103350002000FFF7D1FF37BD1CB50400002001900D
:10336000002000900023012200212000FFF7C4FF6D
:1033700013BD01B56846FFF7BBFF009900EB810163
:10338000D1F8001731F00201009A00EB8202C2F876
:10339000001701BD11B581B00C0001A8FFF7A8FF0F
:1033A000019900EB8101D1F8001731F44031019A05
:1033B00000EB8202C2F80017019900EB8101D1F8FD
:1033C0000017E4B251EA0441019A00EB8202C2F80C
:1033D000001713BD11B581B001A8FFF789FF0400E4
:1033E000200000F012F80199C84010F0010016BD4D
:1033F00001B56846FFF77CFF009900EB8100D0F82B
:103400000007000C10F0030002BDD0F81005704753
:10341000F8B504000D0016006846DFF8EC150A68E0
:10342000026027002819874208D2684650F8270012
:10343000FFF7EBFF3060361D7F1CF3E7F1BDC208DC
:1034400010F00700012313FA00F08A5C1040704767
:1034500010B4C20810F007008B5C012484402343A1
:103460008B5410BC7047DFF8A415014491F930105B
:10347000002908D4DFF89415084490F93000082892
:1034800001DA012000E00020002801D0012000E046
:103490000020C0B27047DFF87415084490F930007E
:1034A000082801DB012000E00020C0B27047DFF8EF
:1034B0005C15084490F93000002801D4012000E098
:1034C0000020C0B2704710B4DFF84045044484F8CF
:1034D0003010DFF8384544F82120DBB2002B04D14E
:1034E000DFF828450C4484F8480010BC70475FF0B2
:1034F000FF31DFF81825024482F830107047DFF8FA
:103500000C15084490F930007047DFF8001551F8A9
:10351000200070472DE9F04704000D0016005FF011
:10352000FF37F6B2002E02D05FF0000901E05FF035
:103530000809F6B2002E02D05FF0080A01E05FF041
:103540000C0AC846D04514D2DFF8C00450F8280051
:103550005FF0FF31884209D13300DBB22A004146D7
:103560002000FFF7B0FF4046070002E018F1010815
:10357000E8E7380040B2BDE8F0875FF0FF31DFF8E0
:103580008C24C0B242F82010C0B2082807DB5FF0DC
:10359000FF31DFF87824C0B2024482F84810704747
:1035A00038B5DFF8680490F85400002803D00820EC
:1035B0000400200029E000200500EDB2202D05DAEE
:1035C000EDB22800FFF793FF6D1CF6E70020050021
:1035D000EDB20C2D05DA2800C0B2FFF7CEFF6D1C4E
:1035E000F6E707210620FFF7DBFD4FF4BE70FFF77B
:1035F00011FE5FF00040FFF724FE0120DFF80C14FD
:1036000081F8540000200400200032BD2DE9F04173
:1036100004000D00160000272000FFF748FF0028D7
:1036200002D00820070035E0EA7831002000FFF7DB
:1036300071FF80464FFA88F818F1010F28D0A8785A
:10364000002803D02000FFF794FE03E069782000F3
:10365000FFF772FEE878002807D02A7821004FFA99
:1036600088F84046FFF710FE14E0DFF8A0034FFA99
:1036700088F8404490F8480095F9001050EA81100D
:10368000DFF888134FFA88F8414481F8480001E0D8
:10369000042007003800BDE8F0812DE9F041040066
:1036A0000D002000FFF7F7FE002827D02000FFF7CD
:1036B00026FFDFF8581340B2084490F84860300005
:1036C000C0B28709FFB2032F0AD12000FFF782FEA4
:1036D000002802D05FF003080AE05FF0020807E06C
:1036E000FFB2012F02D15FF0020801E05FF0030892
:1036F0004146C9B22000FFF74DFE23E02000FFF74E
:10370000B2FE00281ED02000FFF7F9FE0600B00030
:1037100010F580773000FFF7A1FD380000B2FFF709
:1037200079FDEDB2002D0DD02000FFF7E8FE40B28C
:10373000FFF7EBFE80464046002803D00120B04052
:10374000FFF77FFDBDE8F08138B504002000FFF7EA
:10375000A2FE002804D000212000FFF71BFE0FE08E
:103760002000FFF780FE00280AD02000FFF7C7FEE8
:1037700005002800FFF77DFD0120A840FFF765FD4B
:1037800031BD10B504002000FFF7DEFF2000FFF779
:103790006AFE002805D02000FFF7B1FE40B2FFF717
:1037A000A1FD2000FFF7D8FD2000FFF7A8FEC0B262
:1037B000FFF7E3FE2000FFF79AFE10BD2DE9F04F62
:1037C00087B0002402A8002101604FF48070ADF89A
:1037D0000200012500200600082E17D2BDF90200C4
:1037E000FFF70AFD002809D02800FFF732FD002866
:1037F00004D0BDF90200FFF70DFD2C436D00BDF8AC
:103800000200001DADF80200761CE5E74FF4BE7023
:10381000FFF7F2FC00280AD04FF4BE70FFF7FAFC65
:1038200054F0004402AA01210020FFF7F1FD200618
:103830001DD00120050000200600082E17D22542C9
:1038400012D03000FFF73FFD07003000FFF742FDC8
:1038500080463000FFF759FE81464846002803D0D5
:103860004146C9B23800C8476D00761CE5E7002C18
:1038700040F1BE80002706A800210160002080469C
:10388000B8F1000F07D15FF0FF3005A941F828001B
:1038900018F10108F4E70020070000200600042EBC
:1038A00069D25A48304490F850008DF801009DF8D4
:1038B000010030F0C00001905448304490F95000AD
:1038C00010F1010F55D005A90198FFF7B8FD0028A8
:1038D0004FD09DF80100C0B280098DF8000001981A
:1038E000FFF70DFE40B2FFF710FE81464846002864
:1038F00003D19DF8000003283BD19DF80000032868
:1039000003D106A90198FFF7A3FD0198FFF770FD09
:10391000824602A90198FFF792FD049004980028BE
:1039200004D05FFA8AFABAF1020F07D0049800288F
:103930001FD15FFA8AFABAF1030F1AD19DF800007D
:1039400003280FD15FFA8AFABAF1020F02D15FF0B1
:10395000030B01E05FF0020B5946C9B20198FFF773
:1039600019FD7F1C4846002803D09DF800100198DF
:10397000C847761C93E7FFB2002F35D05FF00109EE
:1039800003AA01210020FFF743FD00208046B8F183
:10399000000F0DD103A850F8280002A951F82810F3
:1039A000884202D00020814602E018F10108EEE7CB
:1039B0005FFA89F9B9F1000F02D00020070013E087
:1039C00000208046B8F1000F0ED103A850F828005F
:1039D00002A941F8280006A850F8280005A941F8D6
:1039E000280018F10108EDE7FFB2002F7FF453AF74
:1039F00007B0BDE8F08F000004630040086300409A
:103A000010650040FFE0FCFF78870200A82A002034
:103A10000121DFF80C25C0B211507047DFF8001506
:103A200000B20858002801D0012000E00020C0B2F8
:103A3000704781B00021DFF8E82400B21150DFF8B0
:103A4000E01400B209580091009901B0704710B419
:103A5000D2B2DFF8D034C0B2040123445A60C9B2F4
:103A6000DFF8C034C0B20401195110BC7047DFF850
:103A7000B81408607047DFF8B4140860704701207C
:103A8000DFF8AC1408607047DFF8A8241060DFF896
:103A9000A82411607047C0B2DFF8A0140860704716
:103AA000C0B2DFF89C140860704770B58AB04FF45C
:103AB0008270FFF7B3FF00284ED04FF48270FFF7FB
:103AC000B8FFDFF8800490F82E00DFF8781491F842
:103AD0002F1091F0010108423ED100208DF80C001A
:103AE000DFF8600440680490DFF858040089ADF8FE
:103AF0001400DFF85004C068002804D10020DFF86B
:103B0000441408741EE0DFF83C04008BDFF8341422
:103B10004883DFF83004C068DFF828144860DFF815
:103B20002404008BDFF81C1408810020DFF8141433
:103B3000C860DFF8100490F82E00002802D10020A1
:103B4000FFF766FF03A8DFF8FC1309688847002029
:103B5000DFF8F01381F82F00DFF8E80390F82E006B
:103B600000286DD04FF48070FFF758FF002867D011
:103B70004FF48070FFF75DFFDFF8C80390F82D0069
:103B8000DFF8C013498B80B288421DD2DFF8B4033E
:103B9000408BDFF8B01391F82D10401ADFF8A41312
:103BA0004883DFF8A00390F82D10DFF898034068F1
:103BB000DFF890231289DFF88C335B8BD21A00EB8D
:103BC0004200FFF761FF34E0DFF87803408BDFF855
:103BD000741391F82D1089B2884217D1DFF864036D
:103BE000C068002812D00120DFF8581381F82F0098
:103BF0000020DFF850134883DFF8480390F82D10B9
:103C0000DFF84003C068FFF73FFF12E0DFF834033E
:103C1000408BDFF8301391F82D1089B2884208D11B
:103C20000120DFF8201381F82F000020DFF81413A3
:103C300048834FF48270FFF7FCFE0420FFF7E8FE94
:103C40004FF48870FFF7EAFE00280FD04FF4887019
:103C5000FFF7EFFE0020DFF8EC12087402208DF869
:103C6000180006A8DFF8DC12096888474FF48A704C
:103C7000FFF7D4FE002808D04FF48A70FFF7D9FE72
:103C80000020DFF8C012087431E0DFF8B80246699E
:103C9000002E2CD0B6FA86F004005FF00040E04021
:103CA0008643A00010F58C700500280000B2FFF7D5
:103CB000B5FE0028ECD0280000B2FFF7BAFE0120C4
:103CC0008DF800002DB2B5F58C70C0088DF8040099
:103CD0002800C0B2800810F0010090F001008DF8BB
:103CE00005006846DFF85C1209688847D0E70AB02B
:103CF00070BD70B504000D00DFF8480290F82C008C
:103D0000002803D00820060030004DE028000028DD
:103D100003D107200600300046E0002C02D1DFF876
:103D200028020400DFF81C0205602078FFF7B3FECC
:103D30006078FFF7B5FEE078DFF8081281F82E0012
:103D40000120DFF8001281F82C000020DFF8F411C8
:103D500008740020DFF8EC1181F82D000020DFF856
:103D6000E41148610020DFF8DC1181F82F007FF0BA
:103D70000040FFF780FE4FF48270FFF75AFEA178F3
:103D80000720FFF70DFA0220FFF771FEDFF8B401FC
:103D900090F82E00002802D00120FFF768FEFFF700
:103DA0006EFE00200600300070BD70B504000D00EE
:103DB000DFF89001007C002803D0112006003000BD
:103DC0002CE0DFF88001E4B200EB4400007F002823
:103DD00008D1DFF8700190F82D00401CDFF8641165
:103DE00081F82D00E879DFF85C11E4B201EB4401C1
:103DF0000877287ADFF84C11E4B201EB44014877E8
:103E000029002000C0B201F0EBFB2A7AE9792000FA
:103E1000C0B2FFF71CFE00200600300070BD2DE987
:103E2000F04104000D00DFF81C01007C002803D0E5
:103E300011200600300070E00120DFF8081108743E
:103E40000320FFF718FE01212800FFF71DFE3D4863
:103E500090F82D0002280BDB0027FFB2082F07DAAD
:103E6000002200213800C0B2FFF7F1FD7F1CF4E70B
:103E70003448E4B200EB4400427F3248E4B200EB45
:103E80004400017F2000C0B2FFF7E1FD0020FFF7F2
:103E9000BFFD0420FFF7BCFD42F210774FF48270A3
:103EA000FFF7BCFD002803D1002F01D07F1EF5E7EE
:103EB0004FF48270FFF7BDFD224890F82D000228D4
:103EC00019DB5FF000085FFA88F8B8F1080F12DA22
:103ED0001C485FFA88F800EB4800427F19485FFAF7
:103EE00088F800EB4800017F4046C0B2FFF7AFFD05
:103EF00018F10108E7E7134890F82E00002803D0D6
:103F00000320FFF7B4FD02E00220FFF7B0FD002020
:103F10000C490874002006003000BDE8F081000064
:103F200000700040107500400473004008730040AA
:103F3000007500402C76004030760040F07500405F
:103F4000F4750040D02B00207C87020001005FF058
:103F5000A04070472DE9F14181B00E00170098464E
:103F6000089C099D01A8FFF7F1FFF6B2FFB256EADF
:103F700047015FFA88F851EA8801E4B251EA042166
:103F8000EDB251EA0541019A00EB8202C2F8001736
:103F9000BDE8F38130B583B004000D00002001902E
:103FA000002000902B00DBB2002200212000FFF750
:103FB000D1FF37BD11B581B001A8FFF7C7FF0400DD
:103FC000200000F005F80199C84010F0010016BD6E
:103FD000D0F810057047FEB501208DF800009DF85F
:103FE000000010F00F0050F010008DF800000922C2
:103FF000DFF8881668467CDF04002500002D02D01B
:104000002800FDF7ABF90825002601AF3200290092
:10401000380001F0A3FA1020ADF804003C20ADF800
:1040200006000020ADF808004FF4C870ADF80A0093
:1040300001A87ADF04002700002F02D03800FDF726
:104040008DF9042077DF04002500002D02D0280020
:10405000FDF784F9F7BD30B40123DFF8244623705F
:10406000002392B2934206D2CC5CDFF814561D4472
:104070006C765B1CF5E730BC7047F8B5042500266C
:104080006F4632002900380001F068FADFF8F405C5
:1040900000906946DFF8F005FEF7DBFF040027001B
:1040A000002F02D03800FDF759F9F1BD70B50400BA
:1040B000207800280BD13B21DFF8D005008876DF7F
:1040C00005002E00002E02D03000FDF747F970BD2C
:1040D00010B504002000FDF741F910BDF0B587B020
:1040E0001C2500266F4632002900380001F036FA00
:1040F000002000905FF4203001905FF47020029067
:1041000003208DF80C000020ADF80E0000208DF883
:104110001000DFF87C050590DFF87805069068460A
:1041200001F0E4FA04002700002F02D03800FDF768
:1041300015F907B0F0BD38B5002000F0B2FC04005E
:104140002500002D02D02800FDF708F901F016FC2B
:1041500004002500002D02D02800FDF7FFF832DF13
:1041600004002500002D02D02800FDF7F7F831BD2E
:1041700070B50400E4B2200000280CD003280DD153
:10418000022000F08EFC05002E00002E02D0300030
:10419000FDF7E4F802E0FFF7CEFFFFE770BD70B572
:1041A00088B004002088012813D0022865D0102888
:1041B00010D011281DD013282BD03B2847D05128D0
:1041C00066D0522834D0552800F09180562849D026
:1041D00098E097E0072000F064FC05002E00002E18
:1041E00002D03000FDF7BAF8A088DFF8A0140880EC
:1041F00088E0002000F055FC05002E00002E02D0C3
:104200003000FDF7ABF84FF6FF70DFF88014088040
:1042100078E0002300228521DFF8700400887FDF2A
:1042200005002E00002E02D03000FDF797F869E05F
:10423000002300220021DFF854040088A9DF0500D4
:104240002E00002E02D03000FDF788F85AE013212E
:10425000A08876DF05002E00002E02D03000FDF78A
:104260007DF84FE01321A08876DF05002E00002E98
:1042700002D03000FDF772F844E00021A08867DF2B
:1042800005002E00002E02D03000FDF767F839E05F
:104290006846A11D102201F0C3FB9DF80000002814
:1042A00024D09DF80800042807D09DF808000628AF
:1042B00003D09DF80800052818D19DF800000228B9
:1042C00003D102208DF8100002E001208DF81000CB
:1042D0004FF4C170ADF8140004A9A088A8DF050050
:1042E0002E00002E02D03000FDF738F80AE017212A
:1042F000A088ADDF05002E00002E02D03000FDF7B3
:104300002DF8FFE708B070BD10B50400200001F0E3
:10431000BAFA2100DFF87003FEF77BFE2000FFF7FA
:104320003EFF200001F03FFE200001F03EFB10BDEB
:1043300070B588B0DFF86003006800900023502259
:10434000DFF85813684601F081FF05002E00002EAB
:1043500002D03000FDF702F801AA0121002001F08F
:10436000D0FF04002600002E02D03000FCF7F6FF3C
:104370001720ADF8140001A801F0E2FF04002500A9
:10438000002D02D02800FCF7E9FFDFF8140301F04C
:104390009BFF04002500002D02D02800FCF7DEFF63
:1043A00008B070BD2DE9F04FA7B03C25002618AF2E
:1043B00032002900380001F0D1F802208DF86000A9
:1043C00000208DF8620005208DF863003C275FF027
:1043D00000080DF1240942463900484601F0BEF8B4
:1043E0000120ADF83400AF480E905FF020095FF077
:1043F000000A0DF1040B52464946584601F0AEF84A
:1044000001208DF80700402005901E200690002016
:104410000090A54B01AA09A918A801F038FC0400D6
:10442000A346BBF1000F02D05846FCF797FF27B018
:10443000BDE8F08F38B53EDF04002500002D02D026
:104440002800FCF78BFF31BD10B5040002F090FC92
:10445000964908609548006895490968401A954949
:104460000860924800689249086093480088401CA0
:104470009149088091480078002809D18E48008829
:10448000652805DB01208D4908700020FEF7EAFB56
:10449000FCF760F90A20FFF78DFD002821D188483C
:1044A000007800281DD187480078401C8549087095
:1044B000844890F90000652803DB7FF063008149A0
:1044C0000870804890F90000012802DB7D480078E0
:1044D00003E07C4890F900004042C0B2FEF7C8FB00
:1044E00044E00A20FFF766FD002808D00920FFF706
:1044F00061FD002803D000207349087036E00A20CF
:10450000FFF758FD002831D00920FFF753FD0028A0
:104510002CD101206C4908706C480078401C6B4914
:1045200008706A4890F90000052807DB00206749F9
:10453000087064480078401C62490870614890F92E
:104540000000652803DB7FF063005E4908705D486A
:1045500090F90000012802DB5A48007803E059482E
:1045600090F900004042C0B2FEF782FB02F000FC6E
:1045700057490860564800684C490968401A55492F
:104580000860544800684B490968B0FBF1F000EE40
:10459000100AB8EE400A504880ED000A4F480078F3
:1045A000401C4E49087010BD38B54D4A01214D4898
:1045B00002F03AFB04002500002D02D02800FCF791
:1045C000CDFE31BD38B5002242214648006802F0D8
:1045D0004AFB04002500002D02D02800FCF7BEFE97
:1045E00031BD38B53F48006802F066FB0400250085
:1045F000002D02D02800FCF7B1FE31BD70B50021BE
:104600000A20FFF7C7FC00210920FFF7C3FCFEF7D3
:1046100005FB6420FEF726FBFDF7C2F80023324AB3
:104620000521002002F0C6FA05002E00002E02D05F
:104630003000FCF793FEFFF77BFEFFF7CCFCFFF7A3
:104640001CFDFFF7AFFEFFF749FD032001F0F6FB6D
:1046500004002600002E02D03000FCF77FFEFEF79B
:1046600035FBFAF7D9FEFCF787FBFFF79DFFFDF757
:1046700070F9FFF7A7FFFFF7DDFEFCE730870200C8
:104680005821002057400200902D0020C02100201A
:10469000AD400200D140020074870200002B0020D0
:1046A0000943020054210020714102004C2F0020D8
:1046B000502F0020542F0020C42F0020DF2F002077
:1046C000E42F0020E12F0020E02F0020E22F002027
:1046D000582F00205C2F0020482F0020DE2F0020C4
:1046E0004944020070870200C829002001005FF0E1
:1046F000A040704711B581B00C0001A8FFF7F6FF8C
:10470000019900EB8101D1F8001731F44031019A91
:1047100000EB8202C2F80017019900EB8101D1F889
:104720000017E4B251EA0441019A00EB8202C2F898
:10473000001713BD80B5DFF8E803006802F0BCFA8B
:10474000DFF8E003006802F0B7FA01BD70B50400BD
:1047500000250026DFF8D8030078002805D00020C7
:10476000DFF8CC13087002F07BFBE4B2002C37D0EA
:10477000022C3BD03AD3042C00F0948064D3062C56
:1047800000F0E680C0F0BA80082C00F0F580C0F0A0
:10479000ED800A2C00F01181C0F0FD800C2C00F09F
:1047A0002D81C0F019810E2C00F02D81C0F02B81DD
:1047B000102C00F02881C0F02681122C00F04A81D4
:1047C000C0F02181142C00F05281C0F04881162CD9
:1047D00000F06081C0F05381172C00F05B815EE136
:1047E00002F03EFBDFF84C03047058E1002002F0B9
:1047F0001AFB00280BD0002002F02AFBE4B2022CA6
:1048000002D14FF4E1660CE04FF47A6609E0002033
:1048100002F016FBE4B2022C01D1C82601E04FF4ED
:10482000C876DFF8100304700022DFF80003006888
:104830006421B6FBF1F101FB00F1DFF8E40200684E
:1048400002F011FA05002AE1002002F0ECFA00283B
:104850000BD0002002F0FCFAE4B2032C02D14FF49A
:1048600048760CE04FF47A6609E0002002F0E8FA9E
:10487000E4B2032C01D1C82601E04FF4C876DFF87A
:10488000B40204700022DFF8A40200686421B6FBC1
:10489000F1F101FB00F1DFF88802006802F0E3F9B2
:1048A0000500FCE0002002F0BEFA00280BD000203A
:1048B00002F0CEFAE4B2042C02D14FF47A660DE095
:1048C0004FF47A660AE0002002F0BAFAE4B2042C4F
:1048D00002D14FF4C87601E04FF4C87695480470D1
:1048E0000022924800686421B6FBF1F101FB00F15F
:1048F0008B48006802F0B7F90500D0E0002002F014
:1049000092FA00280AD0002002F0A2FAE4B2052CA4
:1049100001D1C8260CE04FF47A6609E0002002F0CD
:104920008FFAE4B2052C01D1C82601E04FF4C87615
:104930008048047000227D4800686421B6FBF1F1D4
:1049400001FB00F17648006802F08DF90500A6E051
:10495000002002F09BFA7748047000227348016837
:104960006F48006802F07FF9050098E0002002F02F
:1049700067FA7048047092E001206D4908700120C8
:1049800002F084FA0022694801686548006802F074
:104990006AF9050083E0012065490870012002F0F2
:1049A00075FA002261480068052101FB00F15C48AE
:1049B000006802F058F9050071E001205C490870B8
:1049C000012002F063FA0022584801685448006848
:1049D00002F049F9050062E0012055490870012004
:1049E00002F054FA002251480068052101FB00F151
:1049F0004B48006802F037F9050050E002F03BFA3E
:104A00004C4804704BE04748006802F055F9050037
:104A1000E4B2D4F111000600002E17D0002D15D1FC
:104A2000022E0FD3002241480068C82101FB06F185
:104A30006423B1FBF3F101FB00F13A48006802F096
:104A400012F90500022002F0FBF902E0022002F058
:104A5000FFF924E002F004FA364804701FE002F087
:104A6000FFF9002002F0ECF93248047017E002F080
:104A7000F7F9012002F0E4F92E4804700FE002F08B
:104A8000EFF9002002F0DCF9012002F0D9F9294801
:104A9000047004E002F0EFF926480470FFE72800F4
:104AA00070BD38B50400002523480078C00704D540
:104AB0002000C0B2FFF74AFE0500280032BD30B426
:104AC00003000020042B26D2D2B2012A06D1C9B29B
:104AD000012902D113F10E0200E00022C9B200291F
:104AE0000FD0022906D013D20F4C032505FB03F586
:104AF000625512E00C4C032505FB03F52C44627053
:104B00000BE0094C032505FB03F52C44A27004E0DF
:104B10000724200001E00724200030BC704700007B
:104B200064870200688702001C2E0020042F0020EA
:104B3000DB2F0020DA2F0020082F002010B5040002
:104B4000200002F0AAF90321FFF7D4FD002010BDD8
:104B500038B50FB4DDE9020102F0A8F90546DDE938
:104B6000000102F0A3F9012DB8BF012830DA019845
:104B7000002807D5DDE9000181F00041CDE9000101
:104B8000082400E000240398002807D5DDE902018D
:104B900081F00041CDE9020184F00604DDE9020163
:104BA000DDE9002302F0A2F904D2FCF7E5FF41ECB5
:104BB000100B29E0002D08D5DDE90001DDE9022315
:104BC000FCF7DAFF41EC100B20E09FED150B1DE028
:104BD000022808BFDDE9000120D0022D08BFDDE971
:104BE00002011BD0854201990CBF9FED0F0B9FED79
:104BF0000C0B002903994CBF08240024002948BF4E
:104C000084F00604012801D184F00204224605B094
:104C1000BDE8304051EC100B02F086B905B030BD54
:104C20000000000000000000000000000000F03F55
:104C300080B553EC112B51EC100BFFF789FF41ECC1
:104C4000100B01BDD0B52DED048B82B041EC180BDB
:104C50008DED008BDDE90023C3F30A5140F2FF72B2
:104C6000914212D019B9C3F31301084311D051EC8A
:104C7000180B0022002302F039F93DBF81F00041FA
:104C800041EC180B0824002409E0C3F31301084386
:104C9000EDD002B051EC180BBDEC048BD0BD51EC43
:104CA000180B2B4A2B4B02F021F91CD29FED2B9BAA
:104CB00051EC190B53EC182B00F0DCF806460F46AC
:104CC00053EC182B51EC190B02F026FA32463B46F6
:104CD000FCF780FE00F056F841EC100B51EC180B7D
:104CE00053EC102B1EE001221B4B02F0FFF823D2E5
:104CF0009FED1A9B51EC190B53EC182B00F0BAF8EE
:104D000006460F4653EC182B51EC190B02F004FA2F
:104D100032463B46FCF75EFE00F034F884F00204B5
:104D200053EC182BFCF728FF02B02246BDEC048B95
:104D3000BDE8D04002F0F8B802F062FA212101602B
:104D400002B04FF0FF30BDEC048B6FF00041D0BDDE
:104D5000CE3B7F669EA0E63F0000F03F00000000D3
:104D60000000F03F80B551EC100BFFF76BFF41ECFA
:104D7000100B01BD51EC100B10B500F003F841EC25
:104D8000100B10BD40F2FF7C0B0D4DD0634566D279
:104D900030B421EA035141F4801103F2FD3C5FEA93
:104DA0005C0C01D300184941890041EA90718000F0
