:020000040001F9
:10F00000E0290020598D0200B71B02000F1E0200EC
:10F01000EF1E02005F3202009B450200000000006C
:10F020000000000000000000000000007B5C020007
:10F030006775020000000000CB820200ED8C020028
:10F04000538102000F8D0200CF8B0200811302005A
:10F050001B8D0200C58D020025380200133B020003
:10F06000C78D0200C98D0200CB8D0200CD8D02003C
:10F07000CF8D0200D18D0200D38D0200D58D02000C
:10F08000D78D0200D5710200D98D0200DB8D020000
:10F0900001720200DD8D020031690200DF8D020085
:10F0A000E18D0200E38D0200E58D0200E78D020094
:10F0B000E15B0200E98D020000000000000000009A
:10F0C000EB8D0200ED8D0200EF8D0200F18D02004C
:10F0D000F38D0200F58D0200F78D020000000000A4
:10F0E0000000000000000000000000000000000020
:10F0F0000000000000000000000000000000000010
:10F1000000000000000000000000000000000000FF
:10F1100000000000000000000000000000000000EF
:10F40000DFF8FC1B0968491CDFF8F42B11600121AF
:10F41000DFF8F02B117070471FB5DFF8EC0B0FC849
:10F420006C4684E80F0014208DF8030011208DF83D
:10F43000020012208DF8010013208DF80000DFF883
:10F44000CC2B6946DFF8C80B01F033FE0400002C1A
:10F4500002D0200001F0A2FF1FBDF0B583B0040070
:10F460000D0016001F008DF8045030788DF805004F
:10F470000020DFF8901B087000200090002302227B
:10F4800001A9DFF88C0B01F090FEDFF8780B007813
:10F490000028FAD00020FEBDF8B504000D001600CB
:10F4A0001F0055F08000DFF86C1B08700020DFF8AB
:10F4B000541B0870781CC0B20090DFF85C3B01223E
:10F4C000DFF8501BDFF8480B01F06FFEBFB2012FD1
:10F4D00004D1DFF8300B00780028FAD0DFF8380BC1
:10F4E000407830700020F2BD80B50C23DFF82C2B63
:10F4F00022210020FFF7D0FF0020062812DADFF8D3
:10F50000181B01EB400189780902DFF80C2B02EB94
:10F510004002527851FA82F1DFF8042B22F81010E1
:10F52000401CEAE701BDF0EE401A90ED004AB0EE53
:10F53000442A91ED004A34EE204AF0EE442A32EE9D
:10F54000814A82EE844AF0EE443A31EEC24AF0EE4D
:10F55000424A44EE234AB0EE640AB7EE004A34EE63
:10F56000634A24EE224AB0EE443A81ED003A80ED3F
:10F57000000A7047DFF8A80AB0F9000000EE100A90
:10F58000B8EEC00ADFF89C0AD0ED000A30EE600A3F
:10F59000DFF8940AD0ED000A20EE200ADFF88C0A8A
:10F5A000D0ED000A20EE200ADFF8840A80ED000A80
:10F5B000DFF86C0AB0F9020000EE100AB8EEC00ADB
:10F5C000DFF8600AD0ED010A30EE600ADFF8580A71
:10F5D000D0ED000A20EE200ADFF8500AD0ED000A34
:10F5E00020EE200ADFF8480A80ED010ADFF8300A31
:10F5F000B0F9040000EE100AB8EEC00ADFF8240AE1
:10F60000D0ED020A30EE600ADFF81C0AD0ED000AE5
:10F6100020EE200ADFF8140AD0ED000A20EE200ABE
:10F62000DFF80C0A80ED020ADFF8F409B0F90600F1
:10F6300000EE100AB8EEC00ADFF8F809D0ED000AB3
:10F6400030EE600ADFF8F009D0ED000A20EE200A63
:10F65000DFF8E80980ED000ADFF8C409B0F9080016
:10F6600000EE100AB8EEC00ADFF8C809D0ED010AB2
:10F6700030EE600ADFF8C009D0ED000A20EE200A63
:10F68000DFF8B80980ED010ADFF89409B0F90A0043
:10F6900000EE100AB8EEC00ADFF89809D0ED020AB1
:10F6A00030EE600ADFF89009D0ED000A20EE200A63
:10F6B000DFF8880980ED020ADFF884090068002875
:10F6C00000F0A480DFF87C090068401CDFF87419A2
:10F6D0000860002003286EDADFF8441931F91010B1
:10F6E00000EE101AB8EEC00ADFF85C1901EB8001D9
:10F6F00081ED000ADFF82C1901EB800191ED000A81
:10F70000DFED410A30EE200ADFF83C1901EB800101
:10F71000D1ED000AB4EE600AF1EE10FA10D5DFF870
:10F72000041901EB800191ED000ADFED370A30EE9C
:10F73000200ADFF8141901EB800181ED000A24E0B2
:10F74000DFF8E01801EB800191ED000ADFEDE10A3E
:10F7500030EE200ADFF8F01801EB8001D1ED000A4D
:10F76000F4EE400AF1EE10FA0FD5DFF8B81801EB0D
:10F77000800191ED000ADFEDD70A30EE200ADFF8B4
:10F78000C81801EB800181ED000ADFF8C01801EB19
:10F79000800191ED000ADFF8B01801EB8001D1ED96
:10F7A000000A30EE200ADFF8A41801EB800181ED99
:10F7B000000A401C8EE7DFF88C08006840F6B9317B
:10F7C000884223DB0020DFF87C1808600020DFF887
:10F7D000701808600020032818DADFF8701801EBB1
:10F7E000800191ED000ADFEDBC0A80EE200ADFF80F
:10F7F000341801EB800181ED000ADFF85018002277
:10F8000041F82020401CE6E700004842DFF84008AD
:10F810000078002858D1DFF818084068DFF834185D
:10F820000860DFF80C08DFF8081891ED000AB1EE67
:10F83000400A80ED010ADFF8F807DFF818180968B8
:10F840000160DFF8EC078068DFF808180860DFF86F
:10F85000E007DFF8DC1791ED000AB1EE400A80ED19
:10F86000020ADFF8CC07DFF8EC1709680160DFF85F
:10F87000CC074068DFF8E0170860DFF8C007DFF862
:10F88000BC1791ED000AB1EE400A80ED010ADFF8E5
:10F89000AC07DFF8C41709680160DFF8A0078068CB
:10F8A000DFF8B4170860DFF89407DFF8901791EDE0
:10F8B000000AB1EE400A80ED020ADFF88007DFF8A7
:10F8C00098170968016004E1DFF8840700780128CF
:10F8D00040D1DFF85C078068DFF878170860DFF850
:10F8E0005007DFF84C1791ED000AB1EE400A80EDA9
:10F8F000020ADFF83C074068DFF834170860DFF8D9
:10F900003007DFF8501791ED000AB1EE400A80EDA4
:10F91000010ADFF828078068DFF83C170860DFF885
:10F920001C07DFF8181791ED000AB1EE400A80EDD0
:10F93000020ADFF808074068DFF800170860DFF800
:10F94000FC06DFF8141791ED000AB1EE400A80EDD5
:10F95000010ABEE0DFF8F806007802282CD1DFF8B3
:10F96000D0068068DFF8EC160860DFF8C406DFF820
:10F97000C01609688160DFF8B806DFF8D81691ED87
:10F98000000AB1EE400A80ED000ADFF8B006806898
:10F99000DFF8C4160860DFF8A406DFF8A0160968CF
:10F9A0008160DFF89806DFF8B01691ED000AB1EE3D
:10F9B000400A80ED000A8CE0DFF894060078032806
:10F9C0002CD1DFF86C068068DFF888160860DFF855
:10F9D0006006DFF85C1691ED000AB1EE400A80ED9A
:10F9E000020ADFF84C06DFF86C1609680160DFF8E0
:10F9F0004C068068DFF860160860DFF84006DFF824
:10FA00003C1691ED000AB1EE400A80ED020ADFF8E3
:10FA10002C06DFF84416096801605AE0DFF830066A
:10FA2000007804282CD1DFF808064068DFF8241697
:10FA30000860DFF8FC05DFF8F81591ED000AB1EE7B
:10FA4000400A80ED010ADFF8E805DFF808160968CA
:10FA50000160DFF8E8054068DFF8FC150860DFF8B2
:10FA6000DC05DFF8D81591ED000AB1EE400A80ED13
:10FA7000010ADFF8C805DFF8E0150968016028E031
:10FA8000DFF8CC050078052823D1DFF8A40540680D
:10FA9000DFF8C0150860DFF89805DFF894150968ED
:10FAA0004160DFF88C05DFF8AC1509680160DFF80C
:10FAB0008C054068DFF8A0150860DFF88005DFF8E6
:10FAC0007C1509684160DFF87405DFF88C1509685A
:10FAD00001607047000048C20000FA44DFF87C056E
:10FAE00090F9000000281AD1DFF8780590ED001A8F
:10FAF000B8EEC11AB4EE401AF1EE10FA0FD5DFF8E5
:10FB0000600590ED001AB8EEC11AB4EE601AF1EE7D
:10FB100010FA04D50120DFF84415087043E0DFF83F
:10FB20003C0590F90000012809D1F5EE400AF1EEFC
:10FB300010FA04D50020DFF82415087033E0DFF850
:10FB40001C0590F9000000281DD1DFF8180590ED84
:10FB5000001AB8EEC11AB4EE401AF1EE10FA12D53E
:10FB6000DFF8FC040068404201EE100AB8EEC11A4A
:10FB7000F4EE410AF1EE10FA05D55FF0FF30DFF840
:10FB8000DC1408700FE0DFF8D40490F9000010F1E5
:10FB9000010F08D1F5EE400AF1EE10FA03DD002066
:10FBA000DFF8B8140870DFF8B40490F90000DFF84B
:10FBB000B81491F9001088420ED0DFF8A004007844
:10FBC000DFF8A4140870DFF894040078DFF89414C8
:10FBD0000968484340B200E000207047010000205F
:10FBE000DFF8882492F90020012A11DBDFF8802455
:10FBF00092ED001AB8EEC11AB4EE401AF1EE10FA06
:10FC00001DD5BDEEC01ADFF8682482ED001A16E09B
:10FC1000DFF8582492F90020002A10D5DFF850248C
:10FC200092ED001AB8EEC11AB4EE401AF1EE10FAD5
:10FC300005D5BDEEC01ADFF8382482ED001ADFF8D2
:10FC40002C2492F90020002A1AD1DFF8182492ED12
:10FC5000001AB8EEC11AB4EE401AF1EE10FA0FD540
:10FC6000DFF8FC2392ED001AB8EEC11AB4EE601A68
:10FC7000F1EE10FA04D50122DFF8F0331A7059E0E2
:10FC8000DFF8E82392F90020012A13D1DFF8D0230E
:10FC90001268022392FBF3F201EE102AB8EEC11AA9
:10FCA000F4EE410AF1EE10FA04D50222DFF8BC337B
:10FCB0001A703FE0DFF8B42392F90020002A1DD12A
:10FCC000DFF8A02392ED001AB8EEC11AB4EE401A84
:10FCD000F1EE10FA12D5DFF888231268524201EED5
:10FCE000102AB8EEC11AF4EE410AF1EE10FA05D569
:10FCF0005FF0FF32DFF874331A701BE0DFF86C231B
:10FD000092F9002012F1010F14D1DFF85423126888
:10FD10005242022392FBF3F201EE102AB8EEC11A0E
:10FD2000B4EE601AF1EE10FA04D57FF00102DFF8AC
:10FD30003C331A70DFF8342392F90020022A06D0EF
:10FD4000DFF8282392F9002012F1020F17D1DFF813
:10FD50001C2392F90020022392FBF3F2DFF8103308
:10FD60001B685A4310000022DFF800331A7000228B
:10FD7000DFF8FC321A60DFF8FC2212680A6040B239
:10FD80007047DFF8F40290F9000000281AD1DFF87C
:10FD9000EC0290ED001AB8EEC11AB4EE401AF1EE82
:10FDA00010FA0FD5DFF8D80290ED001AB8EEC11A9C
:10FDB000B4EE601AF1EE10FA04D50120DFF8B812A3
:10FDC000087043E0DFF8B00290F90000012809D183
:10FDD000B5EE400AF1EE10FA04D50020DFF89812D3
:10FDE000087033E0DFF8900290F9000000281DD180
:10FDF000DFF888020068404201EE100AB8EEC11A2E
:10FE0000B4EE410AF1EE10FA10D5DFF8740290ED6D
:10FE1000001AB8EEC11AB4EE601AF1EE10FA05D568
:10FE20005FF0FF30DFF8501208700FE0DFF8480293
:10FE300090F9000010F1010F08D1B5EE400AF1EE83
:10FE400010FA03DD0020DFF830120870DFF8280216
:10FE500090F90000DFF82C1291F9001088420ED0C2
:10FE6000DFF814020078DFF81C120870DFF80802CF
:10FE70000078DFF808120968484340B200E000202B
:10FE8000704701000020DFF8002292F90020012ACB
:10FE900011DBDFF8E02192ED001AB8EEC11AB4EEE2
:10FEA000401AF1EE10FA1DD5BDEEC01ADFF8C421DC
:10FEB00082ED001A16E0DFF8D02192F90020002A26
:10FEC00010D5DFF8B02192ED001AB8EEC11AB4EEE9
:10FED000410AF1EE10FA05D5BDEEC01ADFF8942103
:10FEE00082ED001ADFF8A02192F90020002A1AD131
:10FEF000DFF8882192ED001AB8EEC11AB4EE401A6C
:10FF0000F1EE10FA0FD5DFF8782192ED001AB8EE75
:10FF1000C11AB4EE601AF1EE10FA04D50122DFF82E
:10FF200068311A7044E0DFF8602192F90020012A5C
:10FF300009D1B5EE400AF1EE10FA04D50222DFF83D
:10FF400048311A7034E0DFF8402192F90020002A8D
:10FF50001DD1DFF828211268524201EE102AB8EEB6
:10FF6000C11AB4EE410AF1EE10FA10D5DFF81021F3
:10FF700092ED001AB8EEC11AB4EE601AF1EE10FA62
:10FF800005D55FF0FF32DFF800311A7010E0DFF8BE
:10FF9000F82092F9002012F1010F09D1B5EE400AC4
:10FFA000F1EE10FA04DD7FF00102DFF8DC301A70A8
:10FFB000DFF8D42092F90020022A06D0DFF8C8200A
:10FFC00092F9002012F1020F17D10022DFF8B830A9
:10FFD0001A70DFF8A020126810000022DFF89430B9
:10FFE0001A60DFF8882092F90020DFF884301B685F
:10FFF0005A43022392FBF3F20A6040B270470000BA
:020000040002F8
:10000000B02F0020CA210020488D020001F4010019
:10001000988D0200DE2F0020102E0020502E002090
:100020005C2E0020802E0020AC210020B02100207A
:10003000742E0020A42E0020B4210020982E002031
:10004000902F00208C2F0020682E00208C2E002066
:10005000FC2F0020942F0020982F0020FD2F00203F
:100060009C210020A0210020FE2F0020FF2F002037
:10007000B42F0020B82F002001300020A82100203C
:10008000A42100200230002000300020DFF8180DED
:10009000807E042800F06C81DFF80C0D807E08283B
:1000A00000F06681DFF8000D407EC00704D5012016
:1000B000DFF8F41C487003E00020DFF8EC1C487007
:1000C000DFF8E40C407E800704D50120DFF8D81C5F
:1000D000887007E00020DFF8D01C88700020DFF86F
:1000E000C81C4871DFF8C00C407E400704D50120D1
:1000F000DFF8B41CC87003E00020DFF8AC1CC87047
:10010000DFF8A40C407E000704D50120DFF8981C1E
:10011000087103E00020DFF8901C0871DFF8880CFC
:10012000407EC0060DD50120DFF87C1C4871DFF849
:10013000780C8078012808D00120DFF86C1C8870CA
:1001400003E00020DFF8601C4871DFF85C0C407EA3
:10015000800604D50120DFF8501C887103E00020E0
:10016000DFF8441C8871DFF8400C407E400604D55F
:100170000120DFF8341CC87103E00020DFF8281CE0
:10018000C871DFF8240C407E000604D50120DFF89A
:10019000181C087203E00020DFF80C1C0872DFF85E
:1001A000080CC07E002807D0DFF8FC0BC07EDFF80B
:1001B000F81B81F82E0004E00020DFF8EC1B81F82A
:1001C0002E00DFF8E40B007F002807D0DFF8D80B03
:1001D000007FDFF8D41B81F82F0004E00020DFF857
:1001E000C81B81F82F00DFF8C00B407F00280ED01D
:1001F000DFF8B40B407FDFF8B01B81F83000DFF888
:10020000A80B90F83000DFF8EC1A08600BE00A2029
:10021000DFF8941B81F83000DFF88C0B90F8300089
:10022000DFF8D01A0860DFF8800B807F00280ED03E
:10023000DFF8740B807FDFF8701B81F83100DFF886
:10024000680B90F83100DFF8B01A08600BE00A2064
:10025000DFF8541B81F83100DFF84C0B90F83100C7
:10026000DFF8941A0860DFF8400BC07F00280ED03A
:10027000DFF8340BC07FDFF8301B81F83200DFF885
:10028000280B90F83200DFF8241B08700BE00020E8
:10029000DFF8141B81F83200DFF80C0B90F8320005
:1002A000DFF8081B0870DFF8000B90F8200000282A
:1002B00008D0DFF8F40A90F82000DFF8EC1A81F893
:1002C000330004E00020DFF8E01A81F83300DFF8A3
:1002D000D80A90F82100002808D0DFF8CC0A90F85E
:1002E0002100DFF8C41A81F8340004E00020DFF8B0
:1002F000B81A81F83400DFF8B00A90F8220000281C
:1003000008D0DFF8A40A90F82200DFF89C1A81F8E0
:10031000350004E00020DFF8901A81F83500DFF89E
:10032000880A90F82300002808D0DFF87C0A90F8AB
:100330002300DFF8741A81F82D0004E00420DFF8B0
:10034000681A81F82D00DFF8600A90F82400002870
:1003500008D0DFF8540A90F82400DFF84C1A81F82E
:1003600036001AE00020DFF8401A81F8360014E069
:10037000DFF8340A807E042805D10120DFF8281A2E
:1003800081F8370009E0DFF8200A807E082804D1D0
:100390000220DFF8141A81F83700704710B50024E6
:1003A000DFF8040A407800280CD00120DFF8881A12
:1003B0000870DFF8840A807B50F00100DFF8781ABB
:1003C00088730BE00020DFF8701A0870DFF8680A05
:1003D000807B10F0FE00DFF8601A8873DFF8C80930
:1003E0008078002862D0DFF8C80990ED000ADFEDC0
:1003F000CF0A30EE200AF2EE040A20EE200ABDEE0B
:10040000C00A10EE100A00B2DFF82C1A4862DFF8BA
:10041000A40990ED000ADFEDC50A30EE200AF2EEE5
:10042000040A20EE200ABDEEC00A10EE100A00B247
:10043000DFF8041A8862DFF8800990ED000ADFED2A
:10044000BB0A30EE200AF2EE040A20EE200ABDEECE
:10045000C00A10EE100A00B2DFF8DC19C8620020F2
:10046000062816DA0221022290FBF2F2DFF8C839E0
:1004700003EB8202526A90FBF1F301FB03F1091ACC
:10048000C90008310A41DFF8B0190144CA73401CA1
:10049000E6E70120DFF8A0194870DFF89C09807BAF
:1004A00050F00200DFF8901988730BE00020DFF8AD
:1004B00088194870DFF88009807B10F0FD00DFF8B4
:1004C00078198873DFF8E008C078002846D0DFF894
:1004D0006C090078002801D101F01BF9B24890EDB9
:1004E000000ABDEEC00ADFF8500980ED0C0A0020BA
:1004F000022811DA0221DFF84029126B90FBF1F398
:1005000001FB03F1091AC90008310A41DFF8281973
:1005100001444A75401CEBE701F0D7F8002810D0E1
:10052000A2480068DFF8101981F83400DFF80809E4
:1005300090F83400DFF8001908770120DFF800197F
:1005400008600120DFF8F0188870DFF8EC08807B85
:1005500050F00400DFF8E018887312E0DFF8DC08E0
:100560000078002801D001F0DDF80020DFF8C8187D
:100570008870DFF8C408807B10F0FB00DFF8B81843
:100580008873DFF824080079002842D001F01FFAB0
:10059000844908808348B0F9000001F025FADFF8AB
:1005A000A428DFF8A43801F035FA0022DFF89C38DF
:1005B00001F002FB01F02CFC7949086078480068E2
:1005C00001F06EFC0022DFF8883801F023FA01F018
:1005D0008FFCDFF8641881F83500DFF85C0890F8CC
:1005E0003500DFF85418C8750120DFF84C18C870C2
:1005F0000020DFF8B4170871DFF83C08807B50F06A
:100600000800DFF8341888730120DFF83418086018
:100610000BE00020DFF82018C870DFF81C08807B92
:1006200010F0F700DFF810188873DFF87C074079C6
:10063000002855D0DFF81C080068564909680843AF
:10064000002841D053480068DFF8EC1781F83600E5
:1006500051480068DFF8E01781F83700DFF8F40749
:100660000068DFF8D41781F838004C480068DFF8DC
:10067000C81781F83900DFF8C00790F83600DFF8B6
:10068000B8170876DFF8B00790F83700DFF8A8173A
:100690004876DFF8A40790F83800DFF89C178876D2
:1006A000DFF8940790F83900DFF88C17C876DFF888
:1006B0008807807B50F01000DFF87C1788730120DA
:1006C000DFF87C1708600BE00020DFF86C1708717A
:1006D000DFF86407807B10F0EF00DFF85C178873A9
:1006E000DFF8C40690F83700012821D18020DFF818
:1006F000481788731021DFF8600701F050FC0020D4
:10070000102808DADFF85017095CDFF82C270244BC
:10071000D173401CF4E70020DFF88C1681F8370015
:100720000120DFF81C1708600AE000BF0000344316
:10073000DFF80407807B10F07F00DFF8FC16887379
:10074000DFF818070088DFF8F016C88700200228B5
:1007500011DA0221DFF8E026D28F90FBF1F301FBE2
:1007600003F1091AC90008310A41DFF8CC16014427
:10077000CA77401CEBE70020132806DADFF8B8162A
:100780000144897B0C19401CF6E7DFF8AC0680F8C1
:10079000214010BD7C2F0020802F0020882F0020BA
:1007A000782F0020DC2F0020442F00205C2F002019
:1007B00010B50024DFF8A8060068401CDFF8A0167A
:1007C0000860DFF8A0060078002810D0DFF86C067B
:1007D0000078002804D100F086FF01F02CFC06E030
:1007E000DFF884060078002801D001F024FCDFF84F
:1007F000B8050078002805D0FFF748FC0020DFF896
:10080000A8150870DFF8A0058078002800F0DE81C8
:10081000FEF76AFEFEF7AEFE9FEDD94ADFEDD83A4D
:100820009FEDD73ADFF84406D0ED022ADFF83C0608
:1008300090ED012ADFF83406D0ED001ADFF830061B
:1008400090ED021ADFF82806D0ED010ADFF8200645
:1008500090ED000A01F0C2FC01F046FCDFF848050B
:1008600090F83300002847D0DFF83C0590F83300BB
:1008700000EE100AB8EE401ADFEDC20ADFF8F415F8
:10088000DFF8F405DFF8282592ED000AFEF74BFEAD
:10089000DFF81C0580ED000ADFF80C0590F8330046
:1008A00000EE100AB8EE401ADFEDB60ADFF8CC15FC
:1008B000DFF8CC05DFF8FC2492ED000AFEF733FEEA
:1008C000DFF8F00480ED000ADFF8DC0490F8330074
:1008D00000EE100AB8EE401ADFEDAA0ADFF8A41500
:1008E000DFF8A405DFF8D02492ED000AFEF71BFE26
:1008F000DFF8C40480ED000ADFF8AC04407900287A
:1009000000F06481DFF88425DFF88415DFF88405C2
:10091000DFF85C3593ED021ADFF85435D3ED010AA8
:10092000DFF84C3593ED000A01F0A0FBDFF86825F5
:10093000DFF86815DFF86805DFF8303593ED021A47
:10094000DFF82835D3ED010ADFF8203593ED000AF2
:1009500001F08CFBDFF8480590ED000ADFF8400558
:10096000D0ED000A20EE200ADFF83405D0ED010AB0
:10097000DFF82C0590ED011A00EE810A02F034F93F
:10098000F7EE000A80EE800ADFF8180580ED000A15
:10099000DFF8000590ED000ADFF8F804D0ED000A5A
:1009A00020EE200ADFF8EC04D0ED010ADFF8E404C1
:1009B00090ED011A00EE810A02F016F9F7EE000A36
:1009C00080EE800ADFF8E00480ED000ADFF8D00452
:1009D000806801F065FA0022DFF8D03401F01AF8DF
:1009E00001F016FADFF8B8148860DFF8B804006880
:1009F00001F056FA0022DFF8B43401F00BF801F0F0
:100A000007FADFF8A0140860DFF8880490ED020A06
:100A1000DFEDB70A30EE200ADFF8780480ED020A35
:100A2000DFF87004806801F03BFADFF88424DFF817
:100A3000843400F0EFFF01F0EBF9DFF85814886020
:100A4000DFF86404006801F02BFADFF86424DFF8B3
:100A5000643400F0DFFF01F0DBF9DFF84C140860CC
:100A6000DFF8540490ED001ADFF85004D0ED000ACE
:100A7000DFF84C14DFF84C04DFF8242492ED020A6E
:100A8000FEF751FDDFF8180480ED020ADFF82804B4
:100A900090ED001ADFF82404D0ED000ADFF82814E6
:100AA000DFF82804DFF8EC2392ED020AFEF73BFDA5
:100AB000DFF8E00380ED020ADFF8FC0390ED001A96
:100AC000DFF8F803D0ED000ADFF80414DFF80404BF
:100AD000DFF8D02392ED000AFEF725FDDFF8C4030E
:100AE00080ED000ADFF8D00390ED001ADFF8CC03A8
:100AF000D0ED000ADFF8E013DFF8E003DFF8A82309
:100B000092ED000AFEF70FFDDFF89C0380ED000A6E
:100B1000DFF8900390ED000ADFF8C403D0ED000A7F
:100B200030EE600ADFF8BC0380ED000ADFF8B003A6
:100B3000DFF87013096801609B4890F836000028C0
:100B400022D1DFF8A00390ED000AF2EE040A60EE75
:100B5000200ADFF8400390ED020AFFF712F9DFF8F0
:100B6000F4120860DFF83803D0ED020ADFF838032A
:100B700090ED000AFEF7B2FFDFF86C13086025E085
:100B8000000000000AD7A33CDFF86003DFF854132D
:100B900091ED000AF2EE040A60EE200ADFF8F4128A
:100BA00091ED020AFFF76DF9DFF8A8120860DFF88F
:100BB0004003DFF8EC12D1ED020ADFF8EC1291ED00
:100BC000000AFFF70BF8DFF820130860DFF82403B2
:100BD0000078002855D07448807900280ED07248DB
:100BE00090F82E00002803D1642002F0A3F808E05A
:100BF0006D4890F82E0002F09DF802E0002002F00F
:100C000099F86948C07900280ED0674890F82F00FD
:100C1000002803D1642002F093F808E0624890F8BD
:100C20002F0002F08DF802E0002002F089F85E4803
:100C3000007A002803D00120DFF8281208705A48F3
:100C4000807E800703D50120DFF8AC12086056488B
:100C500090F83700022814D11021DFF8FC0101F0D0
:100C60009EF900200E2807DA4F490144C97EDFF8BB
:100C7000E8211154401CF5E71021DFF8DC0101F0F8
:100C800076F9FFF78BFBDFF86C02007800282CD098
:100C90004548407800281AD0DFF860020068401C00
:100CA000DFF858120860DFF8540200683E4991F8F6
:100CB0002D10884219DB0020DFF840120860142252
:100CC000DFF83C12DFF83C0202F03EFA0DE05C482F
:100CD0000068002809D01422DFF82412DFF824026B
:100CE00002F032FA0020564908602000C0B210BD60
:100CF00000007AC4A0210020A821002080B51C207B
:100D0000DFF8041208700123DFF8FC211021002015
:100D1000FEF7A3FB0020DFF8F01108700123DFF8D5
:100D2000E82111210020FEF798FB8E20DFF8D81172
:100D300008700123DFF8D02158210020FEF78DFB39
:100D40000920DFF8C41108700123DFF8BC21592104
:100D50000020FEF782FB0020DFF8AC1108700123B1
:100D6000DFF8A4215A210020FEF777FB8020DFF86E
:100D7000981108700123644A5B210020FEF76DFB87
:100D800008206149087001235F4A5E210020FEF7B8
:100D900064FB10205C49087001235B4A1521002088
:100DA000FEF75BFB01BD000060210020FC2F00204E
:100DB000082F0020102F00200C2F002080B50020CD
:100DC0008DF8000051480068002834D19DF80000DB
:100DD0006A2806D001236A460F210020FEF75CFB3B
:100DE000F4E74420484908700123474A12210020B3
:100DF000FEF733FB7C20444908700123424A11214D
:100E00000020FEF72AFB01233F4A10210020FEF7B5
:100E100024FB00203C49087001233B4A1521002097
:100E2000FEF71BFB80203849087002203649087005
:100E300000203549087001BD682B0020F22F0020EA
:100E4000AC2F00205839B4C876BE15400000D04001
:100E500000003440842F0020F02D0020D82F0020E7
:100E6000BC2F0020FA2F0020F32F0020742E00202A
:100E7000982E0020C82D0020C42D0020D02D002049
:100E8000CC2D0020D82D0020D42D0020B82E0020FD
:100E9000B42E0020B02E0020C42E0020C02E002032
:100EA000BC2E00209C2F0020A82F0020000008400E
:100EB0006FA301BC0512843FBC210020B821002093
:100EC0001C2C0020182C0020242C0020202C00207A
:100ED0002C2C0020282C0020342C0020302C00202A
:100EE000A02F0020A42F00207C2F0020802F002086
:100EF000882F0020FB2F0020902F0020642F00203F
:100F0000762B0020A82D0020DE2F0020C02F0020EF
:100F10000122C9B24250704781B0002209B242504A
:100F200009B242580092009A01B0704709B2405885
:100F3000002801D0012000E00020C0B27047C0F8B6
:100F400004137047C0F8081370470721C0F8001554
:100F50007047C0F80815C0F80C25C0F81035704768
:100F6000C0F824157047C0F84415D2B2C0F848251F
:100F70007047C0F83415D2B2C0F838257047D2B2E5
:100F8000002A01D1002300E00123C9B2012904D0C5
:100F900002D3032907D003D307E053F0020304E090
:100FA00053F0040301E053F00603C0F854357047D2
:100FB000C9B2C0F8C01570470121C0F8501570477C
:100FC0000021C0F8501570470121C0F84015704746
:100FD0000021C0F84015704710F06040B0F1005F8C
:100FE00001D1012000E00020C0B2704701005FF095
:100FF000A04070472DE9F14181B00E0017009846DE
:10100000089C099D01A8FFF7F1FFF6B2FFB256EA6E
:1010100047015FFA88F851EA8801E4B251EA0421F5
:10102000EDB251EA0541019A00EB8202C2F80017C5
:10103000BDE8F3811CB50400002001900020009061
:101040000023012201212000FFF7D4FF13BD30B59A
:1010500083B004000D0000200190002000902B00C0
:10106000DBB2002200212000FFF7C4FF37BD11B51D
:1010700081B001A8FFF7BAFF04000120019910FA1E
:1010800001F1200000F00FF813BD11B581B001A8E7
:10109000FFF7ACFF04000120019910FA01F12000D4
:1010A00000F004F813BDC0F808157047C0F80C151F
:1010B00070472DE9F84F04000D001600B44861791F
:1010C000490100EB0107387E002803D00820804644
:1010D000404668E03E60287B022803DA2878FFF764
:1010E000D4FF02E02878FFF7C2FF0120A9492A783F
:1010F00041F822006878FF2808D068788146484681
:10110000FFF7C3FF4846FFF795FF02E05FF0FF30AF
:101110008146A878FF2806D0A8788246002150464C
:10112000FFF795FF02E05FF0FF308246E878FF2886
:1011300005D0E878FFF79BFFE878FFF77BFF94483E
:10114000617949010844E9788176206883465346ED
:101150004A4629785846FFF7FCFEA9685846FFF72B
:10116000FFFE6A7B297B5846FFF709FF69795846DD
:10117000FFF71EFF3868002803D040215846FFF7CC
:10118000DEFE5846FFF7E1FE3868002804D02979D2
:1011900094F9040002F038F80020787601203876BF
:1011A000002080464046BDE8F28F2DE9FF41050052
:1011B0000E00170098460A9C0096CDF808808DF81E
:1011C00004708DF80C4000226946280000F08DF86C
:1011D00004B0BDE8F08110B50400A07EFF2802D065
:1011E000A07EFFF744FF0020607600202071201DC4
:1011F0002168884710BD38B504000D00EDB2002D00
:1012000004D140212000FFF79DFE03E04021200093
:10121000FFF795FE31BD38B504000D00E80703D592
:101220002000FFF7C9FE02E02000FFF7C9FEA80773
:1012300003D52000FFF7C8FE02E02000FFF7C8FE3C
:1012400031BD2DE9F04104000D0016001F0030688B
:10125000002804D03068FFF7BFFE002807D0B06830
:1012600000280AD0B068FFF7B7FE002805D100209B
:10127000687610208046404635E03279316820009B
:10128000FFF771FE327BB1682000FFF772FE4FF46A
:101290008C712000FFF740FE39002000FFF7BBFFF4
:1012A000380703D410212000FFF732FE28680028F9
:1012B0000DD14FF48C712000FFF738FE0028F8D0D4
:1012C000A87EFF280CD0A87EFFF7D1FE08E0B80862
:1012D00010F0010090F00101C9B22000FFF78BFF70
:1012E000002080464046BDE8F0812DE9F04180466F
:1012F0000C001500264898F80510490100EB01067E
:101300000027707E002803D011200700380022E05B
:101310003068002804D015F0140F01D10120707638
:1013200094E80F0016F1080C8CE80F00707F10F0A5
:10133000FE007077707F10F0FD007077B07EFF28A0
:1013400002D0B07EFFF7A1FE2B0022003100D8F8BA
:101350000000FFF776FFBDE8F08138B504000D000E
:101360004FF48C712000FFF7E1FD002807D04FF407
:101370008C712000FFF7D0FD2800FFF72CFF31BD56
:1013800010B5034C21000448FFF7E7FF10BD000033
:101390004C2D0020000700500030004010B584B0F4
:1013A000040068460021002200230EC00C3802947D
:1013B0006A46002144F2010001F04AFF1FBD6400AB
:1013C000012110F01F029140DFF8B02340B2430921
:1013D00042F82310704701005FF0A04070472DE9EC
:1013E000F14181B00E0017009846089C099D01A8A4
:1013F000FFF7F1FFF6B2FFB256EA47015FFA88F84D
:1014000051EA8801E4B251EA0421EDB251EA054102
:10141000019A00EB8202C2F80017BDE8F3811CB507
:1014200004000020019000200090002301220121EF
:101430002000FFF7D4FF13BD30B583B004000D00CA
:1014400000200190002000902B00DBB20022002140
:101450002000FFF7C4FF37BD11B581B001A8FFF729
:10146000BAFF04000120019910FA01F1200000F0F8
:101470002DF813BD11B581B001A8FFF7ACFF040032
:101480000120019910FA01F1200000F022F813BDAB
:1014900038B504000D00002D03D12000FFF7EAFF4E
:1014A00002E02000FFF7D8FF31BD11B581B001A8DF
:1014B000FFF791FF0400200000F005F80199C840F3
:1014C00010F0010016BDD0F810057047C0F80815DF
:1014D0007047C0F80C157047A94900283DD0A94AAB
:1014E000126800BF00BF00BF00BF00BF00BF00BF49
:1014F00000BF8A422FD000BF00BF00BF00BF00BFA7
:1015000000BF00BF00BF00BF00BF00BF00BF00BFE3
:1015100000BF00BF00BF00BF00BF00BF00BF00BFD3
:1015200000BF00BF00BF00BF00BF00BF00BF00BFC3
:1015300000BF00BF00BF00BF00BF00BF00BF00BFB3
:1015400000BF00BF00BF00BF00BF00BF00BF00BFA3
:1015500000BF00BF00BF0138C3D1704710B5040001
:10156000200040B2FFF72CFF10BD874890F83400F0
:10157000143086490860844890F835008449086032
:10158000844890ED000A8448D0ED000A30EE600AED
:10159000824880ED000A80487E49096801608048E1
:1015A0000068002810D1794890ED000AB8EEC00A12
:1015B0007A48D0ED000AB4EE600AF1EE10FA03D5D5
:1015C0000120774908603FE071480068002824D076
:1015D00073480068012820DB6C4890ED000AB8EEE3
:1015E000C00A6E48D0ED000AB4EE600AF1EE10FABF
:1015F00013D56C480068401C6A490860644800685C
:101600006849096888421FDA002066490860644812
:101610000068401C6249086016E0614800680128C3
:1016200012DB614890ED000AB8EEC00A5B48D0EDCD
:10163000000AF4EE400AF1EE10FA05D500205949EF
:101640000860002056490860704738B504000D0056
:1016500056480078002805D000F045F8012054498C
:10166000087031E000F0DEF8524908605148006827
:10167000B0F5702F10DD4F480068C043401C4E4944
:1016800008604D48006880B24B4908604A480068CD
:1016900040424A49086003E04648006847490860FC
:1016A000474890ED001A4748D0ED000A46494748A0
:1016B000424A92ED000AB8EEC00AFDF734FF354801
:1016C00080ED000AFFF751FF31BD41480068344901
:1016D0000968884205D0324800683D490860012009
:1016E00000E00020704780B51E2002F07EF8402008
:1016F00000F0FCF800F0B6F8402807D04FF47A70FC
:10170000FFF7EAFE402000F0F1F8F3E700F03AF9C5
:1017100001BD80B501202F4908700721062001F086
:1017200073FD01BD80B500202A4908700620FFF72F
:1017300015FF01BD38B501F067FF04002500002D3D
:1017400002D02800FFF72AFE2348006800900320FB
:101750008DF80100214A69461E2001F08BFF04002C
:101760002500002D02D02800FFF718FE01211E20C1
:1017700001F0C7FFFFF7D6FF31BD000080E100E0B8
:101780000024F400C021002060210020442100201A
:10179000582F0020442F00204C2F0020482F0020DD
:1017A0005C2F0020542F002048210020FA2F002019
:1017B000F32F00203C2F0020502F0020402F00202E
:1017C000402100203C210020F42E0020F02E00209B
:1017D000602F0020F22F0020B08D02004B16020077
:1017E00080B51F20FFF71BFE242000F07FF800F0DB
:1017F00039F8242807D04FF47A70FFF76DFE2420C3
:1018000000F074F8F3E7FFF795FF00F0BBF801BDB7
:1018100080B501211F20FFF73BFE00211F20FFF7AD
:1018200037FE01BD38B5002400211E2001F069FFFC
:101830000025182D0ADAFFF7EBFF64001E20FFF7E2
:1018400034FE002800D0641C6D1CF2E7FFF7E0FFB7
:10185000FFF7DEFFFFF7DCFF01211E2001F051FF43
:10186000200032BD38B50025EDB21B2D03DAFFF79D
:10187000CFFF6D1CF8E71E20FFF7D1FDFFF7C8FF73
:10188000FFF7C6FFAC2004000725012D12DB012065
:10189000A8402100C9B2014204D001211E20FFF757
:1018A000F7FD03E000211E20FFF7F2FDFFF7B0FF78
:1018B0006D1EEAE703211E20FFF7BEFDFFF7A8FF1C
:1018C000002004000025EDB2082D0ADA6400FFF7BD
:1018D0009FFF1E20FFF7E9FD002800D0641C6D1C4F
:1018E000F1E7FFF795FF2000C0B232BDF8B5040064
:1018F00000200600F6B21B2E03DAFFF789FF761CE4
:10190000F8E71E20FFF78BFDFFF782FFFFF780FF50
:10191000CA20050007200600F6B2002E12D00120D2
:10192000B0402900C9B2014204D001211E20FFF7B6
:10193000AFFD03E000211E20FFF7AAFDFFF768FFBF
:10194000761EE9E7FFF764FF25000727002F12D472
:101950000120B8402900C9B2014204D001211E2053
:10196000FFF796FD03E000211E20FFF791FDFFF732
:101970004FFF7F1EEAE703211E20FFF75DFDFFF703
:1019800047FFF1BD80B501211F20FFF781FD01BD9B
:1019900070473EB5684612492CC92CC00C390C382A
:1019A0001049002002F0D9F9040000208DF803004E
:1019B00000208DF802006946002002F02AFA040097
:1019C0002500002D02D02800FFF7E8FC37BD80B5C8
:1019D0006946002002F057FABDF9000002BD000080
:1019E000808D020091190200010040F10780F44649
:1019F000404200F003F851F00041604709D0B0FACE
:101A000080F18840C91CC1F58461090501EBD02132
:101A100040057047B0B581EA030C0CF0004C40F271
:101A2000FF7515EA11541DBF15EA1357AC42AF42BA
:101A300039E0E41923EA455343F48013C90241F025
:101A4000004141EA505EC7021100A7FB02020028D4
:101A50004FF00000EEFB01204FF00001E3FB0721F7
:101A600018BF42F00102401800214941E3FB0E017A
:101A7000A4F580640F0302D252004041494154F161
:101A800001046CDD470872F1004250F1000051EB97
:101A90000451A1F580115CBF41EA0C01B0BD4CEAD4
:101AA00005510020B0BD05EA1357AC4214BFAF4248
:101AB00041E050EA410E1CBF52EA430E02E061468B
:101AC0000020B0BD24423C441BD15FEA070EF6D093
:101AD000090302BF01460020AEF1140EB1FA81F7EE
:101AE000AEEB070401FA07FE0C37C7F1200100FA3C
:101AF00007F7C8404EEA000E23EA455343F480132B
:101B0000A2E733F00043B3FA83F704BFB2FA82FED0
:101B100077440B3FE41BB7F1200E2FBF02FA0EF300
:101B2000BB40C7F1200E22FA0EFE38BF43EA0E0377
:101B3000BA40641C82E750EA410E14BF52EA430ED9
:101B40006FF000014FF4001717EB430F8ABF1946DF
:101B500017EB410FB5E74CEA05510020B0BDD4F1B9
:101B60000104B4F120070FDAC4F12007520828BF9E
:101B700042F0010210FA07F501FA07F7E1BF2A4324
:101B8000E0403843E1400FE0352C98DCC7F12004F9
:101B900052EA400220FA07F218BF42F0010231FA7D
:101BA00007F0A1400A43002172F1004250F1000009
:101BB00051EB0C01B0BDFEE72DE9F04140F2FF759D
:101BC00081EA030C0CF0004C15EA11541DBF15EA14
:101BD0001357AC42AF42E9E0BC41C1F31301C3F378
:101BE0001303801A994143F4801304D2641E400009
:101BF000494180185941C90241EA5051B1FBF3F6FD
:101C000003FB1611A2FB0675D7EBC020A94102D237
:101C1000761E80185941C90241EA5051B1FBF3FECA
:101C200003FB1E11A2FB0E75D7EBC020A94103D206
:101C3000AEF1010E80185941890241EA90517605B2
:101C400046EA8E2EB1FBF3F603FB1611A2FB0675D6
:101C5000D7EB8020A94102D2761E80185941C902D3
:101C600041EA50514EEA060EB1FBF3F603FB1611A2
:101C7000A2FB0675D7EBC020A94102D2761E8018C0
:101C80005941C90241EA5051B1FBF3F703FB171167
:101C9000A2FB0735D3EBC020A94167F100070CBFB9
:101CA000004247F0010766F3D5274FEA1E31B80816
:101CB00014F5806414DDBD0775F1004250EB0E5041
:101CC00051EB045111F5801F5CBF41EA0C01BDE8E6
:101CD000F0814CF07F6141F0E0410020BDE8F081EF
:101CE000BD076D0840EA0E5041F48011D4F10104A3
:101CF000B4F120060ADAC4F120060200E04001FA3D
:101D000006F3E1401843B24015430EE0342C14DCD6
:101D1000C6F1200445EA40056D0820FA06F2154395
:101D200021FA06F0A1400D43002175F1004250F167
:101D3000000051EB0C01BDE8F08100205FEA0C01CE
:101D4000BDE8F081CFB992185B41B3FA83F704BFC5
:101D5000B2FA82F6BF190B3FB7F120062FBF02FA85
:101D600006F3BB40C7F1200622FA06F638BF33431C
:101D7000BA401CB1E419641E2FE77F4231F00041E4
:101D8000B1FA81F404BFB0FA80F6A4190B3CB4F1A7
:101D900020062FBF00FA06F1A140C4F1200620FA68
:101DA00006F638BF3143A0403C1B16E7AC421ABFD1
:101DB00005EA1357AF4214E050EA41061CBF52EA4D
:101DC0004306BFE750EA4107304661461CBF41EA7F
:101DD0000551BDE8F08152EA430C08BFC143BDE89C
:101DE000F08100204FF4001616EB410F98BF16EB60
:101DF000430F08BF16EB410F24BFC14305E016EBAC
:101E0000430F0CBF61464CEA0551BDE8F081FEE787
:101E10004FEAF17CBCF1E04C2CBFBCF5001F11E097
:101E20005FEA4C0C34BFBCF17F5F2EE05FEA9C0C94
:101E30004FEA0C1C4FEA3C0CC10071F100414CEB25
:101E400050707047C90241EA5051C00218BF41F0BA
:101E5000010141F000414FEA6C50C0F10900212816
:101E600010D240EACC7CCCF1200C11FA0CF070F1CD
:101E70000040CCF1200C21FA0CF00CF0004C40EBAF
:101E80000C0070474FEACC707047490011F5001FF5
:101E900004D84FEACC10FF30C0057047C817704710
:101EA0005FF0FF0C1CEAD05114BF614506E0C11081
:101EB000400721F0E04101F16051704779B900F02D
:101EC000004100020AD0B0FA80FC00FA0CF001F1E7
:101ED0006051A1EB0C5101EBD0214005704741024C
:101EE0000CBF40F4E0016FF0000100207047FEE7F6
:101EF000F446400D40EAC120490006D200F00EF839
:101F0000004248BF6FF00040604700F007F84FF014
:101F1000004188428CBF08464042604740F0004084
:101F2000490DA1F58061491C05D4D1F11F0154BFB1
:101F3000C840C01770474FF00000704738B5040024
:101F40000D002078002802D1EDB2002D0ED02078AF
:101F500001280BD1EDB2002D08D100200090042300
:101F6000184A19480168184802F0F7F931BDF8B568
:101F700004000D00ADB2112D01DB1025FFE7ADB25D
:101F8000104F2A002100380002F0CCFA0023012271
:101F90000D4801680C4802F030FA0600F1BD70B53A
:101FA00004000D00ADB2112D01DB1025FFE706483E
:101FB00000680600ADB22A003100200002F0B2FA3B
:101FC00070BD0000002E0020CC21002001005FF039
:101FD000A04070472DE9F14181B00E0017009846EE
:101FE000089C099D01A8FFF7F1FFF6B2FFB256EA7F
:101FF00047015FFA88F851EA8801E4B251EA042106
:10200000EDB251EA0541019A00EB8202C2F80017D5
:10201000BDE8F3817CB504000D0016003000C0B2AD
:102020000190002000902B00DBB200220021200054
:10203000FFF7D0FF73BD80B502F02EFE02F0D6FE92
:1020400000F084FE022200211020FFF7E3FF0222AD
:1020500001211620FFF7DEFFFEF750FE01200249A6
:10206000086032DF01BD0000742F0020DFF8583B0C
:10207000D3ED001A61EE801ADFF84C3B93ED012A94
:1020800042EE201ADFF8403B93ED022A42EE011A9D
:10209000C0ED001ADFF8303BD3ED031A61EE801A71
:1020A000DFF8243B93ED042A42EE201ADFF8183BB8
:1020B00093ED052A42EE011AC1ED001ADFF8083B44
:1020C000D3ED061A61EE801ADFF8FC3A93ED072A89
:1020D00042EE201ADFF8F03A93ED082A42EE011A98
:1020E000C2ED001A7047000080B52DED028BDFF8BD
:1020F000D80A0068FFF7D4FE41EC110BB0EE418A1C
:10210000F0EE618ADFF8C00AC068FFF7C9FE41EC53
:10211000100BB0EE481AF0EE681A03F0E5F851EC37
:10212000100BFFF775FEDFF8981A0860DFF8900AC9
:1021300090ED000ADFED280A20EE200ADFF8800A81
:1021400080ED000ADFF8800A006AFFF7A9FE41EC83
:10215000110BB0EE418AF0EE618ADFF86C0AC069BB
:10216000FFF79EFE41EC100BB0EE481AF0EE681A35
:1021700003F0BAF851EC100BFFF74AFEDFF8441AEF
:102180000860DFF8400A90ED000ADFED130A20EE48
:10219000200ADFF8300A80ED000ADFF82C0A806997
:1021A000FFF77EFE41EC100B03F038F951EC100BF9
:1021B000FFF72EFEDFF81C1A0860DFF8180A90ED12
:1021C000000ADFED050A20EE200ADFF8080A80ED9C
:1021D000000ABDEC028B01BDBE2E6542F8B52DEDA7
:1021E000108B2DED071A99B0F0EE408AB0EE608AA0
:1021F000DFF8E40990ED009ADFF8DC09D0ED019AF0
:10220000DFF8D40990ED02AADFF8CC09D0ED03AADB
:10221000B0EE000A29EE000A8DED0C0AB0EE000ABD
:1022200029EE800A8DED090AB0EE000A2AEE000AB6
:102230008DED080AB0EE000A2AEE800A8DED0B0A39
:10224000B0EE000A29EE000A20EE0A0A8DED070A18
:10225000B0EE000A2AEE000A20EE2A0A8DED060AE8
:1022600029EE090A8DED0A0A29EE29CA69EE0ACA81
:1022700029EE2A0A8DED020A29EEA9DA29EE8A0A48
:102280008DED010A69EEAADA2AEE0AEA2AEE2A0A96
:102290008DED000A2AEEAAFA28EEA80A08EE080A2E
:1022A000DDED190A9DED191A00EE810A10EE100AF3
:1022B000FFF7F6FD41EC100B03F0B8F851EC100BF2
:1022C000FFF7A6FD0EEE900AF5EE40EAF1EE10FAE9
:1022D00000F07284B7EE000AC0EE2EEA68EEAE8A15
:1022E00028EE2E8A9DED190A20EE2E0A8DED190A90
:1022F000B0EE000A29EE000ADDED1D0A20EE200AEC
:102300008DED120AB0EE000A29EE000ADDED1E0A7C
:1023100020EE200A8DED110AB0EE000A29EE000A27
:10232000DDED1F0A20EE200A8DED100AB0EE000A46
:1023300029EE800ADDED1D0A20EE200A8DED0F0A40
:102340009DED1D0ADDED0A0A20EE200ADDED110AE1
:1023500000EEEA0ADDED100A00EE8A0ADDED1D0A44
:1023600000EE8D0ADDED090A9DED1E1A60EE810A70
:1023700000EE8A0ADDED090A9DED1F1A60EE810A62
:1023800000EEAA0ADDED1D0A00EECE0ADDED1D0A03
:1023900000EECF0A8DED140A9DED120A20EE2A0AF6
:1023A000DDED1E0A9DED0A1A00EE810ADDED100A30
:1023B00000EEE90ADDED0F0A00EE8A0ADDED1E0AE5
:1023C00000EECD0ADDED1E0A00EE8E0ADDED080AF4
:1023D0009DED1F1A60EE810A00EEAA0ADDED1E0ACD
:1023E00000EECF0A8DED130A9DED140ADDED140AFF
:1023F00020EE200ADDED130A9DED131A00EE810A8E
:1024000010EE100AFFF74CFD41EC100B03F00EF834
:1024100051EC100BFFF7FCFC0BEE100A9DED120ABD
:10242000B1EE400A20EE0A0ADDED110A00EEA90A1B
:10243000DDED1F0A9DED0A1A00EE810ADDED0F0A9F
:1024400000EEAA0ADDED1F0A00EECD0ADDED080A56
:102450009DED1E1A60EE810A00EEAA0ADDED1F0A4C
:1024600000EECE0ADDED1F0A00EE8F0AF0EE40BA54
:10247000B0EE000A2BEE000A8DED0E0AB0EE000A57
:102480002BEE800A8DED0D0AB0EE000A2DEE800ACB
:10249000DDED070A30EE600A30EE680ADDED080A6D
:1024A000F1EE600A20EE800AF0EE000A9DED061AB9
:1024B0000CEE201A71EE480A9DED091A00EE810A11
:1024C0006BEE8A0AB6EE001A31EE4E1A31EE4F1A52
:1024D00021EE0B1A7DEEEC1A01EEAB1ADDED1D1AA2
:1024E00031EEC11A00EE810AF1EE4B0A60EEAA0A43
:1024F0004BEEA90A9DED011ADDED021A31EE611ACB
:1025000021EE0B1ADDED001A7CEE211A01EEAB1A5A
:10251000DDED1E1A31EE611A00EE810A6BEE0A0A39
:102520003CEEAD1A21EE0B1AF6EE001A71EECD1A42
:1025300071EECE1A01EEAB1ADDED1F1A31EE611A03
:1025400000EE810A8DED050AB0EE000A2DEE800A3C
:10255000DDED070A30EE600A30EE680ADDED0B0AA9
:1025600020EE200AF0EE000A9DED061A0CEE201A6D
:1025700071EE480A9DED0C1A00EE810AF1EE000A98
:1025800069EEA00AB0EE001A2EEE011AF0EE001A63
:10259000B7EE002A0DEE612A31EE421ADDED191A6E
:1025A00031EE811A00EE810A6BEEAA0AB6EE001A2D
:1025B00031EE4E1A31EE4F1A21EE0B1A7DEEEC1A67
:1025C00001EEAB1ADDED1D1A31EE611A00EE810A43
:1025D0006BEE0A0A4BEE890A9DED011ADDED021A37
:1025E00031EE611A21EE0B1ADDED001A7CEE211A94
:1025F00001EEAB1ADDED1E1A31EE611A00EE810A12
:102600006BEE2A0A9DED0D1A41EE690A3CEEAD1AF9
:1026100021EE0B1AF6EE001A71EECD1A71EECE1AFB
:1026200001EEAB1ADDED1F1A31EE611A00EE810AE0
:102630008DED040AB0EE000A2DEE800ADDED070AEA
:1026400030EE600A30EE680ADDED0C0AF1EE600A49
:1026500020EE800AF0EE000A9DED061A0CEE201A1C
:1026600071EE480A9DED0B1A00EE810AF1EE000AA8
:102670006AEE200AB0EE001A2EEE011AF0EE001AF1
:10268000B7EE002A0DEE612A31EE421ADDED191A7D
:1026900031EE811A00EE810ADDED0E0AF1EE600ADC
:1026A00060EE8A0A4BEEC90AB6EE001A31EE4E1AF7
:1026B00031EE4F1A21EE0B1A7DEEEC1A01EEAB1A39
:1026C000DDED1D1A31EE611A00EE810A6BEE290A6A
:1026D0004BEEAA0A9DED011ADDED021A31EE611AE8
:1026E00021EE0B1ADDED001A7CEE211A01EEAB1A79
:1026F000DDED1E1A31EE611A00EE810A6BEE090A59
:102700009DED0D1A41EE4A0A3CEEAD1A21EE0B1A70
:10271000F6EE001A71EECD1A71EECE1A01EEAB1A7A
:10272000DDED1F1A31EE611A00EE810A8DED030A0C
:10273000B0EE000A2DEE800ADDED070A30EE600AE9
:1027400030EE680ADDED090A20EE200AF0EE000AFC
:102750009DED061A0CEE201A71EE480A9DED081A3E
:1027600000EE810ADDED0E0AF1EE600A60EEAA0AC3
:102770004BEEA90AB6EE001A31EE4E1A31EE4F1AA0
:1027800021EE0B1A7DEEEC1A01EEAB1ADDED1D1AEF
:1027900031EE611A00EE810AF1EE4B0A60EE890A11
:1027A0004BEE8A0A9DED011ADDED021A31EE611A37
:1027B00021EE0B1ADDED001A7CEE211A01EEAB1AA8
:1027C000DDED1E1A31EE611A00EE810A6BEE290A68
:1027D0003CEEAD1A21EE0B1AF6EE001A71EECD1A90
:1027E00071EECE1A01EEAB1ADDED1F1A31EE611A51
:1027F00000EE810AF0EE40FA9DED050ADDED050AD6
:1028000020EE200ADDED040A9DED041A00EE810A97
:10281000DDED030A9DED031A00EE810A0FEEAF0A0B
:1028200010EE100AFFF73CFB41EC100B02F0FEFD2E
:1028300051EC100BFFF7ECFA0EEE900AB7EE000A1F
:10284000C0EE2EEA9DED050A20EE2E0A8DED050A5A
:102850009DED040A20EE2E0A8DED040A9DED030A7B
:1028600020EE2E0A8DED030A6FEEAEFAB1EE690A84
:10287000DDED1A0A20EE200ADDED1B0A0AEE600AE1
:10288000DDED1C0A0AEEE00AF6EE000A20EE200A50
:1028900010EE100AFFF704FB04000D009FEDCB0BB8
:1028A00002F0C4FD53EC102B5FF00050DFF82C1346
:1028B000FFF7B0F85FF00052DFF82433FFF7AAF813
:1028C00006000F000598FFF7EBFA32003B00FFF718
:1028D000A1F802000B002000290002F027FEFFF7FC
:1028E00097FA18909DED1A0A29EE000ADDED1C0AF0
:1028F0000AEE200ADDED1B0A0AEEE00AF6EE000AF7
:1029000020EE200A10EE100AFFF7CAFA04000D00AC
:102910009FEDAE0B02F08AFD53EC102B5FF00050E0
:10292000DFF8B812FFF776F85FF00052DFF8B03248
:10293000FFF770F806000F000498FFF7B1FA3200B5
:102940003B00FFF767F802000B002000290002F0AF
:10295000EDFDFFF75DFA17909DED1B0A29EE000AC9
:10296000DDED1C0A09EEE00ADDED1A0A0AEEA00A06
:10297000F6EE000A20EE200A10EE100AFFF790FA99
:1029800004000D009FED910B02F050FD53EC102B55
:102990005FF00050DFF84412FFF73CF85FF00052A0
:1029A000DFF83C32FFF736F806000F000398FFF718
:1029B00077FA32003B00FFF72DF802000B002000F1
:1029C000290002F0B3FDFFF723FA16909DED1C0AD3
:1029D00029EE000ADDED1B0A09EEA00ADDED1A0A58
:1029E0000AEE600AF6EE000A20EE200A10EE100A47
:1029F000FFF756FA04000D009FED740B02F016FD70
:102A000053EC102B5FF00050DFF8D011FFF702F805
:102A10005FF00052DFF8C831FEF7FCFF06000F0040
:102A20001FEE900AFFF73CFA32003B00FEF7F2FF80
:102A300002000B002000290002F078FDFFF7E8F902
:102A400015909DED180ADFF89C01D0ED000A00EE0C
:102A5000209A9DED170ADFF88C01D0ED000A40EEB8
:102A6000209A9DED160ADFF87C01D0ED000A00EEF9
:102A700020AA9DED150ADFF86C01D0ED000A40EEAA
:102A800020AA29EE090A09EEA90A0AEE0A0A0AEEA4
:102A9000AA0A10EE100AFFF703FA41EC100B02F03D
:102AA000C5FC51EC100BFFF7B3F90EEE900AB7EE30
:102AB000000AC0EE2EEA29EE2E0ADFF81C0180ED96
:102AC000000A29EEAE0ADFF8100180ED010A2AEEB5
:102AD0002E0ADFF8040180ED020A2AEEAE0ADFF8C2
:102AE000F80080ED030AB0EE000AF7EE000A4EEEA1
:102AF000400AB0EE000A4FEE400A3348C0ED000A2B
:102B00009DED010ADDED020A30EE600AF0EE000AEA
:102B100020EE200A2C4880ED010A3DEEAC0AF0EED2
:102B2000000A20EE200A284880ED020A9DED010AE5
:102B3000DDED020A30EE200AF0EE000A20EE200A57
:102B4000214880ED030AB0EE000AF7EE000A4DEED0
:102B5000400AB0EE000A4FEE400A1B48C0ED040ADE
:102B60009DED000A30EE4C0AF0EE000A20EE200A3D
:102B7000154880ED050A3DEEEC0AF0EE000A20EE65
:102B8000200A114880ED060A9DED000A30EE0C0A7D
:102B9000F0EE000A20EE200A0B4880ED070AB0EEA6
:102BA000000AF7EE000A4DEE400AB0EE000A4EEEC3
:102BB000400A0548C0ED080A20B0BDEC108BF1BDFD
:102BC0000C2F0020102F0020482C002000000000B7
:102BD0000000E83F082F002028210020FF210940A5
:102BE000C771AC3F3821002081B0F0EE400AB6EE4C
:102BF000000A20EE801AB0EE600A8DED000A0A4845
:102C00000099B0EB61000090DDED001AB0EE610AB2
:102C100061EE001AB7EE082A01EEC02A22EE000A81
:102C200001B0704700000000DF59375F01005FF01E
:102C3000A04070472DE9F14181B00E001700984681
:102C4000089C099D01A8FFF7F1FFF6B2FFB256EA12
:102C500047015FFA88F851EA8801E4B251EA042199
:102C6000EDB251EA0541019A00EB8202C2F8001769
:102C7000BDE8F3811CB50400002001900020009005
:102C80000023012201212000FFF7D4FF13BD11B55D
:102C900081B001A8FFF7CAFF04000120019910FAD2
:102CA00001F1200000F01CF813BD11B581B001A89E
:102CB000FFF7BCFF04000120019910FA01F1200088
:102CC00000F011F813BD38B504000D00002D03D13C
:102CD0002000FFF7EAFF02E02000FFF7D8FF31BD38
:102CE000C0F808157047C0F80C1570473EB5684627
:102CF00025492CC92CC00C390C3824480088ADF863
:102D0000060000226946224802F006FE0400250063
:102D1000002D02D02800FEF741FB64201D490880E9
:102D200064201C494880022301221B49184802F0F4
:102D300082FE37BDC0B250F40041164A1180704780
:102D4000C0B250F40041134A5180704780B5002052
:102D5000FFF7F0FF0020FFF7F3FF01210C4802F01E
:102D6000B3FE0B4802F02CFE0220FFF783FF002188
:102D70000220FFF7A8FF0320FFF77CFF00210320BC
:102D8000FFF7A1FF01BD0000688D0200BE13020025
:102D900054210020F82E0020388D02008A8882827B
:102DA00070474FF6FF728282704770B504000D00C5
:102DB000AE1D3088218A88420ED1708902280BD13D
:102DC00016F10C0002F01EFF002802D00120A075B1
:102DD0000FE00020A0750CE03088A188884208D15F
:102DE000A069002805D0728916F10C012000A369A2
:102DF000984770BD2DE9F24F92B004000320049073
:102E00000020039001AD039A0499280002F002FF0C
:102E10009DF8040010F0F00050F001008DF804005F
:102E20009DF8040010F00F0050F010008DF8040021
:102E30009DF8050010F0F00050F001008DF805003D
:102E40009DF8050010F00F0050F010008DF80500FF
:102E50009DF8060010F0F90050F002008DF8060011
:102E60001C2500260AAF32002900380002F0D2FEED
:102E70009DF8280050F010008DF8280000200B90DD
:102E800000200D9000200E9001A80F9000201090BF
:102E900020788DF80A000320ADF8080003275FF0C2
:102EA0000008E94642463900484602F0B3FE9DF864
:102EB000000010F0F00050F001008DF800009DF8C7
:102EC000000010F00F0050F010008DF800009DF889
:102ED000010010F0F00050F001008DF801009DF8A5
:102EE000010010F00F0050F010008DF801009DF867
:102EF000020010F0F90050F002008DF802009DF879
:102F0000020010F0F7008DF802009DF8020010F0AA
:102F1000EF008DF802009DF8020050F001008DF8DE
:102F200002005FF014095FF0000A0DF1140B524625
:102F30004946584602F06EFE02A805906846069083
:102F40000120ADF81C000020ADF81E001420ADF8E3
:102F5000200014F10C0305AA0AA96088A2DF13B0AF
:102F6000BDE8F08F2DE9F24F8EB004001C2500263D
:102F700007AF32002900380002F04CFE9DF81C001B
:102F800010F0F7008DF81C009DF81C0050F00400B4
:102F90008DF81C000020089000200A9000200B9063
:102FA00000200C9000200D9020788DF80600022063
:102FB000ADF8040003275FF00008E94642463900F7
:102FC000484602F027FE9DF8000010F0F00050F097
:102FD00001008DF800009DF8000010F00F0050F087
:102FE00010008DF800009DF8010010F0F00050F086
:102FF00001008DF801009DF8010010F00F0050F065
:1030000010008DF801009DF8020010F0F90050F05A
:1030100002008DF802009DF8020010F0F7008DF814
:1030200002009DF8020010F0EF008DF802009DF8FC
:10303000020050F001008DF802005FF014095FF00B
:10304000000A0DF1080B52464946584602F0E2FDCF
:1030500001A80290684603900120ADF810000020FE
:10306000ADF812001420ADF81400231D02AA07A920
:103070006088A2DF0FB0BDE8F08F38B504000D0006
:10308000002C01D0002D00D116E02888102804D093
:10309000112807D050280AD00EE029002000FFF7A1
:1030A0007DFE09E029002000FFF77BFE04E02900F7
:1030B0002000FFF77AFEFFE731BDF0B585B00400D0
:1030C0000D0020480FC801AF87E80F00002C01D188
:1030D0000E2034E0002D01D10E2030E04FF6FF70BD
:1030E000A0822868A0610020A075210001A863DFEC
:1030F0000600002E01D0300021E020788DF802007B
:103100000120ADF80000A21C69460120A0DF0600E6
:10311000002E01D0300012E029002000FFF76AFEE7
:103120000600002E01D0300009E029002000FFF742
:1031300019FF0600002E01D0300000E0002005B08D
:10314000F0BD0000288D02002DE9F44185B0040097
:103150000D00002C01D10E2023E0A08A4FF6FF7154
:10316000884202D0A07D002801D1082019E0BDF8D6
:103170001400152801DB072013E010260027E8467D
:103180003A003100404602F045FDA089ADF800004C
:10319000039505A8029001208DF802006946A08AD7
:1031A000A6DF06B0BDE8F081012110F01F029140BA
:1031B000114A40B2430942F823107047012110F030
:1031C0001F0291400D4A40B2430942F82310704754
:1031D00010B440B2002808D54A01094B40B210F0A3
:1031E0000F04234403F8042C03E04A01054B40B2CA
:1031F0001A5410BC7047000000E100E080E200E0DB
:1032000018ED00E000E400E038B504000D00EDB278
:103210002900200040B2FFF7DBFF200040B2FFF79B
:10322000CDFF200040B2FFF7BFFF31BDBFF34F8F8E
:103230000548006810F4E06004490843024908604A
:10324000BFF34F8F00BFFDE70CED00E00400FA056F
:1032500070B504000D001600FFF7E8FF70BDFEE733
:1032600010B50400200000B200F019F80068012831
:1032700001D1012000E00020C0B210BD10B582B025
:103280000400200000B200F00AF8002101602000D4
:1032900000B200F004F800680090009813BD00B27E
:1032A00000F1804010F5C0407047DFF8B4170860A7
:1032B0007047DFF8B01708607047DFF8A417096897
:1032C00008407047DFF8A01751F8201051F00101B5
:1032D000DFF8942742F820107047DFF88C1751F878
:1032E000201049084900DFF8802742F82010704775
:1032F00030B4DFF8743753F82030DFF870472340DC
:10330000DFF8644744F82030DFF85C3753F82030AA
:103310000C0214F4F854D2B2150415F440352C43C1
:103320002343DFF8444744F8203030BC7047DFF8CF
:10333000381751F82000C0F304207047DFF8281731
:1033400051F82000000C10F0030070470021DFF856
:10335000182742F82010704701005FF0A040704726
:103360002DE9F14181B00E0017009846089C099D97
:1033700001A8FFF7F1FFF6B2FFB256EA47015FFA84
:1033800088F851EA8801E4B251EA0421EDB251EA29
:103390000541019A00EB8202C2F80017BDE8F381F3
:1033A00030B583B004000D00002001900020009093
:1033B0002B00DBB2002200212000FFF7D1FF37BD38
:1033C0001CB5040000200190002000900023012281
:1033D00000212000FFF7C4FF13BD01B56846FFF7C9
:1033E000BBFF009900EB8101D1F8001731F0020119
:1033F000009A00EB8202C2F8001701BD11B581B03E
:103400000C0001A8FFF7A8FF019900EB8101D1F89A
:10341000001731F44031019A00EB8202C2F8001724
:10342000019900EB8101D1F80017E4B251EA04419F
:10343000019A00EB8202C2F8001713BD11B581B0EA
:1034400001A8FFF789FF0400200000F012F801999D
:10345000C84010F0010016BD01B56846FFF77CFFBB
:10346000009900EB8100D0F80007000C10F0030079
:1034700002BDD0F810057047F8B504000D00160025
:103480006846DFF8EC150A680260270028198742B1
:1034900008D2684650F82700FFF7EBFF3060361D72
:1034A0007F1CF3E7F1BDC20810F00700012313FAF7
:1034B00000F08A5C1040704710B4C20810F007009A
:1034C0008B5C0124844023438B5410BC7047DFF88D
:1034D000A415014491F93010002908D4DFF894159F
:1034E000084490F93000082801DA012000E00020AB
:1034F000002801D0012000E00020C0B27047DFF8B2
:103500007415084490F93000082801DB012000E020
:103510000020C0B27047DFF85C15084490F9300015
:10352000002801D4012000E00020C0B2704710B490
:10353000DFF84045044484F83010DFF8384544F89B
:103540002120DBB2002B04D1DFF828450C4484F89D
:10355000480010BC70475FF0FF31DFF818250244C7
:1035600082F830107047DFF80C15084490F93000ED
:103570007047DFF8001551F8200070472DE9F0473B
:1035800004000D0016005FF0FF37F6B2002E02D0E7
:103590005FF0000901E05FF00809F6B2002E02D0EA
:1035A0005FF0080A01E05FF00C0AC846D04514D26B
:1035B000DFF8C00450F828005FF0FF31884209D1DD
:1035C0003300DBB22A0041462000FFF7B0FF40463F
:1035D000070002E018F10108E8E7380040B2BDE852
:1035E000F0875FF0FF31DFF88C24C0B242F8201082
:1035F000C0B2082807DB5FF0FF31DFF87824C0B2E3
:10360000024482F84810704738B5DFF8680490F833
:103610005400002803D008200400200029E00020E6
:103620000500EDB2202D05DAEDB22800FFF793FF7B
:103630006D1CF6E700200500EDB20C2D05DA280020
:10364000C0B2FFF7CEFF6D1CF6E707210620FFF79B
:10365000DBFD4FF4BE70FFF711FE5FF00040FFF797
:1036600024FE0120DFF80C1481F85400002004002F
:10367000200032BD2DE9F04104000D0016000027A6
:103680002000FFF748FF002802D00820070035E09F
:10369000EA7831002000FFF771FF80464FFA88F882
:1036A00018F1010F28D0A878002803D02000FFF7D8
:1036B00094FE03E069782000FFF772FEE8780028A6
:1036C00007D02A7821004FFA88F84046FFF710FE0D
:1036D00014E0DFF8A0034FFA88F8404490F848005F
:1036E00095F9001050EA8110DFF888134FFA88F836
:1036F000414481F8480001E0042007003800BDE89B
:10370000F0812DE9F04104000D002000FFF7F7FEE5
:10371000002827D02000FFF726FFDFF8581340B21B
:10372000084490F848603000C0B28709FFB2032F08
:103730000AD12000FFF782FE002802D05FF00308C4
:103740000AE05FF0020807E0FFB2012F02D15FF04C
:10375000020801E05FF003084146C9B22000FFF70C
:103760004DFE23E02000FFF7B2FE00281ED020000F
:10377000FFF7F9FE0600B00010F580773000FFF784
:10378000A1FD380000B2FFF779FDEDB2002D0DD09C
:103790002000FFF7E8FE40B2FFF7EBFE8046404610
:1037A000002803D00120B040FFF77FFDBDE8F08185
:1037B00038B504002000FFF7A2FE002804D0002145
:1037C0002000FFF71BFE0FE02000FFF780FE00281F
:1037D0000AD02000FFF7C7FE05002800FFF77DFD97
:1037E0000120A840FFF765FD31BD10B504002000A1
:1037F000FFF7DEFF2000FFF76AFE002805D020005B
:10380000FFF7B1FE40B2FFF7A1FD2000FFF7D8FDA2
:103810002000FFF7A8FEC0B2FFF7E3FE2000FFF78D
:103820009AFE10BD2DE9F04F87B0002402A80021B8
:1038300001604FF48070ADF8020001250020060001
:10384000082E17D2BDF90200FFF70AFD002809D0A3
:103850002800FFF732FD002804D0BDF90200FFF771
:103860000DFD2C436D00BDF80200001DADF80200F7
:10387000761CE5E74FF4BE70FFF7F2FC00280AD093
:103880004FF4BE70FFF7FAFC54F0004402AA012185
:103890000020FFF7F1FD20061DD0012005000020CB
:1038A0000600082E17D2254212D03000FFF73FFD48
:1038B00007003000FFF742FD80463000FFF759FE59
:1038C00081464846002803D04146C9B23800C8475F
:1038D0006D00761CE5E7002C40F1BE80002706A8AD
:1038E0000021016000208046B8F1000F07D15FF091
:1038F000FF3005A941F8280018F10108F4E700207D
:10390000070000200600042E69D25A48304490F87F
:1039100050008DF801009DF8010030F0C0000190CA
:103920005448304490F9500010F1010F55D005A9CA
:103930000198FFF7B8FD00284FD09DF80100C0B2F4
:1039400080098DF800000198FFF70DFE40B2FFF7E7
:1039500010FE81464846002803D19DF80000032848
:103960003BD19DF80000032803D106A90198FFF779
:10397000A3FD0198FFF770FD824602A90198FFF7A9
:1039800092FD04900498002804D05FFA8AFABAF1F4
:10399000020F07D0049800281FD15FFA8AFABAF103
:1039A000030F1AD19DF8000003280FD15FFA8AFA9D
:1039B000BAF1020F02D15FF0030B01E05FF0020BDE
:1039C0005946C9B20198FFF719FD7F1C48460028E7
:1039D00003D09DF800100198C847761C93E7FFB20A
:1039E000002F35D05FF0010903AA01210020FFF765
:1039F00043FD00208046B8F1000F0DD103A850F818
:103A0000280002A951F82810884202D000208146DF
:103A100002E018F10108EEE75FFA89F9B9F1000F49
:103A200002D00020070013E000208046B8F1000F0C
:103A30000ED103A850F8280002A941F8280006A8D2
:103A400050F8280005A941F8280018F10108EDE711
:103A5000FFB2002F7FF453AF07B0BDE8F08F000036
:103A6000046300400863004010650040FFE0FCFF75
:103A7000BC8D0200C02A00200121DFF80C25C0B255
:103A800011507047DFF8001500B20858002801D027
:103A9000012000E00020C0B2704781B00021DFF8B3
:103AA000E82400B21150DFF8E01400B20958009188
:103AB000009901B0704710B4D2B2DFF8D034C0B270
:103AC000040123445A60C9B2DFF8C034C0B2040113
:103AD000195110BC7047DFF8B81408607047DFF860
:103AE000B414086070470120DFF8AC140860704718
:103AF000DFF8A8241060DFF8A82411607047C0B276
:103B0000DFF8A01408607047C0B2DFF89C140860AA
:103B1000704770B58AB04FF48270FFF7B3FF00288A
:103B20004ED04FF48270FFF7B8FFDFF8800490F8B2
:103B30002E00DFF8781491F82F1091F0010108425F
:103B40003ED100208DF80C00DFF86004406804903E
:103B5000DFF858040089ADF81400DFF85004C0689D
:103B6000002804D10020DFF8441408741EE0DFF8B8
:103B70003C04008BDFF834144883DFF83004C0685D
:103B8000DFF828144860DFF82404008BDFF81C14E9
:103B900008810020DFF81414C860DFF8100490F8E2
:103BA0002E00002802D10020FFF766FF03A8DFF8EF
:103BB000FC13096888470020DFF8F01381F82F0014
:103BC000DFF8E80390F82E0000286DD04FF48070E5
:103BD000FFF758FF002867D04FF48070FFF75DFFB4
:103BE000DFF8C80390F82D00DFF8C013498B80B2CE
:103BF00088421DD2DFF8B403408BDFF8B01391F890
:103C00002D10401ADFF8A4134883DFF8A00390F8C2
:103C10002D10DFF898034068DFF890231289DFF851
:103C20008C335B8BD21A00EB4200FFF761FF34E06C
:103C3000DFF87803408BDFF8741391F82D1089B208
:103C4000884217D1DFF86403C068002812D0012031
:103C5000DFF8581381F82F000020DFF85013488355
:103C6000DFF8480390F82D10DFF84003C068FFF735
:103C70003FFF12E0DFF83403408BDFF8301391F898
:103C80002D1089B2884208D10120DFF8201381F875
:103C90002F000020DFF8141348834FF48270FFF7E1
:103CA000FCFE0420FFF7E8FE4FF48870FFF7EAFE01
:103CB00000280FD04FF48870FFF7EFFE0020DFF8E8
:103CC000EC12087402208DF8180006A8DFF8DC1248
:103CD000096888474FF48A70FFF7D4FE002808D09F
:103CE0004FF48A70FFF7D9FE0020DFF8C012087485
:103CF00031E0DFF8B8024669002E2CD0B6FA86F023
:103D000004005FF00040E0408643A00010F58C7096
:103D10000500280000B2FFF7B5FE0028ECD028000F
:103D200000B2FFF7BAFE01208DF800002DB2B5F504
:103D30008C70C0088DF804002800C0B2800810F014
:103D4000010090F001008DF805006846DFF85C1274
:103D500009688847D0E70AB070BD70B504000D004F
:103D6000DFF8480290F82C00002803D00820060055
:103D700030004DE02800002803D107200600300065
:103D800046E0002C02D1DFF828020400DFF81C0214
:103D900005602078FFF7B3FE6078FFF7B5FEE078A6
:103DA000DFF8081281F82E000120DFF8001281F8F8
:103DB0002C000020DFF8F41108740020DFF8EC116B
:103DC00081F82D000020DFF8E41148610020DFF8C1
:103DD000DC1181F82F007FF00040FFF780FE4FF4E8
:103DE0008270FFF75AFEA1780720FFF70DFA022034
:103DF000FFF771FEDFF8B40190F82E00002802D022
:103E00000120FFF768FEFFF76EFE0020060030007D
:103E100070BD70B504000D00DFF89001007C002833
:103E200003D01120060030002CE0DFF88001E4B25E
:103E300000EB4400007F002808D1DFF8700190F803
:103E40002D00401CDFF8641181F82D00E879DFF8BF
:103E50005C11E4B201EB44010877287ADFF84C11D9
:103E6000E4B201EB4401487729002000C0B201F020
:103E700013FF2A7AE9792000C0B2FFF71CFE002068
:103E80000600300070BD2DE9F04104000D00DFF8A0
:103E90001C01007C002803D011200600300070E0D7
:103EA0000120DFF8081108740320FFF718FE012134
:103EB0002800FFF71DFE3D4890F82D0002280BDB7F
:103EC0000027FFB2082F07DA002200213800C0B215
:103ED000FFF7F1FD7F1CF4E73448E4B200EB440047
:103EE000427F3248E4B200EB4400017F2000C0B2C0
:103EF000FFF7E1FD0020FFF7BFFD0420FFF7BCFD49
:103F000042F210774FF48270FFF7BCFD002803D116
:103F1000002F01D07F1EF5E74FF48270FFF7BDFD43
:103F2000224890F82D00022819DB5FF000085FFAA4
:103F300088F8B8F1080F12DA1C485FFA88F800EB2D
:103F40004800427F19485FFA88F800EB4800017F7B
:103F50004046C0B2FFF7AFFD18F10108E7E713488C
:103F600090F82E00002803D00320FFF7B4FD02E0F4
:103F70000220FFF7B0FD00200C4908740020060065
:103F80003000BDE8F0810000007000401075004076
:103F90000473004008730040007500402C76004018
:103FA00030760040F0750040F4750040E82B0020AA
:103FB000C08D0200DFF84405006810F1010F05D143
:103FC000DFF83C0500684FF48051484370472DE905
:103FD000FF4104000D0010260027E8463A0031009A
:103FE000404601F017FE207A012802D0022809D0AD
:103FF00014E000208DF8000020690290A08AADF83E
:104000000C000BE001208DF80000A089E189401A26
:10401000ADF80800A089ADF80A00FFE760680190DC
:104020002900C9B26846226892689047BDE8FF81BE
:10403000010000290BD0DFF8CC040068814206D3D0
:10404000DFF8C4040068814201D2012000E00020B2
:10405000704718B40300988AD98A401AB0F5806F67
:1040600004DA988AD98A401A020002E04FF480608C
:10407000020092B2D868D98A00EB81011869DC8A03
:1040800000EB840029DF12BC70470100888928DF1B
:104090007047DFF87804406E401EDFF87014486601
:1040A000DFF86804406E002807D1DFF86404007868
:1040B00010F0FD00DFF858140870DFF85004006EAF
:1040C000401CDFF848140866DFF84004006E04283E
:1040D00003D10020DFF834140866704738B5DFF8E4
:1040E0002C04DFF82814096E1822514300EB010557
:1040F000DFF81804406E00282AD0287A012802D060
:10410000022805D009E02800FFF7A3FF040006E01D
:104110002800FFF7BAFF040001E009200400112C79
:1041200010D1DFF8EC03007810F0FD00DFF8E013A9
:104130000870DFF8DC03007850F00400DFF8D013DB
:10414000087005E0002C03D009212800FFF73FFF8D
:1041500031BD80B5DFF8B80300780621084209D1E7
:10416000DFF8AC03007850F00200DFF8A413087009
:10417000FFF7B4FF01BD38B504000020DFF8941349
:104180000870207A012802D002281CD02CE0A08AD6
:10419000E18A401AB0F5806F04DAA08AE18A401AF9
:1041A000050002E04FF480600500E08A2818E082F4
:1041B000E08AA18A884205D100212000FFF707FF8D
:1041C000FFF767FF10E0A089401CA081E089401C38
:1041D000E081E089218A884205D100212000FFF793
:1041E000F6FEFFF756FFFFE731BD10B50400DFF81C
:1041F00024030078401CDFF81C130870DFF8140358
:104200000078042809DB0020DFF808130870082173
:104210002000FFF7DCFEFFF73CFF10BD2DE9F04169
:104220000400BA48406E042801D100202BE0B748B2
:10423000006EB649496E0818042805D2B348006ECE
:10424000B249496E0D1805E0B048006EAF49496E9D
:104250000818051FAD48406E401CAC49486618263A
:104260000027AA48182101FB05F100EB01083A00DC
:104270003100404601F0CEFCA448182101FB05F1B5
:10428000084420600120BDE8F0812DE9F041A248FA
:10429000A249401A0409A048A049401A0509FFF79D
:1042A00089FE01009A480078C00701D5002052E03D
:1042B0000020A0420CD2934A126812EB001213683D
:1042C000002B03D05368002B00D06D1E401CF0E77C
:1042D0000020A84238D28B4A126812EB0012002349
:1042E00006000027A7421DD2DFF818C2DCF800C084
:1042F0001CEB071CDCF800E0BEF1000F04D0DCF87A
:1043000004E0BEF1000F0BD19E469CF80D805FFAD1
:104310008EFEC64504D29CF80DE07346BE46764636
:104320007F1CDFE7774F3F68F6B217EB06173A00BE
:104330005160177BDFF8E8C10CFB07F70F441760EB
:1043400012681100401CC4E77148007850F0010069
:104350006F4A10700020BDE8F0812DE9F04182B075
:1043600004000D0016001F00DDF82080684800786A
:10437000C00701D401203EE02000FFF759FE0028CD
:1043800001D1022037E0002E01D0002D01D1032001
:1043900031E016F00300002803D115F003000028D7
:1043A00001D0062027E02068854205D36068BFB2AF
:1043B00005EB8701884201D205201CE0BFB2002F27
:1043C00001D1042017E06846FFF728FF002801D13B
:1043D000072010E00098C0F80480009804600120D5
:1043E000009908720098C66000980561009887825D
:1043F000FFF7AFFE0020BDE8F681F8B504000D0020
:1044000016001F0042480078C00701D4012037E0A1
:104410002000FFF70DFE002801D1022030E0002D22
:1044200001D103202CE0280501D0062028E02068D7
:10443000854208D36068B6B24FF4805101FB06F1A3
:104440002944884201D205201AE0B6B2002E01D1DB
:10445000042015E06846FFF7E1FE002801D107209F
:104460000EE00098476000980460022000990872EE
:10447000280B0099888100980682FFF76AFE0020C9
:10448000F2BD0100002901D1032003E01F48406E66
:1044900008600020704738B504001C481B49096EAD
:1044A0001822514300EB01051948007880070DD50B
:1044B0002000022802D0032804D01BE02800FFF7C8
:1044C0005AFE17E02800FFF790FE13E0104800782E
:1044D00040070FD50E48007810F0FB000C4908701B
:1044E0000A48406E002805D00948007850F00200C4
:1044F00007490870FFF7F2FD31BD000014100010ED
:10450000140000104C21002050210020582A0020C7
:10451000F42F0020F52F0020DC210020CC210020EA
:1045200000F0FFFF62B38B0708D0521E11F8013B69
:1045300000F8013B00F024808B07F6D1830740F0A0
:10454000208000BF103A07D330B4B1E83810103AD9
:10455000A0E83810F9D230BC530724BFB1E80810E6
:10456000A0E8081044BF51F8043B40F8043BD207D0
:1045700024BF31F8022B20F8022B44BF0B780370C4
:104580007047083A07D3B1E80810083A40F8043BEE
:1045900040F804CBF7D25307E4E7FEE701005FF0F1
:1045A000A04070472DE9F14181B00E0017009846F8
:1045B000089C099D01A8FFF7F1FFF6B2FFB256EA89
:1045C00047015FFA88F851EA8801E4B251EA042110
:1045D000EDB251EA0541019A00EB8202C2F80017E0
:1045E000BDE8F38130B583B004000D0000200190D8
:1045F000002000902B00DBB2002200212000FFF7FA
:10460000D1FF37BD11B581B001A8FFF7C7FF040086
:10461000200000F005F80199C84010F0010016BD17
:10462000D0F810057047FEB501208DF800009DF808
:10463000000010F00F0050F010008DF8000009226B
:10464000DFF8F01668467CDF04002500002D02D05C
:104650002800FCF7A3FE0825002601AF3200290040
:10466000380001F0D7FA1020ADF804003C20ADF876
:1046700006000020ADF808004FF4C870ADF80A003D
:1046800001A87ADF04002700002F02D03800FCF7D1
:1046900085FE042077DF04002500002D02D02800CD
:1046A000FCF77CFEF7BD30B40123DFF88C462370A5
:1046B000002392B2934206D2CC5CDFF87C561D44B4
:1046C0006C765B1CF5E730BC7047F8B50425002616
:1046D0006F4632002900380001F09CFADFF85C06D2
:1046E00000906946DFF85806FEF7E7FC0400270053
:1046F000002F02D03800FCF751FEF1BD70B5040068
:10470000207800280BD13B21DFF83806008876DFBF
:1047100005002E00002E02D03000FCF73FFE70BDD9
:1047200010B504002000FCF739FE10BDF0B587B0CD
:104730001C2500266F4632002900380001F06AFA75
:10474000002000905FF4203001905FF47020029010
:1047500003208DF80C000020ADF80E0000208DF82D
:104760001000DFF8E4050590DFF8E00506906846E4
:1047700001F018FB04002700002F02D03800FCF7DE
:104780000DFE07B0F0BD38B5002000F0E6FC0400D7
:104790002500002D02D02800FCF700FE01F04AFCA5
:1047A00004002500002D02D02800FCF7F7FD32DFC1
:1047B00004002500002D02D02800FCF7EFFD31BDDC
:1047C00070B50400E4B2200000280CD003280DD1FD
:1047D000022000F0C2FC05002E00002E02D03000A6
:1047E000FCF7DCFD02E0FFF7CEFFFFE770BD70B520
:1047F00088B004002088012813D0022865D0102832
:1048000010D011281DD013282BD03B2847D0512879
:1048100066D0522834D0552800F09180562849D0CF
:1048200098E097E0072000F098FC05002E00002E8D
:1048300002D03000FCF7B2FDA088DFF80815088030
:1048400088E0002000F089FC05002E00002E02D038
:104850003000FCF7A3FD4FF6FF70DFF8E814088086
:1048600078E0002300228521DFF8D80400887FDF6C
:1048700005002E00002E02D03000FCF78FFD69E00D
:10488000002300220021DFF8BC040088A9DF050016
:104890002E00002E02D03000FCF780FD5AE01321DC
:1048A000A08876DF05002E00002E02D03000FCF735
:1048B00075FD4FE01321A08876DF05002E00002E45
:1048C00002D03000FCF76AFD44E00021A08867DFD9
:1048D00005002E00002E02D03000FCF75FFD39E00D
:1048E0006846A11D1022FFF71DFE9DF8000000285C
:1048F00024D09DF80800042807D09DF80800062859
:1049000003D09DF80800052818D19DF80000022862
:1049100003D102208DF8100002E001208DF8100074
:104920004FF4C170ADF8140004A9A088A8DF0500F9
:104930002E00002E02D03000FCF730FD0AE01721D7
:10494000A088ADDF05002E00002E02D03000FCF75D
:1049500025FDFFE708B070BD10B50400200001F090
:10496000EEFA2100DFF8D803FEF787FB2000FFF7FF
:104970003EFF200001F037FE200001F072FB10BD69
:1049800010B504002000FFF786FD10BD70B588B09B
:10499000DFF8BC030068009000235022DFF8B41356
:1049A000684601F073FF05002E00002E02D0300093
:1049B000FCF7F4FC01AA0121002001F0CCFF040067
:1049C0002600002E02D03000FCF7E8FC1720ADF8DE
:1049D000140001A801F0DEFF04002500002D02D024
:1049E0002800FCF7DBFCDFF8700301F08DFF04000A
:1049F0002500002D02D02800FCF7D0FCDFF85C0376
:104A000001F08CFF04002500002D02D02800FCF7E7
:104A1000C5FC08B070BD2DE9F04FA7B03C250026BD
:104A200018AF32002900380001F0F4F802208DF8A8
:104A3000600000208DF8620005208DF863003C279F
:104A40005FF000080DF1240942463900484601F0A4
:104A5000E1F80120ADF83400DFF804030E905FF0B8
:104A600020095FF0000A0DF1040B524649465846F2
:104A700001F0D0F801208DF80700402005901E209D
:104A8000069000200090B74B01AA09A918A801F0D0
:104A90001EFC0400A346BBF1000F02D05846FCF7F1
:104AA0007DFC27B0BDE8F08F3EDF704710B50400F5
:104AB000AD480088401CAC490880AC48007800280C
:104AC00009D1A9480088652805DB0120A74908709D
:104AD0000020FEF72FF9FBF76BFE0A20FFF792FD8F
:104AE000002821D1A248007800281DD1A1480078D3
:104AF000401CA04908709F4890F90000652803DB1E
:104B00007FF063009B4908709A4890F900000128E3
:104B100002DB9848007803E0964890F90000404294
:104B2000C0B2FEF70DF999E00A20FFF76BFD0028EF
:104B300008D00920FFF766FD002803D000208E4929
:104B400008708BE00A20FFF75DFD002800F08680EA
:104B50000920FFF757FD002840F0808001207649AA
:104B6000C87001208449087084480078401C83493B
:104B70000870824890F90000052807DB00207F4973
:104B800008707C480078401C7A490870794890F990
:104B90000000652803DB7FF06300764908707548E4
:104BA00090F90000012802DB7248007803E07148A8
:104BB00090F900004042C0B2FEF7C2F870480068A9
:104BC000B0F57A7F16DA6E480068401C6C490860C0
:104BD0006B480068B0F5FA7F40DD6A4800686A49B2
:104BE00091ED000ABDEEC00A10EE101A08186549D2
:104BF000086033E062480068B0F57A7F2ED16048E3
:104C00000068401C5E4908605E4800684FF4FA7115
:104C100090FBF1F05D490860002002280EDA0221C5
:104C20005A4A126890FBF1F301FB03F1091AC9001B
:104C300008310A4156490A54401CEEE710215548F4
:104C4000FDF7ADF9524800785249887350484078D2
:104C50005049C87310214F48FDF789F910BD38B588
:104C60004D4A01214D4802F009FB04002500002DAA
:104C700002D02800FCF792FB31BD38B5002242215A
:104C80004648006802F019FB04002500002D02D000
:104C90002800FCF783FB31BD38B54048006802F0BE
:104CA00035FB04002500002D02D02800FCF776FB20
:104CB00031BD70B500210A20FFF794FC00210920C6
:104CC000FFF790FCFEF712F86420FEF733F8FCF7CC
:104CD00087FDFFF7DAFA0023314A0521002002F0B0
:104CE00093FA05002E00002E02D03000FCF756FB90
:104CF000FFF74CFEFFF797FCFFF7E7FCFFF78BFE93
:104D0000FFF714FD032001F0B9FB04002600002E7C
:104D100002D03000FCF742FBFAF77EFBFCF74EF8BE
:104D2000FFF79DFFFCF735FEFFF7A7FFFFF7BCFE7F
:104D3000FCE70000748D020060210020A7460200FD
:104D4000A82D0020C8210020FD46020021470200B6
:104D5000B88D0200182B0020594902008149020039
:104D60005C210020C1470200D82F0020F62F002030
:104D7000FB2F0020F82F0020F72F0020F92F002014
:104D8000682F00206C2F0020442F0020702F00205F
:104D9000DA2F0020F02D0020AD4A0200B48D020071
:104DA000E029002001005FF0A040704711B581B0FC
