:020000040001F9
:10F00000E0290020998D0200C71B02001F1E02008C
:10F01000FF1E02006F320200AB450200000000003C
:10F02000000000000000000000000000AF5C0200D3
:10F030000B830200000000002D8D02004F8D0200A6
:10F04000938102005B8D02000F8C0200911302007D
:10F05000F98D0200FB8D020035380200233B0200CF
:10F06000FD8D0200FF8D0200018E0200038E020062
:10F07000058E0200078E0200098E02000B8E020030
:10F080000D8E0200F17202000F8E0200118E02003E
:10F090001D730200138E020065690200158E0200C6
:10F0A000178E0200198E02001B8E02001D8E0200B8
:10F0B000155C02001F8E020000000000000000002E
:10F0C000218E0200238E0200258E0200278E020070
:10F0D000298E02002B8E02002D8E020000000000FF
:10F0E0000000000000000000000000000000000020
:10F0F0000000000000000000000000000000000010
:10F1000000000000000000000000000000000000FF
:10F1100000000000000000000000000000000000EF
:10F40000DFF8FC1B0968491CDFF8F42B11600121AF
:10F41000DFF8F02B117070471FB5DFF8EC0B0FC849
:10F420006C4684E80F0014208DF8030011208DF83D
:10F43000020012208DF8010013208DF80000DFF883
:10F44000CC2B6946DFF8C80B01F03BFE0400002C12
:10F4500002D0200001F0AAFF1FBDF0B583B0040068
:10F460000D0016001F008DF8045030788DF805004F
:10F470000020DFF8901B087000200090002302227B
:10F4800001A9DFF88C0B01F098FEDFF8780B00780B
:10F490000028FAD00020FEBDF8B504000D001600CB
:10F4A0001F0055F08000DFF86C1B08700020DFF8AB
:10F4B000541B0870781CC0B20090DFF85C3B01223E
:10F4C000DFF8501BDFF8480B01F077FEBFB2012FC9
:10F4D00004D1DFF8300B00780028FAD0DFF8380BC1
:10F4E000407830700020F2BD80B50C23DFF82C2B63
:10F4F00022210020FFF7D0FF0020062812DADFF8D3
:10F50000181B01EB400189780902DFF80C2B02EB94
:10F510004002527851FA82F1DFF8042B22F81010E1
:10F52000401CEAE701BDF0EE401A90ED004AB0EE53
:10F53000442A91ED004A34EE204AF0EE442A32EE9D
:10F54000814A82EE844AF0EE443A31EEC24AF0EE4D
:10F55000424A44EE234AB0EE640AB7EE004A34EE63
:10F56000634A24EE224AB0EE443A81ED003A80ED3F
:10F57000000A7047DFF8A80AB0F9000000EE100A90
:10F58000B8EEC00ADFF89C0AD0ED000A30EE600A3F
:10F59000DFF8940AD0ED000A20EE200ADFF88C0A8A
:10F5A000D0ED000A20EE200ADFF8840A80ED000A80
:10F5B000DFF86C0AB0F9020000EE100AB8EEC00ADB
:10F5C000DFF8600AD0ED010A30EE600ADFF8580A71
:10F5D000D0ED000A20EE200ADFF8500AD0ED000A34
:10F5E00020EE200ADFF8480A80ED010ADFF8300A31
:10F5F000B0F9040000EE100AB8EEC00ADFF8240AE1
:10F60000D0ED020A30EE600ADFF81C0AD0ED000AE5
:10F6100020EE200ADFF8140AD0ED000A20EE200ABE
:10F62000DFF80C0A80ED020ADFF8F409B0F90600F1
:10F6300000EE100AB8EEC00ADFF8F809D0ED000AB3
:10F6400030EE600ADFF8F009D0ED000A20EE200A63
:10F65000DFF8E80980ED000ADFF8C409B0F9080016
:10F6600000EE100AB8EEC00ADFF8C809D0ED010AB2
:10F6700030EE600ADFF8C009D0ED000A20EE200A63
:10F68000DFF8B80980ED010ADFF89409B0F90A0043
:10F6900000EE100AB8EEC00ADFF89809D0ED020AB1
:10F6A00030EE600ADFF89009D0ED000A20EE200A63
:10F6B000DFF8880980ED020ADFF884090068002875
:10F6C00000F0A480DFF87C090068401CDFF87419A2
:10F6D0000860002003286EDADFF8441931F91010B1
:10F6E00000EE101AB8EEC00ADFF85C1901EB8001D9
:10F6F00081ED000ADFF82C1901EB800191ED000A81
:10F70000DFED410A30EE200ADFF83C1901EB800101
:10F71000D1ED000AB4EE600AF1EE10FA10D5DFF870
:10F72000041901EB800191ED000ADFED370A30EE9C
:10F73000200ADFF8141901EB800181ED000A24E0B2
:10F74000DFF8E01801EB800191ED000ADFEDE10A3E
:10F7500030EE200ADFF8F01801EB8001D1ED000A4D
:10F76000F4EE400AF1EE10FA0FD5DFF8B81801EB0D
:10F77000800191ED000ADFEDD70A30EE200ADFF8B4
:10F78000C81801EB800181ED000ADFF8C01801EB19
:10F79000800191ED000ADFF8B01801EB8001D1ED96
:10F7A000000A30EE200ADFF8A41801EB800181ED99
:10F7B000000A401C8EE7DFF88C08006840F6B9317B
:10F7C000884223DB0020DFF87C1808600020DFF887
:10F7D000701808600020032818DADFF8701801EBB1
:10F7E000800191ED000ADFEDBC0A80EE200ADFF80F
:10F7F000341801EB800181ED000ADFF85018002277
:10F8000041F82020401CE6E700004842DFF84008AD
:10F810000078002858D1DFF818084068DFF834185D
:10F820000860DFF80C08DFF8081891ED000AB1EE67
:10F83000400A80ED010ADFF8F807DFF818180968B8
:10F840000160DFF8EC078068DFF808180860DFF86F
:10F85000E007DFF8DC1791ED000AB1EE400A80ED19
:10F86000020ADFF8CC07DFF8EC1709680160DFF85F
:10F87000CC074068DFF8E0170860DFF8C007DFF862
:10F88000BC1791ED000AB1EE400A80ED010ADFF8E5
:10F89000AC07DFF8C41709680160DFF8A0078068CB
:10F8A000DFF8B4170860DFF89407DFF8901791EDE0
:10F8B000000AB1EE400A80ED020ADFF88007DFF8A7
:10F8C00098170968016004E1DFF8840700780128CF
:10F8D00040D1DFF85C078068DFF878170860DFF850
:10F8E0005007DFF84C1791ED000AB1EE400A80EDA9
:10F8F000020ADFF83C074068DFF834170860DFF8D9
:10F900003007DFF8501791ED000AB1EE400A80EDA4
:10F91000010ADFF828078068DFF83C170860DFF885
:10F920001C07DFF8181791ED000AB1EE400A80EDD0
:10F93000020ADFF808074068DFF800170860DFF800
:10F94000FC06DFF8141791ED000AB1EE400A80EDD5
:10F95000010ABEE0DFF8F806007802282CD1DFF8B3
:10F96000D0068068DFF8EC160860DFF8C406DFF820
:10F97000C01609688160DFF8B806DFF8D81691ED87
:10F98000000AB1EE400A80ED000ADFF8B006806898
:10F99000DFF8C4160860DFF8A406DFF8A0160968CF
:10F9A0008160DFF89806DFF8B01691ED000AB1EE3D
:10F9B000400A80ED000A8CE0DFF894060078032806
:10F9C0002CD1DFF86C068068DFF888160860DFF855
:10F9D0006006DFF85C1691ED000AB1EE400A80ED9A
:10F9E000020ADFF84C06DFF86C1609680160DFF8E0
:10F9F0004C068068DFF860160860DFF84006DFF824
:10FA00003C1691ED000AB1EE400A80ED020ADFF8E3
:10FA10002C06DFF84416096801605AE0DFF830066A
:10FA2000007804282CD1DFF808064068DFF8241697
:10FA30000860DFF8FC05DFF8F81591ED000AB1EE7B
:10FA4000400A80ED010ADFF8E805DFF808160968CA
:10FA50000160DFF8E8054068DFF8FC150860DFF8B2
:10FA6000DC05DFF8D81591ED000AB1EE400A80ED13
:10FA7000010ADFF8C805DFF8E0150968016028E031
:10FA8000DFF8CC050078052823D1DFF8A40540680D
:10FA9000DFF8C0150860DFF89805DFF894150968ED
:10FAA0004160DFF88C05DFF8AC1509680160DFF80C
:10FAB0008C054068DFF8A0150860DFF88005DFF8E6
:10FAC0007C1509684160DFF87405DFF88C1509685A
:10FAD00001607047000048C20000FA44DFF87C056E
:10FAE00090F9000000281AD1DFF8780590ED001A8F
:10FAF000B8EEC11AB4EE401AF1EE10FA0FD5DFF8E5
:10FB0000600590ED001AB8EEC11AB4EE601AF1EE7D
:10FB100010FA04D50120DFF84415087043E0DFF83F
:10FB20003C0590F90000012809D1F5EE400AF1EEFC
:10FB300010FA04D50020DFF82415087033E0DFF850
:10FB40001C0590F9000000281DD1DFF8180590ED84
:10FB5000001AB8EEC11AB4EE401AF1EE10FA12D53E
:10FB6000DFF8FC040068404201EE100AB8EEC11A4A
:10FB7000F4EE410AF1EE10FA05D55FF0FF30DFF840
:10FB8000DC1408700FE0DFF8D40490F9000010F1E5
:10FB9000010F08D1F5EE400AF1EE10FA03DD002066
:10FBA000DFF8B8140870DFF8B40490F90000DFF84B
:10FBB000B81491F9001088420ED0DFF8A004007844
:10FBC000DFF8A4140870DFF894040078DFF89414C8
:10FBD0000968484340B200E000207047010000205F
:10FBE000DFF8882492F90020012A11DBDFF8802455
:10FBF00092ED001AB8EEC11AB4EE401AF1EE10FA06
:10FC00001DD5BDEEC01ADFF8682482ED001A16E09B
:10FC1000DFF8582492F90020002A10D5DFF850248C
:10FC200092ED001AB8EEC11AB4EE401AF1EE10FAD5
:10FC300005D5BDEEC01ADFF8382482ED001ADFF8D2
:10FC40002C2492F90020002A1AD1DFF8182492ED12
:10FC5000001AB8EEC11AB4EE401AF1EE10FA0FD540
:10FC6000DFF8FC2392ED001AB8EEC11AB4EE601A68
:10FC7000F1EE10FA04D50122DFF8F0331A7059E0E2
:10FC8000DFF8E82392F90020012A13D1DFF8D0230E
:10FC90001268022392FBF3F201EE102AB8EEC11AA9
:10FCA000F4EE410AF1EE10FA04D50222DFF8BC337B
:10FCB0001A703FE0DFF8B42392F90020002A1DD12A
:10FCC000DFF8A02392ED001AB8EEC11AB4EE401A84
:10FCD000F1EE10FA12D5DFF888231268524201EED5
:10FCE000102AB8EEC11AF4EE410AF1EE10FA05D569
:10FCF0005FF0FF32DFF874331A701BE0DFF86C231B
:10FD000092F9002012F1010F14D1DFF85423126888
:10FD10005242022392FBF3F201EE102AB8EEC11A0E
:10FD2000B4EE601AF1EE10FA04D57FF00102DFF8AC
:10FD30003C331A70DFF8342392F90020022A06D0EF
:10FD4000DFF8282392F9002012F1020F17D1DFF813
:10FD50001C2392F90020022392FBF3F2DFF8103308
:10FD60001B685A4310000022DFF800331A7000228B
:10FD7000DFF8FC321A60DFF8FC2212680A6040B239
:10FD80007047DFF8F40290F9000000281AD1DFF87C
:10FD9000EC0290ED001AB8EEC11AB4EE401AF1EE82
:10FDA00010FA0FD5DFF8D80290ED001AB8EEC11A9C
:10FDB000B4EE601AF1EE10FA04D50120DFF8B812A3
:10FDC000087043E0DFF8B00290F90000012809D183
:10FDD000B5EE400AF1EE10FA04D50020DFF89812D3
:10FDE000087033E0DFF8900290F9000000281DD180
:10FDF000DFF888020068404201EE100AB8EEC11A2E
:10FE0000B4EE410AF1EE10FA10D5DFF8740290ED6D
:10FE1000001AB8EEC11AB4EE601AF1EE10FA05D568
:10FE20005FF0FF30DFF8501208700FE0DFF8480293
:10FE300090F9000010F1010F08D1B5EE400AF1EE83
:10FE400010FA03DD0020DFF830120870DFF8280216
:10FE500090F90000DFF82C1291F9001088420ED0C2
:10FE6000DFF814020078DFF81C120870DFF80802CF
:10FE70000078DFF808120968484340B200E000202B
:10FE8000704701000020DFF8002292F90020012ACB
:10FE900011DBDFF8E02192ED001AB8EEC11AB4EEE2
:10FEA000401AF1EE10FA1DD5BDEEC01ADFF8C421DC
:10FEB00082ED001A16E0DFF8D02192F90020002A26
:10FEC00010D5DFF8B02192ED001AB8EEC11AB4EEE9
:10FED000410AF1EE10FA05D5BDEEC01ADFF8942103
:10FEE00082ED001ADFF8A02192F90020002A1AD131
:10FEF000DFF8882192ED001AB8EEC11AB4EE401A6C
:10FF0000F1EE10FA0FD5DFF8782192ED001AB8EE75
:10FF1000C11AB4EE601AF1EE10FA04D50122DFF82E
:10FF200068311A7044E0DFF8602192F90020012A5C
:10FF300009D1B5EE400AF1EE10FA04D50222DFF83D
:10FF400048311A7034E0DFF8402192F90020002A8D
:10FF50001DD1DFF828211268524201EE102AB8EEB6
:10FF6000C11AB4EE410AF1EE10FA10D5DFF81021F3
:10FF700092ED001AB8EEC11AB4EE601AF1EE10FA62
:10FF800005D55FF0FF32DFF800311A7010E0DFF8BE
:10FF9000F82092F9002012F1010F09D1B5EE400AC4
:10FFA000F1EE10FA04DD7FF00102DFF8DC301A70A8
:10FFB000DFF8D42092F90020022A06D0DFF8C8200A
:10FFC00092F9002012F1020F17D10022DFF8B830A9
:10FFD0001A70DFF8A020126810000022DFF89430B9
:10FFE0001A60DFF8882092F90020DFF884301B685F
:10FFF0005A43022392FBF3F20A6040B270470000BA
:020000040002F8
:10000000AC2F0020CA210020888D020001F40100DD
:10001000CC8D0200DC2F0020102E0020502E00205E
:100020005C2E0020802E0020AC210020B02100207A
:10003000742E0020A42E0020B4210020982E002031
:100040008C2F0020882F0020682E00208C2E00206E
:10005000FA2F0020902F0020942F0020FB2F00204B
:100060009C210020A0210020FC2F0020FD2F00203B
:10007000B02F0020B42F0020FF2F0020A821002047
:10008000A421002000300020FE2F0020DFF8240DE6
:10009000807E042800F06C81DFF8180D807E08282F
:1000A00000F06681DFF80C0D407EC00704D501200A
:1000B000DFF8001D487003E00020DFF8F81C4870EE
:1000C000DFF8F00C407E800704D50120DFF8E41C47
:1000D000887007E00020DFF8DC1C88700020DFF863
:1000E000D41C4871DFF8CC0C407E400704D50120B9
:1000F000DFF8C01CC87003E00020DFF8B81CC8702F
:10010000DFF8B00C407E000704D50120DFF8A41C06
:10011000087103E00020DFF89C1C0871DFF8940CE4
:10012000407EC0060DD50120DFF8881C4871DFF83D
:10013000840C8078012808D00120DFF8781C8870B2
:1001400003E00020DFF86C1C4871DFF8680C407E8B
:10015000800604D50120DFF85C1C887103E00020D4
:10016000DFF8501C8871DFF84C0C407E400604D547
:100170000120DFF8401CC87103E00020DFF8341CC8
:10018000C871DFF8300C407E000604D50120DFF88E
:10019000241C087203E00020DFF8181C0872DFF846
:1001A000140CC07E002807D0DFF8080CC07EDFF8F2
:1001B000041C81F82E0004E00020DFF8F81B81F811
:1001C0002E00DFF8F00B007F002807D0DFF8E40BEB
:1001D000007FDFF8E01B81F82F0004E00020DFF84B
:1001E000D41B81F82F00DFF8CC0B407F00280ED005
:1001F000DFF8C00B407FDFF8BC1B81F83000DFF870
:10020000B40B90F83000DFF8F81A08600BE00A2011
:10021000DFF8A01B81F83000DFF8980B90F8300071
:10022000DFF8DC1A0860DFF88C0B807F00280ED026
:10023000DFF8800B807FDFF87C1B81F83100DFF86E
:10024000740B90F83100DFF8BC1A08600BE00A204C
:10025000DFF8601B81F83100DFF8580B90F83100AF
:10026000DFF8A01A0860DFF84C0BC07F00280ED022
:10027000DFF8400BC07FDFF83C1B81F83200DFF86D
:10028000340B90F83200DFF8301B08700BE00020D0
:10029000DFF8201B81F83200DFF8180B90F83200ED
:1002A000DFF8141B0870DFF80C0B90F82000002812
:1002B00008D0DFF8000B90F82000DFF8F81A81F87A
:1002C000330004E00020DFF8EC1A81F83300DFF897
:1002D000E40A90F82100002808D0DFF8D80A90F846
:1002E0002100DFF8D01A81F8340004E00020DFF8A4
:1002F000C41A81F83400DFF8BC0A90F82200002804
:1003000008D0DFF8B00A90F82200DFF8A81A81F8C8
:10031000350004E00020DFF89C1A81F83500DFF892
:10032000940A90F82300002808D0DFF8880A90F893
:100330002300DFF8801A81F82D0004E00420DFF8A4
:10034000741A81F82D00DFF86C0A90F82400002858
:1003500008D0DFF8600A90F82400DFF8581A81F816
:1003600036001AE00020DFF84C1A81F8360014E05D
:10037000DFF8400A807E042805D10120DFF8341A16
:1003800081F8370009E0DFF82C0A807E082804D1C4
:100390000220DFF8201A81F83700704710B50024DA
:1003A000DFF8100A407800280CD00120DFF8941AFA
:1003B0000870DFF8900A807B50F00100DFF8841AA3
:1003C00088730BE00020DFF87C1A0870DFF8740AED
:1003D000807B10F0FE00DFF86C1A8873DFF8D40918
:1003E0008078002862D0DFF8D40990ED000ADFEDB4
:1003F000D20A30EE200AF2EE040A20EE200ABDEE08
:10040000C00A10EE100A00B2DFF8381A4862DFF8AE
:10041000B00990ED000ADFEDC80A30EE200AF2EED6
:10042000040A20EE200ABDEEC00A10EE100A00B247
:10043000DFF8101A8862DFF88C0990ED000ADFED12
:10044000BE0A30EE200AF2EE040A20EE200ABDEECB
:10045000C00A10EE100A00B2DFF8E819C8620020E6
:10046000062816DA0221022290FBF2F2DFF8D439D4
:1004700003EB8202526A90FBF1F301FB03F1091ACC
:10048000C90008310A41DFF8BC190144CA73401C95
:10049000E6E70120DFF8AC194870DFF8A809807B97
:1004A00050F00200DFF89C1988730BE00020DFF8A1
:1004B00094194870DFF88C09807B10F0FD00DFF89C
:1004C00084198873DFF8EC08C07800284CD0DFF876
:1004D00078090078002801D101F023F9B54890EDA2
:1004E000000ABDEEC00A10EE100ADFF86019B1F97B
:1004F0000010401ADFF84C1908630020022811DAB6
:100500000221DFF84029126B90FBF1F301FB03F1AC
:10051000091AC90008310A41DFF8281901444A754F
:10052000401CEBE701F0D9F8002810D0A248006881
:10053000DFF8101981F83400DFF8080990F834006A
:10054000DFF8001908770120DFF80419086001209E
:10055000DFF8F0188870DFF8EC08807B50F00400BA
:10056000DFF8E018887312E0DFF8DC080078002874
:1005700001D001F0DFF80020DFF8C8188870DFF83C
:10058000C408807B10F0FB00DFF8B8188873DFF830
:1005900024080079002842D001F021FA844908801B
:1005A0008348B0F9000001F027FADFF8A828DFF847
:1005B000A83801F037FA0022DFF8A03801F004FB78
:1005C00001F02EFC794908607848006801F070FC61
:1005D0000022DFF88C3801F025FA01F091FCDFF8F9
:1005E000641881F83500DFF85C0890F83500DFF812
:1005F0005418C8750120DFF84C18C8700020DFF8C7
:10060000B4170871DFF83C08807B50F00800DFF871
:10061000341888730120DFF8381808600BE00020D8
:10062000DFF82018C870DFF81C08807B10F0F70096
:10063000DFF810188873DFF87C074079002855D060
:10064000DFF820080068564909680843002841D0AF
:1006500053480068DFF8EC1781F83600514800680D
:10066000DFF8E01781F83700DFF8F8070068DFF8F7
:10067000D41781F838004C480068DFF8C81781F8B3
:100680003900DFF8C00790F83600DFF8B8170876B1
:10069000DFF8B00790F83700DFF8A8174876DFF8E2
:1006A000A40790F83800DFF89C178876DFF89407E5
:1006B00090F83900DFF88C17C876DFF88807807B60
:1006C00050F01000DFF87C1788730120DFF88017E6
:1006D00008600BE00020DFF86C170871DFF8640792
:1006E000807B10F0EF00DFF85C178873DFF8C4063A
:1006F00090F83700012821D18020DFF8481788734F
:100700001021DFF8640701F052FC0020102808DAFD
:10071000DFF85417095CDFF82C270244D173401C22
:10072000F4E70020DFF88C1681F837000120DFF8AD
:10073000201708600AE000BF00003443DFF8040718
:10074000807B10F07F00DFF8FC168873DFF81C0751
:100750000088DFF8F016C8870020022811DA02218D
:10076000DFF8E026D28F90FBF1F301FB03F1091AC9
:10077000C90008310A41DFF8CC160144CA77401C91
:10078000EBE70020132806DADFF8B8160144897B6E
:100790000C19401CF6E7DFF8AC0680F8214010BDCC
:1007A000782F00207C2F0020842F0020742F002021
:1007B000DA2F0020442F00205C2F002010B50024E9
:1007C000DFF8AC060068401CDFF8A4160860DFF80C
:1007D000A4060078002810D0DFF86C060078002806
:1007E00004D100F088FF01F02EFC06E0DFF8880657
:1007F0000078002801D001F026FCDFF8B805007869
:10080000002805D0FFF742FC0020DFF8A81508708B
:10081000DFF8A0058078002800F0DE81FEF764FE96
:10082000FEF7A8FE9FEDD94ADFEDD83A9FEDD73A03
:10083000DFF84806D0ED022ADFF8400690ED012AE5
:10084000DFF83806D0ED001ADFF8340690ED021A12
:10085000DFF82C06D0ED010ADFF8240690ED000A3F
:1008600001F0C4FC01F048FCDFF8480590F83300C3
:10087000002847D0DFF83C0590F8330000EE100A5E
:10088000B8EE401ADFEDC20ADFF8F815DFF8F80518
:10089000DFF8282592ED000AFEF745FEDFF81C057B
:1008A00080ED000ADFF80C0590F8330000EE100A26
:1008B000B8EE401ADFEDB60ADFF8D015DFF8D00544
:1008C000DFF8FC2492ED000AFEF72DFEDFF8F004BD
:1008D00080ED000ADFF8DC0490F8330000EE100A27
:1008E000B8EE401ADFEDAA0ADFF8A815DFF8A80570
:1008F000DFF8D02492ED000AFEF715FEDFF8C404FD
:1009000080ED000ADFF8AC044079002800F0648133
:10091000DFF88825DFF88815DFF88805DFF860350F
:1009200093ED021ADFF85835D3ED010ADFF85035A0
:1009300093ED000A01F0A2FBDFF86C25DFF86C15DF
:10094000DFF86C05DFF8343593ED021ADFF82C354B
:10095000D3ED010ADFF8243593ED000A01F08EFB98
:10096000DFF84C0590ED000ADFF84405D0ED000AF1
:1009700020EE200ADFF83805D0ED010ADFF8300557
:1009800090ED011A00EE810A02F036F9F7EE000A46
:1009900080EE800ADFF81C0580ED000ADFF8040510
:1009A00090ED000ADFF8FC04D0ED000A20EE200AEA
:1009B000DFF8F004D0ED010ADFF8E80490ED011A49
:1009C00000EE810A02F018F9F7EE000A80EE800AC4
:1009D000DFF8E40480ED000ADFF8D404806801F059
:1009E00067FA0022DFF8D43401F01CF801F018FA9D
:1009F000DFF8BC148860DFF8BC04006801F058FA26
:100A00000022DFF8B83401F00DF801F009FADFF840
:100A1000A4140860DFF88C0490ED020ADFEDB70A39
:100A200030EE200ADFF87C0480ED020ADFF874045F
:100A3000806801F03DFADFF88824DFF8883400F0A0
:100A4000F1FF01F0EDF9DFF85C148860DFF868046D
:100A5000006801F02DFADFF86824DFF8683400F050
:100A6000E1FF01F0DDF9DFF850140860DFF8580409
:100A700090ED001ADFF85404D0ED000ADFF85014AE
:100A8000DFF85004DFF8282492ED020AFEF74BFD50
:100A9000DFF81C0480ED020ADFF82C0490ED001A48
:100AA000DFF82804D0ED000ADFF82C14DFF82C045E
:100AB000DFF8F02392ED020AFEF735FDDFF8E403DC
:100AC00080ED020ADFF8000490ED001ADFF8FC0365
:100AD000D0ED000ADFF80814DFF80804DFF8D423AB
:100AE00092ED000AFEF71FFDDFF8C80380ED000A53
:100AF000DFF8D40390ED001ADFF8D003D0ED000A40
:100B0000DFF8E413DFF8E403DFF8AC2392ED000A2A
:100B1000FEF709FDDFF8A00380ED000ADFF894037B
:100B200090ED000ADFF8C803D0ED000A30EE600A4D
:100B3000DFF8C00380ED000ADFF8B403DFF87413B8
:100B4000096801609B4890F83600002822D1DFF840
:100B5000A40390ED000AF2EE040A60EE200ADFF82A
:100B6000440390ED020AFFF70CF9DFF8F812086071
:100B7000DFF83C03D0ED020ADFF83C0390ED000AF9
:100B8000FEF7ACFFDFF87013086025E000000000FE
:100B90000AD7A33CDFF86403DFF8581391ED000A8D
:100BA000F2EE040A60EE200ADFF8F81291ED020A74
:100BB000FFF767F9DFF8AC120860DFF84403DFF8ED
:100BC000F012D1ED020ADFF8F01291ED000AFFF702
:100BD00005F8DFF824130860DFF828030078002800
:100BE00055D07448807900280ED0724890F82E00B5
:100BF000002803D1642002F0A5F808E06D4890F8C1
:100C00002E0002F09FF802E0002002F09BF86948F5
:100C1000C07900280ED0674890F82F00002803D133
:100C2000642002F095F808E0624890F82F0002F086
:100C30008FF802E0002002F08BF85E48007A00286E
:100C400003D00120DFF82C1208705A48807E8007FC
:100C500003D50120DFF8B0120860564890F837003D
:100C6000022814D11021DFF8000201F0A0F90020C1
:100C70000E2807DA4F490144C97EDFF8EC211154F0
:100C8000401CF5E71021DFF8E00101F078F9FFF7EB
:100C900085FBDFF87002007800282CD045484078AA
:100CA00000281AD0DFF864020068401CDFF85C12EC
:100CB0000860DFF8580200683E4991F82D1088421C
:100CC00019DB0020DFF8441208601422DFF840121C
:100CD000DFF8400202F040FA0DE05D4800680028AD
:100CE00009D01422DFF82812DFF8280202F034FAC3
:100CF0000020574908602000C0B210BD00007AC42F
:100D0000A0210020A821002080B51C20DFF80812B7
:100D100008700123DFF8002210210020FEF79DFB60
:100D20000020DFF8F41108700123DFF8EC21112115
:100D30000020FEF792FB8E20DFF8DC110870012303
:100D4000DFF8D42158210020FEF787FB0920DFF8C7
:100D5000C81108700123DFF8C02159210020FEF7D7
:100D60007CFB0020DFF8B01108700123DFF8A82118
:100D70005A210020FEF771FB8020DFF89C110870DB
:100D80000123DFF894215B210020FEF766FB082099
:100D9000614908700123604A5E210020FEF75DFB77
:100DA00010205D49087001235B4A15210020FEF7E1
:100DB00054FB01BD60210020FA2F0020082F0020E5
:100DC000102F00200C2F002080B500208DF800008F
:100DD00052480068002834D19DF800006A2806D0E7
:100DE00001236A460F210020FEF756FBF4E744205A
:100DF000494908700123484A12210020FEF72DFBC3
:100E00007C20454908700123434A11210020FEF748
:100E100024FB0123404A10210020FEF71EFB002086
:100E20003D49087001233C4A15210020FEF715FBBF
:100E3000802039490870022037490870002036495F
:100E4000087001BD682B0020F02F0020D62F002055
:100E5000A82F00205839B4C876BE15400000D040F5
:100E600000003440802F0020F02D0020D42F0020DF
:100E7000B82F0020F82F0020F12F0020742E002022
:100E8000982E0020C82D0020C42D0020D02D002039
:100E9000CC2D0020D82D0020D42D0020B82E0020ED
:100EA000B42E0020B02E0020C42E0020C02E002022
:100EB000BC2E0020982F0020A42F00200000084006
:100EC0006FA301BC0512843FBC210020B821002083
:100ED0001C2C0020182C0020242C0020202C00206A
:100EE0002C2C0020282C0020342C0020302C00201A
:100EF0009C2F0020A02F0020782F00207C2F002086
:100F0000842F0020F92F00208C2F0020642F002038
:100F1000762B0020A82D0020DC2F0020BC2F0020E5
:100F20000122C9B24250704781B0002209B242503A
:100F300009B242580092009A01B0704709B2405875
:100F4000002801D0012000E00020C0B27047C0F8A6
:100F500004137047C0F8081370470721C0F8001544
:100F60007047C0F80815C0F80C25C0F81035704758
:100F7000C0F824157047C0F84415D2B2C0F848250F
:100F80007047C0F83415D2B2C0F838257047D2B2D5
:100F9000002A01D1002300E00123C9B2012904D0B5
:100FA00002D3032907D003D307E053F0020304E080
:100FB00053F0040301E053F00603C0F854357047C2
:100FC000C9B2C0F8C01570470121C0F8501570476C
:100FD0000021C0F8501570470121C0F84015704736
:100FE0000021C0F84015704710F06040B0F1005F7C
:100FF00001D1012000E00020C0B2704701005FF085
:10100000A04070472DE9F14181B00E0017009846CD
:10101000089C099D01A8FFF7F1FFF6B2FFB256EA5E
:1010200047015FFA88F851EA8801E4B251EA0421E5
:10103000EDB251EA0541019A00EB8202C2F80017B5
:10104000BDE8F3811CB50400002001900020009051
:101050000023012201212000FFF7D4FF13BD30B58A
:1010600083B004000D0000200190002000902B00B0
:10107000DBB2002200212000FFF7C4FF37BD11B50D
:1010800081B001A8FFF7BAFF04000120019910FA0E
:1010900001F1200000F00FF813BD11B581B001A8D7
:1010A000FFF7ACFF04000120019910FA01F12000C4
:1010B00000F004F813BDC0F808157047C0F80C150F
:1010C00070472DE9F84F04000D001600B44861790F
:1010D000490100EB0107387E002803D00820804634
:1010E000404668E03E60287B022803DA2878FFF754
:1010F000D4FF02E02878FFF7C2FF0120A9492A782F
:1011000041F822006878FF2808D068788146484670
:10111000FFF7C3FF4846FFF795FF02E05FF0FF309F
:101120008146A878FF2806D0A8788246002150463C
:10113000FFF795FF02E05FF0FF308246E878FF2876
:1011400005D0E878FFF79BFFE878FFF77BFF94482E
:10115000617949010844E9788176206883465346DD
:101160004A4629785846FFF7FCFEA9685846FFF71B
:10117000FFFE6A7B297B5846FFF709FF69795846CD
:10118000FFF71EFF3868002803D040215846FFF7BC
:10119000DEFE5846FFF7E1FE3868002804D02979C2
:1011A00094F9040002F038F80020787601203876AF
:1011B000002080464046BDE8F28F2DE9FF41050042
:1011C0000E00170098460A9C0096CDF808808DF80E
:1011D00004708DF80C4000226946280000F08DF85C
:1011E00004B0BDE8F08110B50400A07EFF2802D055
:1011F000A07EFFF744FF0020607600202071201DB4
:101200002168884710BD38B504000D00EDB2002DEF
:1012100004D140212000FFF79DFE03E04021200083
:10122000FFF795FE31BD38B504000D00E80703D582
:101230002000FFF7C9FE02E02000FFF7C9FEA80763
:1012400003D52000FFF7C8FE02E02000FFF7C8FE2C
:1012500031BD2DE9F04104000D0016001F0030687B
:10126000002804D03068FFF7BFFE002807D0B06820
:1012700000280AD0B068FFF7B7FE002805D100208B
:10128000687610208046404635E03279316820008B
:10129000FFF771FE327BB1682000FFF772FE4FF45A
:1012A0008C712000FFF740FE39002000FFF7BBFFE4
:1012B000380703D410212000FFF732FE28680028E9
:1012C0000DD14FF48C712000FFF738FE0028F8D0C4
:1012D000A87EFF280CD0A87EFFF7D1FE08E0B80852
:1012E00010F0010090F00101C9B22000FFF78BFF60
:1012F000002080464046BDE8F0812DE9F04180465F
:101300000C001500264898F80510490100EB01066D
:101310000027707E002803D011200700380022E04B
:101320003068002804D015F0140F01D10120707628
:1013300094E80F0016F1080C8CE80F00707F10F095
:10134000FE007077707F10F0FD007077B07EFF2890
:1013500002D0B07EFFF7A1FE2B0022003100D8F8AA
:101360000000FFF776FFBDE8F08138B504000D00FE
:101370004FF48C712000FFF7E1FD002807D04FF4F7
:101380008C712000FFF7D0FD2800FFF72CFF31BD46
:1013900010B5034C21000448FFF7E7FF10BD000023
:1013A0004C2D0020000700500030004010B584B0E4
:1013B000040068460021002200230EC00C3802946D
:1013C0006A46002144F2010001F04AFF1FBD64009B
:1013D000012110F01F029140DFF8B02340B2430911
:1013E00042F82310704701005FF0A04070472DE9DC
:1013F000F14181B00E0017009846089C099D01A894
:10140000FFF7F1FFF6B2FFB256EA47015FFA88F83C
:1014100051EA8801E4B251EA0421EDB251EA0541F2
:10142000019A00EB8202C2F80017BDE8F3811CB5F7
:1014300004000020019000200090002301220121DF
:101440002000FFF7D4FF13BD30B583B004000D00BA
:1014500000200190002000902B00DBB20022002130
:101460002000FFF7C4FF37BD11B581B001A8FFF719
:10147000BAFF04000120019910FA01F1200000F0E8
:101480002DF813BD11B581B001A8FFF7ACFF040022
:101490000120019910FA01F1200000F022F813BD9B
:1014A00038B504000D00002D03D12000FFF7EAFF3E
:1014B00002E02000FFF7D8FF31BD11B581B001A8CF
:1014C000FFF791FF0400200000F005F80199C840E3
:1014D00010F0010016BDD0F810057047C0F80815CF
:1014E0007047C0F80C157047A94900283DD0A94A9B
:1014F000126800BF00BF00BF00BF00BF00BF00BF39
:1015000000BF8A422FD000BF00BF00BF00BF00BF96
:1015100000BF00BF00BF00BF00BF00BF00BF00BFD3
:1015200000BF00BF00BF00BF00BF00BF00BF00BFC3
:1015300000BF00BF00BF00BF00BF00BF00BF00BFB3
:1015400000BF00BF00BF00BF00BF00BF00BF00BFA3
:1015500000BF00BF00BF00BF00BF00BF00BF00BF93
:1015600000BF00BF00BF0138C3D1704710B50400F1
:10157000200040B2FFF72CFF10BD874890F83400E0
:10158000143086490860844890F835008449086022
:10159000844890ED000A8448D0ED000A30EE600ADD
:1015A000824880ED000A80487E49096801608048D1
:1015B0000068002810D1794890ED000AB8EEC00A02
:1015C0007A48D0ED000AB4EE600AF1EE10FA03D5C5
:1015D0000120774908603FE071480068002824D066
:1015E00073480068012820DB6C4890ED000AB8EED3
:1015F000C00A6E48D0ED000AB4EE600AF1EE10FAAF
:1016000013D56C480068401C6A490860644800684B
:101610006849096888421FDA002066490860644802
:101620000068401C6249086016E0614800680128B3
:1016300012DB614890ED000AB8EEC00A5B48D0EDBD
:10164000000AF4EE400AF1EE10FA05D500205949DF
:101650000860002056490860704738B504000D0046
:1016600056480078002805D000F045F8012054497C
:10167000087031E000F0DEF8524908605148006817
:10168000B0F5702F10DD4F480068C043401C4E4934
:1016900008604D48006880B24B4908604A480068BD
:1016A00040424A49086003E04648006847490860EC
:1016B000474890ED001A4748D0ED000A4649474890
:1016C000424A92ED000AB8EEC00AFDF72CFF3548F9
:1016D00080ED000AFFF751FF31BD414800683449F1
:1016E0000968884205D0324800683D4908600120F9
:1016F00000E00020704780B51E2002F07EF84020F8
:1017000000F0FCF800F0B6F8402807D04FF47A70EB
:10171000FFF7EAFE402000F0F1F8F3E700F03AF9B5
:1017200001BD80B501202F4908700721062001F076
:1017300073FD01BD80B500202A4908700620FFF71F
:1017400015FF01BD38B501F067FF04002500002D2D
:1017500002D02800FFF72AFE2348006800900320EB
:101760008DF80100214A69461E2001F08BFF04001C
:101770002500002D02D02800FFF718FE01211E20B1
:1017800001F0C7FFFFF7D6FF31BD000080E100E0A8
:101790000024F400C021002060210020442100200A
:1017A000582F0020442F00204C2F0020482F0020CD
:1017B0005C2F0020542F002048210020F82F00200B
:1017C000F12F00203C2F0020502F0020402F002020
:1017D000402100203C210020F42E0020F02E00208B
:1017E000602F0020F02F0020E48D02005B16020025
:1017F00080B51F20FFF71BFE242000F07FF800F0CB
:1018000039F8242807D04FF47A70FFF76DFE2420B2
:1018100000F074F8F3E7FFF795FF00F0BBF801BDA7
:1018200080B501211F20FFF73BFE00211F20FFF79D
:1018300037FE01BD38B5002400211E2001F069FFEC
:101840000025182D0ADAFFF7EBFF64001E20FFF7D2
:1018500034FE002800D0641C6D1CF2E7FFF7E0FFA7
:10186000FFF7DEFFFFF7DCFF01211E2001F051FF33
:10187000200032BD38B50025EDB21B2D03DAFFF78D
:10188000CFFF6D1CF8E71E20FFF7D1FDFFF7C8FF63
:10189000FFF7C6FFAC2004000725012D12DB012055
:1018A000A8402100C9B2014204D001211E20FFF747
:1018B000F7FD03E000211E20FFF7F2FDFFF7B0FF68
:1018C0006D1EEAE703211E20FFF7BEFDFFF7A8FF0C
:1018D000002004000025EDB2082D0ADA6400FFF7AD
:1018E0009FFF1E20FFF7E9FD002800D0641C6D1C3F
:1018F000F1E7FFF795FF2000C0B232BDF8B5040054
:1019000000200600F6B21B2E03DAFFF789FF761CD3
:10191000F8E71E20FFF78BFDFFF782FFFFF780FF40
:10192000CA20050007200600F6B2002E12D00120C2
:10193000B0402900C9B2014204D001211E20FFF7A6
:10194000AFFD03E000211E20FFF7AAFDFFF768FFAF
:10195000761EE9E7FFF764FF25000727002F12D462
:101960000120B8402900C9B2014204D001211E2043
:10197000FFF796FD03E000211E20FFF791FDFFF722
:101980004FFF7F1EEAE703211E20FFF75DFDFFF7F3
:1019900047FFF1BD80B501211F20FFF781FD01BD8B
:1019A00070473EB5684612492CC92CC00C390C381A
:1019B0001049002002F0D9F9040000208DF803003E
:1019C00000208DF802006946002002F02AFA040087
:1019D0002500002D02D02800FFF7E8FC37BD80B5B8
:1019E0006946002002F057FABDF9000002BD000070
:1019F000B48D0200A1190200010040F10780F446F5
:101A0000404200F003F851F00041604709D0B0FABD
:101A100080F18840C91CC1F58461090501EBD02122
:101A200040057047B0B581EA030C0CF0004C40F261
:101A3000FF7515EA11541DBF15EA1357AC42AF42AA
:101A400039E0E41923EA455343F48013C90241F015
:101A5000004141EA505EC7021100A7FB02020028C4
:101A60004FF00000EEFB01204FF00001E3FB0721E7
:101A700018BF42F00102401800214941E3FB0E016A
:101A8000A4F580640F0302D252004041494154F151
:101A900001046CDD470872F1004250F1000051EB87
:101AA0000451A1F580115CBF41EA0C01B0BD4CEAC4
:101AB00005510020B0BD05EA1357AC4214BFAF4238
:101AC00041E050EA410E1CBF52EA430E02E061467B
:101AD0000020B0BD24423C441BD15FEA070EF6D083
:101AE000090302BF01460020AEF1140EB1FA81F7DE
:101AF000AEEB070401FA07FE0C37C7F1200100FA2C
:101B000007F7C8404EEA000E23EA455343F480131A
:101B1000A2E733F00043B3FA83F704BFB2FA82FEC0
:101B200077440B3FE41BB7F1200E2FBF02FA0EF3F0
:101B3000BB40C7F1200E22FA0EFE38BF43EA0E0367
:101B4000BA40641C82E750EA410E14BF52EA430EC9
:101B50006FF000014FF4001717EB430F8ABF1946CF
:101B600017EB410FB5E74CEA05510020B0BDD4F1A9
:101B70000104B4F120070FDAC4F12007520828BF8E
:101B800042F0010210FA07F501FA07F7E1BF2A4314
:101B9000E0403843E1400FE0352C98DCC7F12004E9
:101BA00052EA400220FA07F218BF42F0010231FA6D
:101BB00007F0A1400A43002172F1004250F10000F9
:101BC00051EB0C01B0BDFEE72DE9F04140F2FF758D
:101BD00081EA030C0CF0004C15EA11541DBF15EA04
:101BE0001357AC42AF42E9E0BC41C1F31301C3F368
:101BF0001303801A994143F4801304D2641E4000F9
:101C0000494180185941C90241EA5051B1FBF3F6EC
:101C100003FB1611A2FB0675D7EBC020A94102D227
:101C2000761E80185941C90241EA5051B1FBF3FEBA
:101C300003FB1E11A2FB0E75D7EBC020A94103D2F6
:101C4000AEF1010E80185941890241EA90517605A2
:101C500046EA8E2EB1FBF3F603FB1611A2FB0675C6
:101C6000D7EB8020A94102D2761E80185941C902C3
:101C700041EA50514EEA060EB1FBF3F603FB161192
:101C8000A2FB0675D7EBC020A94102D2761E8018B0
:101C90005941C90241EA5051B1FBF3F703FB171157
:101CA000A2FB0735D3EBC020A94167F100070CBFA9
:101CB000004247F0010766F3D5274FEA1E31B80806
:101CC00014F5806414DDBD0775F1004250EB0E5031
:101CD00051EB045111F5801F5CBF41EA0C01BDE8D6
:101CE000F0814CF07F6141F0E0410020BDE8F081DF
:101CF000BD076D0840EA0E5041F48011D4F1010493
:101D0000B4F120060ADAC4F120060200E04001FA2C
:101D100006F3E1401843B24015430EE0342C14DCC6
:101D2000C6F1200445EA40056D0820FA06F2154385
:101D300021FA06F0A1400D43002175F1004250F157
:101D4000000051EB0C01BDE8F08100205FEA0C01BE
:101D5000BDE8F081CFB992185B41B3FA83F704BFB5
:101D6000B2FA82F6BF190B3FB7F120062FBF02FA75
:101D700006F3BB40C7F1200622FA06F638BF33430C
:101D8000BA401CB1E419641E2FE77F4231F00041D4
:101D9000B1FA81F404BFB0FA80F6A4190B3CB4F197
:101DA00020062FBF00FA06F1A140C4F1200620FA58
:101DB00006F638BF3143A0403C1B16E7AC421ABFC1
:101DC00005EA1357AF4214E050EA41061CBF52EA3D
:101DD0004306BFE750EA4107304661461CBF41EA6F
:101DE0000551BDE8F08152EA430C08BFC143BDE88C
:101DF000F08100204FF4001616EB410F98BF16EB50
:101E0000430F08BF16EB410F24BFC14305E016EB9B
:101E1000430F0CBF61464CEA0551BDE8F081FEE777
:101E20004FEAF17CBCF1E04C2CBFBCF5001F11E087
:101E30005FEA4C0C34BFBCF17F5F2EE05FEA9C0C84
:101E40004FEA0C1C4FEA3C0CC10071F100414CEB15
:101E500050707047C90241EA5051C00218BF41F0AA
:101E6000010141F000414FEA6C50C0F10900212806
:101E700010D240EACC7CCCF1200C11FA0CF070F1BD
:101E80000040CCF1200C21FA0CF00CF0004C40EB9F
:101E90000C0070474FEACC707047490011F5001FE5
:101EA00004D84FEACC10FF30C0057047C817704700
:101EB0005FF0FF0C1CEAD05114BF614506E0C11071
:101EC000400721F0E04101F16051704779B900F01D
:101ED000004100020AD0B0FA80FC00FA0CF001F1D7
:101EE0006051A1EB0C5101EBD0214005704741023C
:101EF0000CBF40F4E0016FF0000100207047FEE7E6
:101F0000F446400D40EAC120490006D200F00EF828
:101F1000004248BF6FF00040604700F007F84FF004
:101F2000004188428CBF08464042604740F0004074
:101F3000490DA1F58061491C05D4D1F11F0154BFA1
:101F4000C840C01770474FF00000704738B5040014
:101F50000D002078002802D1EDB2002D0ED020789F
:101F600001280BD1EDB2002D08D1002000900423F0
:101F7000184A19480168184802F0F7F931BDF8B558
:101F800004000D00ADB2112D01DB1025FFE7ADB24D
:101F9000104F2A002100380002F0CCFA0023012261
:101FA0000D4801680C4802F030FA0600F1BD70B52A
:101FB00004000D00ADB2112D01DB1025FFE706482E
:101FC00000680600ADB22A003100200002F0B2FA2B
:101FD00070BD0000002E0020CC21002001005FF029
:101FE000A04070472DE9F14181B00E0017009846DE
:101FF000089C099D01A8FFF7F1FFF6B2FFB256EA6F
:1020000047015FFA88F851EA8801E4B251EA0421F5
:10201000EDB251EA0541019A00EB8202C2F80017C5
:10202000BDE8F3817CB504000D0016003000C0B29D
:102030000190002000902B00DBB200220021200044
:10204000FFF7D0FF73BD80B502F033FE02F0E8FE6B
:1020500000F084FE022200211020FFF7E3FF02229D
:1020600001211620FFF7DEFFFEF74EFE0120024998
:10207000086032DF01BD0000702F0020DFF8583B00
:10208000D3ED001A61EE801ADFF84C3B93ED012A84
:1020900042EE201ADFF8403B93ED022A42EE011A8D
:1020A000C0ED001ADFF8303BD3ED031A61EE801A61
:1020B000DFF8243B93ED042A42EE201ADFF8183BA8
:1020C00093ED052A42EE011AC1ED001ADFF8083B34
:1020D000D3ED061A61EE801ADFF8FC3A93ED072A79
:1020E00042EE201ADFF8F03A93ED082A42EE011A88
:1020F000C2ED001A7047000080B52DED028BDFF8AD
:10210000D80A0068FFF7D4FE41EC110BB0EE418A0B
:10211000F0EE618ADFF8C00AC068FFF7C9FE41EC43
:10212000100BB0EE481AF0EE681A03F0F7F851EC15
:10213000100BFFF775FEDFF8981A0860DFF8900AB9
:1021400090ED000ADFED280A20EE200ADFF8800A71
:1021500080ED000ADFF8800A006AFFF7A9FE41EC73
:10216000110BB0EE418AF0EE618ADFF86C0AC069AB
:10217000FFF79EFE41EC100BB0EE481AF0EE681A25
:1021800003F0CCF851EC100BFFF74AFEDFF8441ACD
:102190000860DFF8400A90ED000ADFED130A20EE38
:1021A000200ADFF8300A80ED000ADFF82C0A806987
:1021B000FFF77EFE41EC100B03F04AF951EC100BD7
:1021C000FFF72EFEDFF81C1A0860DFF8180A90ED02
:1021D000000ADFED050A20EE200ADFF8080A80ED8C
:1021E000000ABDEC028B01BDBE2E6542F8B52DED97
:1021F000108B2DED071A99B0F0EE408AB0EE608A90
:10220000DFF8E40990ED009ADFF8DC09D0ED019ADF
:10221000DFF8D40990ED02AADFF8CC09D0ED03AACB
:10222000B0EE000A29EE000A8DED0C0AB0EE000AAD
:1022300029EE800A8DED090AB0EE000A2AEE000AA6
:102240008DED080AB0EE000A2AEE800A8DED0B0A29
:10225000B0EE000A29EE000A20EE0A0A8DED070A08
:10226000B0EE000A2AEE000A20EE2A0A8DED060AD8
:1022700029EE090A8DED0A0A29EE29CA69EE0ACA71
:1022800029EE2A0A8DED020A29EEA9DA29EE8A0A38
:102290008DED010A69EEAADA2AEE0AEA2AEE2A0A86
:1022A0008DED000A2AEEAAFA28EEA80A08EE080A1E
:1022B000DDED190A9DED191A00EE810A10EE100AE3
:1022C000FFF7F6FD41EC100B03F0CAF851EC100BD0
:1022D000FFF7A6FD0EEE900AF5EE40EAF1EE10FAD9
:1022E00000F07284B7EE000AC0EE2EEA68EEAE8A05
:1022F00028EE2E8A9DED190A20EE2E0A8DED190A80
:10230000B0EE000A29EE000ADDED1D0A20EE200ADB
:102310008DED120AB0EE000A29EE000ADDED1E0A6C
:1023200020EE200A8DED110AB0EE000A29EE000A17
:10233000DDED1F0A20EE200A8DED100AB0EE000A36
:1023400029EE800ADDED1D0A20EE200A8DED0F0A30
:102350009DED1D0ADDED0A0A20EE200ADDED110AD1
:1023600000EEEA0ADDED100A00EE8A0ADDED1D0A34
:1023700000EE8D0ADDED090A9DED1E1A60EE810A60
:1023800000EE8A0ADDED090A9DED1F1A60EE810A52
:1023900000EEAA0ADDED1D0A00EECE0ADDED1D0AF3
:1023A00000EECF0A8DED140A9DED120A20EE2A0AE6
:1023B000DDED1E0A9DED0A1A00EE810ADDED100A20
:1023C00000EEE90ADDED0F0A00EE8A0ADDED1E0AD5
:1023D00000EECD0ADDED1E0A00EE8E0ADDED080AE4
:1023E0009DED1F1A60EE810A00EEAA0ADDED1E0ABD
:1023F00000EECF0A8DED130A9DED140ADDED140AEF
:1024000020EE200ADDED130A9DED131A00EE810A7D
:1024100010EE100AFFF74CFD41EC100B03F020F812
:1024200051EC100BFFF7FCFC0BEE100A9DED120AAD
:10243000B1EE400A20EE0A0ADDED110A00EEA90A0B
:10244000DDED1F0A9DED0A1A00EE810ADDED0F0A8F
:1024500000EEAA0ADDED1F0A00EECD0ADDED080A46
:102460009DED1E1A60EE810A00EEAA0ADDED1F0A3C
:1024700000EECE0ADDED1F0A00EE8F0AF0EE40BA44
:10248000B0EE000A2BEE000A8DED0E0AB0EE000A47
:102490002BEE800A8DED0D0AB0EE000A2DEE800ABB
:1024A000DDED070A30EE600A30EE680ADDED080A5D
:1024B000F1EE600A20EE800AF0EE000A9DED061AA9
:1024C0000CEE201A71EE480A9DED091A00EE810A01
:1024D0006BEE8A0AB6EE001A31EE4E1A31EE4F1A42
:1024E00021EE0B1A7DEEEC1A01EEAB1ADDED1D1A92
:1024F00031EEC11A00EE810AF1EE4B0A60EEAA0A33
:102500004BEEA90A9DED011ADDED021A31EE611ABA
:1025100021EE0B1ADDED001A7CEE211A01EEAB1A4A
:10252000DDED1E1A31EE611A00EE810A6BEE0A0A29
:102530003CEEAD1A21EE0B1AF6EE001A71EECD1A32
:1025400071EECE1A01EEAB1ADDED1F1A31EE611AF3
:1025500000EE810A8DED050AB0EE000A2DEE800A2C
:10256000DDED070A30EE600A30EE680ADDED0B0A99
:1025700020EE200AF0EE000A9DED061A0CEE201A5D
:1025800071EE480A9DED0C1A00EE810AF1EE000A88
:1025900069EEA00AB0EE001A2EEE011AF0EE001A53
:1025A000B7EE002A0DEE612A31EE421ADDED191A5E
:1025B00031EE811A00EE810A6BEEAA0AB6EE001A1D
:1025C00031EE4E1A31EE4F1A21EE0B1A7DEEEC1A57
:1025D00001EEAB1ADDED1D1A31EE611A00EE810A33
:1025E0006BEE0A0A4BEE890A9DED011ADDED021A27
:1025F00031EE611A21EE0B1ADDED001A7CEE211A84
:1026000001EEAB1ADDED1E1A31EE611A00EE810A01
:102610006BEE2A0A9DED0D1A41EE690A3CEEAD1AE9
:1026200021EE0B1AF6EE001A71EECD1A71EECE1AEB
:1026300001EEAB1ADDED1F1A31EE611A00EE810AD0
:102640008DED040AB0EE000A2DEE800ADDED070ADA
:1026500030EE600A30EE680ADDED0C0AF1EE600A39
:1026600020EE800AF0EE000A9DED061A0CEE201A0C
:1026700071EE480A9DED0B1A00EE810AF1EE000A98
:102680006AEE200AB0EE001A2EEE011AF0EE001AE1
:10269000B7EE002A0DEE612A31EE421ADDED191A6D
:1026A00031EE811A00EE810ADDED0E0AF1EE600ACC
:1026B00060EE8A0A4BEEC90AB6EE001A31EE4E1AE7
:1026C00031EE4F1A21EE0B1A7DEEEC1A01EEAB1A29
:1026D000DDED1D1A31EE611A00EE810A6BEE290A5A
:1026E0004BEEAA0A9DED011ADDED021A31EE611AD8
:1026F00021EE0B1ADDED001A7CEE211A01EEAB1A69
:10270000DDED1E1A31EE611A00EE810A6BEE090A48
:102710009DED0D1A41EE4A0A3CEEAD1A21EE0B1A60
:10272000F6EE001A71EECD1A71EECE1A01EEAB1A6A
:10273000DDED1F1A31EE611A00EE810A8DED030AFC
:10274000B0EE000A2DEE800ADDED070A30EE600AD9
:1027500030EE680ADDED090A20EE200AF0EE000AEC
:102760009DED061A0CEE201A71EE480A9DED081A2E
:1027700000EE810ADDED0E0AF1EE600A60EEAA0AB3
:102780004BEEA90AB6EE001A31EE4E1A31EE4F1A90
:1027900021EE0B1A7DEEEC1A01EEAB1ADDED1D1ADF
:1027A00031EE611A00EE810AF1EE4B0A60EE890A01
:1027B0004BEE8A0A9DED011ADDED021A31EE611A27
:1027C00021EE0B1ADDED001A7CEE211A01EEAB1A98
:1027D000DDED1E1A31EE611A00EE810A6BEE290A58
:1027E0003CEEAD1A21EE0B1AF6EE001A71EECD1A80
:1027F00071EECE1A01EEAB1ADDED1F1A31EE611A41
:1028000000EE810AF0EE40FA9DED050ADDED050AC5
:1028100020EE200ADDED040A9DED041A00EE810A87
:10282000DDED030A9DED031A00EE810A0FEEAF0AFB
:1028300010EE100AFFF73CFB41EC100B02F010FE0B
:1028400051EC100BFFF7ECFA0EEE900AB7EE000A0F
:10285000C0EE2EEA9DED050A20EE2E0A8DED050A4A
:102860009DED040A20EE2E0A8DED040A9DED030A6B
:1028700020EE2E0A8DED030A6FEEAEFAB1EE690A74
:10288000DDED1A0A20EE200ADDED1B0A0AEE600AD1
:10289000DDED1C0A0AEEE00AF6EE000A20EE200A40
:1028A00010EE100AFFF704FB04000D009FEDCB0BA8
:1028B00002F0D6FD53EC102B5FF00050DFF82C1324
:1028C000FFF7B0F85FF00052DFF82433FFF7AAF803
:1028D00006000F000598FFF7EBFA32003B00FFF708
:1028E000A1F802000B002000290002F039FEFFF7DA
:1028F00097FA18909DED1A0A29EE000ADDED1C0AE0
:102900000AEE200ADDED1B0A0AEEE00AF6EE000AE6
:1029100020EE200A10EE100AFFF7CAFA04000D009C
:102920009FEDAE0B02F09CFD53EC102B5FF00050BE
:10293000DFF8B812FFF776F85FF00052DFF8B03238
:10294000FFF770F806000F000498FFF7B1FA3200A5
:102950003B00FFF767F802000B002000290002F09F
:10296000FFFDFFF75DFA17909DED1B0A29EE000AA7
:10297000DDED1C0A09EEE00ADDED1A0A0AEEA00AF6
:10298000F6EE000A20EE200A10EE100AFFF790FA89
:1029900004000D009FED910B02F062FD53EC102B33
:1029A0005FF00050DFF84412FFF73CF85FF0005290
:1029B000DFF83C32FFF736F806000F000398FFF708
:1029C00077FA32003B00FFF72DF802000B002000E1
:1029D000290002F0C5FDFFF723FA16909DED1C0AB1
:1029E00029EE000ADDED1B0A09EEA00ADDED1A0A48
:1029F0000AEE600AF6EE000A20EE200A10EE100A37
:102A0000FFF756FA04000D009FED740B02F028FD4D
:102A100053EC102B5FF00050DFF8D011FFF702F8F5
:102A20005FF00052DFF8C831FEF7FCFF06000F0030
:102A30001FEE900AFFF73CFA32003B00FEF7F2FF70
:102A400002000B002000290002F08AFDFFF7E8F9E0
:102A500015909DED180ADFF89C01D0ED000A00EEFC
:102A6000209A9DED170ADFF88C01D0ED000A40EEA8
:102A7000209A9DED160ADFF87C01D0ED000A00EEE9
:102A800020AA9DED150ADFF86C01D0ED000A40EE9A
:102A900020AA29EE090A09EEA90A0AEE0A0A0AEE94
:102AA000AA0A10EE100AFFF703FA41EC100B02F02D
:102AB000D7FC51EC100BFFF7B3F90EEE900AB7EE0E
:102AC000000AC0EE2EEA29EE2E0ADFF81C0180ED86
:102AD000000A29EEAE0ADFF8100180ED010A2AEEA5
:102AE0002E0ADFF8040180ED020A2AEEAE0ADFF8B2
:102AF000F80080ED030AB0EE000AF7EE000A4EEE91
:102B0000400AB0EE000A4FEE400A3348C0ED000A1A
:102B10009DED010ADDED020A30EE600AF0EE000ADA
:102B200020EE200A2C4880ED010A3DEEAC0AF0EEC2
:102B3000000A20EE200A284880ED020A9DED010AD5
:102B4000DDED020A30EE200AF0EE000A20EE200A47
:102B5000214880ED030AB0EE000AF7EE000A4DEEC0
:102B6000400AB0EE000A4FEE400A1B48C0ED040ACE
:102B70009DED000A30EE4C0AF0EE000A20EE200A2D
:102B8000154880ED050A3DEEEC0AF0EE000A20EE55
:102B9000200A114880ED060A9DED000A30EE0C0A6D
:102BA000F0EE000A20EE200A0B4880ED070AB0EE96
:102BB000000AF7EE000A4DEE400AB0EE000A4EEEB3
:102BC000400A0548C0ED080A20B0BDEC108BF1BDED
:102BD0000C2F0020102F0020482C002000000000A7
:102BE0000000E83F082F002028210020FF21094095
:102BF000C771AC3F3821002081B0F0EE400AB6EE3C
:102C0000000A20EE801AB0EE600A8DED000A0A4834
:102C10000099B0EB61000090DDED001AB0EE610AA2
:102C200061EE001AB7EE082A01EEC02A22EE000A71
:102C300001B0704700000000DF59375F01005FF00E
:102C4000A04070472DE9F14181B00E001700984671
:102C5000089C099D01A8FFF7F1FFF6B2FFB256EA02
:102C600047015FFA88F851EA8801E4B251EA042189
:102C7000EDB251EA0541019A00EB8202C2F8001759
:102C8000BDE8F3811CB504000020019000200090F5
:102C90000023012201212000FFF7D4FF13BD11B54D
:102CA00081B001A8FFF7CAFF04000120019910FAC2
:102CB00001F1200000F01CF813BD11B581B001A88E
:102CC000FFF7BCFF04000120019910FA01F1200078
:102CD00000F011F813BD38B504000D00002D03D12C
:102CE0002000FFF7EAFF02E02000FFF7D8FF31BD28
:102CF000C0F808157047C0F80C1570473EB5684617
:102D000025492CC92CC00C390C3824480088ADF852
:102D1000060000226946224802F018FE0400250041
:102D2000002D02D02800FEF741FB64201D490880D9
:102D300064201C494880022301221B49184802F0E4
:102D400094FE37BDC0B250F40041164A118070475E
:102D5000C0B250F40041134A5180704780B5002042
:102D6000FFF7F0FF0020FFF7F3FF01210C4802F00E
:102D7000C5FE0B4802F03EFE0220FFF783FF002154
:102D80000220FFF7A8FF0320FFF77CFF00210320AC
:102D9000FFF7A1FF01BD000084760200CE13020000
:102DA00054210020F82E0020788D02008A8882822B
:102DB00070474FF6FF728282704770B504000D00B5
:102DC000AE1D3088218A88420ED1708902280BD12D
:102DD00016F10C0002F030FF002802D00120A0758F
:102DE0000FE00020A0750CE03088A188884208D14F
:102DF000A069002805D0728916F10C012000A36992
:102E0000984770BD2DE9F24F92B004000320049062
:102E10000020039001AD039A0499280002F014FFEA
:102E20009DF8040010F0F00050F001008DF804004F
:102E30009DF8040010F00F0050F010008DF8040011
:102E40009DF8050010F0F00050F001008DF805002D
:102E50009DF8050010F00F0050F010008DF80500EF
:102E60009DF8060010F0F90050F002008DF8060001
:102E70001C2500260AAF32002900380002F0E4FECB
:102E80009DF8280050F010008DF8280000200B90CD
:102E900000200D9000200E9001A80F9000201090AF
:102EA00020788DF80A000320ADF8080003275FF0B2
:102EB0000008E94642463900484602F0C5FE9DF842
:102EC000000010F0F00050F001008DF800009DF8B7
:102ED000000010F00F0050F010008DF800009DF879
:102EE000010010F0F00050F001008DF801009DF895
:102EF000010010F00F0050F010008DF801009DF857
:102F0000020010F0F90050F002008DF802009DF868
:102F1000020010F0F7008DF802009DF8020010F09A
:102F2000EF008DF802009DF8020050F001008DF8CE
:102F300002005FF014095FF0000A0DF1140B524615
:102F40004946584602F080FE02A805906846069061
:102F50000120ADF81C000020ADF81E001420ADF8D3
:102F6000200014F10C0305AA0AA96088A2DF13B09F
:102F7000BDE8F08F2DE9F24F8EB004001C2500262D
:102F800007AF32002900380002F05EFE9DF81C00F9
:102F900010F0F7008DF81C009DF81C0050F00400A4
:102FA0008DF81C000020089000200A9000200B9053
:102FB00000200C9000200D9020788DF80600022053
:102FC000ADF8040003275FF00008E94642463900E7
:102FD000484602F039FE9DF8000010F0F00050F075
:102FE00001008DF800009DF8000010F00F0050F077
:102FF00010008DF800009DF8010010F0F00050F076
:1030000001008DF801009DF8010010F00F0050F054
:1030100010008DF801009DF8020010F0F90050F04A
:1030200002008DF802009DF8020010F0F7008DF804
:1030300002009DF8020010F0EF008DF802009DF8EC
:10304000020050F001008DF802005FF014095FF0FB
:10305000000A0DF1080B52464946584602F0F4FDAD
:1030600001A80290684603900120ADF810000020EE
:10307000ADF812001420ADF81400231D02AA07A910
:103080006088A2DF0FB0BDE8F08F38B504000D00F6
:10309000002C01D0002D00D116E02888102804D083
:1030A000112807D050280AD00EE029002000FFF791
:1030B0007DFE09E029002000FFF77BFE04E02900E7
:1030C0002000FFF77AFEFFE731BDF0B585B00400C0
:1030D0000D0020480FC801AF87E80F00002C01D178
:1030E0000E2034E0002D01D10E2030E04FF6FF70AD
:1030F000A0822868A0610020A075210001A863DFDC
:103100000600002E01D0300021E020788DF802006A
:103110000120ADF80000A21C69460120A0DF0600D6
:10312000002E01D0300012E029002000FFF76AFED7
:103130000600002E01D0300009E029002000FFF732
:1031400019FF0600002E01D0300000E0002005B07D
:10315000F0BD0000688D02002DE9F44185B0040047
:103160000D00002C01D10E2023E0A08A4FF6FF7144
:10317000884202D0A07D002801D1082019E0BDF8C6
:103180001400152801DB072013E010260027E8466D
:103190003A003100404602F057FDA089ADF800002A
:1031A000039505A8029001208DF802006946A08AC7
:1031B000A6DF06B0BDE8F081012110F01F029140AA
:1031C000114A40B2430942F823107047012110F020
:1031D0001F0291400D4A40B2430942F82310704744
:1031E00010B440B2002808D54A01094B40B210F093
:1031F0000F04234403F8042C03E04A01054B40B2BA
:103200001A5410BC7047000000E100E080E200E0CA
:1032100018ED00E000E400E038B504000D00EDB268
:103220002900200040B2FFF7DBFF200040B2FFF78B
:10323000CDFF200040B2FFF7BFFF31BDBFF34F8F7E
:103240000548006810F4E06004490843024908603A
:10325000BFF34F8F00BFFDE70CED00E00400FA055F
:1032600070B504000D001600FFF7E8FF70BDFEE723
:1032700010B50400200000B200F019F80068012821
:1032800001D1012000E00020C0B210BD10B582B015
:103290000400200000B200F00AF8002101602000C4
:1032A00000B200F004F800680090009813BD00B26E
:1032B00000F1804010F5C0407047DFF8B417086097
:1032C0007047DFF8B01708607047DFF8A417096887
:1032D00008407047DFF8A01751F8201051F00101A5
:1032E000DFF8942742F820107047DFF88C1751F868
:1032F000201049084900DFF8802742F82010704765
:1033000030B4DFF8743753F82030DFF870472340CB
:10331000DFF8644744F82030DFF85C3753F820309A
:103320000C0214F4F854D2B2150415F440352C43B1
:103330002343DFF8444744F8203030BC7047DFF8BF
:10334000381751F82000C0F304207047DFF8281721
:1033500051F82000000C10F0030070470021DFF846
:10336000182742F82010704701005FF0A040704716
:103370002DE9F14181B00E0017009846089C099D87
:1033800001A8FFF7F1FFF6B2FFB256EA47015FFA74
:1033900088F851EA8801E4B251EA0421EDB251EA19
:1033A0000541019A00EB8202C2F80017BDE8F381E3
:1033B00030B583B004000D00002001900020009083
:1033C0002B00DBB2002200212000FFF7D1FF37BD28
:1033D0001CB5040000200190002000900023012271
:1033E00000212000FFF7C4FF13BD01B56846FFF7B9
:1033F000BBFF009900EB8101D1F8001731F0020109
:10340000009A00EB8202C2F8001701BD11B581B02D
:103410000C0001A8FFF7A8FF019900EB8101D1F88A
:10342000001731F44031019A00EB8202C2F8001714
:10343000019900EB8101D1F80017E4B251EA04418F
:10344000019A00EB8202C2F8001713BD11B581B0DA
:1034500001A8FFF789FF0400200000F012F801998D
:10346000C84010F0010016BD01B56846FFF77CFFAB
:10347000009900EB8100D0F80007000C10F0030069
:1034800002BDD0F810057047F8B504000D00160015
:103490006846DFF8EC150A680260270028198742A1
:1034A00008D2684650F82700FFF7EBFF3060361D62
:1034B0007F1CF3E7F1BDC20810F00700012313FAE7
:1034C00000F08A5C1040704710B4C20810F007008A
:1034D0008B5C0124844023438B5410BC7047DFF87D
:1034E000A415014491F93010002908D4DFF894158F
:1034F000084490F93000082801DA012000E000209B
:10350000002801D0012000E00020C0B27047DFF8A1
:103510007415084490F93000082801DB012000E010
:103520000020C0B27047DFF85C15084490F9300005
:10353000002801D4012000E00020C0B2704710B480
:10354000DFF84045044484F83010DFF8384544F88B
:103550002120DBB2002B04D1DFF828450C4484F88D
:10356000480010BC70475FF0FF31DFF818250244B7
:1035700082F830107047DFF80C15084490F93000DD
:103580007047DFF8001551F8200070472DE9F0472B
:1035900004000D0016005FF0FF37F6B2002E02D0D7
:1035A0005FF0000901E05FF00809F6B2002E02D0DA
:1035B0005FF0080A01E05FF00C0AC846D04514D25B
:1035C000DFF8C00450F828005FF0FF31884209D1CD
:1035D0003300DBB22A0041462000FFF7B0FF40462F
:1035E000070002E018F10108E8E7380040B2BDE842
:1035F000F0875FF0FF31DFF88C24C0B242F8201072
:10360000C0B2082807DB5FF0FF31DFF87824C0B2D2
:10361000024482F84810704738B5DFF8680490F823
:103620005400002803D008200400200029E00020D6
:103630000500EDB2202D05DAEDB22800FFF793FF6B
:103640006D1CF6E700200500EDB20C2D05DA280010
:10365000C0B2FFF7CEFF6D1CF6E707210620FFF78B
:10366000DBFD4FF4BE70FFF711FE5FF00040FFF787
:1036700024FE0120DFF80C1481F85400002004001F
:10368000200032BD2DE9F04104000D001600002796
:103690002000FFF748FF002802D00820070035E08F
:1036A000EA7831002000FFF771FF80464FFA88F872
:1036B00018F1010F28D0A878002803D02000FFF7C8
:1036C00094FE03E069782000FFF772FEE878002896
:1036D00007D02A7821004FFA88F84046FFF710FEFD
:1036E00014E0DFF8A0034FFA88F8404490F848004F
:1036F00095F9001050EA8110DFF888134FFA88F826
:10370000414481F8480001E0042007003800BDE88A
:10371000F0812DE9F04104000D002000FFF7F7FED5
:10372000002827D02000FFF726FFDFF8581340B20B
:10373000084490F848603000C0B28709FFB2032FF8
:103740000AD12000FFF782FE002802D05FF00308B4
:103750000AE05FF0020807E0FFB2012F02D15FF03C
:10376000020801E05FF003084146C9B22000FFF7FC
:103770004DFE23E02000FFF7B2FE00281ED02000FF
:10378000FFF7F9FE0600B00010F580773000FFF774
:10379000A1FD380000B2FFF779FDEDB2002D0DD08C
:1037A0002000FFF7E8FE40B2FFF7EBFE8046404600
:1037B000002803D00120B040FFF77FFDBDE8F08175
:1037C00038B504002000FFF7A2FE002804D0002135
:1037D0002000FFF71BFE0FE02000FFF780FE00280F
:1037E0000AD02000FFF7C7FE05002800FFF77DFD87
:1037F0000120A840FFF765FD31BD10B50400200091
:10380000FFF7DEFF2000FFF76AFE002805D020004A
:10381000FFF7B1FE40B2FFF7A1FD2000FFF7D8FD92
:103820002000FFF7A8FEC0B2FFF7E3FE2000FFF77D
:103830009AFE10BD2DE9F04F87B0002402A80021A8
:1038400001604FF48070ADF80200012500200600F1
:10385000082E17D2BDF90200FFF70AFD002809D093
:103860002800FFF732FD002804D0BDF90200FFF761
:103870000DFD2C436D00BDF80200001DADF80200E7
:10388000761CE5E74FF4BE70FFF7F2FC00280AD083
:103890004FF4BE70FFF7FAFC54F0004402AA012175
:1038A0000020FFF7F1FD20061DD0012005000020BB
:1038B0000600082E17D2254212D03000FFF73FFD38
:1038C00007003000FFF742FD80463000FFF759FE49
:1038D00081464846002803D04146C9B23800C8474F
:1038E0006D00761CE5E7002C40F1BE80002706A89D
:1038F0000021016000208046B8F1000F07D15FF081
:10390000FF3005A941F8280018F10108F4E700206C
:10391000070000200600042E69D25A48304490F86F
:1039200050008DF801009DF8010030F0C0000190BA
:103930005448304490F9500010F1010F55D005A9BA
:103940000198FFF7B8FD00284FD09DF80100C0B2E4
:1039500080098DF800000198FFF70DFE40B2FFF7D7
:1039600010FE81464846002803D19DF80000032838
:103970003BD19DF80000032803D106A90198FFF769
:10398000A3FD0198FFF770FD824602A90198FFF799
:1039900092FD04900498002804D05FFA8AFABAF1E4
:1039A000020F07D0049800281FD15FFA8AFABAF1F3
:1039B000030F1AD19DF8000003280FD15FFA8AFA8D
:1039C000BAF1020F02D15FF0030B01E05FF0020BCE
:1039D0005946C9B20198FFF719FD7F1C48460028D7
:1039E00003D09DF800100198C847761C93E7FFB2FA
:1039F000002F35D05FF0010903AA01210020FFF755
:103A000043FD00208046B8F1000F0DD103A850F807
:103A1000280002A951F82810884202D000208146CF
:103A200002E018F10108EEE75FFA89F9B9F1000F39
:103A300002D00020070013E000208046B8F1000FFC
:103A40000ED103A850F8280002A941F8280006A8C2
:103A500050F8280005A941F8280018F10108EDE701
:103A6000FFB2002F7FF453AF07B0BDE8F08F000026
:103A7000046300400863004010650040FFE0FCFF65
:103A8000F08D0200C02A00200121DFF80C25C0B211
:103A900011507047DFF8001500B20858002801D017
:103AA000012000E00020C0B2704781B00021DFF8A3
:103AB000E82400B21150DFF8E01400B20958009178
:103AC000009901B0704710B4D2B2DFF8D034C0B260
:103AD000040123445A60C9B2DFF8C034C0B2040103
:103AE000195110BC7047DFF8B81408607047DFF850
:103AF000B414086070470120DFF8AC140860704708
:103B0000DFF8A8241060DFF8A82411607047C0B265
:103B1000DFF8A01408607047C0B2DFF89C1408609A
:103B2000704770B58AB04FF48270FFF7B3FF00287A
:103B30004ED04FF48270FFF7B8FFDFF8800490F8A2
:103B40002E00DFF8781491F82F1091F0010108424F
:103B50003ED100208DF80C00DFF86004406804902E
:103B6000DFF858040089ADF81400DFF85004C0688D
:103B7000002804D10020DFF8441408741EE0DFF8A8
:103B80003C04008BDFF834144883DFF83004C0684D
:103B9000DFF828144860DFF82404008BDFF81C14D9
:103BA00008810020DFF81414C860DFF8100490F8D2
:103BB0002E00002802D10020FFF766FF03A8DFF8DF
:103BC000FC13096888470020DFF8F01381F82F0004
:103BD000DFF8E80390F82E0000286DD04FF48070D5
:103BE000FFF758FF002867D04FF48070FFF75DFFA4
:103BF000DFF8C80390F82D00DFF8C013498B80B2BE
:103C000088421DD2DFF8B403408BDFF8B01391F87F
:103C10002D10401ADFF8A4134883DFF8A00390F8B2
:103C20002D10DFF898034068DFF890231289DFF841
:103C30008C335B8BD21A00EB4200FFF761FF34E05C
:103C4000DFF87803408BDFF8741391F82D1089B2F8
:103C5000884217D1DFF86403C068002812D0012021
:103C6000DFF8581381F82F000020DFF85013488345
:103C7000DFF8480390F82D10DFF84003C068FFF725
:103C80003FFF12E0DFF83403408BDFF8301391F888
:103C90002D1089B2884208D10120DFF8201381F865
:103CA0002F000020DFF8141348834FF48270FFF7D1
:103CB000FCFE0420FFF7E8FE4FF48870FFF7EAFEF1
:103CC00000280FD04FF48870FFF7EFFE0020DFF8D8
:103CD000EC12087402208DF8180006A8DFF8DC1238
:103CE000096888474FF48A70FFF7D4FE002808D08F
:103CF0004FF48A70FFF7D9FE0020DFF8C012087475
:103D000031E0DFF8B8024669002E2CD0B6FA86F012
:103D100004005FF00040E0408643A00010F58C7086
:103D20000500280000B2FFF7B5FE0028ECD02800FF
:103D300000B2FFF7BAFE01208DF800002DB2B5F5F4
:103D40008C70C0088DF804002800C0B2800810F004
:103D5000010090F001008DF805006846DFF85C1264
:103D600009688847D0E70AB070BD70B504000D003F
:103D7000DFF8480290F82C00002803D00820060045
:103D800030004DE02800002803D107200600300055
:103D900046E0002C02D1DFF828020400DFF81C0204
:103DA00005602078FFF7B3FE6078FFF7B5FEE07896
:103DB000DFF8081281F82E000120DFF8001281F8E8
:103DC0002C000020DFF8F41108740020DFF8EC115B
:103DD00081F82D000020DFF8E41148610020DFF8B1
:103DE000DC1181F82F007FF00040FFF780FE4FF4D8
:103DF0008270FFF75AFEA1780720FFF70DFA022024
:103E0000FFF771FEDFF8B40190F82E00002802D011
:103E10000120FFF768FEFFF76EFE0020060030006D
:103E200070BD70B504000D00DFF89001007C002823
:103E300003D01120060030002CE0DFF88001E4B24E
:103E400000EB4400007F002808D1DFF8700190F8F3
:103E50002D00401CDFF8641181F82D00E879DFF8AF
:103E60005C11E4B201EB44010877287ADFF84C11C9
:103E7000E4B201EB4401487729002000C0B201F010
:103E800025FF2A7AE9792000C0B2FFF71CFE002046
:103E90000600300070BD2DE9F04104000D00DFF890
:103EA0001C01007C002803D011200600300070E0C7
:103EB0000120DFF8081108740320FFF718FE012124
:103EC0002800FFF71DFE3D4890F82D0002280BDB6F
:103ED0000027FFB2082F07DA002200213800C0B205
:103EE000FFF7F1FD7F1CF4E73448E4B200EB440037
:103EF000427F3248E4B200EB4400017F2000C0B2B0
:103F0000FFF7E1FD0020FFF7BFFD0420FFF7BCFD38
:103F100042F210774FF48270FFF7BCFD002803D106
:103F2000002F01D07F1EF5E74FF48270FFF7BDFD33
:103F3000224890F82D00022819DB5FF000085FFA94
:103F400088F8B8F1080F12DA1C485FFA88F800EB1D
:103F50004800427F19485FFA88F800EB4800017F6B
:103F60004046C0B2FFF7AFFD18F10108E7E713487C
:103F700090F82E00002803D00320FFF7B4FD02E0E4
:103F80000220FFF7B0FD00200C4908740020060055
:103F90003000BDE8F0810000007000401075004066
:103FA0000473004008730040007500402C76004008
:103FB00030760040F0750040F4750040E82B00209A
:103FC000F48D0200DFF84405006810F1010F05D1FF
:103FD000DFF83C0500684FF48051484370472DE9F5
:103FE000FF4104000D0010260027E8463A0031008A
:103FF000404601F029FE207A012802D0022809D08B
:1040000014E000208DF8000020690290A08AADF82D
:104010000C000BE001208DF80000A089E189401A16
:10402000ADF80800A089ADF80A00FFE760680190CC
:104030002900C9B26846226892689047BDE8FF81AE
:10404000010000290BD0DFF8CC040068814206D3C0
:10405000DFF8C4040068814201D2012000E00020A2
:10406000704718B40300988AD98A401AB0F5806F57
:1040700004DA988AD98A401A020002E04FF480607C
:10408000020092B2D868D98A00EB81011869DC8AF3
:1040900000EB840029DF12BC70470100888928DF0B
:1040A0007047DFF87804406E401EDFF870144866F1
:1040B000DFF86804406E002807D1DFF86404007858
:1040C00010F0FD00DFF858140870DFF85004006E9F
:1040D000401CDFF848140866DFF84004006E04282E
:1040E00003D10020DFF834140866704738B5DFF8D4
:1040F0002C04DFF82814096E1822514300EB010547
:10410000DFF81804406E00282AD0287A012802D04F
:10411000022805D009E02800FFF7A3FF040006E00D
:104120002800FFF7BAFF040001E009200400112C69
:1041300010D1DFF8EC03007810F0FD00DFF8E01399
:104140000870DFF8DC03007850F00400DFF8D013CB
:10415000087005E0002C03D009212800FFF73FFF7D
:1041600031BD80B5DFF8B80300780621084209D1D7
:10417000DFF8AC03007850F00200DFF8A4130870F9
:10418000FFF7B4FF01BD38B504000020DFF8941339
:104190000870207A012802D002281CD02CE0A08AC6
:1041A000E18A401AB0F5806F04DAA08AE18A401AE9
:1041B000050002E04FF480600500E08A2818E082E4
:1041C000E08AA18A884205D100212000FFF707FF7D
:1041D000FFF767FF10E0A089401CA081E089401C28
:1041E000E081E089218A884205D100212000FFF783
:1041F000F6FEFFF756FFFFE731BD10B50400DFF80C
:1042000024030078401CDFF81C130870DFF8140347
:104210000078042809DB0020DFF808130870082163
:104220002000FFF7DCFEFFF73CFF10BD2DE9F04159
:104230000400BA48406E042801D100202BE0B748A2
:10424000006EB649496E0818042805D2B348006EBE
:10425000B249496E0D1805E0B048006EAF49496E8D
:104260000818051FAD48406E401CAC49486618262A
:104270000027AA48182101FB05F100EB01083A00CC
:104280003100404601F0E0FCA448182101FB05F193
:10429000084420600120BDE8F0812DE9F041A248EA
:1042A000A249401A0409A048A049401A0509FFF78D
:1042B00089FE01009A480078C00701D5002052E02D
:1042C0000020A0420CD2934A126812EB001213682D
:1042D000002B03D05368002B00D06D1E401CF0E76C
:1042E0000020A84238D28B4A126812EB0012002339
:1042F00006000027A7421DD2DFF818C2DCF800C074
:104300001CEB071CDCF800E0BEF1000F04D0DCF869
:1043100004E0BEF1000F0BD19E469CF80D805FFAC1
:104320008EFEC64504D29CF80DE07346BE46764626
:104330007F1CDFE7774F3F68F6B217EB06173A00AE
:104340005160177BDFF8E8C10CFB07F70F441760DB
:1043500012681100401CC4E77148007850F0010059
:104360006F4A10700020BDE8F0812DE9F04182B065
:1043700004000D0016001F00DDF82080684800785A
:10438000C00701D401203EE02000FFF759FE0028BD
:1043900001D1022037E0002E01D0002D01D10320F1
:1043A00031E016F00300002803D115F003000028C7
:1043B00001D0062027E02068854205D36068BFB29F
:1043C00005EB8701884201D205201CE0BFB2002F17
:1043D00001D1042017E06846FFF728FF002801D12B
:1043E000072010E00098C0F80480009804600120C5
:1043F000009908720098C66000980561009887824D
:10440000FFF7AFFE0020BDE8F681F8B504000D000F
:1044100016001F0042480078C00701D4012037E091
:104420002000FFF70DFE002801D1022030E0002D12
:1044300001D103202CE0280501D0062028E02068C7
:10444000854208D36068B6B24FF4805101FB06F193
:104450002944884201D205201AE0B6B2002E01D1CB
:10446000042015E06846FFF7E1FE002801D107208F
:104470000EE00098476000980460022000990872DE
:10448000280B0099888100980682FFF76AFE0020B9
:10449000F2BD0100002901D1032003E01F48406E56
:1044A00008600020704738B504001C481B49096E9D
:1044B0001822514300EB01051948007880070DD5FB
:1044C0002000022802D0032804D01BE02800FFF7B8
:1044D0005AFE17E02800FFF790FE13E0104800781E
:1044E00040070FD50E48007810F0FB000C4908700B
:1044F0000A48406E002805D00948007850F00200B4
:1045000007490870FFF7F2FD31BD000014100010DC
:10451000140000104C21002050210020582A0020B7
:10452000F22F0020F32F0020DC210020CC210020DE
:1045300000F0FFFF62B38B0708D0521E11F8013B59
:1045400000F8013B00F024808B07F6D1830740F090
:10455000208000BF103A07D330B4B1E83810103AC9
:10456000A0E83810F9D230BC530724BFB1E80810D6
:10457000A0E8081044BF51F8043B40F8043BD207C0
:1045800024BF31F8022B20F8022B44BF0B780370B4
:104590007047083A07D3B1E80810083A40F8043BDE
:1045A00040F804CBF7D25307E4E7FEE701005FF0E1
:1045B000A04070472DE9F14181B00E0017009846E8
:1045C000089C099D01A8FFF7F1FFF6B2FFB256EA79
:1045D00047015FFA88F851EA8801E4B251EA042100
:1045E000EDB251EA0541019A00EB8202C2F80017D0
:1045F000BDE8F38130B583B004000D0000200190C8
:10460000002000902B00DBB2002200212000FFF7E9
:10461000D1FF37BD11B581B001A8FFF7C7FF040076
:10462000200000F005F80199C84010F0010016BD07
:10463000D0F810057047FEB501208DF800009DF8F8
:10464000000010F00F0050F010008DF8000009225B
:10465000DFF8101768467CDF04002500002D02D02B
:104660002800FCF7A3FE0825002601AF3200290030
:10467000380001F0E9FA1020ADF804003C20ADF854
:1046800006000020ADF808004FF4C870ADF80A002D
:1046900001A87ADF04002700002F02D03800FCF7C1
:1046A00085FE042077DF04002500002D02D02800BD
:1046B000FCF77CFEF7BD30B40123DFF8AC46237075
:1046C000002392B2934206D2CC5CDFF89C561D4484
:1046D0006C765B1CF5E730BC7047F8B50425002606
:1046E0006F4632002900380001F0AEFADFF87C0690
:1046F00000906946DFF87806FEF7E7FC0400270023
:10470000002F02D03800FCF751FEF1BD70B5040057
:10471000207800280BD13B21DFF85806008876DF8F
:1047200005002E00002E02D03000FCF73FFE70BDC9
:1047300010B504002000FCF739FE10BDF0B587B0BD
:104740001C2500266F4632002900380001F07CFA53
:10475000002000905FF4203001905FF47020029000
:1047600003208DF80C000020ADF80E0000208DF81D
:104770001000DFF804060590DFF800060690684692
:1047800001F02AFB04002700002F02D03800FCF7BC
:104790000DFE07B0F0BD38B5002000F0F8FC0400B5
:1047A0002500002D02D02800FCF700FE01F05CFC83
:1047B00004002500002D02D02800FCF7F7FD32DFB1
:1047C00004002500002D02D02800FCF7EFFD31BDCC
:1047D00070B50400E4B2200000280CD003280DD1ED
:1047E000022000F0D4FC05002E00002E02D0300084
:1047F000FCF7DCFD02E0FFF7CEFFFFE770BD70B510
:1048000088B004002088012813D0022865D0102821
:1048100010D011281DD013282BD03B2847D0512869
:1048200066D0522834D0552800F09180562849D0BF
:1048300098E097E0072000F0AAFC05002E00002E6B
:1048400002D03000FCF7B2FDA088DFF82815088000
:1048500088E0002000F09BFC05002E00002E02D016
:104860003000FCF7A3FD4FF6FF70DFF80815088055
:1048700078E0002300228521DFF8F80400887FDF3C
:1048800005002E00002E02D03000FCF78FFD69E0FD
:10489000002300220021DFF8DC040088A9DF0500E6
:1048A0002E00002E02D03000FCF780FD5AE01321CC
:1048B000A08876DF05002E00002E02D03000FCF725
:1048C00075FD4FE01321A08876DF05002E00002E35
:1048D00002D03000FCF76AFD44E00021A08867DFC9
:1048E00005002E00002E02D03000FCF75FFD39E0FD
:1048F0006846A11D1022FFF71DFE9DF8000000284C
:1049000024D09DF80800042807D09DF80800062848
:1049100003D09DF80800052818D19DF80000022852
:1049200003D102208DF8100002E001208DF8100064
:104930004FF4C170ADF8140004A9A088A8DF0500E9
:104940002E00002E02D03000FCF730FD0AE01721C7
:10495000A088ADDF05002E00002E02D03000FCF74D
:1049600025FDFFE708B070BD10B50400200001F080
:1049700000FB2100DFF8F803FEF787FB2000FFF7BC
:104980003EFF200001F049FE200001F084FB10BD35
:1049900010B504002000FFF786FD10BD70B588B08B
:1049A000DFF8DC030068009000235022DFF8D41306
:1049B000684601F085FF05002E00002E02D0300071
:1049C000FCF7F4FC01AA0121002001F0DEFF040045
:1049D0002600002E02D03000FCF7E8FC1720ADF8CE
:1049E000140001A801F0F0FF04002500002D02D002
:1049F0002800FCF7DBFCDFF8900301F09FFF0400C8
:104A00002500002D02D02800FCF7D0FCDFF87C0345
:104A100001F09EFF04002500002D02D02800FCF7C5
:104A2000C5FC08B070BD2DE9F04FA7B03C250026AD
:104A300018AF32002900380001F006F902208DF885
:104A4000600000208DF8620005208DF863003C278F
:104A50005FF000080DF1240942463900484601F094
:104A6000F3F80120ADF83400DFF824030E905FF076
:104A700020095FF0000A0DF1040B524649465846E2
:104A800001F0E2F801208DF80700402005901E207B
:104A9000069000200090DFF8FC3201AA09A918A8AE
:104AA00001F02FFC0400A346BBF1000F02D05846D2
:104AB000FCF77CFC27B0BDE8F08F3EDF704738B5CF
:104AC0000400B5480088401CB3490880B34800780A
:104AD000002809D1B0480088652805DB0120AF49CE
:104AE00008700020FEF72EF9FBF768FE0A20FFF79A
:104AF00091FD002821D1AA48007800281DD1A9489D
:104B00000078401CA7490870A64890F90000652865
:104B100003DB7FF06300A3490870A24890F900000E
:104B2000012802DB9F48007803E09E4890F90000CE
:104B30004042C0B2FEF70CF99DE00A20FFF76AFD83
:104B4000002808D00920FFF765FD002803D00020C9
:104B5000954908708FE00A20FFF75CFD002800F0FF
:104B60008A800920FFF756FD002840F0848001204C
:104B70007D49C87001208C4908708C480078401C21
:104B80008A490870894890F90000052807DB002051
:104B90008649087083480078401C82490870814823
:104BA00090F90000652803DB7FF063007D49087001
:104BB0007C4890F90000012802DB7A48007803E085
:104BC000784890F900004042C0B2FEF7C1F878483A
:104BD0000068B0F57A7F19DA75480068401C74499E
:104BE000086073480068B0F5FA7F44DD71480568D5
:104BF00071480068FDF75CF90022704B01F014FF6A
:104C0000FDF77EF940196B49086034E06848006898
:104C1000B0F57A7F2FD166480068401C644908606F
:104C2000644800684FF4FA7190FBF1F06449088021
:104C3000002002280FDA0221614AB2F9002090FB1D
:104C4000F1F301FB03F1091AC90008310A415D497A
:104C50000A54401CEDE710215B48FDF7A8F95948BC
:104C6000007859498873574840785749C8731021CC
:104C70005548FDF784F931BD38B5544A01215448EF
:104C800002F08AFB04002500002D02D02800FCF76A
:104C90008DFB31BD38B5002242214D48006802F03D
:104CA0009AFB04002500002D02D02800FCF77EFBB3
:104CB00031BD38B54648006802F0B6FB0400250057
:104CC000002D02D02800FCF771FB31BD70B500212A
:104CD0000A20FFF78FFC00210920FFF78BFCFEF76D
:104CE0000DF86420FEF72EF8FCF782FDFFF7D5FAE9
:104CF00010213548FDF75BF93348807B00023249CB
:104D0000C97B40182E4908800023324A0521002023
:104D100002F008FB05002E00002E02D03000FCF748
:104D200045FBFFF73BFEFFF786FCFFF7D6FCFFF7DE
:104D30007AFEFFF703FD032001F0BAFB0400260012
:104D4000002E02D03000FCF731FBFAF765FBFCF7D0
:104D50003BF8FFF791FFFCF724FEFFF79BFFFFF7FF
:104D6000ACFEFCE7A88D020060210020B7460200DF
:104D7000A82D0020C82100200D4702003147020065
:104D8000EC8D0200182B00206949020091490200B5
:104D90005C210020D1470200D42F0020F42F0020F6
:104DA000F92F0020F62F0020F52F0020F72F0020EC
