:020000040001F9
:10F00000E0290020F18D0200CF1B0200271E020024
:10F01000071F020093320200CF45020000000000EB
:10F02000000000000000000000000000D75C0200AB
:10F03000E77602000000000063830200858D020075
:10F04000EB810200A78D0200678C02009913020079
:10F05000B38D02005D8E020059380200473B02006A
:10F060005F8E0200618E0200638E0200658E0200D8
:10F07000678E0200698E02006B8E02006D8E0200A8
:10F080006F8E020055730200718E0200738E0200B3
:10F0900081730200758E0200C9690200778E02003A
:10F0A000798E02007B8E02007D8E02007F8E020030
:10F0B0003D5C0200818E02000000000000000000A4
:10F0C000838E0200858E0200878E0200898E0200E8
:10F0D0008B8E02008D8E02008F8E020000000000D9
:10F0E0000000000000000000000000000000000020
:10F0F0000000000000000000000000000000000010
:10F1000000000000000000000000000000000000FF
:10F1100000000000000000000000000000000000EF
:10F40000DFF8FC1B0968491CDFF8F42B11600121AF
:10F41000DFF8F02B117070471FB5DFF8EC0B0FC849
:10F420006C4684E80F0014208DF8030011208DF83D
:10F43000020012208DF8010013208DF80000DFF883
:10F44000CC2B6946DFF8C80B01F03FFE0400002C0E
:10F4500002D0200001F0AEFF1FBDF0B583B0040064
:10F460000D0016001F008DF8045030788DF805004F
:10F470000020DFF8901B087000200090002302227B
:10F4800001A9DFF88C0B01F09CFEDFF8780B007807
:10F490000028FAD00020FEBDF8B504000D001600CB
:10F4A0001F0055F08000DFF86C1B08700020DFF8AB
:10F4B000541B0870781CC0B20090DFF85C3B01223E
:10F4C000DFF8501BDFF8480B01F07BFEBFB2012FC5
:10F4D00004D1DFF8300B00780028FAD0DFF8380BC1
:10F4E000407830700020F2BD80B50C23DFF82C2B63
:10F4F00022210020FFF7D0FF0020062812DADFF8D3
:10F50000181B01EB400189780902DFF80C2B02EB94
:10F510004002527851FA82F1DFF8042B22F81010E1
:10F52000401CEAE701BDF0EE401A90ED004AB0EE53
:10F53000442A91ED004A34EE204AF0EE442A32EE9D
:10F54000814A82EE844AF0EE443A31EEC24AF0EE4D
:10F55000424A44EE234AB0EE640AB7EE004A34EE63
:10F56000634A24EE224AB0EE443A81ED003A80ED3F
:10F57000000A7047DFF8A80AB0F9000000EE100A90
:10F58000B8EEC00ADFF89C0AD0ED000A30EE600A3F
:10F59000DFF8940AD0ED000A20EE200ADFF88C0A8A
:10F5A000D0ED000A20EE200ADFF8840A80ED000A80
:10F5B000DFF86C0AB0F9020000EE100AB8EEC00ADB
:10F5C000DFF8600AD0ED010A30EE600ADFF8580A71
:10F5D000D0ED000A20EE200ADFF8500AD0ED000A34
:10F5E00020EE200ADFF8480A80ED010ADFF8300A31
:10F5F000B0F9040000EE100AB8EEC00ADFF8240AE1
:10F60000D0ED020A30EE600ADFF81C0AD0ED000AE5
:10F6100020EE200ADFF8140AD0ED000A20EE200ABE
:10F62000DFF80C0A80ED020ADFF8F409B0F90600F1
:10F6300000EE100AB8EEC00ADFF8F809D0ED000AB3
:10F6400030EE600ADFF8F009D0ED000A20EE200A63
:10F65000DFF8E80980ED000ADFF8C409B0F9080016
:10F6600000EE100AB8EEC00ADFF8C809D0ED010AB2
:10F6700030EE600ADFF8C009D0ED000A20EE200A63
:10F68000DFF8B80980ED010ADFF89409B0F90A0043
:10F6900000EE100AB8EEC00ADFF89809D0ED020AB1
:10F6A00030EE600ADFF89009D0ED000A20EE200A63
:10F6B000DFF8880980ED020ADFF884090068002875
:10F6C00000F0A480DFF87C090068401CDFF87419A2
:10F6D0000860002003286EDADFF8441931F91010B1
:10F6E00000EE101AB8EEC00ADFF85C1901EB8001D9
:10F6F00081ED000ADFF82C1901EB800191ED000A81
:10F70000DFED410A30EE200ADFF83C1901EB800101
:10F71000D1ED000AB4EE600AF1EE10FA10D5DFF870
:10F72000041901EB800191ED000ADFED370A30EE9C
:10F73000200ADFF8141901EB800181ED000A24E0B2
:10F74000DFF8E01801EB800191ED000ADFEDE10A3E
:10F7500030EE200ADFF8F01801EB8001D1ED000A4D
:10F76000F4EE400AF1EE10FA0FD5DFF8B81801EB0D
:10F77000800191ED000ADFEDD70A30EE200ADFF8B4
:10F78000C81801EB800181ED000ADFF8C01801EB19
:10F79000800191ED000ADFF8B01801EB8001D1ED96
:10F7A000000A30EE200ADFF8A41801EB800181ED99
:10F7B000000A401C8EE7DFF88C08006840F6B9317B
:10F7C000884223DB0020DFF87C1808600020DFF887
:10F7D000701808600020032818DADFF8701801EBB1
:10F7E000800191ED000ADFEDBC0A80EE200ADFF80F
:10F7F000341801EB800181ED000ADFF85018002277
:10F8000041F82020401CE6E700004842DFF84008AD
:10F810000078002858D1DFF818084068DFF834185D
:10F820000860DFF80C08DFF8081891ED000AB1EE67
:10F83000400A80ED010ADFF8F807DFF818180968B8
:10F840000160DFF8EC078068DFF808180860DFF86F
:10F85000E007DFF8DC1791ED000AB1EE400A80ED19
:10F86000020ADFF8CC07DFF8EC1709680160DFF85F
:10F87000CC074068DFF8E0170860DFF8C007DFF862
:10F88000BC1791ED000AB1EE400A80ED010ADFF8E5
:10F89000AC07DFF8C41709680160DFF8A0078068CB
:10F8A000DFF8B4170860DFF89407DFF8901791EDE0
:10F8B000000AB1EE400A80ED020ADFF88007DFF8A7
:10F8C00098170968016004E1DFF8840700780128CF
:10F8D00040D1DFF85C078068DFF878170860DFF850
:10F8E0005007DFF84C1791ED000AB1EE400A80EDA9
:10F8F000020ADFF83C074068DFF834170860DFF8D9
:10F900003007DFF8501791ED000AB1EE400A80EDA4
:10F91000010ADFF828078068DFF83C170860DFF885
:10F920001C07DFF8181791ED000AB1EE400A80EDD0
:10F93000020ADFF808074068DFF800170860DFF800
:10F94000FC06DFF8141791ED000AB1EE400A80EDD5
:10F95000010ABEE0DFF8F806007802282CD1DFF8B3
:10F96000D0068068DFF8EC160860DFF8C406DFF820
:10F97000C01609688160DFF8B806DFF8D81691ED87
:10F98000000AB1EE400A80ED000ADFF8B006806898
:10F99000DFF8C4160860DFF8A406DFF8A0160968CF
:10F9A0008160DFF89806DFF8B01691ED000AB1EE3D
:10F9B000400A80ED000A8CE0DFF894060078032806
:10F9C0002CD1DFF86C068068DFF888160860DFF855
:10F9D0006006DFF85C1691ED000AB1EE400A80ED9A
:10F9E000020ADFF84C06DFF86C1609680160DFF8E0
:10F9F0004C068068DFF860160860DFF84006DFF824
:10FA00003C1691ED000AB1EE400A80ED020ADFF8E3
:10FA10002C06DFF84416096801605AE0DFF830066A
:10FA2000007804282CD1DFF808064068DFF8241697
:10FA30000860DFF8FC05DFF8F81591ED000AB1EE7B
:10FA4000400A80ED010ADFF8E805DFF808160968CA
:10FA50000160DFF8E8054068DFF8FC150860DFF8B2
:10FA6000DC05DFF8D81591ED000AB1EE400A80ED13
:10FA7000010ADFF8C805DFF8E0150968016028E031
:10FA8000DFF8CC050078052823D1DFF8A40540680D
:10FA9000DFF8C0150860DFF89805DFF894150968ED
:10FAA0004160DFF88C05DFF8AC1509680160DFF80C
:10FAB0008C054068DFF8A0150860DFF88005DFF8E6
:10FAC0007C1509684160DFF87405DFF88C1509685A
:10FAD00001607047000048C20000FA44DFF87C056E
:10FAE00090F9000000281AD1DFF8780590ED001A8F
:10FAF000B8EEC11AB4EE401AF1EE10FA0FD5DFF8E5
:10FB0000600590ED001AB8EEC11AB4EE601AF1EE7D
:10FB100010FA04D50120DFF84415087043E0DFF83F
:10FB20003C0590F90000012809D1F5EE400AF1EEFC
:10FB300010FA04D50020DFF82415087033E0DFF850
:10FB40001C0590F9000000281DD1DFF8180590ED84
:10FB5000001AB8EEC11AB4EE401AF1EE10FA12D53E
:10FB6000DFF8FC040068404201EE100AB8EEC11A4A
:10FB7000F4EE410AF1EE10FA05D55FF0FF30DFF840
:10FB8000DC1408700FE0DFF8D40490F9000010F1E5
:10FB9000010F08D1F5EE400AF1EE10FA03DD002066
:10FBA000DFF8B8140870DFF8B40490F90000DFF84B
:10FBB000B81491F9001088420ED0DFF8A004007844
:10FBC000DFF8A4140870DFF894040078DFF89414C8
:10FBD0000968484340B200E000207047010000205F
:10FBE000DFF8882492F90020012A11DBDFF8802455
:10FBF00092ED001AB8EEC11AB4EE401AF1EE10FA06
:10FC00001DD5BDEEC01ADFF8682482ED001A16E09B
:10FC1000DFF8582492F90020002A10D5DFF850248C
:10FC200092ED001AB8EEC11AB4EE401AF1EE10FAD5
:10FC300005D5BDEEC01ADFF8382482ED001ADFF8D2
:10FC40002C2492F90020002A1AD1DFF8182492ED12
:10FC5000001AB8EEC11AB4EE401AF1EE10FA0FD540
:10FC6000DFF8FC2392ED001AB8EEC11AB4EE601A68
:10FC7000F1EE10FA04D50122DFF8F0331A7059E0E2
:10FC8000DFF8E82392F90020012A13D1DFF8D0230E
:10FC90001268022392FBF3F201EE102AB8EEC11AA9
:10FCA000F4EE410AF1EE10FA04D50222DFF8BC337B
:10FCB0001A703FE0DFF8B42392F90020002A1DD12A
:10FCC000DFF8A02392ED001AB8EEC11AB4EE401A84
:10FCD000F1EE10FA12D5DFF888231268524201EED5
:10FCE000102AB8EEC11AF4EE410AF1EE10FA05D569
:10FCF0005FF0FF32DFF874331A701BE0DFF86C231B
:10FD000092F9002012F1010F14D1DFF85423126888
:10FD10005242022392FBF3F201EE102AB8EEC11A0E
:10FD2000B4EE601AF1EE10FA04D57FF00102DFF8AC
:10FD30003C331A70DFF8342392F90020022A06D0EF
:10FD4000DFF8282392F9002012F1020F17D1DFF813
:10FD50001C2392F90020022392FBF3F2DFF8103308
:10FD60001B685A4310000022DFF800331A7000228B
:10FD7000DFF8FC321A60DFF8FC2212680A6040B239
:10FD80007047DFF8F40290F9000000281AD1DFF87C
:10FD9000EC0290ED001AB8EEC11AB4EE401AF1EE82
:10FDA00010FA0FD5DFF8D80290ED001AB8EEC11A9C
:10FDB000B4EE601AF1EE10FA04D50120DFF8B812A3
:10FDC000087043E0DFF8B00290F90000012809D183
:10FDD000B5EE400AF1EE10FA04D50020DFF89812D3
:10FDE000087033E0DFF8900290F9000000281DD180
:10FDF000DFF888020068404201EE100AB8EEC11A2E
:10FE0000B4EE410AF1EE10FA10D5DFF8740290ED6D
:10FE1000001AB8EEC11AB4EE601AF1EE10FA05D568
:10FE20005FF0FF30DFF8501208700FE0DFF8480293
:10FE300090F9000010F1010F08D1B5EE400AF1EE83
:10FE400010FA03DD0020DFF830120870DFF8280216
:10FE500090F90000DFF82C1291F9001088420ED0C2
:10FE6000DFF814020078DFF81C120870DFF80802CF
:10FE70000078DFF808120968484340B200E000202B
:10FE8000704701000020DFF8002292F90020012ACB
:10FE900011DBDFF8E02192ED001AB8EEC11AB4EEE2
:10FEA000401AF1EE10FA1DD5BDEEC01ADFF8C421DC
:10FEB00082ED001A16E0DFF8D02192F90020002A26
:10FEC00010D5DFF8B02192ED001AB8EEC11AB4EEE9
:10FED000410AF1EE10FA05D5BDEEC01ADFF8942103
:10FEE00082ED001ADFF8A02192F90020002A1AD131
:10FEF000DFF8882192ED001AB8EEC11AB4EE401A6C
:10FF0000F1EE10FA0FD5DFF8782192ED001AB8EE75
:10FF1000C11AB4EE601AF1EE10FA04D50122DFF82E
:10FF200068311A7044E0DFF8602192F90020012A5C
:10FF300009D1B5EE400AF1EE10FA04D50222DFF83D
:10FF400048311A7034E0DFF8402192F90020002A8D
:10FF50001DD1DFF828211268524201EE102AB8EEB6
:10FF6000C11AB4EE410AF1EE10FA10D5DFF81021F3
:10FF700092ED001AB8EEC11AB4EE601AF1EE10FA62
:10FF800005D55FF0FF32DFF800311A7010E0DFF8BE
:10FF9000F82092F9002012F1010F09D1B5EE400AC4
:10FFA000F1EE10FA04DD7FF00102DFF8DC301A70A8
:10FFB000DFF8D42092F90020022A06D0DFF8C8200A
:10FFC00092F9002012F1020F17D10022DFF8B830A9
:10FFD0001A70DFF8A020126810000022DFF89430B9
:10FFE0001A60DFF8882092F90020DFF884301B685F
:10FFF0005A43022392FBF3F20A6040B270470000BA
:020000040002F8
:10000000B42F0020CA210020E08D020001F401007D
:10001000308E0200E42F0020102E0020502E0020F1
:100020005C2E0020802E0020AC210020B02100207A
:10003000742E0020A42E0020B4210020982E002031
:10004000942F0020902F0020682E00208C2E00205E
:1000500002300020982F00209C2F00200330002029
:100060009C210020A0210020043000200530002029
:10007000B82F0020BC2F002007300020A82100202E
:10008000A42100200830002006300020DFF82C0DCD
:10009000807E042800F06C81DFF8200D807E082827
:1000A00000F06681DFF8140D407EC00704D5012002
:1000B000DFF8081D487003E00020DFF8001D4870DD
:1000C000DFF8F80C407E800704D50120DFF8EC1C37
:1000D000887007E00020DFF8E41C88700020DFF85B
:1000E000DC1C4871DFF8D40C407E400704D50120A9
:1000F000DFF8C81CC87003E00020DFF8C01CC8701F
:10010000DFF8B80C407E000704D50120DFF8AC1CF6
:10011000087103E00020DFF8A41C0871DFF89C0CD4
:10012000407EC0060DD50120DFF8901C4871DFF835
:100130008C0C8078012808D00120DFF8801C8870A2
:1001400003E00020DFF8741C4871DFF8700C407E7B
:10015000800604D50120DFF8641C887103E00020CC
:10016000DFF8581C8871DFF8540C407E400604D537
:100170000120DFF8481CC87103E00020DFF83C1CB8
:10018000C871DFF8380C407E000604D50120DFF886
:100190002C1C087203E00020DFF8201C0872DFF836
:1001A0001C0CC07E002807D0DFF8100CC07EDFF8E2
:1001B0000C1C81F82E0004E00020DFF8001C81F800
:1001C0002E00DFF8F80B007F002807D0DFF8EC0BDB
:1001D000007FDFF8E81B81F82F0004E00020DFF843
:1001E000DC1B81F82F00DFF8D40B407F00280ED0F5
:1001F000DFF8C80B407FDFF8C41B81F83000DFF860
:10020000BC0B90F83000DFF8001B08600BE00A2000
:10021000DFF8A81B81F83000DFF8A00B90F8300061
:10022000DFF8E41A0860DFF8940B807F00280ED016
:10023000DFF8880B807FDFF8841B81F83100DFF85E
:100240007C0B90F83100DFF8C41A08600BE00A203C
:10025000DFF8681B81F83100DFF8600B90F831009F
:10026000DFF8A81A0860DFF8540BC07F00280ED012
:10027000DFF8480BC07FDFF8441B81F83200DFF85D
:100280003C0B90F83200DFF8381B08700BE00020C0
:10029000DFF8281B81F83200DFF8200B90F83200DD
:1002A000DFF81C1B0870DFF8140B90F82000002802
:1002B00008D0DFF8080B90F82000DFF8001B81F869
:1002C000330004E00020DFF8F41A81F83300DFF88F
:1002D000EC0A90F82100002808D0DFF8E00A90F836
:1002E0002100DFF8D81A81F8340004E00020DFF89C
:1002F000CC1A81F83400DFF8C40A90F822000028F4
:1003000008D0DFF8B80A90F82200DFF8B01A81F8B8
:10031000350004E00020DFF8A41A81F83500DFF88A
:100320009C0A90F82300002808D0DFF8900A90F883
:100330002300DFF8881A81F82D0004E00420DFF89C
:100340007C1A81F82D00DFF8740A90F82400002848
:1003500008D0DFF8680A90F82400DFF8601A81F806
:1003600036001AE00020DFF8541A81F8360014E055
:10037000DFF8480A807E042805D10120DFF83C1A06
:1003800081F8370009E0DFF8340A807E082804D1BC
:100390000220DFF8281A81F83700704710B50024D2
:1003A000DFF8180A407800280CD00120DFF89C1AEA
:1003B0000870DFF8980A807B50F00100DFF88C1A93
:1003C00088730BE00020DFF8841A0870DFF87C0ADD
:1003D000807B10F0FE00DFF8741A8873DFF8DC0908
:1003E0008078002862D0DFF8DC0990ED000ADFEDAC
:1003F000D20A30EE200AF2EE040A20EE200ABDEE08
:10040000C00A10EE100A00B2DFF8401A4862DFF8A6
:10041000B80990ED000ADFEDC80A30EE200AF2EECE
:10042000040A20EE200ABDEEC00A10EE100A00B247
:10043000DFF8181A8862DFF8940990ED000ADFED02
:10044000BE0A30EE200AF2EE040A20EE200ABDEECB
:10045000C00A10EE100A00B2DFF8F019C8620020DE
:10046000062816DA0221022290FBF2F2DFF8DC39CC
:1004700003EB8202526A90FBF1F301FB03F1091ACC
:10048000C90008310A41DFF8C4190144CA73401C8D
:10049000E6E70120DFF8B4194870DFF8B009807B87
:1004A00050F00200DFF8A41988730BE00020DFF899
:1004B0009C194870DFF89409807B10F0FD00DFF88C
:1004C0008C198873DFF8F408C07800284CD0DFF866
:1004D00080090078002801D101F027F9B54890ED96
:1004E000000ABDEEC00A10EE100ADFF86819B1F973
:1004F0000010401ADFF8541908630020022811DAAE
:100500000221DFF84829126B90FBF1F301FB03F1A4
:10051000091AC90008310A41DFF8301901444A7547
:10052000401CEBE701F0DDF8002810D0A24800687D
:10053000DFF8181981F83400DFF8100990F834005A
:10054000DFF8081908770120DFF80C19086001208E
:10055000DFF8F8188870DFF8F408807B50F00400AA
:10056000DFF8E818887312E0DFF8E4080078002864
:1005700001D001F0E3F80020DFF8D0188870DFF830
:10058000CC08807B10F0FB00DFF8C0188873DFF820
:100590002C080079002842D001F025FA844908800F
:1005A0008348B0F9000001F02BFADFF8B028DFF83B
:1005B000B03801F03BFA0022DFF8A83801F008FB60
:1005C00001F032FC794908607848006801F074FC59
:1005D0000022DFF8943801F029FA01F095FCDFF8E9
:1005E0006C1881F83500DFF8640890F83500DFF802
:1005F0005C18C8750120DFF85418C8700020DFF8B7
:10060000BC170871DFF84408807B50F00800DFF861
:100610003C1888730120DFF8401808600BE00020C8
:10062000DFF82818C870DFF82408807B10F0F70086
:10063000DFF818188873DFF884074079002855D050
:10064000DFF828080068564909680843002841D0A7
:1006500053480068DFF8F41781F836005148006805
:10066000DFF8E81781F83700DFF800080068DFF8E6
:10067000DC1781F838004C480068DFF8D01781F8A3
:100680003900DFF8C80790F83600DFF8C0170876A1
:10069000DFF8B80790F83700DFF8B0174876DFF8D2
:1006A000AC0790F83800DFF8A4178876DFF89C07CD
:1006B00090F83900DFF89417C876DFF89007807B50
:1006C00050F01000DFF8841788730120DFF88817D6
:1006D00008600BE00020DFF874170871DFF86C0782
:1006E000807B10F0EF00DFF864178873DFF8CC062A
:1006F00090F83700012821D18020DFF85017887347
:100700001021DFF86C0701F061FC0020102808DAE6
:10071000DFF85C17095CDFF834270244D173401C12
:10072000F4E70020DFF8941681F837000120DFF8A5
:10073000281708600AE000BF00003443DFF80C0708
:10074000807B10F07F00DFF804178873DFF8240740
:100750000088DFF8F816C8870020022811DA022185
:10076000DFF8E826D28F90FBF1F301FB03F1091AC1
:10077000C90008310A41DFF8D4160144CA77401C89
:10078000EBE70020132806DADFF8C0160144897B66
:100790000C19401CF6E7DFF8B40680F8214010BDC4
:1007A000802F0020842F00208C2F00207C2F002001
:1007B000E22F0020442F00205C2F002010B50024E1
:1007C000DFF8B4060068401CDFF8AC160860DFF8FC
:1007D000AC060078002810D0DFF8740600780028F6
:1007E00004D100F08CFF01F040FC06E0DFF8900639
:1007F0000078002801D001F038FCDFF8C00500784F
:10080000002805D0FFF742FC0020DFF8B015087083
:10081000DFF8A8058078002800F0DE81FEF764FE8E
:10082000FEF7A8FE9FEDD94ADFEDD83A9FEDD73A03
:10083000DFF85006D0ED022ADFF8480690ED012AD5
:10084000DFF84006D0ED001ADFF83C0690ED021A02
:10085000DFF83406D0ED010ADFF82C0690ED000A2F
:1008600001F0D6FC01F05AFCDFF8500590F8330097
:10087000002847D0DFF8440590F8330000EE100A56
:10088000B8EE401ADFEDC20ADFF80016DFF8000606
:10089000DFF8302592ED000AFEF745FEDFF824056B
:1008A00080ED000ADFF8140590F8330000EE100A1E
:1008B000B8EE401ADFEDB60ADFF8D815DFF8D80534
:1008C000DFF8042592ED000AFEF72DFEDFF8F804AC
:1008D00080ED000ADFF8E40490F8330000EE100A1F
:1008E000B8EE401ADFEDAA0ADFF8B015DFF8B00560
:1008F000DFF8D82492ED000AFEF715FEDFF8CC04ED
:1009000080ED000ADFF8B4044079002800F064812B
:10091000DFF89025DFF89015DFF89005DFF86835EF
:1009200093ED021ADFF86035D3ED010ADFF8583590
:1009300093ED000A01F0B4FBDFF87425DFF87415BD
:10094000DFF87405DFF83C3593ED021ADFF8343533
:10095000D3ED010ADFF82C3593ED000A01F0A0FB7E
:10096000DFF8540590ED000ADFF84C05D0ED000AE1
:1009700020EE200ADFF84005D0ED010ADFF8380547
:1009800090ED011A00EE810A02F048F9F7EE000A34
:1009900080EE800ADFF8240580ED000ADFF80C0500
:1009A00090ED000ADFF80405D0ED000A20EE200AE1
:1009B000DFF8F804D0ED010ADFF8F00490ED011A39
:1009C00000EE810A02F02AF9F7EE000A80EE800AB2
:1009D000DFF8EC0480ED000ADFF8DC04806801F049
:1009E0006BFA0022DFF8DC3401F020F801F01CFA89
:1009F000DFF8C4148860DFF8C404006801F05CFA12
:100A00000022DFF8C03401F011F801F00DFADFF830
:100A1000AC140860DFF8940490ED020ADFEDB90A27
:100A200030EE200ADFF8840480ED020ADFF87C044F
:100A3000806801F041FADFF89024DFF8903400F08C
:100A4000F5FF01F0F1F9DFF864148860DFF8700455
:100A5000006801F031FADFF87024DFF8703400F03C
:100A6000E5FF01F0E1F9DFF858140860DFF86004F1
:100A700090ED001ADFF85C04D0ED000ADFF858149E
:100A8000DFF85804DFF8302492ED020AFEF74BFD40
:100A9000DFF8240480ED020ADFF8340490ED001A38
:100AA000DFF83004D0ED000ADFF83414DFF8340446
:100AB000DFF8F82392ED020AFEF735FDDFF8EC03CC
:100AC00080ED020ADFF8080490ED001ADFF8040454
:100AD000D0ED000ADFF81014DFF81004DFF8DC2393
:100AE00092ED000AFEF71FFDDFF8D00380ED000A4B
:100AF000DFF8DC0390ED001ADFF8D803D0ED000A30
:100B0000DFF8EC13DFF8EC03DFF8B42392ED000A12
:100B1000FEF709FDDFF8A80380ED000ADFF89C036B
:100B200090ED000ADFF8D003D0ED000A30EE600A45
:100B3000DFF8C80380ED000ADFF8BC03DFF87C13A0
:100B4000096801609D4890F83600002822D1DFF83E
:100B5000AC0390ED000AF2EE040A60EE200ADFF822
:100B60004C0390ED020AFFF70CF9DFF80013086060
:100B7000DFF84403D0ED020ADFF8440390ED000AE9
:100B8000FEF7ACFFDFF87813086025E000000000F6
:100B90000AD7A33CDFF86C03DFF8601391ED000A7D
:100BA000F2EE040A60EE200ADFF8001391ED020A6B
:100BB000FFF767F9DFF8B4120860DFF84C03DFF8DD
:100BC000F812D1ED020ADFF8F81291ED000AFFF7F2
:100BD00005F8DFF82C130860DFF8300300780028F0
:100BE00059D07648807900280ED0744890F82E00AD
:100BF000002803D1642002F0B7F808E06F4890F8AD
:100C00002E0002F0B1F802E0002002F0ADF86B48CF
:100C1000C07900280ED0694890F82F00002803D131
:100C2000642002F0A7F808E0644890F82F0002F072
:100C3000A1F802E0002002F09DF86048007A002848
:100C400003D00120DFF8341208705C48807E8007F2
:100C500003D50120DFF8B8120860584890F8370033
:100C6000022818D10020554981F837001021DFF8FB
:100C7000000201F0ABF900200E2807DA4F490144C9
:100C8000C97EDFF8EC211154401CF5E71021DFF894
:100C9000E00101F083F9FFF781FBDFF870020078D3
:100CA00000282CD04548407800281AD0DFF864028C
:100CB0000068401CDFF85C120860DFF8580200682A
:100CC0003E4991F82D10884219DB0020DFF84412CC
:100CD00008601422DFF84012DFF8400202F04EFAFA
:100CE0000DE05D480068002809D01422DFF82812C2
:100CF000DFF8280202F042FA00205749086020007D
:100D0000C0B210BD00007AC4A0210020A82100209C
:100D100080B51C20DFF8081208700123DFF80022DC
:100D200010210020FEF799FB0020DFF8F411087075
:100D30000123DFF8EC2111210020FEF78EFB8E202D
:100D4000DFF8DC1108700123DFF8D42158210020DE
:100D5000FEF783FB0920DFF8C81108700123DFF8D4
:100D6000C02159210020FEF778FB0020DFF8B011E8
:100D700008700123DFF8A8215A210020FEF76DFB3F
:100D80008020DFF89C1108700123DFF894215B219B
:100D90000020FEF762FB0820614908700123604AC9
:100DA0005E210020FEF759FB10205D4908700123E9
:100DB0005B4A15210020FEF750FB01BD6021002099
:100DC00002300020082F0020102F00200C2F0020C0
:100DD00080B500208DF8000052480068002834D10A
:100DE0009DF800006A2806D001236A460F210020E2
:100DF000FEF752FBF4E74420494908700123484AB2
:100E000012210020FEF729FB7C20454908700123B0
:100E1000434A11210020FEF720FB0123404A102104
:100E20000020FEF71AFB00203D49087001233C4AD0
:100E300015210020FEF711FB80203949087002209F
:100E40003749087000203649087001BD682B002022
:100E5000F82F0020DE2F0020B02F00205839B4C812
:100E600076BE15400000D04000003440882F00209E
:100E7000F02D0020DC2F0020C02F002000300020AB
:100E8000F92F0020742E0020982E0020C82D00205D
:100E9000C42D0020D02D0020CC2D0020D82D0020E6
:100EA000D42D0020B82E0020B42E0020B02E00201B
:100EB000C42E0020C02E0020BC2E0020A02F002019
:100EC000AC2F0020000008406FA301BC0512843F36
:100ED000BC210020B82100201C2C0020182C002050
:100EE000242C0020202C00202C2C0020282C00203A
:100EF000342C0020302C0020A42F0020A82F00200C
:100F0000802F0020842F00208C2F00200130002013
:100F1000942F00206C2F0020762B0020A82D00207D
:100F2000E42F0020C42F00200122C9B24250704794
:100F300081B0002209B2425009B242580092009A90
:100F400001B0704709B24058002801D0012000E0EC
:100F50000020C0B27047C0F804137047C0F80813EF
:100F600070470721C0F800157047C0F80815C0F891
:100F70000C25C0F810357047C0F824157047C0F82C
:100F80004415D2B2C0F848257047C0F83415D2B223
:100F9000C0F838257047D2B2002A01D1002300E002
:100FA0000123C9B2012904D002D3032907D003D3F6
:100FB00007E053F0020304E053F0040301E053F0B0
:100FC0000603C0F854357047C9B2C0F8C015704761
:100FD0000121C0F8501570470021C0F85015704726
:100FE0000121C0F8401570470021C0F84015704736
:100FF00010F06040B0F1005F01D1012000E000205E
:10100000C0B2704701005FF0A04070472DE9F14188
:1010100081B00E0017009846089C099D01A8FFF7B3
:10102000F1FFF6B2FFB256EA47015FFA88F851EADB
:101030008801E4B251EA0421EDB251EA0541019A76
:1010400000EB8202C2F80017BDE8F3811CB5040072
:1010500000200190002000900023012201212000A7
:10106000FFF7D4FF13BD30B583B004000D0000209E
:101070000190002000902B00DBB200220021200014
:10108000FFF7C4FF37BD11B581B001A8FFF7BAFF64
:1010900004000120019910FA01F1200000F00FF87E
:1010A00013BD11B581B001A8FFF7ACFF040001200A
:1010B000019910FA01F1200000F004F813BDC0F806
:1010C00008157047C0F80C1570472DE9F84F04005B
:1010D0000D001600B4486179490100EB0107387E24
:1010E000002803D008208046404668E03E60287B08
:1010F000022803DA2878FFF7D4FF02E02878FFF708
:10110000C2FF0120A9492A7841F822006878FF2807
:1011100008D0687881464846FFF7C3FF4846FFF786
:1011200095FF02E05FF0FF308146A878FF2806D0E7
:10113000A878824600215046FFF795FF02E05FF055
:10114000FF308246E878FF2805D0E878FFF79BFF5C
:10115000E878FFF77BFF9448617949010844E97812
:1011600081762068834653464A4629785846FFF7D9
:10117000FCFEA9685846FFF7FFFE6A7B297B5846AC
:10118000FFF709FF69795846FFF71EFF3868002806
:1011900003D040215846FFF7DEFE5846FFF7E1FE38
:1011A0003868002804D0297994F9040002F046F840
:1011B0000020787601203876002080464046BDE841
:1011C000F28F2DE9FF4105000E00170098460A9C9A
:1011D0000096CDF808808DF804708DF80C40002240
:1011E0006946280000F08DF804B0BDE8F08110B524
:1011F0000400A07EFF2802D0A07EFFF744FF00205D
:10120000607600202071201D2168884710BD38B508
:1012100004000D00EDB2002D04D140212000FFF7A5
:101220009DFE03E040212000FFF795FE31BD38B55B
:1012300004000D00E80703D52000FFF7C9FE02E017
:101240002000FFF7C9FEA80703D52000FFF7C8FE5E
:1012500002E02000FFF7C8FE31BD2DE9F041040097
:101260000D0016001F003068002804D03068FFF71A
:10127000BFFE002807D0B06800280AD0B068FFF78A
:10128000B7FE002805D10020687610208046404631
:1012900035E0327931682000FFF771FE327BB168AA
:1012A0002000FFF772FE4FF48C712000FFF740FE24
:1012B00039002000FFF7BBFF380703D410212000BE
:1012C000FFF732FE286800280DD14FF48C71200002
:1012D000FFF738FE0028F8D0A87EFF280CD0A87EA3
:1012E000FFF7D1FE08E0B80810F0010090F001010E
:1012F000C9B22000FFF78BFF002080464046BDE8C2
:10130000F0812DE9F04180460C001500264898F840
:101310000510490100EB01060027707E002803D06C
:1013200011200700380022E03068002804D015F0B2
:10133000140F01D10120707694E80F0016F1080C0B
:101340008CE80F00707F10F0FE007077707F10F057
:10135000FD007077B07EFF2802D0B07EFFF7A1FEBF
:101360002B0022003100D8F80000FFF776FFBDE81F
:10137000F08138B504000D004FF48C712000FFF7A8
:10138000E1FD002807D04FF48C712000FFF7D0FD5D
:101390002800FFF72CFF31BD10B5034C2100044895
:1013A000FFF7E7FF10BD00004C2D002000070050A4
:1013B0000030004010B584B00400684600210022CF
:1013C00000230EC00C3802946A46002144F201004A
:1013D00001F058FF1FBD6400012110F01F02914071
:1013E000DFF8B02340B2430942F8231070470100F0
:1013F0005FF0A04070472DE9F14181B00E00170069
:101400009846089C099D01A8FFF7F1FFF6B2FFB2CC
:1014100056EA47015FFA88F851EA8801E4B251EAD6
:101420000421EDB251EA0541019A00EB8202C2F8B3
:101430000017BDE8F3811CB50400002001900020D6
:1014400000900023012201212000FFF7D4FF13BDEB
:1014500030B583B004000D00002001900020009002
:101460002B00DBB2002200212000FFF7C4FF37BDB4
:1014700011B581B001A8FFF7BAFF0400012001995E
:1014800010FA01F1200000F02DF813BD11B581B064
:1014900001A8FFF7ACFF04000120019910FA01F147
:1014A000200000F022F813BD38B504000D00002D17
:1014B00003D12000FFF7EAFF02E02000FFF7D8FF8A
:1014C00031BD11B581B001A8FFF791FF04002000E4
:1014D00000F005F80199C84010F0010016BDD0F8E1
:1014E00010057047C0F808157047C0F80C15704714
:1014F000A94900283DD0A94A126800BF00BF00BF1B
:1015000000BF00BF00BF00BF00BF8A422FD000BF96
:1015100000BF00BF00BF00BF00BF00BF00BF00BFD3
:1015200000BF00BF00BF00BF00BF00BF00BF00BFC3
:1015300000BF00BF00BF00BF00BF00BF00BF00BFB3
:1015400000BF00BF00BF00BF00BF00BF00BF00BFA3
:1015500000BF00BF00BF00BF00BF00BF00BF00BF93
:1015600000BF00BF00BF00BF00BF00BF00BF013809
:10157000C3D1704710B50400200040B2FFF72CFF24
:1015800010BD874890F834001430864908608448BC
:1015900090F8350084490860844890ED000A84483A
:1015A000D0ED000A30EE600A824880ED000A8048E3
:1015B0007E490968016080480068002810D1794898
:1015C00090ED000AB8EEC00A7A48D0ED000AB4EEF9
:1015D000600AF1EE10FA03D50120774908603FE078
:1015E00071480068002824D073480068012820DB77
:1015F0006C4890ED000AB8EEC00A6E48D0ED000AC3
:10160000B4EE600AF1EE10FA13D56C480068401C85
:101610006A490860644800686849096888421FDAB6
:1016200000206649086064480068401C6249086000
:1016300016E061480068012812DB614890ED000A5D
:10164000B8EEC00A5B48D0ED000AF4EE400AF1EEB5
:1016500010FA05D500205949086000205649086055
:10166000704738B504000D0056480078002805D0B2
:1016700000F045F801205449087031E000F0DEF830
:101680005249086051480068B0F5702F10DD4F488E
:101690000068C043401C4E4908604D48006880B255
:1016A0004B4908604A48006840424A49086003E0E4
:1016B0004648006847490860474890ED001A474887
:1016C000D0ED000A46494748424A92ED000AB8EE7A
:1016D000C00AFDF728FF354880ED000AFFF751FFEB
:1016E00031BD4148006834490968884205D0324814
:1016F00000683D490860012000E00020704780B587
:101700001E2002F08CF8402000F0FCF800F0B6F843
:10171000402807D04FF47A70FFF7EAFE402000F02F
:10172000F1F8F3E700F03AF901BD80B501202F4947
:1017300008700721062001F081FD01BD80B5002061
:101740002A4908700620FFF715FF01BD38B501F0E2
:1017500075FF04002500002D02D02800FFF72AFEA7
:1017600023480068009003208DF80100214A694653
:101770001E2001F099FF04002500002D02D0280052
:10178000FFF718FE01211E2001F0D5FFFFF7D6FF5D
:1017900031BD000080E100E00024F400C021002001
:1017A0006021002044210020582F0020442F0020D9
:1017B0004C2F0020482F00205C2F0020542F0020A9
:1017C0004821002000300020F92F00203C2F00206D
:1017D000502F0020402F0020402100203C210020DD
:1017E000F42E0020F02E0020602F0020F82F002083
:1017F000488E02006316020080B51F20FFF71BFE13
:10180000242000F07FF800F039F8242807D04FF4A6
:101810007A70FFF76DFE242000F074F8F3E7FFF70D
:1018200095FF00F0BBF801BD80B501211F20FFF737
:101830003BFE00211F20FFF737FE01BD38B5002415
:1018400000211E2001F077FF0025182D0ADAFFF78E
:10185000EBFF64001E20FFF734FE002800D0641C5C
:101860006D1CF2E7FFF7E0FFFFF7DEFFFFF7DCFF9D
:1018700001211E2001F05FFF200032BD38B5002598
:10188000EDB21B2D03DAFFF7CFFF6D1CF8E71E202A
:10189000FFF7D1FDFFF7C8FFFFF7C6FFAC2004003C
:1018A0000725012D12DB0120A8402100C9B2014209
:1018B00004D001211E20FFF7F7FD03E000211E20C8
:1018C000FFF7F2FDFFF7B0FF6D1EEAE703211E20D0
:1018D000FFF7BEFDFFF7A8FF002004000025EDB2D2
:1018E000082D0ADA6400FFF79FFF1E20FFF7E9FDCD
:1018F000002800D0641C6D1CF1E7FFF795FF200065
:10190000C0B232BDF8B5040000200600F6B21B2EAE
:1019100003DAFFF789FF761CF8E71E20FFF78BFD3F
:10192000FFF782FFFFF780FFCA20050007200600AF
:10193000F6B2002E12D00120B0402900C9B20142F7
:1019400004D001211E20FFF7AFFD03E000211E207F
:10195000FFF7AAFDFFF768FF761EE9E7FFF764FFD0
:1019600025000727002F12D40120B8402900C9B252
:10197000014204D001211E20FFF796FD03E0002163
:101980001E20FFF791FDFFF74FFF7F1EEAE70321BF
:101990001E20FFF75DFDFFF747FFF1BD80B5012178
:1019A0001F20FFF781FD01BD70473EB56846124913
:1019B0002CC92CC00C390C381049002002F0E7F972
:1019C000040000208DF8030000208DF80200694615
:1019D000002002F038FA04002500002D02D0280073
:1019E000FFF7E8FC37BD80B56946002002F065FAD4
:1019F000BDF9000002BD0000188E0200A919020006
:101A0000010040F10780F446404200F003F851F035
:101A10000041604709D0B0FA80F18840C91CC1F587
:101A20008461090501EBD02140057047B0B581EA1A
:101A3000030C0CF0004C40F2FF7515EA11541DBF69
:101A400015EA1357AC42AF4239E0E41923EA455393
:101A500043F48013C90241F0004141EA505EC702DD
:101A60001100A7FB020200284FF00000EEFB01204E
:101A70004FF00001E3FB072118BF42F001024018BC
:101A800000214941E3FB0E01A4F580640F0302D25B
:101A900052004041494154F101046CDD470872F1A4
:101AA000004250F1000051EB0451A1F580115CBFE0
:101AB00041EA0C01B0BD4CEA05510020B0BD05EA79
:101AC0001357AC4214BFAF4241E050EA410E1CBF75
:101AD00052EA430E02E061460020B0BD24423C447D
:101AE0001BD15FEA070EF6D0090302BF01460020B2
:101AF000AEF1140EB1FA81F7AEEB070401FA07FE5E
:101B00000C37C7F1200100FA07F7C8404EEA000E73
:101B100023EA455343F48013A2E733F00043B3FABA
:101B200083F704BFB2FA82FE77440B3FE41BB7F1A0
:101B3000200E2FBF02FA0EF3BB40C7F1200E22FA8F
:101B40000EFE38BF43EA0E03BA40641C82E750EA37
:101B5000410E14BF52EA430E6FF000014FF400171C
:101B600017EB430F8ABF194617EB410FB5E74CEA55
:101B700005510020B0BDD4F10104B4F120070FDA03
:101B8000C4F12007520828BF42F0010210FA07F5FD
:101B900001FA07F7E1BF2A43E0403843E1400FE094
:101BA000352C98DCC7F1200452EA400220FA07F2F3
:101BB00018BF42F0010231FA07F0A1400A430021A8
:101BC00072F1004250F1000051EB0C01B0BDFEE794
:101BD0002DE9F04140F2FF7581EA030C0CF0004C56
:101BE00015EA11541DBF15EA1357AC42AF42E9E0A4
:101BF000BC41C1F31301C3F31303801A994143F4A9
:101C0000801304D2641E4000494180185941C90222
:101C100041EA5051B1FBF3F603FB1611A2FB067526
:101C2000D7EBC020A94102D2761E80185941C902C3
:101C300041EA5051B1FBF3FE03FB1E11A2FB0E75EE
:101C4000D7EBC020A94103D2AEF1010E8018594153
:101C5000890241EA9051760546EA8E2EB1FBF3F6F1
:101C600003FB1611A2FB0675D7EB8020A94102D217
:101C7000761E80185941C90241EA50514EEA060EBB
:101C8000B1FBF3F603FB1611A2FB0675D7EBC020E0
:101C9000A94102D2761E80185941C90241EA505129
:101CA000B1FBF3F703FB1711A2FB0735D3EBC02001
:101CB000A94167F100070CBF004247F0010766F336
:101CC000D5274FEA1E31B80814F5806414DDBD072E
:101CD00075F1004250EB0E5051EB045111F5801F8D
:101CE0005CBF41EA0C01BDE8F0814CF07F6141F03E
:101CF000E0410020BDE8F081BD076D0840EA0E50CC
:101D000041F48011D4F10104B4F120060ADAC4F1DF
:101D100020060200E04001FA06F3E1401843B24019
:101D200015430EE0342C14DCC6F1200445EA4005CE
:101D30006D0820FA06F2154321FA06F0A1400D4382
:101D4000002175F1004250F1000051EB0C01BDE89B
:101D5000F08100205FEA0C01BDE8F081CFB9921854
:101D60005B41B3FA83F704BFB2FA82F6BF190B3FA7
:101D7000B7F120062FBF02FA06F3BB40C7F12006D9
:101D800022FA06F638BF3343BA401CB1E419641E88
:101D90002FE77F4231F00041B1FA81F404BFB0FA7D
:101DA00080F6A4190B3CB4F120062FBF00FA06F10F
:101DB000A140C4F1200620FA06F638BF3143A04006
:101DC0003C1B16E7AC421ABF05EA1357AF4214E0BA
:101DD00050EA41061CBF52EA4306BFE750EA4107FA
:101DE000304661461CBF41EA0551BDE8F08152EA28
:101DF000430C08BFC143BDE8F08100204FF400163A
:101E000016EB410F98BF16EB430F08BF16EB410FBF
:101E100024BFC14305E016EB430F0CBF61464CEAFB
:101E20000551BDE8F081FEE74FEAF17CBCF1E04CE2
:101E30002CBFBCF5001F11E05FEA4C0C34BFBCF1B5
:101E40007F5F2EE05FEA9C0C4FEA0C1C4FEA3C0CD3
:101E5000C10071F100414CEB50707047C90241EA7A
:101E60005051C00218BF41F0010141F000414FEA5A
:101E70006C50C0F10900212810D240EACC7CCCF192
:101E8000200C11FA0CF070F10040CCF1200C21FA7A
:101E90000CF00CF0004C40EB0C0070474FEACC709B
:101EA0007047490011F5001F04D84FEACC10FF30ED
:101EB000C0057047C81770475FF0FF0C1CEAD0518F
:101EC00014BF614506E0C110400721F0E04101F177
:101ED0006051704779B900F0004100020AD0B0FAB1
:101EE00080FC00FA0CF001F16051A1EB0C5101EB08
:101EF000D0214005704741020CBF40F4E0016FF073
:101F0000000100207047FEE7F446400D40EAC12082
:101F1000490006D200F00EF8004248BF6FF00040C2
:101F2000604700F007F84FF0004188428CBF084638
:101F30004042604740F00040490DA1F58061491CD6
:101F400005D4D1F11F0154BFC840C01770474FF0EE
:101F50000000704738B504000D002078002808D133
:101F6000EDB2002D05D122480068401C20490860D0
:101F700013E02078012810D1EDB2002D0DD11D48BD
:101F80000068401C1B4908600020009004231A4A86
:101F90001A480168194802F0FAF931BDF8B5040091
:101FA0000D00ADB2112D01DB1025FFE7ADB2124FD0
:101FB0002A002100380002F0CFFA002301220F4846
:101FC00001680E4802F033FA0600F1BD70B5040056
:101FD0000D00ADB2112D01DB1025FFE707480068A9
:101FE0000600ADB22A003100200002F0B5FA70BD43
:101FF000682F0020642F0020002E0020CC2100201C
:1020000001005FF0A04070472DE9F14181B00E0062
:1020100017009846089C099D01A8FFF7F1FFF6B24A
:10202000FFB256EA47015FFA88F851EA8801E4B244
:1020300051EA0421EDB251EA0541019A00EB820216
:10204000C2F80017BDE8F3817CB504000D0016004E
:102050003000C0B20190002000902B00DBB20022C3
:1020600000212000FFF7D0FF73BD80B502F035FEE0
:1020700002F0EAFE00F084FE022200211020FFF7A9
:10208000E3FF022201211620FFF7DEFFFEF740FEEC
:1020900001200249086032DF01BD0000782F0020D6
:1020A000DFF8583BD3ED001A61EE801ADFF84C3BA5
:1020B00093ED012A42EE201ADFF8403B93ED022A0D
:1020C00042EE011AC0ED001ADFF8303BD3ED031ADF
:1020D00061EE801ADFF8243B93ED042A42EE201AC9
:1020E000DFF8183B93ED052A42EE011AC1ED001A04
:1020F000DFF8083BD3ED061A61EE801ADFF8FC3AF0
:1021000093ED072A42EE201ADFF8F03A93ED082A01
:1021100042EE011AC2ED001A7047000080B52DEDA5
:10212000028BDFF8D80A0068FFF7C6FE41EC110BFE
:10213000B0EE418AF0EE618ADFF8C00AC068FFF7AE
:10214000BBFE41EC100BB0EE481AF0EE681A03F03B
:10215000F9F851EC100BFFF767FEDFF8981A0860EA
:10216000DFF8900A90ED000ADFED280A20EE200A41
:10217000DFF8800A80ED000ADFF8800A006AFFF7C6
:102180009BFE41EC110BB0EE418AF0EE618ADFF864
:102190006C0AC069FFF790FE41EC100BB0EE481AD4
:1021A000F0EE681A03F0CEF851EC100BFFF73CFE8E
:1021B000DFF8441A0860DFF8400A90ED000ADFED0E
:1021C000130A20EE200ADFF8300A80ED000ADFF85B
:1021D0002C0A8069FFF770FE41EC100B03F04CF9FC
:1021E00051EC100BFFF720FEDFF81C1A0860DFF837
:1021F000180A90ED000ADFED050A20EE200ADFF84C
:10220000080A80ED000ABDEC028B01BDBE2E6542BE
:10221000F8B52DED108B2DED071A99B0F0EE408A30
:10222000B0EE608ADFF8E40990ED009ADFF8DC098F
:10223000D0ED019ADFF8D40990ED02AADFF8CC09BD
:10224000D0ED03AAB0EE000A29EE000A8DED0C0ACB
:10225000B0EE000A29EE800A8DED090AB0EE000A00
:102260002AEE000A8DED080AB0EE000A2AEE800A76
:102270008DED0B0AB0EE000A29EE000A20EE0A0AE4
:102280008DED070AB0EE000A2AEE000A20EE2A0AB7
:102290008DED060A29EE090A8DED0A0A29EE29CAF2
:1022A00069EE0ACA29EE2A0A8DED020A29EEA9DA98
:1022B00029EE8A0A8DED010A69EEAADA2AEE0AEA07
:1022C0002AEE2A0A8DED000A2AEEAAFA28EEA80ABA
:1022D00008EE080ADDED190A9DED191A00EE810AD3
:1022E00010EE100AFFF7E8FD41EC100B03F0CCF8FC
:1022F00051EC100BFFF798FD0EEE900AF5EE40EA58
:10230000F1EE10FA00F07284B7EE000AC0EE2EEA89
:1023100068EEAE8A28EE2E8A9DED190A20EE2E0A6E
:102320008DED190AB0EE000A29EE000ADDED1D0A56
:1023300020EE200A8DED120AB0EE000A29EE000A06
:10234000DDED1E0A20EE200A8DED110AB0EE000A26
:1023500029EE000ADDED1F0A20EE200A8DED100A9D
:10236000B0EE000A29EE800ADDED1D0A20EE200AFB
:102370008DED0F0A9DED1D0ADDED0A0A20EE200A03
:10238000DDED110A00EEEA0ADDED100A00EE8A0A20
:10239000DDED1D0A00EE8D0ADDED090A9DED1E1A28
:1023A00060EE810A00EE8A0ADDED090A9DED1F1A32
:1023B00060EE810A00EEAA0ADDED1D0A00EECE0AEB
:1023C000DDED1D0A00EECF0A8DED140A9DED120A17
:1023D00020EE2A0ADDED1E0A9DED0A1A00EE810AA2
:1023E000DDED100A00EEE90ADDED0F0A00EE8A0AC3
:1023F000DDED1E0A00EECD0ADDED1E0A00EE8E0AAE
:10240000DDED080A9DED1F1A60EE810A00EEAA0AB2
:10241000DDED1E0A00EECF0A8DED130A9DED140AC4
:10242000DDED140A20EE200ADDED130A9DED131AEE
:1024300000EE810A10EE100AFFF73EFD41EC100B92
:1024400003F022F851EC100BFFF7EEFC0BEE100A34
:102450009DED120AB1EE400A20EE0A0ADDED110AE6
:1024600000EEA90ADDED1F0A9DED0A1A00EE810AB1
:10247000DDED0F0A00EEAA0ADDED1F0A00EECD0A1F
:10248000DDED080A9DED1E1A60EE810A00EEAA0A33
:10249000DDED1F0A00EECE0ADDED1F0A00EE8F0A09
:1024A000F0EE40BAB0EE000A2BEE000A8DED0E0AF7
:1024B000B0EE000A2BEE800A8DED0D0AB0EE000A98
:1024C0002DEE800ADDED070A30EE600A30EE680A74
:1024D000DDED080AF1EE600A20EE800AF0EE000A57
:1024E0009DED061A0CEE201A71EE480A9DED091AB0
:1024F00000EE810A6BEE8A0AB6EE001A31EE4E1A31
:1025000031EE4F1A21EE0B1A7DEEEC1A01EEAB1AEA
:10251000DDED1D1A31EEC11A00EE810AF1EE4B0A13
:1025200060EEAA0A4BEEA90A9DED011ADDED021A32
:1025300031EE611A21EE0B1ADDED001A7CEE211A44
:1025400001EEAB1ADDED1E1A31EE611A00EE810AC2
:102550006BEE0A0A3CEEAD1A21EE0B1AF6EE001AEB
:1025600071EECD1A71EECE1A01EEAB1ADDED1F1A27
:1025700031EE611A00EE810A8DED050AB0EE000A17
:102580002DEE800ADDED070A30EE600A30EE680AB3
:10259000DDED0B0A20EE200AF0EE000A9DED061A92
:1025A0000CEE201A71EE480A9DED0C1A00EE810A1D
:1025B000F1EE000A69EEA00AB0EE001A2EEE011A42
:1025C000F0EE001AB7EE002A0DEE612A31EE421A43
:1025D000DDED191A31EE811A00EE810A6BEEAA0ABE
:1025E000B6EE001A31EE4E1A31EE4F1A21EE0B1AEA
:1025F0007DEEEC1A01EEAB1ADDED1D1A31EE611A1B
:1026000000EE810A6BEE0A0A4BEE890A9DED011A73
:10261000DDED021A31EE611A21EE0B1ADDED001A22
:102620007CEE211A01EEAB1ADDED1E1A31EE611AB5
:1026300000EE810A6BEE2A0A9DED0D1A41EE690A41
:102640003CEEAD1A21EE0B1AF6EE001A71EECD1A21
:1026500071EECE1A01EEAB1ADDED1F1A31EE611AE2
:1026600000EE810A8DED040AB0EE000A2DEE800A1C
:10267000DDED070A30EE600A30EE680ADDED0C0A87
:10268000F1EE600A20EE800AF0EE000A9DED061AD7
:102690000CEE201A71EE480A9DED0B1A00EE810A2D
:1026A000F1EE000A6AEE200AB0EE001A2EEE011AD0
:1026B000F0EE001AB7EE002A0DEE612A31EE421A52
:1026C000DDED191A31EE811A00EE810ADDED0E0AF8
:1026D000F1EE600A60EE8A0A4BEEC90AB6EE001A05
:1026E00031EE4E1A31EE4F1A21EE0B1A7DEEEC1A36
:1026F00001EEAB1ADDED1D1A31EE611A00EE810A12
:102700006BEE290A4BEEAA0A9DED011ADDED021AC5
:1027100031EE611A21EE0B1ADDED001A7CEE211A62
:1027200001EEAB1ADDED1E1A31EE611A00EE810AE0
:102730006BEE090A9DED0D1A41EE4A0A3CEEAD1A08
:1027400021EE0B1AF6EE001A71EECD1A71EECE1ACA
:1027500001EEAB1ADDED1F1A31EE611A00EE810AAF
:102760008DED030AB0EE000A2DEE800ADDED070ABA
:1027700030EE600A30EE680ADDED090A20EE200A2C
:10278000F0EE000A9DED061A0CEE201A71EE480AD2
:102790009DED081A00EE810ADDED0E0AF1EE600AE9
:1027A00060EEAA0A4BEEA90AB6EE001A31EE4E1AF6
:1027B00031EE4F1A21EE0B1A7DEEEC1A01EEAB1A38
:1027C000DDED1D1A31EE611A00EE810AF1EE4B0AC1
:1027D00060EE890A4BEE8A0A9DED011ADDED021AC0
:1027E00031EE611A21EE0B1ADDED001A7CEE211A92
:1027F00001EEAB1ADDED1E1A31EE611A00EE810A10
:102800006BEE290A3CEEAD1A21EE0B1AF6EE001A19
:1028100071EECD1A71EECE1A01EEAB1ADDED1F1A74
:1028200031EE611A00EE810AF0EE40FA9DED050AE4
:10283000DDED050A20EE200ADDED040A9DED041A07
:1028400000EE810ADDED030A9DED031A00EE810A18
:102850000FEEAF0A10EE100AFFF72EFB41EC100B43
:1028600002F012FE51EC100BFFF7DEFA0EEE900AAA
:10287000B7EE000AC0EE2EEA9DED050A20EE2E0A04
:102880008DED050A9DED040A20EE2E0A8DED040A59
:102890009DED030A20EE2E0A8DED030A6FEEAEFACF
:1028A000B1EE690ADDED1A0A20EE200ADDED1B0A01
:1028B0000AEE600ADDED1C0A0AEEE00AF6EE000AF6
:1028C00020EE200A10EE100AFFF7F6FA04000D00C1
:1028D0009FEDCB0B02F0D8FD53EC102B5FF00050B6
:1028E000DFF82C13FFF7A2F85FF00052DFF8243373
:1028F000FFF79CF806000F000598FFF7DDFA32009D
:102900003B00FFF793F802000B002000290002F0C3
:102910003BFEFFF789FA18909DED1A0A29EE000A8E
:10292000DDED1C0A0AEE200ADDED1B0A0AEEE00AC4
:10293000F6EE000A20EE200A10EE100AFFF7BCFAAD
:1029400004000D009FEDAE0B02F09EFD53EC102B2A
:102950005FF00050DFF8B812FFF768F85FF0005240
:10296000DFF8B032FFF762F806000F000498FFF7B7
:10297000A3FA32003B00FFF759F802000B002000D9
:10298000290002F001FEFFF74FFA17909DED1B0A98
:1029900029EE000ADDED1C0A09EEE00ADDED1A0A57
:1029A0000AEEA00AF6EE000A20EE200A10EE100A47
:1029B000FFF782FA04000D009FED910B02F064FD19
:1029C00053EC102B5FF00050DFF84412FFF72EF8A5
:1029D0005FF00052DFF83C32FFF728F806000F00E6
:1029E0000398FFF769FA32003B00FFF71FF8020077
:1029F0000B002000290002F0C7FDFFF715FA169022
:102A00009DED1C0A29EE000ADDED1B0A09EEA00A65
:102A1000DDED1A0A0AEE600AF6EE000A20EE200A40
:102A200010EE100AFFF748FA04000D009FED740B3A
:102A300002F02AFD53EC102B5FF00050DFF8D011AC
:102A4000FEF7F4FF5FF00052DFF8C831FEF7EEFF4B
:102A500006000F001FEE900AFFF72EFA32003B002F
:102A6000FEF7E4FF02000B002000290002F08CFDBD
:102A7000FFF7DAF915909DED180ADFF89C01D0ED0B
:102A8000000A00EE209A9DED170ADFF88C01D0EDC8
:102A9000000A40EE209A9DED160ADFF87C01D0ED89
:102AA000000A00EE20AA9DED150ADFF86C01D0EDBA
:102AB000000A40EE20AA29EE090A09EEA90A0AEE48
:102AC0000A0A0AEEAA0A10EE100AFFF7F5F941EC1D
:102AD000100B02F0D9FC51EC100BFFF7A5F90EEE2C
:102AE000900AB7EE000AC0EE2EEA29EE2E0ADFF8B1
:102AF0001C0180ED000A29EEAE0ADFF8100180ED1E
:102B0000010A2AEE2E0ADFF8040180ED020A2AEEFD
:102B1000AE0ADFF8F80080ED030AB0EE000AF7EE27
:102B2000000A4EEE400AB0EE000A4FEE400A33486B
:102B3000C0ED000A9DED010ADDED020A30EE600AEB
:102B4000F0EE000A20EE200A2C4880ED010A3DEE4E
:102B5000AC0AF0EE000A20EE200A284880ED020AB6
:102B60009DED010ADDED020A30EE200AF0EE000ACA
:102B700020EE200A214880ED030AB0EE000AF7EEAD
:102B8000000A4DEE400AB0EE000A4FEE400A1B4824
:102B9000C0ED040A9DED000A30EE4C0AF0EE000A8A
:102BA00020EE200A154880ED050A3DEEEC0AF0EE15
:102BB000000A20EE200A114880ED060A9DED000A69
:102BC00030EE0C0AF0EE000A20EE200A0B4880EDF1
:102BD000070AB0EE000AF7EE000A4DEE400AB0EE2A
:102BE000000A4EEE400A0548C0ED080A20B0BDECD0
:102BF000108BF1BD0C2F0020102F0020482C00203E
:102C0000000000000000E83F082F002028210020DD
:102C1000FF210940C771AC3F3821002081B0F0EEA0
:102C2000400AB6EE000A20EE801AB0EE600A8DED82
:102C3000000A0A480099B0EB61000090DDED001A2F
:102C4000B0EE610A61EE001AB7EE082A01EEC02A62
:102C500022EE000A01B0704700000000DF59375F24
:102C600001005FF0A04070472DE9F14181B00E00F6
:102C700017009846089C099D01A8FFF7F1FFF6B2DE
:102C8000FFB256EA47015FFA88F851EA8801E4B2D8
:102C900051EA0421EDB251EA0541019A00EB8202AA
:102CA000C2F80017BDE8F3811CB5040000200190B4
:102CB000002000900023012201212000FFF7D4FF13
:102CC00013BD11B581B001A8FFF7CAFF04000120B0
:102CD000019910FA01F1200000F01CF813BD11B5A4
:102CE00081B001A8FFF7BCFF04000120019910FA90
:102CF00001F1200000F011F813BD38B504000D00FB
:102D0000002D03D12000FFF7EAFF02E02000FFF7CB
:102D1000D8FF31BDC0F808157047C0F80C157047D2
:102D20003EB5684625492CC92CC00C390C382448BE
:102D30000088ADF8060000226946224802F01AFE1B
:102D400004002500002D02D02800FEF733FB64208C
:102D50001D49088064201C494880022301221B4928
:102D6000184802F096FE37BDC0B250F40041164A32
:102D700011807047C0B250F40041134A518070472F
:102D800080B50020FFF7F0FF0020FFF7F3FF0121DF
:102D90000C4802F0C7FE0B4802F040FE0220FFF78D
:102DA00083FF00210220FFF7A8FF0320FFF77CFF2D
:102DB00000210320FFF7A1FF01BD0000008E0200EB
:102DC000D613020054210020F82E0020D08D0200DE
:102DD0008A88828270474FF6FF728282704770B590
:102DE00004000D00AE1D3088218A88420ED1708902
:102DF00002280BD116F10C0002F032FF002802D09D
:102E00000120A0750FE00020A0750CE03088A1889B
:102E1000884208D1A069002805D0728916F10C01FA
:102E20002000A369984770BD2DE9F24F92B00400CD
:102E3000032004900020039001AD039A0499280018
:102E400002F016FF9DF8040010F0F00050F00100B1
:102E50008DF804009DF8040010F00F0050F01000F1
:102E60008DF804009DF8050010F0F00050F001000E
:102E70008DF805009DF8050010F00F0050F01000CF
:102E80008DF805009DF8060010F0F90050F00200E2
:102E90008DF806001C2500260AAF320029003800F4
:102EA00002F0E6FE9DF8280050F010008DF8280092
:102EB00000200B9000200D9000200E9001A80F9094
:102EC0000020109020788DF80A000320ADF808004B
:102ED00003275FF00008E94642463900484602F001
:102EE000C7FE9DF8000010F0F00050F001008DF8D2
:102EF00000009DF8000010F00F0050F010008DF859
:102F000000009DF8010010F0F00050F001008DF875
:102F100001009DF8010010F00F0050F010008DF836
:102F200001009DF8020010F0F90050F002008DF849
:102F300002009DF8020010F0F7008DF802009DF8E5
:102F4000020010F0EF008DF802009DF8020050F032
:102F500001008DF802005FF014095FF0000A0DF126
:102F6000140B52464946584602F082FE02A80590CC
:102F7000684606900120ADF81C000020ADF81E0048
:102F80001420ADF8200014F10C0305AA0AA96088EA
:102F9000A2DF13B0BDE8F08F2DE9F24F8EB0040030
:102FA0001C25002607AF32002900380002F060FE21
:102FB0009DF81C0010F0F7008DF81C009DF81C0017
:102FC00050F004008DF81C000020089000200A90AA
:102FD00000200B9000200C9000200D9020788DF8A0
:102FE00006000220ADF8040003275FF00008E94660
:102FF00042463900484602F03BFE9DF8000010F0C2
:10300000F00050F001008DF800009DF8000010F075
:103010000F0050F010008DF800009DF8010010F036
:10302000F00050F001008DF801009DF8010010F053
:103030000F0050F010008DF801009DF8020010F014
:10304000F90050F002008DF802009DF8020010F027
:10305000F7008DF802009DF8020010F0EF008DF8E7
:1030600002009DF8020050F001008DF802005FF0B0
:1030700014095FF0000A0DF1080B52464946584604
:1030800002F0F6FD01A80290684603900120ADF819
:1030900010000020ADF812001420ADF81400231D1C
:1030A00002AA07A96088A2DF0FB0BDE8F08F38B58B
:1030B00004000D00002C01D0002D00D116E028885E
:1030C000102804D0112807D050280AD00EE029007B
:1030D0002000FFF77DFE09E029002000FFF77BFEBE
:1030E00004E029002000FFF77AFEFFE731BDF0B5CC
:1030F00085B004000D0020480FC801AF87E80F001D
:10310000002C01D10E2034E0002D01D10E2030E042
:103110004FF6FF70A0822868A0610020A0752100F2
:1031200001A863DF0600002E01D0300021E02078E6
:103130008DF802000120ADF80000A21C69460120B4
:10314000A0DF0600002E01D0300012E02900200090
:10315000FFF76AFE0600002E01D0300009E02900CA
:103160002000FFF719FF0600002E01D0300000E01C
:10317000002005B0F0BD0000C08D02002DE9F44133
:1031800085B004000D00002C01D10E2023E0A08AA0
:103190004FF6FF71884202D0A07D002801D108209F
:1031A00019E0BDF81400152801DB072013E01026F4
:1031B0000027E8463A003100404602F059FDA08958
:1031C000ADF80000039505A8029001208DF80200DB
:1031D0006946A08AA6DF06B0BDE8F081012110F0A3
:1031E0001F029140114A40B2430942F82310704730
:1031F000012110F01F0291400D4A40B2430942F8EC
:103200002310704710B440B2002808D54A01094B7A
:1032100040B210F00F04234403F8042C03E04A01E9
:10322000054B40B21A5410BC7047000000E100E0AA
:1032300080E200E018ED00E000E400E038B50400B2
:103240000D00EDB22900200040B2FFF7DBFF2000A7
:1032500040B2FFF7CDFF200040B2FFF7BFFF31BD06
:10326000BFF34F8F0548006810F4E060044908433D
:1032700002490860BFF34F8F00BFFDE70CED00E08F
:103280000400FA0570B504000D001600FFF7E8FF12
:1032900070BDFEE710B50400200000B200F019F880
:1032A0000068012801D1012000E00020C0B210BD5B
:1032B00010B582B00400200000B200F00AF800212E
:1032C0000160200000B200F004F80068009000984F
:1032D00013BD00B200F1804010F5C0407047DFF828
:1032E000B41708607047DFF8B01708607047DFF860
:1032F000A417096808407047DFF8A01751F820109C
:1033000051F00101DFF8942742F820107047DFF8F0
:103310008C1751F8201049084900DFF8802742F83F
:103320002010704730B4DFF8743753F82030DFF8DE
:1033300070472340DFF8644744F82030DFF85C37FB
:1033400053F820300C0214F4F854D2B2150415F4DA
:1033500040352C432343DFF8444744F8203030BC49
:103360007047DFF8381751F82000C0F30420704789
:10337000DFF8281751F82000000C10F00300704708
:103380000021DFF8182742F82010704701005FF095
:10339000A04070472DE9F14181B00E00170098461A
:1033A000089C099D01A8FFF7F1FFF6B2FFB256EAAB
:1033B00047015FFA88F851EA8801E4B251EA042132
:1033C000EDB251EA0541019A00EB8202C2F8001702
:1033D000BDE8F38130B583B004000D0000200190FA
:1033E000002000902B00DBB2002200212000FFF71C
:1033F000D1FF37BD1CB504000020019000200090D3
:103400000023012200212000FFF7C4FF13BD01B5F6
:103410006846FFF7BBFF009900EB8101D1F8001768
:1034200031F00201009A00EB8202C2F8001701BDE0
:1034300011B581B00C0001A8FFF7A8FF019900EBBE
:103440008101D1F8001731F44031019A00EB82027A
:10345000C2F80017019900EB8101D1F80017E4B21E
:1034600051EA0441019A00EB8202C2F8001713BD31
:1034700011B581B001A8FFF789FF0400200000F01A
:1034800012F80199C84010F0010016BD01B5684658
:10349000FFF77CFF009900EB8100D0F80007000CDB
:1034A00010F0030002BDD0F810057047F8B5040015
:1034B0000D0016006846DFF8EC150A680260270068
:1034C0002819874208D2684650F82700FFF7EBFF1B
:1034D0003060361D7F1CF3E7F1BDC20810F0070015
:1034E000012313FA00F08A5C1040704710B4C20840
:1034F00010F007008B5C0124844023438B5410BCE4
:103500007047DFF8A415014491F93010002908D460
:10351000DFF89415084490F93000082801DA0120FA
:1035200000E00020002801D0012000E00020C0B20F
:103530007047DFF87415084490F93000082801DB63
:10354000012000E00020C0B27047DFF85C1508449D
:1035500090F93000002801D4012000E00020C0B222
:10356000704710B4DFF84045044484F83010DFF8A9
:10357000384544F82120DBB2002B04D1DFF8284580
:103580000C4484F8480010BC70475FF0FF31DFF84E
:103590001825024482F830107047DFF80C150844F3
:1035A00090F930007047DFF8001551F8200070479F
:1035B0002DE9F04704000D0016005FF0FF37F6B26A
:1035C000002E02D05FF0000901E05FF00809F6B2BA
:1035D000002E02D05FF0080A01E05FF00C0AC84636
:1035E000D04514D2DFF8C00450F828005FF0FF3156
:1035F000884209D13300DBB22A0041462000FFF7A0
:10360000B0FF4046070002E018F10108E8E7380083
:1036100040B2BDE8F0875FF0FF31DFF88C24C0B224
:1036200042F82010C0B2082807DB5FF0FF31DFF856
:103630007824C0B2024482F84810704738B5DFF8E9
:10364000680490F85400002803D0082004002000EB
:1036500029E000200500EDB2202D05DAEDB22800AA
:10366000FFF793FF6D1CF6E700200500EDB20C2D6F
:1036700005DA2800C0B2FFF7CEFF6D1CF6E7072180
:103680000620FFF7DBFD4FF4BE70FFF711FE5FF081
:103690000040FFF724FE0120DFF80C1481F85400ED
:1036A00000200400200032BD2DE9F04104000D008F
:1036B000160000272000FFF748FF002802D008204E
:1036C000070035E0EA7831002000FFF771FF8046FF
:1036D0004FFA88F818F1010F28D0A878002803D0F5
:1036E0002000FFF794FE03E069782000FFF772FEE8
:1036F000E878002807D02A7821004FFA88F8404659
:10370000FFF710FE14E0DFF8A0034FFA88F84044FA
:1037100090F8480095F9001050EA8110DFF88813FE
:103720004FFA88F8414481F8480001E0042007007E
:103730003800BDE8F0812DE9F04104000D002000C3
:10374000FFF7F7FE002827D02000FFF726FFDFF85D
:10375000581340B2084490F848603000C0B287095E
:10376000FFB2032F0AD12000FFF782FE002802D00B
:103770005FF003080AE05FF0020807E0FFB2012FE4
:1037800002D15FF0020801E05FF003084146C9B2D0
:103790002000FFF74DFE23E02000FFF7B2FE0028D7
:1037A0001ED02000FFF7F9FE0600B00010F580776C
:1037B0003000FFF7A1FD380000B2FFF779FDEDB250
:1037C000002D0DD02000FFF7E8FE40B2FFF7EBFE22
:1037D00080464046002803D00120B040FFF77FFD1F
:1037E000BDE8F08138B504002000FFF7A2FE0028F4
:1037F00004D000212000FFF71BFE0FE02000FFF7A0
:1038000080FE00280AD02000FFF7C7FE0500280030
:10381000FFF77DFD0120A840FFF765FD31BD10B524
:1038200004002000FFF7DEFF2000FFF76AFE0028FB
:1038300005D02000FFF7B1FE40B2FFF7A1FD200048
:10384000FFF7D8FD2000FFF7A8FEC0B2FFF7E3FEA8
:103850002000FFF79AFE10BD2DE9F04F87B000243D
:1038600002A8002101604FF48070ADF8020001252C
:1038700000200600082E17D2BDF90200FFF70AFD4E
:10388000002809D02800FFF732FD002804D0BDF938
:103890000200FFF70DFD2C436D00BDF80200001D76
:1038A000ADF80200761CE5E74FF4BE70FFF7F2FCBE
:1038B00000280AD04FF4BE70FFF7FAFC54F0004421
:1038C00002AA01210020FFF7F1FD20061DD00120F2
:1038D000050000200600082E17D2254212D0300025
:1038E000FFF73FFD07003000FFF742FD8046300044
:1038F000FFF759FE81464846002803D04146C9B229
:103900003800C8476D00761CE5E7002C40F1BE800A
:10391000002706A80021016000208046B8F1000FB2
:1039200007D15FF0FF3005A941F8280018F1010820
:10393000F4E70020070000200600042E69D25A4850
:10394000304490F850008DF801009DF8010030F0EF
:10395000C00001905448304490F9500010F1010F1C
:1039600055D005A90198FFF7B8FD00284FD09DF864
:103970000100C0B280098DF800000198FFF70DFE2C
:1039800040B2FFF710FE81464846002803D19DF85B
:10399000000003283BD19DF80000032803D106A9AD
:1039A0000198FFF7A3FD0198FFF770FD824602A979
:1039B0000198FFF792FD04900498002804D05FFA64
:1039C0008AFABAF1020F07D0049800281FD15FFAD3
:1039D0008AFABAF1030F1AD19DF8000003280FD11B
:1039E0005FFA8AFABAF1020F02D15FF0030B01E02D
:1039F0005FF0020B5946C9B20198FFF719FD7F1C11
:103A00004846002803D09DF800100198C847761C4E
:103A100093E7FFB2002F35D05FF0010903AA01211F
:103A20000020FFF743FD00208046B8F1000F0DD1C4
:103A300003A850F8280002A951F82810884202D0A3
:103A40000020814602E018F10108EEE75FFA89F9EB
:103A5000B9F1000F02D00020070013E000208046DB
:103A6000B8F1000F0ED103A850F8280002A941F8C0
:103A7000280006A850F8280005A941F8280018F1E8
:103A80000108EDE7FFB2002F7FF453AF07B0BDE8A8
:103A9000F08F0000046300400863004010650040A0
:103AA000FFE0FCFF548E0200C02A00200121DFF855
:103AB0000C25C0B211507047DFF8001500B208584D
:103AC000002801D0012000E00020C0B2704781B082
:103AD0000021DFF8E82400B21150DFF8E01400B252
:103AE00009580091009901B0704710B4D2B2DFF8C4
:103AF000D034C0B2040123445A60C9B2DFF8C034E4
:103B0000C0B20401195110BC7047DFF8B814086046
:103B10007047DFF8B414086070470120DFF8AC1478
:103B200008607047DFF8A8241060DFF8A82411604F
:103B30007047C0B2DFF8A01408607047C0B2DFF869
:103B40009C140860704770B58AB04FF48270FFF71C
:103B5000B3FF00284ED04FF48270FFF7B8FFDFF8B4
:103B6000800490F82E00DFF8781491F82F1091F06F
:103B7000010108423ED100208DF80C00DFF86004FE
:103B800040680490DFF858040089ADF81400DFF8AD
:103B90005004C068002804D10020DFF844140874E1
:103BA0001EE0DFF83C04008BDFF834144883DFF8B4
:103BB0003004C068DFF828144860DFF82404008B64
:103BC000DFF81C1408810020DFF81414C860DFF847
:103BD000100490F82E00002802D10020FFF766FFA5
:103BE00003A8DFF8FC13096888470020DFF8F0130A
:103BF00081F82F00DFF8E80390F82E0000286DD040
:103C00004FF48070FFF758FF002867D04FF48070A2
:103C1000FFF75DFFDFF8C80390F82D00DFF8C01351
:103C2000498B80B288421DD2DFF8B403408BDFF8A5
:103C3000B01391F82D10401ADFF8A4134883DFF871
:103C4000A00390F82D10DFF898034068DFF8902368
:103C50001289DFF88C335B8BD21A00EB4200FFF73E
:103C600061FF34E0DFF87803408BDFF8741391F8DC
:103C70002D1089B2884217D1DFF86403C06800288C
:103C800012D00120DFF8581381F82F000020DFF850
:103C900050134883DFF8480390F82D10DFF84003F5
:103CA000C068FFF73FFF12E0DFF83403408BDFF816
:103CB000301391F82D1089B2884208D10120DFF825
:103CC000201381F82F000020DFF8141348834FF4ED
:103CD0008270FFF7FCFE0420FFF7E8FE4FF48870C7
:103CE000FFF7EAFE00280FD04FF48870FFF7EFFED1
:103CF0000020DFF8EC12087402208DF8180006A8E6
:103D0000DFF8DC12096888474FF48A70FFF7D4FEA9
:103D1000002808D04FF48A70FFF7D9FE0020DFF8A2
:103D2000C012087431E0DFF8B8024669002E2CD0CA
:103D3000B6FA86F004005FF00040E0408643A00041
:103D400010F58C700500280000B2FFF7B5FE0028C2
:103D5000ECD0280000B2FFF7BAFE01208DF8000079
:103D60002DB2B5F58C70C0088DF804002800C0B2E3
:103D7000800810F0010090F001008DF80500684601
:103D8000DFF85C1209688847D0E70AB070BD70B5EB
:103D900004000D00DFF8480290F82C00002803D042
:103DA0000820060030004DE02800002803D107203D
:103DB0000600300046E0002C02D1DFF828020400A3
:103DC000DFF81C0205602078FFF7B3FE6078FFF78C
:103DD000B5FEE078DFF8081281F82E000120DFF848
:103DE000001281F82C000020DFF8F4110874002084
:103DF000DFF8EC1181F82D000020DFF8E4114861B4
:103E00000020DFF8DC1181F82F007FF00040FFF781
:103E100080FE4FF48270FFF75AFEA1780720FFF76B
:103E20000DFA0220FFF771FEDFF8B40190F82E00C2
:103E3000002802D00120FFF768FEFFF76EFE002089
:103E40000600300070BD70B504000D00DFF8900171
:103E5000007C002803D01120060030002CE0DFF8A1
:103E60008001E4B200EB4400007F002808D1DFF8B5
:103E7000700190F82D00401CDFF8641181F82D00CE
:103E8000E879DFF85C11E4B201EB44010877287AA5
:103E9000DFF84C11E4B201EB44014877290020001F
:103EA000C0B201F027FF2A7AE9792000C0B2FFF7FB
:103EB0001CFE00200600300070BD2DE9F04104001A
:103EC0000D00DFF81C01007C002803D01120060043
:103ED000300070E00120DFF8081108740320FFF7BC
:103EE00018FE01212800FFF71DFE3D4890F82D0027
:103EF00002280BDB0027FFB2082F07DA002200217F
:103F00003800C0B2FFF7F1FD7F1CF4E73448E4B29B
:103F100000EB4400427F3248E4B200EB4400017FF2
:103F20002000C0B2FFF7E1FD0020FFF7BFFD042035
:103F3000FFF7BCFD42F210774FF48270FFF7BCFD33
:103F4000002803D1002F01D07F1EF5E74FF48270C7
:103F5000FFF7BDFD224890F82D00022819DB5FF025
:103F600000085FFA88F8B8F1080F12DA1C485FFA07
:103F700088F800EB4800427F19485FFA88F800EBA8
:103F80004800017F4046C0B2FFF7AFFD18F10108BD
:103F9000E7E7134890F82E00002803D00320FFF72E
:103FA000B4FD02E00220FFF7B0FD00200C490874C8
:103FB000002006003000BDE8F081000000700040E5
:103FC0001075004004730040087300400075004005
:103FD0002C76004030760040F0750040F4750040CB
:103FE000E82B0020588E0200DFF84405006810F12D
:103FF000010F05D1DFF83C0500684FF480514843BC
:1040000070472DE9FF4104000D0010260027E84607
:104010003A003100404601F02BFE207A012802D000
:10402000022809D014E000208DF8000020690290D9
:10403000A08AADF80C000BE001208DF80000A089EB
:10404000E189401AADF80800A089ADF80A00FFE741
:10405000606801902900C9B268462268926890475A
:10406000BDE8FF81010000290BD0DFF8CC04006817
:10407000814206D3DFF8C4040068814201D20120E6
:1040800000E00020704718B40300988AD98A401ACB
:10409000B0F5806F04DA988AD98A401A020002E0EB
:1040A0004FF48060020092B2D868D98A00EB810197
:1040B0001869DC8A00EB840029DF12BC704701001C
:1040C000888928DF7047DFF87804406E401EDFF8EB
:1040D00070144866DFF86804406E002807D1DFF8E6
:1040E0006404007810F0FD00DFF858140870DFF861
:1040F0005004006E401CDFF848140866DFF84004E6
:10410000006E042803D10020DFF8341408667047DD
:1041100038B5DFF82C04DFF82814096E1822514353
:1041200000EB0105DFF81804406E00282AD0287A39
:10413000012802D0022805D009E02800FFF7A3FFDC
:10414000040006E02800FFF7BAFF040001E00920A0
:104150000400112C10D1DFF8EC03007810F0FD0002
:10416000DFF8E0130870DFF8DC03007850F004009B
:10417000DFF8D013087005E0002C03D009212800D7
:10418000FFF73FFF31BD80B5DFF8B80300780621A7
:10419000084209D1DFF8AC03007850F00200DFF8E4
:1041A000A4130870FFF7B4FF01BD38B50400002068
:1041B000DFF894130870207A012802D002281CD05E
:1041C0002CE0A08AE18A401AB0F5806F04DAA08A58
:1041D000E18A401A050002E04FF480600500E08AA1
:1041E0002818E082E08AA18A884205D100212000B7
:1041F000FFF707FFFFF767FF10E0A089401CA081D1
:10420000E089401CE081E089218A884205D10021B3
:104210002000FFF7F6FEFFF756FFFFE731BD10B5B0
:104220000400DFF824030078401CDFF81C1308703A
:10423000DFF814030078042809DB0020DFF80813F6
:10424000087008212000FFF7DCFEFFF73CFF10BDDF
:104250002DE9F0410400BA48406E042801D1002045
:104260002BE0B748006EB649496E0818042805D2FD
:10427000B348006EB249496E0D1805E0B048006EB3
:10428000AF49496E0818051FAD48406E401CAC4947
:10429000486618260027AA48182101FB05F100EB03
:1042A00001083A003100404601F0E2FCA448182120
:1042B00001FB05F1084420600120BDE8F0812DE9F3
:1042C000F041A248A249401A0409A048A049401A56
:1042D0000509FFF789FE01009A480078C00701D55B
:1042E000002052E00020A0420CD2934A126812EB48
:1042F00000121368002B03D05368002B00D06D1EF2
:10430000401CF0E70020A84238D28B4A126812EB1A
:104310000012002306000027A7421DD2DFF818C2B2
:10432000DCF800C01CEB071CDCF800E0BEF1000F5D
:1043300004D0DCF804E0BEF1000F0BD19E469CF8DF
:104340000D805FFA8EFEC64504D29CF80DE07346E0
:10435000BE4676467F1CDFE7774F3F68F6B217EB25
:1043600006173A005160177BDFF8E8C10CFB07F72E
:104370000F44176012681100401CC4E771480078B0
:1043800050F001006F4A10700020BDE8F0812DE967
:10439000F04182B004000D0016001F00DDF82080FF
:1043A00068480078C00701D401203EE02000FFF7F4
:1043B00059FE002801D1022037E0002E01D0002D47
:1043C00001D1032031E016F00300002803D115F0DD
:1043D0000300002801D0062027E02068854205D38D
:1043E0006068BFB205EB8701884201D205201CE05E
:1043F000BFB2002F01D1042017E06846FFF728FF65
:10440000002801D1072010E00098C0F8048000982F
:1044100004600120009908720098C6600098056148
:1044200000988782FFF7AFFE0020BDE8F681F8B55F
:1044300004000D0016001F0042480078C00701D498
:10444000012037E02000FFF70DFE002801D10220F7
:1044500030E0002D01D103202CE0280501D00620FA
:1044600028E02068854208D36068B6B24FF48051D6
:1044700001FB06F12944884201D205201AE0B6B2B8
:10448000002E01D1042015E06846FFF7E1FE002868
:1044900001D107200EE000984760009804600220D8
:1044A00000990872280B0099888100980682FFF70E
:1044B0006AFE0020F2BD0100002901D1032003E0C3
:1044C0001F48406E08600020704738B504001C4843
:1044D0001B49096E1822514300EB01051948007869
:1044E00080070DD52000022802D0032804D01BE04D
:1044F0002800FFF75AFE17E02800FFF790FE13E0B0
:104500001048007840070FD50E48007810F0FB00E7
:104510000C4908700A48406E002805D00948007808
:1045200050F0020007490870FFF7F2FD31BD0000AE
:1045300014100010140000104C2100205021002005
:10454000582A0020FA2F0020FB2F0020DC21002019
:10455000CC21002000F0FFFF62B38B0708D0521E71
:1045600011F8013B00F8013B00F024808B07F6D1E5
:10457000830740F0208000BF103A07D330B4B1E881
:104580003810103AA0E83810F9D230BC530724BFD5
:10459000B1E80810A0E8081044BF51F8043B40F807
:1045A000043BD20724BF31F8022B20F8022B44BF72
:1045B0000B7803707047083A07D3B1E80810083A3F
:1045C00040F8043B40F804CBF7D25307E4E7FEE79A
:1045D00001005FF0A04070472DE9F14181B00E006D
:1045E00017009846089C099D01A8FFF7F1FFF6B255
:1045F000FFB256EA47015FFA88F851EA8801E4B24F
:1046000051EA0421EDB251EA0541019A00EB820220
:10461000C2F80017BDE8F38130B583B004000D0087
:1046200000200190002000902B00DBB2002200212E
:104630002000FFF7D1FF37BD11B581B001A8FFF70A
:10464000C7FF0400200000F005F80199C84010F0F1
:10465000010016BDD0F810057047FEB501208DF899
:1046600000009DF8000010F00F0050F010008DF8D1
:1046700000000922DFF8141768467CDF04002500DB
:10468000002D02D02800FCF795FE0825002601AF7A
:1046900032002900380001F0EBFA1020ADF80400D8
:1046A0003C20ADF806000020ADF808004FF4C870BB
:1046B000ADF80A0001A87ADF04002700002F02D01D
:1046C0003800FCF777FE042077DF04002500002D7A
:1046D00002D02800FCF76EFEF7BD30B40123DFF8EE
:1046E000B0462370002392B2934206D2CC5CDFF82E
:1046F000A0561D446C765B1CF5E730BC7047F8B5DE
:10470000042500266F4632002900380001F0B0FA77
:10471000DFF8800600906946DFF87C06FEF7E7FCCC
:1047200004002700002F02D03800FCF743FEF1BD43
:1047300070B50400207800280BD13B21DFF85C061F
:10474000008876DF05002E00002E02D03000FCF736
:1047500031FE70BD10B504002000FCF72BFE10BD2B
:10476000F0B587B01C2500266F46320029003800BE
:1047700001F07EFA002000905FF4203001905FF499
:104780007020029003208DF80C000020ADF80E0080
:1047900000208DF81000DFF808060590DFF8040609
:1047A0000690684601F02CFB04002700002F02D081
:1047B0003800FCF7FFFD07B0F0BD38B5002000F071
:1047C000FAFC04002500002D02D02800FCF7F2FDC1
:1047D00001F05EFC04002500002D02D02800FCF74B
:1047E000E9FD32DF04002500002D02D02800FCF78F
:1047F000E1FD31BD70B50400E4B2200000280CD00A
:1048000003280DD1022000F0D6FC05002E00002E5A
:1048100002D03000FCF7CEFD02E0FFF7CEFFFFE74D
:1048200070BD70B588B004002088012813D002281C
:1048300065D0102810D011281DD013282BD03B286C
:1048400047D0512866D0522834D0552800F09180A6
:10485000562849D098E097E0072000F0ACFC05000E
:104860002E00002E02D03000FCF7A4FDA088DFF857
:104870002C15088088E0002000F09DFC05002E002B
:10488000002E02D03000FCF795FD4FF6FF70DFF8E8
:104890000C15088078E0002300228521DFF8FC0455
:1048A00000887FDF05002E00002E02D03000FCF7CC
:1048B00081FD69E0002300220021DFF8E004008888
:1048C000A9DF05002E00002E02D03000FCF772FD9B
:1048D0005AE01321A08876DF05002E00002E02D0BA
:1048E0003000FCF767FD4FE01321A08876DF05005C
:1048F0002E00002E02D03000FCF75CFD44E00021C9
:10490000A08867DF05002E00002E02D03000FCF7E3
:1049100051FD39E06846A11D1022FFF71DFE9DF8EC
:104920000000002824D09DF80800042807D09DF836
:104930000800062803D09DF80800052818D19DF826
:104940000000022803D102208DF8100002E00120AF
:104950008DF810004FF4C170ADF8140004A9A088C0
:10496000A8DF05002E00002E02D03000FCF722FD4B
:104970000AE01721A088ADDF05002E00002E02D02E
:104980003000FCF717FDFFE708B070BD10B504005C
:10499000200001F002FB2100DFF8FC03FEF787FB9B
:1049A0002000FFF73EFF200001F04BFE200001F049
:1049B00086FB10BD10B50400200001F06CFE200045
:1049C000FFF783FD10BD70B588B0DFF8DC03006829
:1049D000009000235022DFF8D413684601F0A2FFB4
:1049E00005002E00002E02D03000FCF7E3FC01AAE7
:1049F0000121002001F0FBFF04002600002E02D060
:104A00003000FCF7D7FC1720ADF8140001A802F025
:104A10000DF804002500002D02D02800FCF7CAFC88
:104A2000DFF88C0301F0BCFF04002500002D02D04C
:104A30002800FCF7BFFCDFF87C0301F0BBFF04009B
:104A40002500002D02D02800FCF7B4FC08B070BD92
:104A50002DE9F04FA7B03C25002618AF3200290001
:104A6000380001F005F902208DF8600000208DF873
:104A7000620005208DF863003C275FF000080DF10F
:104A8000240942463900484601F0F2F80120ADF809
:104A90003400DFF824030E905FF020095FF0000A75
:104AA0000DF1040B52464946584601F0E1F8012049
:104AB0008DF80700402005901E20069000200090F1
:104AC000DFF8F83201AA09A918A801F02EFC0400A9
:104AD000A346BBF1000F02D05846FCF76BFC27B091
:104AE000BDE8F08F3EDF704738B50400B448008859
:104AF000401CB3490880B3480078002809D1B04869
:104B00000088652805DB0120AE4908700020FEF70B
:104B10002BF9FBF753FE0A20FFF78EFD002824D166
:104B2000A9480078002820D1A8480078401CA7494F
:104B30000870A64890F90000652803DB7FF0630049
:104B4000A2490870A14890F90000012802DB9F48A3
:104B5000007803E09D4890F900004042C0B2FEF7A3
:104B600009F900209A49087099E00A20FFF764FDCE
:104B7000002808D00920FFF75FFD002803D000209F
:104B8000934908708BE00A20FFF756FD002800F0DB
:104B900086800920FFF750FD002840F0808001202A
:104BA0007B49C87001208A4908708A480078401CF7
:104BB00088490870874890F90000052807DB002025
:104BC0008449087081480078401C804908707F48FB
:104BD00090F90000652803DB7FF063007B490870D3
:104BE0007A4890F90000012802DB7848007803E059
:104BF000764890F900004042C0B2FEF7BBF8764814
:104C00000068642818DA74480068401C724908601B
:104C100071480068C92842DB704805687048006820
:104C2000FCF7EEFE00226F4B01F030FFFDF76CF950
:104C300040196A49086032E067480068C8282ED1E8
:104C400065480068401C6449086064480068642145
:104C500090FBF1F064490880002002280FDA02215D
:104C6000614AB2F9002090FBF1F301FB03F1091A4C
:104C7000C90008310A415D490A54401CEDE7102182
:104C80005B48FDF7A3F9594800785949887357489C
:104C900040785749C87310215548FDF77FF931BD59
:104CA00038B5544A0121544802F0A8FB04002500FD
:104CB000002D02D02800FCF77DFB31BD38B5002265
:104CC00042214D48006802F0B8FB04002500002D89
:104CD00002D02800FCF76EFB31BD38B546480068AD
:104CE00002F0D4FB04002500002D02D02800FCF7C0
:104CF00061FB31BD70B500210A20FFF78DFC00215A
:104D00000920FFF789FCFEF70BF86420FEF72CF86A
:104D1000FCF772FDFFF7D3FA10213548FDF756F97D
:104D20003348807B00023249C97B40182E490880F5
:104D30000023324A0521002002F026FB05002E0048
:104D4000002E02D03000FCF735FBFFF73CFEFFF7EA
:104D500084FCFFF7D4FCFFF77BFEFFF701FD032087
:104D600001F0BAFB04002600002E02D03000FCF750
:104D700021FBFAF751FBFCF72BF8FFF791FFFCF74B
:104D800014FEFFF79BFFFFF7ADFEFCE70C8E020061
:104D900060210020DB460200A82D0020C821002051
:104DA0003147020055470200508E0200182B0020A8
