:020000040001F9
:10F00000F82C0020E5570200E30C0200C30D0200BB
:10F01000FF0E0200372D0200C33402000000000082
:10F02000000000000000000000000000CF340200DB
:10F030000B350200000000006B3502003346020071
:10F04000A95002008B480200275402005F0602000C
:10F050008D4802008F480200F31C0200AD1E020022
:10F06000A9570200CB570200D757020001580200EF
:10F070000358020005580200075802000958020010
:10F080000B580200274102000D5802000F580200E1
:10F09000A941020011580200BD44020013580200A9
:10F0A0001558020017580200195802001B58020098
:10F0B000273402001D58020000000000000000007C
:10F0C0001F58020021580200235802002558020050
:10F0D00027580200295802002B58020000000000A7
:10F0E0000000000000000000000000000000000020
:10F0F0000000000000000000000000000000000010
:10F1000000000000000000000000000000000000FF
:10F1100000000000000000000000000000000000EF
:10F40000DFF8C406016A491C0162012101747047DA
:10F4100010B50FF23C000FC884B06C4684E80F00B2
:10F4200014208DF8030011208DF8020012208DF8B1
:10F43000010013208DF800006946DFF89026DFF800
:10F44000A80701F00FF808B101F02EF904B010BDC3
:10F45000FFFFFFFF00FF0000000000800000000031
:10F4600010B5DFF86446A220A07482B0002020749A
:10F4700023460D200090012204F11201DFF86807F5
:10F4800001F06AF86178A278DFF86007217501EB76
:10F4900002218180E278217902EB0121C180627929
:10F4A000A17902EB01210181E279217A02EB0121AC
:10F4B0004181627AA17A02EB01218181E27A217B8A
:10F4C00002EB0121C18113BD91ED002AD0ED001A9C
:10F4D00072EE200A30EE811A80EE811A30EE610A57
:10F4E00040EE011AB7EE000A30EE410A20EE200A83
:10F4F00081ED000AC0ED001AB0EE610A704700000D
:10F50000DFF8E816DFF8E806F0B4B1F90420D1ED31
:10F51000070A91ED082AD1ED092AD0ED0A1A90EDDB
:10F520000B1A0B6E00EE102AB1F90620B8EEC00AD5
:10F5300030EE600A00EE902AB1F90820F8EEE00AF9
:10F5400070EEC20A02EE102AB8EEC22A32EE622A29
:10F55000B1F90A2020EE210A60EEA10A62EE211A1A
:10F5600020EE010A60EE810A21EE811A01EE902A56
:10F5700081ED040AC1ED050A81ED061AF8EEE11AE3
:10F5800090ED032AD0ED0C2AB1F90C2071EEC21ACD
:10F5900061EEA21AC1ED0A1A02EE102AB8EEC22AD2
:10F5A00090ED043AB1F90E2032EE432A22EE222ADF
:10F5B00081ED0B2A03EE102AB8EEC33AD0ED053ADE
:10F5C00033EE633A63EE222AC1ED0C2A002B8269E6
:10F5D00053D0521C0B1D00F11C0401F11C05064602
:10F5E00003279FEDD33ADFEDD33AB3F900C004EE21
:10F5F00010CAB8EEC44A84ED004AD5ED004A34EE94
:10F60000A35AB4EE445AF1EE10FA48BF84ED005A02
:10F6100008D474EE834AB4EE644AF1EE10FA48BF9F
:10F62000C4ED004A96ED004AD4ED004A34EE244A77
:10F6300086ED004A361D2D1D241D9B1C7F1ED4D136
:10F6400040F6B9339A4218DB00220A66DFEDBA3A77
:10F6500090ED003A83EE233A81ED073A026090ED97
:10F66000013A83EE233A81ED083A426090ED023A86
:10F6700083EE233A81ED093A826082610A781300B1
:10F680001CD1C0ED0D0AB1EE400A81ED050AC1EDB5
:10F69000040A80ED0D1AB1EE600A81ED060A81EDD3
:10F6A000041A80ED0E2AB1EE610A81ED0B0A81ED9C
:10F6B0000A2AC0ED0E2AB1EE420A3DE0012A19D114
:10F6C00080ED0D1AB1EE400A81ED060AB1EE410A55
:10F6D000C1ED040A81ED050AC0ED0E2AB1EE610A02
:10F6E00081ED0C0AB1EE620A81ED0A2A81ED0B0A66
:10F6F000F0BC7047022A11D180ED0D1A81ED060A87
:10F70000B1EE410A81ED040AC0ED0E2AB1EE620AA3
:10F71000C1ED0C1A81ED0A0AF0BC7047032A11D121
:10F7200080ED0D1AB1EE400A81ED060A81ED041A52
:10F73000C0ED0E2AB1EE610A81ED0C0AC1ED0A2A74
:10F74000F0BC7047042A0ED1C0ED0D0AB1EE400A9C
:10F7500081ED050AC1ED040A80ED0E2AB1EE610AC1
:10F7600081ED0B0A0BE0052A0BD1C0ED0D0A81EDEE
:10F77000050AC1ED040A80ED0E2AC1ED0B1A81EDD8
:10F780000A2AF0BC7047DFF8C80690F90020AAB931
:10F79000DFF8581491ED171AB8EEC11AB4EE401AFA
:10F7A000F1EE10FA41BF90ED021AB8EEC11AB4EEB4
:10F7B000601AF1EE10FA48BF01222AD4012A04D1BE
:10F7C000F5EE400AF1EE10FA22D4130018D1DFF85A
:10F7D0001C3493ED171AB8EEC11AB4EE401AF1EECC
:10F7E00010FA0DD583685B4200EE103AB8EEC00AFD
:10F7F000F4EE400AF1EE10FA48BF4FF0FF3208D4A1
:10F8000012F1010F05D1F5EE400AF1EE10FA00DD1C
:10F810000022027090F9001090F90130994204D052
:10F820004170DFF8C803C06DD7E00020704770B4A6
:10F83000DFF8B823DFF8184692F90150014600209E
:10F840002E46012E01DA002E0CD594ED051AB8EEE5
:10F85000C11AB4EE401AF1EE10FA44BFBDEEC01A60
:10F8600084ED051A2B0013D192ED171AB8EEC11AC8
:10F87000B4EE401AF1EE10FA41BF94ED021AB8EE60
:10F88000C11AB4EE601AF1EE10FA48BF01234BD44E
:10F89000012E0ED1A56805EBD5756D1001EE105A3D
:10F8A000B8EEC11AF4EE410AF1EE10FA48BF022395
:10F8B00031D41D0016D192ED171AB8EEC11AB4EE6C
:10F8C000401AF1EE10FA0DD5A5686D4200EE105AFF
:10F8D000B8EEC00AF4EE400AF1EE10FA48BF4FF05D
:10F8E000FF3321D416F1010F10D1A56805EBD575B2
:10F8F0006D106D4200EE105AB8EEC00AB4EE600A08
:10F90000F1EE10FA10D56FF0010304E0022E18BFDB
:10F9100016F1020F08D103EBD3706369401058430E
:10F9200000236361A4690C60537040B270BC7047DF
:10F93000000048C2000048420000FA44DFF8100509
:10F9400090F903100A0013D190ED041AB8EEC11A11
:10F95000B4EE401AF1EE10FA41BF90ED031AB8EE82
:10F96000C11AB4EE601AF1EE10FA48BF012228D491
:10F97000012904D1B5EE400AF1EE10FA20D41300AB
:10F9800016D103695B4201EE103AB8EEC11AB4EE2B
:10F99000410AF1EE10FA41BF90ED031AB8EEC11A18
:10F9A000B4EE601AF1EE10FA48BF4FF0FF3208D4FF
:10F9B00011F1010F05D1B5EE400AF1EE10FA00DDAC
:10F9C0000022C27090F9031090F90430994202D0DD
:10F9D0000171006901E000207047484340B2704760
:10F9E00030B4DFF86C2492F9024000212546012D45
:10F9F00006DB92ED061AB8EEC11AB4EE401A07E023
:10FA0000002D0CD592ED061AB8EEC11AB4EE410ADB
:10FA1000F1EE10FA44BFBDEEC01A82ED061A2300C3
:10FA200013D192ED041AB8EEC11AB4EE401AF1EEF9
:10FA300010FA41BF92ED031AB8EEC11AB4EE601A83
:10FA4000F1EE10FA48BF01233AD4012D04D1B5EEEE
:10FA5000400AF1EE10FA26D41C0016D11469644253
:10FA600001EE104AB8EEC11AB4EE410AF1EE10FAF6
:10FA700041BF92ED031AB8EEC11AB4EE601AF1EE6E
:10FA800010FA48BF4FF0FF331AD415F1010F05D11A
:10FA9000B5EE400AF1EE10FA12DD04E0022D18BFB7
:10FAA00015F1020F0CD19169DFF84041556900232F
:10FAB000936194F901406C4304EBD47464100460C6
:10FAC000937048B230BC70477424002001F40100E8
:10FAD000DFF8101810B401F14500427E042A7BD0F3
:10FAE000082A7BD0027E02F00104631E9B41DB43A7
:10FAF000DB0F037092074EBF012200220271427099
:10FB0000027E02F00404631E9B41DB43DB0F837023
:10FB100002F00804631E9B41DB43DB0FD206C37077
:10FB200005D543780122012B02D0427000E000226B
:10FB30000271027E02F02004631E9B41DB43DB0F57
:10FB4000437102F04004631E9B41DB43DB0F837172
:10FB500002F080035A1E9241D243D20FC271827EBC
:10FB6000130008BF002265314A73C27E130008BF2C
:10FB700000228A73027F130004BF0A220A23CA7379
:10FB80001A4AD365437F1C0004BF0A230A240B745E
:10FB9000AF4B1C61837F1C0004BF002300244B7407
:10FBA0001470C07F020008BF00208874087802002B
:10FBB00008BF0020C8744878020008BF00200875FC
:10FBC0008878020008BF04200873C878020008BFC4
:10FBD0000020487510BC7047012000E0022065310C
:10FBE000887510BC704700005C0402008C23002064
:10FBF0009C24002070B5DFF8EC4604F1450630780F
:10FC000028B101202070A07B40F0010003E02070AB
:10FC1000A07B00F0FE00A07304F12405707800289A
:10FC200044D08C4890ED001ADFED880AB2EE040A49
:10FC300031EE201A21EE001ABDEEC11A11EE100AA3
:10FC400000B2286004F10F01834890ED001A31EEF4
:10FC5000201A21EE001ABDEEC11A11EE100A00B2F0
:10FC60006860DFF86C0690ED001A71EE200A20EE55
:10FC7000800ABDEEC00A10EE100A00B2A860002093
:10FC800000EBD072521004EB8203C0EB42025B6ABD
:10FC9000D2000832401C1341062801F8013BEFDB7B
:10FCA00001206070A07B40F0020003E06070A07B48
:10FCB00000F0FD00A073DFF88006B178007831B362
:10FCC00008B900F0D0FDDFF81406DFF8701690EDEB
:10FCD000000AB1F90010BDEEC00A10EE100A401A79
:10FCE0000112E8606175A07500F063FD48B1DFF8AE
:10FCF000F005DFF84C1600682874287C2077012076
:10FD000048670120A070A07B40F0040007E008B124
:10FD100000F0B0FD0020A070A07B00F0FB00A073FD
:10FD2000F07898B300F0E5FEDFF8AC15088000F03D
:10FD3000F1FEDFF81026DFF8103600F001FF002298
:10FD4000DFF8083600F0FCFE00F0CCFF00EE100AF1
:10FD5000DFF8800580ED000A10EE100A01F00AF8C5
:10FD60000022DFF8CC3600F0EBFE01F02BF86874CF
:10FD7000E0750120E0700020F070DFF8C415A07B72
:10FD800040F00800A0730120486704E0E070A07B09
:10FD900000F0F700A073307908B3DFF8A405C16C58
:10FDA000426D51EA020314D0A974016DE9742A75F9
:10FDB000816D6975A97C2176E97C6176297DA176C2
:10FDC000697DE176A17B41F01001A17301214167BA
:10FDD00005E000202071A07B00F0EF00A07394F8F4
:10FDE0007B00012815D18020A0731021DFF8446624
:10FDF000304601F03BF81022314604F10F0001F0CB
:10FE000043F8002084F87B000120DFF834154867B0
:10FE100003E0A07B00F07F00A0730622DFF8180645
:10FE200001886983080AE07784F8201004F10F0143
:10FE3000A07B0B7818184B7818188B78C91C1818E9
:10FE4000521EC0B2F5D184F8210070BD00003443C9
:10FE5000582400205C210020642100202DE9F84373
:10FE6000DFF8DC44DFF8D4552DED048BD4F88000A6
:10FE7000401CC4F88000287860B1DFF8BC0400782A
:10FE800010B900F09FFC03E0DFF8B405007808B17A
:10FE900001F036F8DFF84C8408F14406307818B1E8
:10FEA000FFF716FE0020307008F17107B0780028C7
:10FEB00000F02781FFF7D4FAFFF722FB9FEDBF4A3E
:10FEC000DFEDBE3A9FEDBD3AD4ED062A94ED052A4A
:10FED000D4ED041A94ED0C1AD4ED0B0A94ED0A0A31
:10FEE00001F0B0F801F054F8B879010039D0DFF82A
:10FEF000549500EE100A9FEDB28AB8EE401AF0EE6B
:10FF0000480A04F1880104F1840099ED000AFFF722
:10FF1000DBFA89ED000AF0EE480AB879DFF8289597
:10FF200000EE100AB8EE401A04F1900104F18C00C2
:10FF300099ED000AFFF7C8FA89ED000AF0EE480AC9
:10FF4000B879DFF88C9300EE100AB8EE401A04F18D
:10FF5000980104F1940099ED000AFFF7B5FA89EDD4
:10FF6000000A7079002800F0CC8004F13C0204F112
:10FF7000380104F1340094ED0C1AD4ED0B0A94ED21
:10FF80000A0A00F0D7FF04F1480204F1440104F129
:10FF9000400094ED061AD4ED050A94ED040A00F031
:10FFA000C9FF94ED100AD4ED110A20EE000A00EE0C
:10FFB000A00A01F09BFBF7EE000A80EE800A84EDB8
:10FFC000190A9FEDC99B94ED0D0AD4ED0E0A20EE9F
:10FFD000000A00EEA00A01F089FBF0EE408A94EDE1
:10FFE000120AF0EE080A20EE208A94ED190A84ED38
:10FFF000128A20EE200A84ED190ADFEDBD0A94ED85
:020000040002F8
:100000000F0A30EE200A10EE100A00F0B3FE53EC97
:10001000192B00F095FD00F065FEE063B7EE000AD5
:1000200080EE280A10EE100A00F0A4FE53EC192B03
:1000300000F086FD00F056FE206704F1A00194ED6B
:100040001F1AD4ED1E0A04F19C00B0EE480AFFF717
:100050003BFA84ED120A04F1A80194ED1F1AD4EDC5
:100060001E0A94ED0F0A04F1A400FFF72DFA84EDA7
:100070000F0A04F1B00194ED1F1AD4ED1E0A94ED9D
:10008000190A04F1AC00FFF71FFA84ED190A04F114
:10009000B80194ED1F1AD4ED1E0A94ED1C0A04F168
:1000A000B400FFF711FAD4ED1A0AB0EE408A94EDCD
:1000B000190A84ED1A0A70EE600A84ED1C8AC4EDF8
:1000C0001B0AB2EE040A60EE800A787A94ED0F0AF9
:1000D00048B9FFF733FC6065B0EE480AD4ED120A68
:1000E000FFF751FB0CE004F15000FFF779FC60656D
:1000F000D4ED120A94ED1C0A04F15800FFF797FBA7
:10010000E064DFF8489399F8000068B3B07918B15B
:100110007878010008BF642001F027FBF07918B15E
:10012000B878010008BF642001F024FB307A08B1E0
:1001300001202870B07E800744BF01202066B87A75
:10014000022811D10020B8721021DFF8E8522846A9
:1001500000F08CFE0E2208F15F01284600F094FEAC
:100160001021284600F071FEFFF744FD99F80000C9
:10017000F0B1707888B1DFF8D8020168491C0160DD
:100180003A78914214DB00210160142208F10E013B
:10019000DFF8C00201F015FC0AE0606F40B11422E4
:1001A00008F10E01DFF8AC0201F00BFC00206067E3
:1001B0000020BDEC048BBDE8F283000000000000CD
:1001C0000AD7A33C30B5DFF890420FF290251C20EF
:1001D000A07483B010208DF8040000231C208DF83B
:1001E0000500022200202074009001A9284600F09A
:1001F000B3F9207C0028FCD00020A074002311203B
:100200008DF80400022200208DF805002074009073
:1002100001A9284600F0A0F9207C0028FCD08E20FF
:10022000A074002358208DF8040002228E208DF83F
:10023000050001A9002020740090284600F08CF9E8
:10024000207C0028FCD00920A074002359208DF8C0
:100250000400022209208DF8050001A90020207465
:100260000090284600F078F9207C0028FCD000207F
:10027000A07400235A208DF80400022200208DF87B
:1002800005002074009001A9284600F065F9207C43
:100290000028FCD08020A07400235B208DF804008F
:1002A000022280208DF8050001A900202074009012
:1002B000284600F051F9207C0028FCD00820A074CA
:1002C00000235E208DF804000222082012E00000C6
:1002D0006021002060300020643000208821002050
:1002E000B02100200C2300206FA301BC0512843F25
:1002F00000007AC48DF8050001A900202074009048
:10030000284600F029F9207C0028FCD01020A07499
:10031000002315208DF80400022210208DF805001E
:1003200001A9002020740090284600F015F9207CD7
:100330000028FCD003B030BD66300020FA21002038
:100340008C2300205839B4C876BE15400000103FF9
:1003500030B5414C0FF20415606A002883B065D1B6
:100360008F20A074234600202074012202200090D8
:1003700004F11201284600F0EFF8207C0028FCD0A0
:1003800060786A28ECD14420A074002312208DF8F4
:100390000400022244208DF8050001A900202074E9
:1003A0000090284600F0D8F8207C0028FCD07C2063
:1003B000A074002311208DF8040002227C208DF807
:1003C000050001A9002020740090284600F0C4F820
:1003D000207C0028FCD010208DF804000023A07C95
:1003E0008DF80500022200202074009001A9284603
:1003F00000F0B2F8207C0028FCD00020A07400237C
:1004000015208DF80400022200208DF805002074CC
:10041000009001A9284600F09FF8207C0028FCD01D
:100420008020A0740220A0740020A07403B030BD0E
:10043000000034401C300020F821002067300020EC
:100440007C2100205C2100206421002068300020F5
:100450005830002004220020742400200030004086
:1004600003000100F8B544798A4B03EB4414257E60
:100470000DB10820F2BD226001220D780F7B02FA37
:1004800005F6854D022FB4BF6E602E60834E91F845
:1004900000C046F82C204F78FF2F08D002FA07FC46
:1004A000C5F804C04FF0030C46F827C001E04FF038
:1004B000FF3791F802C0BCF1FF0F1ABF4FF0000EDA
:1004C00046F82CE04FF0FF3C91F803E0BEF1FF0F3F
:1004D00006D002FA0EF22A600322CD7846F82520D3
:1004E000427903EB4212CB7893764FF4A063026813
:1004F0000D7813449D60DF60C3F810C08D685D62A5
:100500004F7B0D7B7E1EB641F643F60F012D09D0C1
:100510000AD3032D03D038BF46F0040604E046F0AA
:10052000060601E046F002065E654D79C2F8C05548
:10053000256815B14025C2F8045307221A602268C5
:1005400022B1097990F9040001F06EFA002060767A
:10055000012020760020F2BD70B584B004460898D2
:10056000009102938DF804208DF80C0061794948C0
:1005700000EB4115687E10B1112004B070BD2868F1
:1005800008B10120687668460FC805F1080686E8BC
:100590000F00687F00F0FC006877A87EFF2804D079
:1005A000012101FA00F03E490860002320686A46F4
:1005B000294600F002F804B070BDF8B41568002DAB
:1005C0001CBF05F06044B4F1005F07D19668002EAF
:1005D0001CBF06F06044B4F1005F04D000204876F0
:1005E0001020F2BC7047177900F23454256167611E
:1005F000127B266062600022C0F81821D0F8182112
:100600000092009A03F00102521E9241D243D20F8F
:10061000E26103F00202521E9241D243D20FE26025
:100620001A075CBF012202610A6862B9D0F818217A
:10063000002AFBD0887EFF280ED0012101FA00F0AD
:100640001549086008E04FF441710844590747BF55
:100650004021416040210160F2BC002070471148F8
:1006600082B00168A1B100210160006809490090D1
:100670000098887EFF2804D0012202FA00F0064A82
:10068000106000204876087102B0081D096808470C
:1006900002B07047802F002008050050000700506E
:1006A0000C0500501831004010B584B06946002296
:1006B000002300241CC102906A46002144F201007C
:1006C00001F0D4F904B010BDDFF8C823032102E023
:1006D000DFF8C023890042F820107047DFF8B80324
:1006E0000178143100EE101ADFF8B013D1ED030ACF
:1006F00091ED051A4A6B4B6A81ED0B0A30EEC11A77
:100700004078886281ED041AC1ED050A42B9B8EE5D
:10071000C00AB4EE410AF1EE10FA1ED501221CE027
:1007200070B1012A0CDBB8EEC00AB4EE410AF1EE5A
:1007300010FA07D55B1C98420FDA0023521C0CE01C
:10074000012A0ADB91ED0C0AB8EEC00AB4EE401A99
:10075000F1EE10FA44BF002300224B624A63704757
:1007600010B5CF48CD4C007820B100F02BF8012017
:10077000207010BD00F003F9B0F5702F606004DD4B
:10078000C043401C80B2A0614042A06004F140011F
:1007900094ED020A94ED081AD4ED070A04F13C0026
:1007A000B8EEC00AFEF790FE84ED030ABDE81040E3
:1007B00094E7BA48416B826B8A421ABF8163012079
:1007C0000020704738B51E2001F073FA402000F079
:1007D0002BF9B44CB44D41E021684FF47A7000BF5E
:1007E00000BF00BF00BF00BF00BF00BF00BFA942E5
:1007F0002FD000BF00BF00BF00BF00BF00BF00BFC1
:1008000000BF00BF00BF00BF00BF00BF00BF00BFF0
:1008100000BF00BF00BF00BF00BF00BF00BF00BFE0
:1008200000BF00BF00BF00BF00BF00BF00BF00BFD0
:1008300000BF00BF00BF00BF00BF00BF00BF00BFC0
:1008400000BF00BF00BF00BF00BF00BF00BF00BFB0
:1008500000BF0138C3D1402000F0E6F800F0AFF847
:100860004028B9D180E09149012008700721062075
:1008700001F0DAB88D490020087040208C490860EA
:10088000704780B501F026F908B1FFF70DFF0FF2B0
:100890003020884A00680090694603208DF80100E6
:1008A0001E2001F04CF908B1FFF7FEFE01211E20C9
:1008B00001F08FF97D490020087040207C490860D4
:1008C00001BD000038B51F20FFF7FEFE242000F018
:1008D000ABF8744C744D41E021684FF47A7000BF5E
:1008E00000BF00BF00BF00BF00BF00BF00BFA942E4
:1008F0002FD000BF00BF00BF00BF00BF00BF00BFC0
:1009000000BF00BF00BF00BF00BF00BF00BF00BFEF
:1009100000BF00BF00BF00BF00BF00BF00BF00BFDF
:1009200000BF00BF00BF00BF00BF00BF00BF00BFCF
:1009300000BF00BF00BF00BF00BF00BF00BF00BFBF
:1009400000BF00BF00BF00BF00BF00BF00BF00BFAF
:1009500000BF0138C3D1242000F066F800F02FF862
:100960002428B9D1FFF78DFF53494FF000400860AC
:1009700031BD51484FF0004101604160704710B5F2
:1009800000211E2001F025F9002418204A494FF0CB
:1009900000420A604A6064008B68C3F3807303B14D
:1009A000641C401EF5D1FFF7E4FFFFF7E2FFFFF7FD
:1009B000E0FF01211E2001F00CF9204610BD70B5AA
:1009C0001B203D4C4FF000452560401E6560FBD16B
:1009D0003A4903200860FFF7CCFFFFF7CAFF072062
:1009E0004FF08041AC2222FA00F3DB074CBF2160BC
:1009F0006160401E256001286560F4DA03211E2035
:100A0000FFF766FEFFF7B5FF00260820256065604A
:100A10007600A168C1F3807101B1761C401EF5D14A
:100A2000FFF7A7FFF0B270BDF8B504461B20224DBA
:100A30004FF000462E60401E6E60FBD11F49032020
:100A400008604FF08047FFF794FFFFF792FF072001
:100A5000CA2121FA00F2D2074CBF2F606F60401EFE
:100A6000C2B22E60002A6E60F3D1FFF782FF07202A
:100A700024FA00F1C9074CBF2F606F602E60401E42
:100A80006E60F5D503211E20FFF722FEBDE8F14080
:100A90006FE7000000070050842300207C21002025
:100AA00067300020D82400200024F40066300020A5
:100AB00080E100E06107020008050050780700505F
:100AC00002000001704710B50FF23C0184B01CC950
:100AD00068460C491CC0002001F095FA0020ADF8D2
:100AE0000200694601F0CBFA08B1FFF7DDFD04B062
:100AF00010BD80B569460020FFE701F0E1FABDF9BD
:100B0000000002BDC50A020000000000020000044F
:100B100000000000010040F10780F446404200F070
:100B200003F851F00041604709D0B0FA80F18840E5
:100B3000C91CC1F58461090501EBD021400570474E
:100B4000B0B581EA030C0CF0004C40F2FF7515EAD9
:100B500011541DBF15EA1357AC42AF4239E0E419F6
:100B600023EA455343F48013C90241F0004141EAAE
:100B7000505EC7021100A7FB020200284FF00000E0
:100B8000EEFB01204FF00001E3FB072118BF42F00C
:100B90000102401800214941E3FB0E01A4F58064E5
:100BA0000F0302D252004041494154F101046CDD6F
:100BB000470872F1004250F1000051EB0451A1F5D9
:100BC00080115CBF41EA0C01B0BD4CEA0551002028
:100BD000B0BD05EA1357AC4214BFAF4241E050EA42
:100BE000410E1CBF52EA430E02E061460020B0BD38
:100BF00024423C441BD15FEA070EF6D0090302BF32
:100C000001460020AEF1140EB1FA81F7AEEB0704F5
:100C100001FA07FE0C37C7F1200100FA07F7C840B8
:100C20004EEA000E23EA455343F48013A2E733F063
:100C30000043B3FA83F704BFB2FA82FE77440B3F56
:100C4000E41BB7F1200E2FBF02FA0EF3BB40C7F131
:100C5000200E22FA0EFE38BF43EA0E03BA40641C8F
:100C600082E750EA410E14BF52EA430E6FF00001D2
:100C70004FF4001717EB430F8ABF194617EB410FCC
:100C8000B5E74CEA05510020B0BDD4F10104B4F140
:100C900020070FDAC4F12007520828BF42F00102F2
:100CA00010FA07F501FA07F7E1BF2A43E04038439D
:100CB000E1400FE0352C98DCC7F1200452EA4002F5
:100CC00020FA07F218BF42F0010231FA07F0A14002
:100CD0000A43002172F1004250F1000051EB0C0177
:100CE000B0BDFEE74FEAF17CBCF1E04C2CBFBCF597
:100CF000001F11E05FEA4C0C34BFBCF17F5F2EE0B7
:100D00005FEA9C0C4FEA0C1C4FEA3C0CC10071F1ED
:100D100000414CEB50707047C90241EA5051C0028B
:100D200018BF41F0010141F000414FEA6C50C0F1A1
:100D30000900212810D240EACC7CCCF1200C11FA19
:100D40000CF070F10040CCF1200C21FA0CF00CF00A
:100D5000004C40EB0C0070474FEACC7070474900E4
:100D600011F5001F04D84FEACC10FF30C0057047C2
:100D7000C81770475FF0FF0C1CEAD05114BF6145E3
:100D800006E0C110400721F0E04101F160517047D9
:100D900079B900F0004100020AD0B0FA80FC00FAF4
:100DA0000CF001F16051A1EB0C5101EBD021400599
:100DB000704741020CBF40F4E0016FF000010020D9
:100DC0007047FEE7F446400D40EAC120490006D2D4
:100DD00000F00EF8004248BF6FF00040604700F09E
:100DE00007F84FF0004188428CBF084640426047F8
:100DF00040F00040490DA1F58061491C05D4D1F1B6
:100E00001F0154BFC840C01770474FF00000704723
:100E100080B50078020006D10A0004D1174948685D
:100E2000401C486001BD012808BF00290CD11349AE
:100E30000868401C08600022009201F10802104876
:100E40000168042301F09BFA01BD1129A8BF1021FC
:100E500080B50A4601460B4800F016F808480168BC
:100E6000BDE800500023012201F0E8BA1129A8BF13
:100E700010210A460249096800F006B8DC2F00205C
:100E8000E4240020E42F002062B38B0708D0521E18
:100E900011F8013B00F8013B00F024808B07F6D1EC
:100EA000830740F0208000BF103A07D330B4B1E888
:100EB0003810103AA0E83810F9D230BC530724BFDC
:100EC000B1E80810A0E8081044BF51F8043B40F80E
:100ED000043BD20724BF31F8022B20F8022B44BF79
:100EE0000B7803707047083A07D3B1E80810083A46
:100EF00040F8043B40F804CBF7D25307E4E7FEE7A1
:100F000080B501F0EAFC01F00BFE00F038FC064869
:100F10004FF40031016005498161FFF753F904493D
:100F20000120086032DF01BD4007005004000200CC
:100F30005C300020DFF8B037D3ED001A93ED012AC2
:100F400061EE801A42EE201A93ED022A42EE011A57
:100F5000C0ED001AD3ED031A93ED042A61EE801A56
:100F600042EE201A93ED052A42EE011AC1ED001A55
:100F7000D3ED061A21EE800AD3ED071A01EEA00A7E
:100F8000D3ED080A00EE810A82ED000A70470000E6
:100F900010B5DFF854472DED048B2068FFF7EAFE0B
:100FA00041EC110BE068B0EE418AF0EE618AFFF788
:100FB000E1FE41EC100BB0EE481AF0EE681A01F0B9
:100FC0002BFF51EC100BFFF78DFE9FED1D9A00EEED
:100FD000100A20EE090A206A84ED0E0AFFF7CAFE05
:100FE00041EC110BE069B0EE418AF0EE618AFFF747
:100FF000C1FE41EC100BB0EE481AF0EE681A01F099
:101000000BFF51EC100BFFF76DFE00EE100A20EE07
:10101000090AA06984ED0F0AFFF7ACFE41EC100B42
:1010200001F094FF51EC100BFFF75CFE00EE100A8C
:1010300020EE090A84ED0D0ABDEC048B10BD000002
:10104000BE2E65422DE970432DED108BB0EE608A07
:10105000DFF89466F0EE000A6DED041AD6ED0BBAD7
:1010600096ED0CCAB0EE40AA6CEE200A90B0F0EEFD
:10107000418AD6ED09AA96ED0ABACDED0A0AB0EE7C
:10108000000A6AEE80CA2BEE00FA2BEE800A8DED84
:10109000010A20EE0C0A8DED0E0A2AEEAA0A8DED49
:1010A000000A2AEE8B0A8DED040A2AEEAB0A8DEDBA
:1010B000080A2AEE8C0A8DED070A2BEE2B0A8DED1D
:1010C000060A2BEE0C0A8DED030A2BEE8C0A8DED31
:1010D000050A2AEE0A0A08EE080A6CEEAB0A08EEC8
:1010E000A80AB0EE639AF0EE449ACDED0BCA8DEDEE
:1010F00002FACDED090A10EE100AFFF73BFE41ECB3
:10110000100B01F02BFF51EC100BFFF7EBFD00EE85
:10111000100AB5EE400AF1EE10FA2BEE0BDA6BEE88
:10112000ABDA2CEE0CEA00F0D482F7EE000A80EE87
:10113000800A2AEE00AA28EE008A68EE808A9DEDD9
:10114000130ADDED130A9DED001ADDED001A6CEEB9
:1011500080FA6CEE89EA2CEEA90A6FEE20CA60EEE6
:10116000810A4EEECC0A40EE2B0A9DED131A41EE99
:101170000D0A9DED021A21EE091A41EE2B0A9DED92
:10118000021A21EE291A41EE0C0A9DED131A41EEC6
:101190006D0A41EE4E0A2FEE8C1A09EE211A00EE6E
:1011A0004B1A0CEEAB1A09EE4D1A9DED010A09EE31
:1011B0002D1A20EE290A00EE0C1A09EE4E1A20EE26
:1011C000A00A01EE010A10EE100AFFF7D3FD41EC70
:1011D000100B01F0C3FE51EC100BFFF783FD2EEE58
:1011E0008B0A0FEEEB0A9DED001ADDED032A9DED53
:1011F000053ADDED083A9DED027A9DED0E4ADDEDF2
:10120000097A09EE810A0CEE8C0A9DED011A09EEAD
:10121000CD0A21EE091A01EE0C0A09EEED0A09EEDB
:101220008E0AF0EE001A20EE212ADDED081A71EE8A
:10123000A21AF6EE002ACDED001A72EECD2A72EE59
:10124000ED2AF7EE00CA00EE900A61EEA01A42EE17
:10125000801ADDED042A32EE83FA71EEE91ADDED33
:10126000062A9DED073A72EEC39A69EEA02A4FEE68
:10127000002A72EEC92A9DED033A33EE639AF0EE2E
:10128000003AB6EE003A33EE6D3A33EE4E3A63EE84
:10129000204A9DED033A63EE236A9DED093A33EE51
:1012A000663A33EE0A5A9DED043A03EE234A49EEBC
:1012B000004A34EE483A23EE078A9DED017A05EEA6
:1012C000078A9DED137A20EE2B4A37EE647A20EEE2
:1012D0008C6A60EE0B3A04EE078A33EEC67A76EE3D
:1012E000E76AB0EE001A60EEAB5A07EE228A9DED77
:1012F000137A74EEC74AB0EE007A4DEE47CA2DEE6F
:1013000087DA3DEE6C7A37EE287A76EECA6A60EEBE
:101310002A7ADDED0A8A9DED0BAA20EE811A05EEF0
:10132000A18A20EE0C0A66EEA88A43EE0A8AB1EE84
:1013300000AA2BEE0AAA4AEE078A40EE248A75EE2E
:10134000A75A45EEA28A02EE4B6A46EE218A9DED2F
:101350000A6A23EE06AA9DED0B6A05EE06AAB1EE17
:10136000005A2BEE855A05EE07AA60EEAA5A21EE26
:101370006B5A60EE8B0A35EE675A05EE24AA30EE02
:10138000800A00EE22AAB0EE650A02EE6B0A00EEB9
:1013900021AA9DED020A66EE80DA9DED010A43EE78
:1013A00000DA41EE4C3A43EEA4DA34EE650A40EE40
:1013B00022DA28EE080A08EEA80A40EEA1DA0AEEC0
:1013C0000A0A0DEEAD0A10EE100AFFF7D3FC41EC4D
:1013D000100B01F0C3FD51EC100BFFF783FC00EE86
:1013E000100AF7EE000AC0EE80EA9FEDBC0B01F098
:1013F000B5FD8DED0C0B9DED100ADDED120A2AEE08
:10140000800A0BEEA00ADDED110A0CEE600AF6EE82
:10141000000A20EE200A10EE100AFFF7ABFC80460F
:1014200089469FEDAE0B01F099FD53EC102B4FF068
:101430000050DFF8E812FFF783FB4FF00052DFF8AF
:10144000E032FFF77DFB044628EEAE0A0D4610EEB3
:10145000100AFFF78FFC22462B46FFF771FB02466E
:101460000B464046494601F0F9FDFFF73BFC9DED78
:10147000110ADDED120A2AEE800A0BEE600ADDED9C
:10148000100A0CEE200AF6EE000A08EE900A20EE92
:10149000200A10EE100AFFF76DFC804689469FED8A
:1014A0008F0B01F05BFD53EC102B4FF00050DFF879
:1014B0006C12FFF745FB4FF00052DFF86432FFF784
:1014C0003FFB04462AEE2E0A0D4610EE100AFFF7E7
:1014D00051FC22462B46FFF733FB02460B464046A3
:1014E000494601F0BBFDFFF7FDFB9DED120ADDED66
:1014F000110A2AEE800A0BEE200A0AEE100ADDED30
:10150000100A0BEEE00AF6EE000A20EE200A10EEBA
:10151000100AFFF72FFC804689469FED700B01F003
:101520001DFD53EC102B4FF00050DFF8F011FFF7CA
:1015300007FB4FF00052DFF8E831FFF701FB0446EC
:101540002DEEAE0A0D4610EE100AFFF713FC2246F0
:101550002B46FFF7F5FA02460B464046494601F096
:101560007DFDFFF7BFFB9DED100ADDED110A2BEEAF
:10157000400A0BEEE00ADDED120A0CEE600AF6EE10
:10158000000A0DEE900A20EE200A10EE100AFFF776
:10159000F1FBDDE90C23804689464FF00050DFF86F
:1015A0007C11FFF7CDFA4FF00052DFF87431FFF7EE
:1015B000C7FA044628EE2E0A0D4610EE100AFFF771
:1015C000D9FB22462B46FFF7BBFA02460B464046A4
:1015D000494601F043FDFFF785FBDFED42FA00EEDF
:1015E000100A40EE2FAA08EEAFBA2AEEAA0A4AEE77
:1015F0002FBA0BEE0B0A0DEEAFCA0BEEAB0A0CEED8
:101600000C0A10EE100AFFF7B5FB41EC100B01F0CD
:10161000A5FC51EC100BFFF765FB00EE100AF7EE8E
:10162000000A80EE800A6AEE800AC6ED090A6BEEB7
:10163000000AC6ED0A0A6BEE800A2CEE000AC6ED1F
:101640000B0A86ED0C0AB0EE000AF7EE000A2EEE49
:10165000000A70EECD0A70EEC00AC6ED000AF0EE88
:10166000000A69EEA00AC6ED010AB0EE001ADDED2F
:10167000000A60EE810AC6ED020ADDED060A9DED64
:10168000071A70EE810AB0EE001A60EE810A3CEE95
:10169000C00AC6ED030A86ED040A9DED050ADDEDDC
:1016A000040A30EE600AF0EE000A20EE200A86ED11
:1016B000050AB0EE000A29EE000A86ED060AB0EE31
:1016C000000A2FEE000A86ED070A3CEECD0A86EDF1
:1016D000080A14B0BDEC108BBDE870830000000058
:1016E0000000E83F6F12033B2821002081B00D4825
:1016F0008DED000AB6EE001A0099A0EB610000EE35
:10170000900A20EE010A20EE200AB7EE081A00EE39
:10171000601A21EE200A01B070470000FF21094045
:10172000C771AC3FDF59375F10B50FF2A40184B029
:101730001CC9684669461CC06420ADF8060000223A
:101740001C4C04F1080001F057FD08B1FEF7ACFF96
:10175000642020806080022301220FF2640104F1E2
:10176000080001F0FAFD04B010BD124940F4004039
:10177000088070470F4940F400404880704710B51A
:101780000C4C4FF4004020806080012104F10800DF
:1017900001F017FE04F1080001F0A5FD0648032141
:1017A0000160042205490A600322426008200860A3
:1017B00010BD0000CC210020080700500C0500508F
:1017C000CC21002004000000000000000000000008
:1017D00082830704000000000200000010B590B0F2
:1017E0000446032101A801F069FE11208DF80400D0
:1017F0008DF805001C219DF8060000F0F90040F06E
:1018000002008DF8060008A801F058FE9DF820009F
:1018100040F010008DF820000321002009900B906B
:101820000C9001A80D9000200E9020788DF80A00F1
:101830000320ADF80800684601F040FE11208DF845
:1018400000008DF8010014219DF8020000F0E30073
:1018500040F003008DF8020003A801F02FFE02A85B
:101860000390CDF810D00120ADF8140004F10C0362
:101870000020ADF8160003AA1420ADF8180008A93E
:101880006088A2DF10B010BD10B5040018BF002999
:101890002AD00888102804D0112804D0502806D057
:1018A00010BD888801E04FF6FF70A08210BDC88887
:1018B000238A984204BF0A8A022A09D101F1120040
:1018C00001F000FE401E8041C043C00FA07510BD56
:1018D000A288904208D1A369180005D020460A8A40
:1018E000BDE810401231184710BD70B504000D4618
:1018F0000FF224100FC894B00FAE86E80F0014BF8B
:10190000002D0E205BD04FF6FF70A0822146286884
:10191000A0610020A0750FA863DF00284FD12078B8
:101920008DF80A00A21C0120ADF8080002A9A0DF72
:10193000002844D129462046FFF750FF00283ED119
:101940001C2108A801F0BAFD9DF8200000F0F70066
:1019500040F004008DF820000321002009900B9036
:101960000C900D900E9020788DF806000220ADF8B6
:101970000400684601F0A2FD11208DF800008DF8EA
:10198000010014219DF8020000F0E30040F0030084
:101990008DF8020003A801F091FD01A80390CDF895
:1019A00010D00120ADF81400231D0020ADF8160062
:1019B00003AA1420ADF8180008A96088A2DF14B0AB
:1019C00070BD74B484B018B905B070BC0E207047F7
:1019D000828A4FF6FF739A421ABF827D002A08203E
:1019E00017D0BDF81020152AA8BF072011DA6A46C3
:1019F000002300240025002678C282890391ADF8D7
:101A0000002004A9029101218DF802106946808A04
:101A1000A6DF05B070BC70479ECADC240EE5A9E0C5
:101A200093F3A3B50000406E4901020006D50B4BAD
:101A300000F00F0C634403F8041C01E0084B195438
:101A40004109012200F01F0002FA00F0054A42F8A5
:101A50002100054A42F821007047000018ED00E01F
:101A600000E400E080E200E000E100E0BFF34F8F1F
:101A70000548064A016801F4E06111430160BFF3C3
:101A80004F8F00BFFDE700BF0CED00E00400FA053A
:101A9000F0B4140007BF08240C2500240825DFF843
:101AA000E8634FF0FF3306EB840700E0641CAC42B0
:101AB0000DD257F804CB9C45F8D1331883F8304049
:101AC00046F8241012B9311981F84800234658B25B
:101AD000F0BC704738B5DFF8B05305F150042079F9
:101AE00008B1082032BDFF22202105F1300001F0AD
:101AF000EFFC4FF0FF3028606860A860E860286164
:101B00006861A861E8612862207068626070A862FC
:101B1000A070E862E07007210620FFF785FFDFF87C
:101B20006C03002101600068DFF8641300900098E6
:101B30004FF00040086001202071002032BDF8B550
:101B40000546DFF844737819002490F930000E46FA
:101B50000028114609D5F2782846FFF799FF10F1C1
:101B6000010F04D104242046F2BD0824FBE7B1781C
:101B700051B14FF0A04101EB8501D1F8002722F0CF
:101B80000202C1F8002704E07178C24A890042F8D5
:101B900025103278F17899B1BF49C04E51F8203004
:101BA000334041F820302D02120451F8203005F462
:101BB000F85502F440322A431A4341F82020D2E774
:101BC0003918384491F8481041EA821180F84810D9
:101BD000C9E738B4AC4A131893F93040082C22DA1C
:101BE0001FD2AD4850F8245045F0010540F824506C
:101BF000A00000F5807000B200F1804000F5C04008
:101C00000025056000290068009000981EBF93F928
:101C1000300052F82000002803D001209C49A04049
:101C2000086031BC7047111991F948100906890FF5
:101C3000032905D19A490968C140C90702D503E0C3
:101C4000012901D1022100E003214FF0A04202EB63
:101C50008000D0F8002722F44032C0F80027D0F8E6
:101C6000002742EA0141C0F8001731BC704786499D
:101C7000014491F9301008290CDA0AD2864850F84C
:101C800021205208520040F8212001208840854937
:101C9000086070474FF0A04101EB8000D0F80017BA
:101CA00021F44031C0F80017D0F80017C0F8001731
:101CB000704738B50446FFF7DAFF7348011991F908
:101CC0003020082A03D2744D002345F82230022226
:101CD000704B43F824204FF0FF3391F8302040F848
:101CE0002230082AA4BF801880F8483081F83030AC
:101CF00031BD2DE9F04F85B001A8002404604FF4F8
:101D0000807001250821624A00B200F1804303F58A
:101D1000C0431E68012E08D116682E4205D0002649
:101D20001E602C431B680093009B6D00001D491E24
:101D3000EAD15648016801290DD10021016044F023
:101D4000004400680FF26011009000980A68009249
:101D5000D2F810050190200617D001254E4E4A4FAB
:101D60004FF0080825420AD0306831683A681300FD
:101D700005D0090C01F00301C0F3042090476D0069
:101D80003F1D361DB8F10108ECD1002C78D503A811
:101D9000002101604FF0FF3002904FF001083A4DF2
:101DA0000DF10C090DF1040B02E001900398029073
:101DB000002405F15006042796F90000C1B210F185
:101DC000010F21F0C0024CD04FEAD20C02AB02F05E
:101DD000070013F80C3008FA00FE1EEA030F40D08B
:101DE000AB18890993F9303055F8233013B903291A
:101DF00037D101E0032909D119F80CA0CDF800A0D2
:101E000008FA00F040EA0A0009F80C00214850F8EE
:101E100022001BF80CC0000C1EEA0C0F00F003009F
:101E200002D002281DD101E003281AD1032914D1C0
:101E30004FF0A04C0CEB820C0228DCF800E72EF4EB
:101E4000403ECCF800E70CBF03200220DCF800E79E
:101E50004EEA0040CCF80007641C18001CBF104676
:101E60009847761C7F1EA7D1E4B24CB10FF238011F
:101E70000A680092D2F8100501990090884294D126
:101E800005B0BDE8F08F00003C2E00207C610040D2
:101E9000046300400007005010650040FFE0FCFFB5
:101EA00010050050086300400000005070B5DFF8D6
:101EB000EC52DFF8EC4284B0686804F12D0638B3C8
:101EC00000206860686800900098B178707881F0B0
:101ED000010108421CD100218DF8041061680291B3
:101EE0002189ADF80C10E16811B9002020740AE0D6
:101EF000228B6283616022810021E16018B9DFF8E2
:101F0000A4120120086001A8216888470020B07051
:101F1000707800281CBF286800282DD00020286079
:101F20002868009000983078628B90420AD2111A8B
:101F3000618389B222896668DFF86C32511A06EB38
:101F4000410109E082420ED1E16841B10122B27043
:101F500000226283DFF850321960586003E00120EC
:101F6000B0700020608300206860DFF83812686875
:101F70000090009801204860286960B10020286125
:101F80002869009000980020207402208DF8040039
:101F900001A821688847686918B965694FF000464B
:101FA0002DE000206861686900900098002020748E
:101FB00004B070BDB5FA85F026FA00F180008D43BB
:101FC00000F58C7000B2DFF8DC110A58BAB10023BA
:101FD0000B5009580091009901218DF80410A0F5CB
:101FE0008C710006800EC90800F001008DF8081001
:101FF00080F001008DF8090001A821688847002DB4
:10200000D8D104B070BD38B5DFF8942102F12C04AA
:1020100023780BB1082032BD0B0001D1072032BD5F
:1020200008B90FF29C1011600378DFF88011DFF817
:1020300080510B6043784B60C178A1700121217001
:102040000021117461705161E17000226FF0004154
:102050006960DFF860110A60096800910099817871
:102060000720FFF7E1FC02202860A07808B10120DA
:1020700028600120DFF840110860002032BD38B52B
:102080000C46474901F1100213780BB1112032BD03
:10209000054601EB45010B7F13B9537F5B1C53775A
:1020A000E2790A77227A4A77214601F02FFAE0791D
:1020B000237A424A2901541863605050002032BDEF
:1020C00078B4374C04F11002137813B172BC1120AC
:1020D0007047012313700325354B5D60324D296035
:1020E00001216960557F3549022D10DB00254D60C7
:1020F0000D604D610D614D620D624D630D634D6468
:102100000D644D650D654D660D664D670D6704EBFD
:1021100040040001257F647F0E1874600D50012477
:1021200020480460446042F21070224C00E0401EDF
:1021300025680DB90028FAD10020206020680090A1
:102140000098507F02281FDB107B547B4C60086096
:10215000D47B907B4C610861547C107C4C6208629B
:10216000D47C907C4C630863547D107D4C6408647F
:10217000D47D907D4C650865547E107E4C66086663
:10218000D47E907E4C670867907F002814BF0320A0
:10219000022018600020107072BC7047007100406F
:1021A000102F0020007000402C760040F075004099
:1021B0000473004004710040007500401075004039
:1021C00003000700DFF83C04416E491E416605D15B
:1021D000DFF834140A7802F0FD020A70016E491C1F
:1021E000042908BF002101667047DFF81804016E5A
:1021F00001EB410200EBC203406E00B9704730B5FD
:1022000085B0187A012802D0022811D01FE0DC8A9C
:10221000998AD8680A1B00EB8401B2F5806F1869AF
:10222000A8BF4FF4806292B200EB840029DF01E086
:10223000988928DF112809D1DFF8CC03017801F053
:10224000FD0141F00401017005B030BD20B36846C6
:10225000002100220024002536C0187A01280DD064
:10226000022812D101208DF80000D9899889401ADE
:10227000ADF808009889ADF80A0006E08DF8001066
:1022800018690290988AADF80C00092158680190ED
:1022900068461A689268904705B030BD38B5044664
:1022A000DFF86003416E042901D1002032BD026EC7
:1022B0008A18042A28BF121F491C416602EB4201FA
:1022C00000EBC1051821284601F04CF925600120DA
:1022D00032BD2DE9F047DFF83403DFF83413401A3C
:1022E000DFF830130C68030914F1010F184602D10E
:1022F000C94909680C03C4490A78D5073CD453B1CD
:102300004D681E462F68002F1EBF6F68002F401EAD
:102310001035761EF6D1002558B34E680027AC461E
:10232000BE46B3B1B046D8F800A0BAF1000F1CBF4A
:10233000D8F804A0BAF1000F05D198F80D904F45D8
:102340003CBF4F46F4460EF1010E9E4508F11008C1
:10235000E9D35FFA8CFC06EB0C176D1C97F80CC0E8
:102360007C604FEA0C3CCCF1000C644485423C603C
:10237000D4D342F0010008700020BDE8F0872DE9B9
:10238000F047A14D2E780446F007884691469A46BC
:1023900058BF012050D574B169688C420BD3A9682D
:1023A0008C4208D2B9F1000F18BFB8F1000F05D167
:1023B0000320BDE8F0870220BDE8F08719F0030094
:1023C0000CBF18F00300062036D12068804523BFDB
:1023D000606808EB8A01884205202DD35FEA0A0075
:1023E00008BF042028D08748416E042908BF072071
:1023F00022D0026E8A18042A28BF121F491C416687
:1024000002EB420100EBC1071821384601F0AAF89F
:10241000089878603C6001203872C7F80C9006205C
:102420000642C7F81080A7F814A004D146F00200B5
:102430002870FFF7DAFE0020BDE8F0872DE9F041B3
:10244000714C05462078C00782B016461F4658BF1B
:1024500001203DD54DB16268954206D3A2689542F0
:1024600003D229B90320BDE8F6810220BDE8F68138
:10247000080518BF06202BD128688846804523BF51
:10248000686801EB06318842052021D3300008BF7F
:1024900004201DD06846FFF701FF10B90720BDE8F2
:1024A000F681009847600098056002200099087244
:1024B0004FEA18300099888106210098068220781A
:1024C000084204D140F002002070FFF78EFE002089
:1024D000BDE8F68108B9032070474A49496E01609A
:1024E00000207047474930B50A6E02EB420301EB0A
:1024F000C302454B1C78A50785B075D5022802D0CC
:10250000032841D07AE000205870107A01280CD0BE
:10251000022873D19089118A401C9081D089401C77
:10252000D08180B2884269D10CE0D08A918A0B1A9E
:10253000B3F5806FA8BF4FF480631818D08280B2C3
:1025400088425BD1684600210023002400253AC060
:10255000107A01280DD0022812D101208DF8000038
:10256000D1899089401AADF808009089ADF80A0029
:1025700006E08DF8001010690290908AADF80C000A
:1025800000215068019028E05878401C5870C0B273
:10259000042833DB00205870002168460023002403
:1025A00000253AC0107A01280DD0022812D101204E
:1025B0008DF80000D1899089401AADF80800908903
:1025C000ADF80A0006E08DF8001010690290908ABC
:1025D000ADF80C00082150680190684612689268B6
:1025E0009047FFF7EFFD09E0600707D504F0FB0017
:1025F0001870496E11B140F002001870FFF7F5FD38
:1026000005B030BD782D0020C0210020F42400202A
:10261000E42400201410001014000010DFF8A004BF
:1026200001230370130006D0193011F8013B00F8A4
:10263000013B521EF9D17047007840B9DFF884049D
:1026400000883B2176DF002818BFFEF72DB87047C1
:10265000FEF72AB880B5002000F024FB08B1FEF791
:1026600023F800F0A0FF08B1FEF71EF832DF0028C3
:102670001CBFBDE80240FEF717B801BD80B548B1E8
:10268000032808D1022000F00DFB20B1BDE8024074
:10269000FEF70AB88CE001BD10B5044688B020886A
:1026A00002283ED010280FD0112815D0132820D092
:1026B0003B282ED0512838D0522822D0552852D02D
:1026C00056282AD008B010BD072000F0EBFA08B158
:1026D000FDF7EAFFA08807E0002000F0E3FA08B168
:1026E000FDF7E2FF4FF6FF70DFF8D813088008B05F
:1026F00010BDDFF8D00300880023002285217FDF92
:1027000034E0DFF8C0030088002300220021A9DFA5
:102710002CE0A088132176DF28E0A088132176DF43
:1027200024E0A088002167DF20E06846A11D102278
:10273000FEF7AAFB9DF80000D8B19DF80800042818
:102740001CBF0628052814D19DF80000022818BFD8
:1027500001208DF8100004A94FF4C170ADF81400E9
:10276000A088A8DF02E0A0881721ADDF08B1FDF73F
:102770009BFF08B010BD10B5044600F0E4FF2146F1
:10278000DFF84403FFF780F82046FFF785FF204677
:1027900001F093F92046BDE8104000F014BF10B5D9
:1027A000044601F0C1F92046BDE81040FFF79ABE8B
:1027B000BDE801404EE738B5C44CA08BA178401C61
:1027C000A08339B980B2652804DB0120A070002005
:1027D000FEF7CBFFFDF742FBBD480168490513D466
:1027E000BC49097881B96079401C40B26528A8BF0E
:1027F0006FF06300607194F905000128B8BF404292
:10280000C0B2FEF7B7FF09E00168C1F380210029DB
:102810001EBF0168C1F34021002902D00020E070F2
:1028200031BD0168C1F38021002955D00068C0F393
:102830004020002850D1A2490120C870E070A07942
:1028400094F90510401C40B20528A4BF0020491C83
:1028500049B26529A071A8BF6FF06301617194F955
:1028600005000128B8BF4042C0B2FEF783FF206ACE
:10287000642811DA401CC92820622DDB9648656A5D
:102880000068FEF747F90022944B01F071F9FEF75A
:1028900099FA4019606231BDC8281DD1C920206253
:1028A0008F49606A8F4D80FB0121481100EBD07089
:1028B000E083B4F91E0060700112217028461021D7
:1028C000FEF7D4FA2078A87310216078E8732846C0
:1028D000BDE83440FEF7B9BA31BD80B5824801F099
:1028E000E7FC00281CBFBDE80240FDF7DDBE01BDCE
:1028F00030B57E48A7B0002141600160FEF714FFAB
:102900006420FEF732FFFDF7DDFFFFF7E2FC754DB7
:1029100010212846FEF7AAFAA87BE97B6B4C01EB55
:102920000020E083002304F1B8020521002001F01B
:102930003CFC08B1FDF7B8FE0FF2E0100068009013
:102940000023502204F16801684601F086FD08B1B9
:10295000FDF7AAFE01AA0121002001F0BEFD08B189
:10296000FDF7A2FE1720ADF8140001A801F0CDFD7F
:1029700008B1FDF799FE5E4801F092FD08B1FDF740
:1029800093FE5C4801F093FD08B1FDF78DFE112028
:102990008DF8080009220FF2741102A87CDF08B13B
:1029A000FDF782FE0021CDE900111020ADF80000F6
:1029B000ADF804103C20ADF802004FF4C870ADF83B
:1029C000060068467ADF08B1FDF76EFE042077DF67
:1029D00008B1FDF769FE48480090694604F12800F7
:1029E000FEF783FF08B1FDF75FFE3C2118A800F059
:1029F00065FD02208DF860003C2100208DF862000A
:102A000005208DF8630009A800F058FD0120ADF8FD
:102A10003400202104F144000E9001A800F04EFD86
:102A200001208DF80700402005901E200690002010
:102A3000009001AA314B09A918A800F0CFFE08B1F7
:102A4000FDF732FE1C21684600F038FD00200090A2
:102A50004FF4203001904FF47020029003208DF845
:102A60000C000020ADF80E008DF8100024480590F1
:102A700024480690684600F010FE08B1FDF714FEE9
:102A8000032000F031FF08B1FDF70EFEFCF7C0FC9B
:102A9000FDF75EFC1C4A0FF28000012101F0ABFB48
:102AA00008B1FDF701FEFEF70EF80022422104F105
:102AB000480001F0B3FB08B1FDF7F6FD3EDFFDE78E
:102AC00050230020E024002004220020DC210020EC
:102AD0001005005068300020842100200000E03FF5
:102AE0001F85EB511C3000202422002024070050B9
:102AF000772702009F2702001D2602007D26020084
:102B00003926020051260200B72702006F72696F52
:102B10007269312E310000002422002001000007DC
:102B200010B5774C04F1200001F0C2FB04F1400025
:102B3000BDE8104001F0BCBB70B5714C0546607B30
:102B4000002610B1667301F016FD172D00F2A88063
:102B5000DFE805F0870C0C1C2532434B50575057CB
:102B6000A36565656565878A9198A3A3002001F038
:102B7000E9FC30B1002001F0F7FC022D16D1122043
:102B800026E001F0E8FC022D14D120E0002001F045
:102B9000D9FCC8B1002001F0E7FC082018E00020B3
:102BA00001F0D0FC20B1002001F0DEFC28200FE075
:102BB00001F0D1FC04200BE0002001F0C3FC18B1AF
:102BC000002001F0D1FC02E0002001F0C4FC022052
:102BD00061692573002241431BE0002001F0D1FC14
:102BE000062061692073002213E0002001F0B3FC8D
:102BF000072050E00120607301F0C3FC61690022EE
:102C000007E00120607301F0BCFC6069002200EB6A
:102C1000800104F1200001F001FB064640E004F1D0
:102C2000400001F045FB0646D5F1110015D0A6B9CC
:102C300002280ED3C82313FB00F0324D6169A0FBBC
:102C4000055398094143002204F1400001F0E6FADF
:102C50000646022001F07FFC22E0022001F084FC05
:102C60001EE001F088FC1AE001F085FC002001F074
:102C700072FC13200FE001F07EFC012001F06BFCE0
:102C8000142008E001F077FC002001F064FC012032
:102C900001F061FC1520207302E001F06EFC257349
:102CA000304670BD164A127E01460020D20744BF4E
:102CB0000846FFF741BF7047002304281BD2012AB2
:102CC00004D101290CBF00F10E02002269B10229D2
:102CD00005D010D20A4900EB40000A540CE0084924
:102CE00000EB40000844427006E0054900EB40005C
:102CF0000844827000E00723184670470000000077
:102D0000F82C00203E0AD7A380B501F051FC4FF00B
:102D1000A04101EB8000D0F8001721F44031C0F849
:102D20000017D0F8001741F44031FFE7C0F8001752
:102D3000002002BD0000FEE738B50FB4DDE9020156
:102D400001F040FC0546DDE9000101F03BFC012DEE
:102D5000B8BF012830DA0198002807D5DDE9000165
:102D600081F00041CDE90001082400E0002403982F
:102D7000002807D5DDE9020181F00041CDE902011B
:102D800084F00604DDE90201DDE9002301F03AFCEC
:102D900004D201F04FFC41EC100B29E0002D08D5C6
:102DA000DDE90001DDE9022301F044FC41EC100BF8
:102DB00020E09FED150B1DE0022808BFDDE90001B2
:102DC00020D0022D08BFDDE902011BD08542019908
:102DD0000CBF9FED0F0B9FED0C0B002903994CBF0F
:102DE00008240024002948BF84F00604012801D1EA
:102DF00084F00204224605B0BDE8304051EC100BCF
:102E000001F046BD05B030BD00000000000000002C
:102E1000000000000000F03F80B553EC112B51EC96
:102E2000100BFFF789FF41EC100B01BDD0B52DED64
:102E3000048B82B041EC180B8DED008BDDE9002393
:102E4000C3F30A5140F2FF72914212D019B9C3F391
:102E50001301084311D051EC180B0022002301F09C
:102E6000D1FB3DBF81F0004141EC180B0824002448
:102E700009E0C3F313010843EDD002B051EC180B85
:102E8000BDEC048BD0BD51EC180B2B4A2B4B01F041
:102E9000B9FB1CD29FED2B9B51EC190B53EC182B5B
:102EA00000F0DCF806460F4653EC182B51EC190BDA
:102EB00000F05EFE32463B46FDF742FE00F056F85B
:102EC00041EC100B51EC180B53EC102B1EE00122BF
:102ED0001B4B01F097FB23D29FED1A9B51EC190B72
:102EE00053EC182B00F0BAF806460F4653EC182B9B
:102EF00051EC190B00F03CFE32463B46FDF720FE3C
:102F000000F034F884F0020453EC182B01F092FB2B
:102F100002B02246BDEC048BBDE8D04001F0B8BC45
:102F200001F0AEFD2121016002B04FF0FF30BDEC99
:102F3000048B6FF00041D0BDCE3B7F669EA0E63F84
:102F40000000F03F000000000000F03F80B551ECB1
:102F5000100BFFF76BFF41EC100B01BD51EC100B98
:102F600010B500F003F841EC100B10BD40F2FF7CEF
:102F70000B0D4DD0634566D230B421EA035141F4C4
:102F8000801103F2FD3C5FEA5C0C01D3001849415B
:102F9000890041EA907180004FF440140023E2025E
:102FA000D50AB1F5100107D46D081DD2091B6419AB
:102FB00000184941491BF7D56D080AD20919641B4D
:102FC00000184941491BEFD56D08F7D301E05208BD
:102FD00017D0C01861419B1AAC4100184941801AB2
:102FE000A941F4D452080AD0C01AA1419B186C41DF
:102FF00000184941801AA941E9D45208F4D15B1C58
:103000006C4161084FEA330001EB0C5130BC704752
:1030100050EA0103FBD030B4B1FA81F311B9B0FA30
:1030200080F41B190B3BB3F120042FBF00FA04F10D
:103030009940C3F1200420FA04F438BF214398409A
:10304000D3F101039DE76345E1D011F5801FDED880
:1030500050EA4101DBD0D94301F018BDF0B44FF084
:10306000004591EA030F44BF6B4000F08BBD00BFE9
:10307000841A71EB030604D26E40001BB141121991
:1030800073414FF4001C1CEB410F34BF7CEB430633
:1030900084E00C0DA4EB1356362E7DDC012E43DCB0
:1030A00045EAC32343EA525312BFD20292025B089D
:1030B000240545EAC12141EA5051D2EBC020994193
:1030C00025D407D1B0FA80F610FA06F164D00020BA
:1030D000203608E0B1FA81F6B140C6F1200220FAAC
:1030E00002F21143B0404FEAF474B4EB465434F0AA
:1030F00001064FEA74040AD8D6F50016760D04F0DE
:103100000044F04061FA06F25040F1404840C00AE5
:1031100040EA415021F0004128BF5FEA500550F1DC
:10312000000044EBD12137E045EAC323DB0A45EA3E
:10313000C121C90AB6F120050EDD42EA0242120C95
:10314000C5F1200603FA06F6EB4042EA06056D4299
:10315000984161F100010DE062FA06F5F240554038
:1031600063FA06FC82EA0C02F3405A406D42904139
:1031700061EB030111F4801F05D1641E620502D0CA
:103180006D004041494121F48011430875F100432D
:1031900050F1000041EB0451F0BC70471CEB410FB3
:1031A00015D223F0004352EA43060BD04FEA4C0CF1
:1031B000BCEB410F04D80C0D661E342EB7DDEBE7D7
:1031C000801A994150EA410608BF0021E4E708BF90
:1031D0001CEB430F28BF6FF00001DDE700EB41104F
:1031E0004FF4A461084411680160918841609168BE
:1031F0008160D168C16070472DE9F04383B00479E4
:10320000A84B03EBC40423791BB1082003B0BDE82D
:10321000F083226001AB0A4602254FF0FF36DFF84B
:103220008882DFF888C21778FF2F0FD027F0800E32
:103230004FF0010909FA0EF9FF0914BFCCF800900C
:10324000CCF80490032748F82E7000E0B646521CD4
:103250006D1E43F804EBE6D10068019B4FF4AC62AD
:10326000024400F204561360029B53604FF4A062C4
:103270000244012313600D79CB88CF78B7603560A5
:1032800073604D7A0B7A43EA052313610022C0F87C
:103290000022C0F80023C0F81C21D0F81C210092A5
:1032A000009A0022C0F81021D0F810210092009A54
:1032B0000022C0F81421D0F814210092009A0022B4
:1032C000C0F80421D0F804210092009A226822B1AB
:1032D000897800030016FEF7A7FB0120207103B0D8
:1032E0000020BDE8F08302796E49006801EBC2015D
:1032F00002031216012302F01F0C03FA0CF3DFF88D
:10330000B0C152094CF822300022C0F800250A71E1
:10331000704781B04FF0020C81F804C0096881B198
:1033200082215FEA427C48BF92215FEA027C48BF6B
:1033300041F02001D206026848BF21F08001C2F8A6
:10334000001300210068C0F80411D0F804110091A6
:1033500000990121C15001B070472DE9F041884624
:10336000044650482179164600EBC10720681D46E7
:1033700042460021FFF732FF206842460121FFF755
:103380002DFF06F00100216800EB560292B2C1F851
:103390001425EA0748BF102207D4AA0704D500283D
:1033A0000CBF0422082200E00022C1F800223946A6
:1033B000EAB200282046BDE8F04114BF0C230823E0
:1033C000A7E7F8B504460D4600F01BF8002690B9B3
:1033D0002068012141603349227901EBC2020023B8
:1033E0001779022FD0F8047118BF012317B10120FB
:1033F000107100E00BB1012601E02A00ECD130464B
:10340000F2BD0279274901EBC2020021137900685D
:10341000D0F80401022B18BF012110B10120107156
:1034200001210846704738B5224D234C2868C00654
:103430000AD5E06840B10020E0601A49E0680090D9
:103440000098096801208847286880060AD5206905
:1034500040B100202061134920690090009809685C
:1034600002208847286800060AD5A06940B10020DC
:10347000A0610C49A0690090009809680020884765
:10348000206860B100202060064920680090009804
:10349000012008710320BDE834400968084731BDA8
:1034A00000000000503000200007005008050050C8
:1034B00080E100E004C3014004C10140002200F0AB
:1034C0000BB8FEE70078FFE700F001007047FEE769
:1034D00062F30F2262F31F4200B500BF130096464D
:1034E0009446103928BFA0E80C50FAD85FEA417C16
:1034F00028BF0CC048BF40F8042BC90728BF20F8DC
:10350000022B48BF00F8012B00BDFEE7144A4B78A0
:1035100002EB00100A781B0102F0030203F03003F3
:103520001A438B781B0203F4E0631A43CB781B0326
:1035300003F480531A430B791B0403F4E0231A436A
:103540004B791B0503F480131A438B791B0603F098
:1035500080731A438260CA79097A416002607047B9
:1035600010750040002201F097BAFEE780B50122F5
:1035700002210020FFF7A0FB002818BF072811D167
:10358000072202210120FFF797FB002818BF072818
:1035900008D10A2200210020FFF78EFB002814BF6B
:1035A0000728002002BD80B50020FFF7ADFB0028F2
:1035B00018BF062806D10120FFF7A6FB002814BF7C
:1035C0000628002002BD10B50088102802D011285E
:1035D00026D010BD1A4C6068F0B901220021FFF717
:1035E0006BFB002818BF072811D1072202210120F8
:1035F000FFF762FB002818BF072808D10422022128
:103600000020FFF759FB002818BF072804D018B185
:1036100021680A0018BF88476068401C606010BDC0
:10362000074C6068401E606008D1FFF79FFF28B11B
:1036300021680A001CBFBDE81040084710BD00000B
:103640004830002010B5604CE08B4FF6FF71884287
:1036500082B021D0217F227B491C2177C9B28A42C6
:1036600007D35A4975DFB8B1A1690A0014D0884759
:1036700013BD00212177217C31B13B2176DF18B1C8
:10368000A1690A0018BF88476169080004D00020BA
:103690008DF800006846884713BDF8B5B0E8EE1015
:1036A000494CA4E8EE101C3C00216177474D50F8CE
:1036B0001C1D0029284613D00822FDF7E5FB2846EB
:1036C0007ADF60B94FF6FF70E08300202077002199
:1036D000BDE8F8403E4A0FF2001000F08CBDF2BD8C
:1036E0007BDF0028EED0F2BD3A48384910B540885B
:1036F0000B8882B0984224BF49888142324C0AD359
:103700006169080004D001208DF8000068468847F0
:103710000020607713BD607F20B161690800F7D099
:103720000020F1E7207F00280CBF6168A16800221B
:1037300004F1200000F072FD0028E9D0A1690A0020
:10374000E6D08847E4E710B501460888102806D07F
:10375000112811D012282ED0502814D010BD1A4C88
:103760008888E08310311B480822FDF78DFB00207C
:103770002077E08938BB23E0134C4FF6FF70E083DD
:10378000002020770CE0104CC888E289904204BFEA
:10379000088A022817D101F11200FFF793FE78B9C9
:1037A00004F1200000F084FD68B1A1690A000AD08C
:1037B000BDE810400847074808310822FDF764FBC0
:1037C000BDE8104090E710BD942E00203830002056
:1037D0004536020040300020B42E0020F8B5040029
:1037E00018BF002A0D4601D10E20F2BDDFF8640398
:1037F000DFF86463012101720021C17292EC080BB1
:10380000DFF8581381EC080B0699816143614FF68C
:10381000FF7101820721FFF751FE3C213046FFF77F
:103820004DFE20783070A078B070E078F07060784D
:103830007070D4E90401C6E90401D4E90201C6E9C3
:103840000201D4E90601C6E90601616ADFF8100346
:10385000A1B100F1400171628860626A13880B8037
:1038600092888A800021130008D00346676ABF68E7
:103870007F5C03F8017B491C9142F7D3A16AF1B147
:1038800000F1400100F120024A6100F14C02B262F5
:10389000A26A93880B8212888A81194600220B0043
:1038A00009D000F12003A76ABF68BF5C03F8017B61
:1038B000521C8A42F7D394F82C1086F82C10216AF7
:1038C00049B100F15801316200F14001226A50888B
:1038D000488310880883606800B1706029463046CC
:1038E000BDE8F44001F05CBB70B59A4C0646207A06
:1038F00086B010B9082006B070BDE67204A8FEF7C5
:10390000E9FD049820B10120607206B0002070BD6E
:1039100007212046FFF7D2FD904D687810B1E07A7C
:10392000012806D0A87870B1E07A012818BF0228D3
:1039300009D16169080004D001202073082088475C
:1039400001E0002020736078002804BFA0780028E0
:103950000DD1E078002804BF2079002807D16079D4
:1039600028B9A179481E8041C043C00F00E0012062
:10397000761E032E15D8DFE806F002070C106978D2
:10398000014218BF01200DD1A978014218BF0220C1
:1039900008D1E87808B1032004E0287908B10420B0
:1039A00000E00020E0726169080011D0E07A03288D
:1039B00018BF04280CD1627B287882F001021042E3
:1039C00006D00020E0730120A0730720884701E0A3
:1039D0000020A073684600210022002300264EC06C
:1039E000E07A8DF8001004288DF8081038D8DFE848
:1039F00000F05B030D1A3E000120A07201948DF8C7
:103A00000000ADF80C10ADF80A102BE00220A072F7
:103A1000019401208DF80000E868ADF80C00A8685A
:103A2000ADF80A001EE02869617BADF80A0081F05C
:103A300001016869ADF80C0028780840E17B084274
:103A400002D10320A0720DE002208DF808000421AD
:103A50004148C170002101F0A3FA08B90520A07205
:103A6000E07A10B3684673DFF8B106B070BDA8699C
:103A7000617BADF80A0081F00101E869ADF80C0046
:103A800028780840E17B084208BF0420DAD00220F1
:103A90008DF8080004213048C170002101F080FA3F
:103AA0000028DDD10620DAE7A172616908001CBF99
:103AB000A07A8847002006B070BD38B5044620883B
:103AC000102804D011280FD01B2826D031BD25493D
:103AD000012008700020FDF74DFEE07B012822D177
:103AE000A0881C49088231BD0020FDF73EFE002061
:103AF000FDF740FE1B49174D002008706873298AA6
:103B0000A08888420FD10120FFF7EEFE58B1A969C5
:103B10000A0008D0BDE8344008471348007810B9BF
:103B200012490120087031BD801E012800D970475C
:103B300010B5084C607A58B100206072E07AFFF747
:103B4000D3FE28B1A1690A001CBFBDE81040084798
:103B500010BD0000C02F0020D42E0020602F0020B8
:103B6000E02D002068300020DF2100206730002099
:103B7000F0B44FF0004591EA030C44BF6B40FFF7EF
:103B800077BA00BF841A71EB030603D2001BB14160
:103B9000121973414FF4001C1CEB410F34BF7CEB36
:103BA000430443E00C0DA4EB1356352E50DC45EADC
:103BB000C323DB0A45EAC121C912B6F120050DDD98
:103BC00063FA05F6EB4086EA0305124218BF45F09A
:103BD0000105C01851F100010CD213E062FA06F59C
:103BE000F2405540F3415A40B340F3405A408018E8
:103BF000594107D349085FEA30005FEA350528BF1D
:103C000045F0010501F58011420875F1004250F1BF
:103C1000000041EB0451F0BC4FF4001C1CEB410FC1
:103C200038BF70470020090D090570471CEB410F94
:103C300010D252EA43060BD0BCEB410F05D80C0D55
:103C4000AB43661E342EB5DD02E0AB43801859410C
:103C5000F0BC7047F0BC704710B4DFF8C016DFF856
:103C6000C0264FF4003008604FF48031DFF8B4060E
:103C7000016401600121DFF8B00601602F23DFF845
:103C8000AC160C6800BF00BF00BF00BF00BF00BF84
:103C900000BF00BF94422FD000BF00BF00BF00BFD5
:103CA00000BF00BF00BF00BF00BF00BF00BF00BF1C
:103CB00000BF00BF00BF00BF00BF00BF00BF00BF0C
:103CC00000BF00BF00BF00BF00BF00BF00BF00BFFC
:103CD00000BF00BF00BF00BF00BF00BF00BF00BFEC
:103CE00000BF00BF00BF00BF00BF00BF00BF00BFDC
:103CF00000BF00BF00BF00BF013BC3D10123436031
:103D00000023DFF82C0603610B682F2100BF00BFE2
:103D100000BF00BF00BF00BF00BF00BF93422FD055
:103D200000BF00BF00BF00BF00BF00BF00BF00BF9B
:103D300000BF00BF00BF00BF00BF00BF00BF00BF8B
:103D400000BF00BF00BF00BF00BF00BF00BF00BF7B
:103D500000BF00BF00BF00BF00BF00BF00BF00BF6B
:103D600000BF00BF00BF00BF00BF00BF00BF00BF5B
:103D700000BF00BF00BF00BF00BF00BF00BF00BF4B
:103D80000139C3D10021817210BC7047F0B4DFF853
:103D9000A0050178C268DFF89C3517E02546E46984
:103DA000A4B1B442FAD1A54202BFFE69C660002E9A
:103DB00005D101261E60002606610126C67226680E
:103DC000E469EC6114B1256875192560CCB24578B9
:103DD000AC421FD044688678C9B201EB410504EBC0
:103DE000C504491CCDB2B542257808BF0021022D7B
:103DF00002D0032D05D0E9E7C76866683D462C462A
:103E0000CEE7C468002C1FBF00252574E469C46098
:103E1000F7D1DBE7F0BCC068904214BF012000205E
:103E20007047F0B4DFF80815DFF80C35CA6800E019
:103E3000CC6060BB0C784D78AC425AD04D688F781E
:103E400004EB440605EBC605641CE6B2BE4208BF9F
:103E500000240C702E786C68012E04BF267C002E86
:103E6000E8D1AE686660EE68A6602E69E6606D69AE
:103E7000A561CD7A0DB1002565600D696668771B77
:103E800027F07F479F4205D2A568ED190AE0044656
:103E9000E069F2E7AD1BA66825F07F45B54234BF67
:103EA000751B0025256000256560A560012525742A
:103EB0000025E561CD68002DBAD02E682768BE4286
:103EC00003D3F61B2E60E561B2E72E46D6F800C09C
:103ED000BC4506D23546F669002EA7EB0C07F5D196
:103EE00003E0ACEB070CC6F800C02760E661EC61AC
:103EF0009FE7F0BCC868904214BF012000207047C3
:103F00002DE9F843DFF82844637A2069217A0025F7
:103F1000994206460A460ED0521CD2B2022A08BF67
:103F2000002204EB82014FF001084F69381820F09D
:103F30007F40206101E00027A8462272FFF726FF9C
:103F4000E168B8F1000F81461FD0002214E03F1A4B
:103F50008218002018600846D3F80CC0D969BCF15B
:103F6000000F09D002EB060EDD612EF07F4EC3F884
:103F700004E0C3F808C0054629B10B46186887421B
:103F8000E5D2C01B18604FF00109E1602846FFF739
:103F900048FF002808BFB9F1000F00F0C080E068BA
:103FA000002800F0BA800268DFF8900301682369F6
:103FB000A67ACD1A25F07F45ED1C002E55D1DFF8ED
:103FC0008063DFF85CC34FF48037376437604FF4A9
:103FD0000036DFF870733E60DFF86C733E600126D8
:103FE000DFF868733E60DFF8446337682F2600BF50
:103FF00000BF00BF00BF00BF00BF00BF00BF6745DC
:104000002FD000BF00BF00BF00BF00BF00BF00BF78
:1040100000BF00BF00BF00BF00BF00BF00BF00BFA8
:1040200000BF00BF00BF00BF00BF00BF00BF00BF98
:1040300000BF00BF00BF00BF00BF00BF00BF00BF88
:1040400000BF00BF00BF00BF00BF00BF00BF00BF78
:1040500000BF00BF00BF00BF00BF00BF00BF00BF68
:1040600000BF013EC3D10126A672954238BF154656
:10407000EA1822F07F42C263521A0368591A21F0EB
:104080007F4122F07F42C91C8A4248D20168A44A7B
:10409000C163A64801682F2000BF00BF00BF00BF5A
:1040A00000BF00BF00BF00BF91422FD000BF00BFC4
:1040B00000BF00BF00BF00BF00BF00BF00BF00BF08
:1040C00000BF00BF00BF00BF00BF00BF00BF00BFF8
:1040D00000BF00BF00BF00BF00BF00BF00BF00BFE8
:1040E00000BF00BF00BF00BF00BF00BF00BF00BFD8
:1040F00000BF00BF00BF00BF00BF00BF00BF00BFC8
:1041000000BF00BF00BF00BF00BF00BF0138C3D168
:104110008F494FF40030086001E0FFF79DFD00205B
:10412000E072BDE8F183F8B58A48814C0021016452
:1041300041648164C16401604160E6689EB37F4868
:1041400000682169401A002520F07F4730688742C7
:1041500016D33F1A45193046F669017C71B100212A
:10416000017442698169E369180005D010469847D7
:1041700020B1FCF799FA01E008469047002EE5D1FE
:10418000607A217A814201BF401C6072C0B202286D
:1041900004BF00206072607A6D4904EB80004561C5
:1041A0004FF480100860F1BDAAE6F8B50446164643
:1041B00016F003000D461F4600D10EB90720F2BDD0
:1041C000FFF74AFD00215A480180C1600181C761A3
:1041D000857046604FF480115A4A1160E0235E4AB0
:1041E000D370594B1960E02354494C60137009682F
:1041F00001610020F2BD4E4B5B6843B1130018BF54
:10420000002801D1072070470068037C0BB108200B
:104210007047037441744261002070472DE9F843F0
:10422000434F04467868002818BF002C0D4691467D
:1042300005D0052D38BF072038D3606910B9082094
:10424000BDE8F283607C01280CBFA8464FF000084F
:1042500000268DF80060684600F0D4FE7978BB78BF
:10426000481CC2B29A4208BF00203B78C2B29A42B0
:104270001DBF7A6801EB410312EBC30104260BD08A
:1042800001220A704C602D4A12688A60CD60C1F824
:104290001080C1F8149078709DF8000000F0CEFEF8
:1042A0001EB92B494FF4801008603046BDE8F283F8
:1042B00070B51F4D04466868002818BF002C82B0F6
:1042C00001D0606908B9082076BD002020748DF8FF
:1042D00000000026684600F095FE6878AB78411C27
:1042E000CAB29A4208BF00212B78CAB29A421DBFB7
:1042F0006A6800EB400312EBC300042603D00222DD
:104300000270446069709DF8000000F097FE1EB9CD
:104310000F494FF480100860304676BD80E100E020
:104320000024F4000813014004100140D8240020A8
:10433000402F002008100140FFFF7F0004150140BE
:104340000413014080E200E000E100E000100140C1
:1043500000E200E00011014011E400E020280CDA46
:104360006F4AC240D2070FD5002810D56D4A00F021
:104370000F031A4412F8042C0BE0402807DA01223C
:10438000A0F120039A4002D142F201007047664A30
:10439000125C5209082A18D2002A18BF012A14D028
:1043A000042A18BF052A10D0604BD3F808C0012298
:1043B0004109BCF1000F00F01F0009D102FA00F022
:1043C0005B4A42F821000020704742F20200704729
:1043D00053F821C002FA00F040EA0C0043F8210033
:1043E000F1E7FDF743BB7CB5524C207888B3E06819
:1043F000002500280CBF0126002600E09DB960784A
:1044000038BB684648DF052808BF01250BD010B12E
:10441000FCF74AF907E0009800F073FE21690800F4
:104420001CBF0098884796B9607890B96088ADF84D
:10443000040001A9A06861DF052808BF012606D095
:1044400010B1FCF731F902E0A068E1688847354215
:10445000D4D073BD37480078704738B5A9B111F092
:10446000030412D1334C6280A1606360304A11684A
:1044700011F0010302D0304D012129602F4910DFD6
:1044800028B163B10121116032BD072032BD012086
:10449000207000F04FFEBDE8324016205EE732BDCE
:1044A00001000FBF0E202349C860002070470100A3
:1044B0000FBF0E201F4908610020704780B51D48BE
:1044C0004068010005D0804730B1BDE80240FCF7EC
:1044D000EBB8BDE8014086E701BD70B505460E4664
:1044E00014461C212046FEF7E9FF01202080267299
:1044F0000020A0616572207D00F0FE00207528007C
:104500001CBF0120A072002070BD82B00C49009138
:104510000099019101A960DF009902B07047000085
:10452000FC06FFBC18ED00E000E400E02C300020A9
:1045300000E100E00830002080E100E0E3430200F9
:104540002821002017490FF274020968105CC1404D
:1045500001F0010070470FF26402105C012101FAC2
:1045600000F01149086070470FF25002105C012101
:1045700001FA00F013E00D4900E00B490820086043
:1045800070470FF23801085C06490A68012303FAF4
:1045900000F020EA02034B60104088607047034936
:1045A0000860704704050050080500500C050050D5
:1045B0000FF20C01085C70470000000003000000CF
:1045C0000D0E0F1003B4DDE90023C3F30A5140F2CE
:1045D000FF72914206D001B10CE0C3F3130108430E
:1045E00006D00BE0C3F31301084314BF02200120DF
:1045F00002B070474FF0FF3002B070476FF001001B
:1046000002B070474FF4001C1CEB410F94BF1CEB31
:10461000430F09E041EA030C50EA4C0C52EA0C0C3F
:1046200003D2994208BF9042704714BF8B42824226
:104630007047FEE72DE9F04140F2FF7581EA030C77
:104640000CF0004C15EA11541DBF15EA1357AC428B
:10465000AF42E9E0BC41C1F31301C3F31303801A75
:10466000994143F4801304D2641E400049418018EC
:104670005941C90241EA5051B1FBF3F603FB16114F
:10468000A2FB0675D7EBC020A94102D2761E801886
:104690005941C90241EA5051B1FBF3FE03FB1E111F
:1046A000A2FB0E75D7EBC020A94103D2AEF1010EDB
:1046B00080185941890241EA9051760546EA8E2ECA
:1046C000B1FBF3F603FB1611A2FB0675D7EB8020B6
:1046D000A94102D2761E80185941C90241EA5051BF
:1046E0004EEA060EB1FBF3F603FB1611A2FB0675AC
:1046F000D7EBC020A94102D2761E80185941C902C9
:1047000041EA5051B1FBF3F703FB1711A2FB073548
:10471000D3EBC020A94167F100070CBF004247F06E
:10472000010766F3D5274FEA1E31B80814F58064F7
:1047300014DDBD0775F1004250EB0E5051EB0451F2
:1047400011F5801F5CBF41EA0C01BDE8F0814CF01F
:104750007F6141F0E0410020BDE8F081BD076D08B8
:1047600040EA0E5041F48011D4F10104B4F1200666
:104770000ADAC4F120060200E04001FA06F3E14043
:104780001843B24015430EE0342C14DCC6F120046B
:1047900045EA40056D0820FA06F2154321FA06F0B5
:1047A000A1400D43002175F1004250F1000051EB92
:1047B0000C01BDE8F08100205FEA0C01BDE8F0814A
:1047C000CFB992185B41B3FA83F704BFB2FA82F60D
:1047D000BF190B3FB7F120062FBF02FA06F3BB400B
:1047E000C7F1200622FA06F638BF3343BA401CB19F
:1047F000E419641E2FE77F4231F00041B1FA81F4E1
:1048000004BFB0FA80F6A4190B3CB4F120062FBF08
:1048100000FA06F1A140C4F1200620FA06F638BFDE
:104820003143A0403C1B16E7AC421ABF05EA1357C0
:10483000AF4214E050EA41061CBF52EA4306BFE70C
:1048400050EA4107304661461CBF41EA0551BDE8C8
:10485000F08152EA430C08BFC143BDE8F08100205B
:104860004FF4001616EB410F98BF16EB430F08BF2D
:1048700016EB410F24BFC14305E016EB430F0CBFFD
:1048800061464CEA0551BDE8F081FEE7FEE7FEE730
:10489000D0B51446544A554B00F066FC2DED048B00
:1048A00041EC180B1DD89FED529B53EC182B51EC8B
:1048B000190BFCF745F900224F4BFFF759F9064653
:1048C0000F4653EC182B51EC190BFFF751F9024628
:1048D0000B4630463946FFF7ADFE41EC180B44F06D
:1048E000010451EC180B0022444BFFF78BFE05D35B
:1048F00001224FF0795300F037FC51D853EC182BBC
:10490000FCF71EF941EC190B53EC182BFCF718F9C6
:1049100006460F4653EC192B39483A49FCF710F973
:10492000394A3A4BFFF724F953EC192BFCF708F9F5
:10493000374A384BFFF71CF932463B46FCF700F983
:1049400053EC182BFFF714F906460F4653EC192BBE
:1049500031483249FCF7F4F8314A324BFFF708F995
:1049600053EC192BFCF7ECF82F4A304BFFF700F90A
:1049700053EC192BFCF7E4F82D4A2E4BFFF7F8F80F
:1049800053EC192BFCF7DCF800222B4BFFF7F0F867
:1049900002460B4630463946FFF74CFE41EC180BF9
:1049A000A00705D551EC180B81F0004141EC180B24
:1049B00014F007020BD00FF2880303EBC20251EC94
:1049C000180BD2E90023FFF7D3F841EC180B2007AE
:1049D00005D551EC180B81F0004141EC180B51EC5E
:1049E000180BBDEC048BD0BD57CD9E5E1426D13F75
:1049F000AA4C58E87AB6FB3F0000F0BF000040BE6A
:104A0000845D57134B57B03FB2934C19ED5EE43FB2
:104A1000BEDE02B90240F83FDE39028FC7C0743FE4
:104A20008AAB1283000CC83F24D7E508B6D8F03F04
:104A30000F34580E5895FD3F0000F03F0000000075
:104A4000000000000000000066732D3852C1E03FF6
:104A5000182D4454FB21F93F66732D3852C1F03FA5
:104A6000182D4454FB21F93F66732D3852C1004084
:104A7000182D4454FB2109403FD038C6A6F104400C
:104A8000014800F088BB0000DC2400201FB5FFF7C0
:104A9000F7FF212101601FBD401810F0030308D06B
:104AA000C91A1FD3DB0748BF00F8012D28BF20F823
:104AB000022D130030B414461546103928BF20E9E2
:104AC0003C00FAD8490728BF20E90C0048BF40F84D
:104AD000042D890028BF20F8022D48BF00F8012DC1
:104AE00030BC7047C91818BF00F8012DCB0728BF8C
:104AF00000F8012D704778B405460C462878012847
:104B000002BF69780029072043D011888E1CB34268
:104B10001FD3012804D168780818801C834218D359
:104B2000581A831EADF80030694610882044801C56
:104B30007DDF70BB2978022910D1BDF8001098B232
:104B4000884209D20820ADF80030BDF80010FF29D6
:104B50000FD372BC0C2070470920F6E7082001290A
:104B6000F1D16E7899B2B14288BF3146ADF80010EC
:104B7000EBE71388491CE1541188491C118089B264
:104B800060541088401C1080BDF800100818108078
:104B9000002072BC70472DE9FC470A9E0B9C3788A9
:104BA0004FF0000E054688469146F24606E03088F2
:104BB0009DF80010401830800AF1010A28888245CB
:104BC0002EDA686850F82A0001900022694601A890
:104BD00065DF98BB9DF800004845EDD1BEF1000FA0
:104BE00031889DF8002014BF0020022052181018B0
:104BF00084421EDBBEF1000F09D1481C30804FF00B
:104C0000010E80B203F800803088401C3080694675
:104C100030881A1801A865DF0028C8D0BDE8F687DB
:104C2000BEF1000F09D03088C01B401E80B2FF28A3
:104C300002DD0C20BDE8F687D8550020BDE8F687D8
:104C40002DE9FC41089F099C0194164605469846AB
:104C500000970222FFF79FFF38B90194009743465F
:104C6000102231462846FFF796FFBDE8F681F0B4E2
:104C70001488A51DAB4238BF0C2014D30388062B23
:104C800010DB40F68146B34203DB4FF6FF77BB42B1
:104C900008D14788062F05DBB7424FF6FF7504DBC6
:104CA000AF4206D00720F0BC7047AB4201D09F4214
:104CB000F8D305230B55122413885B1C13809BB279
:104CC000CC5413885B1C13809BB20B4404881C706B
:104CD000240A5C7013889B1C13809BB21944408883
:104CE0000870000A48701088801C10800020F0BCFA
:104CF00070472DE9F04100F12806884630681546D6
:104D0000C0B3002708E080B24044FCF7BDF8288813
:104D1000A188081828807F1CF8B2317988422CD2EB
:104D20003068FFB207EB470100EB8104A088801CCC
:104D3000FF2802D30C20BDE8F0812988401C08F828
:104D4000010016212888401C288080B208F8001035
:104D50002888401C288080B2404421880170090ABC
:104D600041702888801C2880A2881100D3D0A168B7
:104D70000029C8D10720BDE8F0810020BDE8F081FE
:104D80002DE9FC4716460446B6F800A04FF000098E
:104D900004F12C08A6F800900D4698F8010040B3E5
:104DA000BAF1090FC0F0F98068466DDF002840F0C5
