:020000040001F9
:10F00000E82B00203D6702009B080200370F02003A
:10F0100017100200571D0200FF2B02000000000025
:10F02000000000000000000000000000433E02005D
:10F030007F3E0200000000004B3F0200B75202007A
:10F04000115E02000F550200F7620200690802001B
:10F050000167020023670200192202004524020012
:10F060002F670200596702005B6702005D670200BC
:10F070005F67020061670200636702006567020064
:10F080006767020015500200696702006B670200A3
:10F09000275002006D6702008D4802006F67020072
:10F0A00071670200736702007567020077670200EC
:10F0B000193E020079670200000000000000000015
:10F0C0007B6702007D6702007F67020081670200A4
:10F0D0008367020085670200876702000000000066
:10F0E0000000000000000000000000000000000020
:10F0F0000000000000000000000000000000000010
:10F1000000000000000000000000000000000000FF
:10F1100000000000000000000000000000000000EF
:10F40000DFF864074169491C4161012101747047BB
:10F410001FB50FF23C000FC86C4684E80F001420A3
:10F420008DF8030011208DF8020012208DF80100E4
:10F4300013208DF80000DFF8342769460FF28C00A6
:10F4400001F0DEF8002801D001F018FA1FBD00001D
:10F45000FFFFFFFF00FF0000000000800000000031
:10F460001CB58DF8041010788DF80500DFF8F8460B
:10F470000020207400900346022201A90FF24C00E4
:10F4800001F02EF9207C0028FCD0002016BD70B5BC
:10F4900082B014461D46DFF8D06641F08000B0749B
:10F4A00000203074681CC0B200903346012206F17F
:10F4B00012010FF2180001F013F9012D02D1307C76
:10F4C0000028FCD070782070002076BD003000400D
:10F4D0000300010010B5DFF898460C2304F1840204
:10F4E00022210020FFF7D3FF00200BE0DFF8781681
:10F4F00001EB40018A78497811EB022104EB4002CC
:10F500009180401C0628F1DB10BDD0ED001A91ED72
:10F51000002A72EE200A30EE811A80EE811A30EE57
:10F52000610A40EE011AB7EE000A30EE410A20EE01
:10F53000200A81ED000AC0ED001AB0EE610A7047A2
:10F5400030B4DFF8300690ED081AD0ED071ADFF876
:10F550002016B1F9042000EE102AB8EEC00AD1ED51
:10F56000070A30EE600A20EE210A20EE010A81ED42
:10F57000040AB1F9062000EE902AF8EEE00A91EDB7
:10F58000082A70EEC20A60EEA10A60EE810AC1ED9F
:10F59000050AB1F9082002EE102AB8EEC22AD1ED10
:10F5A000092A32EE622A62EE211A21EE811A81EDD9
:10F5B000061A90ED092AB1F90A2001EE902AF8EE18
:10F5C000E11AD0ED002A71EEE21A61EE821AC1ED65
:10F5D0000A1AB1F90C2002EE902AF8EEE22A90ED18
:10F5E000013A72EEC32A62EE822AC1ED0B2AB1F90A
:10F5F0000E2003EE102AB8EEC33AD0ED023A33EEF5
:10F60000633A23EE022A81ED0C2A0A6E002A4FD0BB
:10F61000C268521CC260002313E09FED974A33EE8C
:10F62000043AF4EE433AF1EE10FA01D584ED043ACF
:10F6300094ED0C3AD4ED043A33EE233A84ED0C3ACF
:10F640005B1C032B1BDA01EB4304B4F9044003EE0B
:10F65000104AF8EEC33A00EB8304C4ED043A01EB20
:10F66000830595ED073A9FEDD04A33EE044AB4EE98
:10F67000634AF1EE10FAD0D584ED044AD8E740F69B
:10F68000B9339A4214DB0022C2600A660EE000EB36
:10F69000820393ED0C3ADFEDC53A83EE233A01EB9A
:10F6A000820484ED073A00241C63521C032AEEDB1B
:10F6B0000A78130020D1C0ED0A0AB1EE400A81EDAC
:10F6C000050AC1ED040A80ED0A1AB1EE600A81ED67
:10F6D000060A81ED041AC0ED0B2AB1EE610A81ED34
:10F6E0000B0AC1ED0A2A80ED0B2AB1EE620A81ED08
:10F6F0000C0A81ED0A2A61E0012A18D180ED0A1A6C
:10F70000B1EE400A81ED060AC1ED040AB1EE410AEC
:10F7100081ED050A80ED0B2AB1EE610A81ED0C0A3C
:10F72000C1ED0A2AB1EE420A81ED0B0A46E0022A37
:10F7300010D180ED0A1A81ED060AB1EE410A81ED81
:10F74000040A80ED0B2AC1ED0C1AB1EE420A81EDDC
:10F750000A0A33E0032A10D180ED0A1AB1EE400AFA
:10F7600081ED060A81ED041A80ED0B2AB1EE610AE3
:10F7700081ED0C0A81ED0A2A20E0042A10D1C0EDA7
:10F780000A0AB1EE400A81ED050AC1ED040AC0ED96
:10F790000B2AB1EE610A81ED0B0AC1ED0A2A0DE0D8
:10F7A000052A0BD1C0ED0A0A81ED050AC1ED040A54
:10F7B000C0ED0B2AC1ED0B1AC1ED0A2A30BC70470F
:10F7C000DFF8AC0390F901100A0016D190ED171A7A
:10F7D000B8EEC11AB4EE401AF1EE10FA0DD5DFF80A
:10F7E000F82492ED011AB8EEC11AB4EE601AF1EEE7
:10F7F00010FA02D50121417030E00A46012A07D1F2
:10F80000F5EE400AF1EE10FA02D50021417025E034
:10F81000002919D190ED171AB8EEC11AB4EE401AAA
:10F82000F1EE10FA10D5DFF8B0144968494200EE45
:10F83000101AB8EEC00AF4EE400AF1EE10FA03D541
:10F840004FF0FF31417009E012F1010F06D1F5EEE2
:10F85000400AF1EE10FA01DD0021417090F901102B
:10F860000A4690F902309A4204D08170C06D484334
:10F8700040B2704700207047000048C270B40021B9
:10F88000DFF8EC2292F903402546DFF8EC36012D33
:10F890000DDB93ED041AB8EEC11AB4EE401AF1EE86
:10F8A00010FA13D5BDEEC01A83ED041A0EE0002D38
:10F8B0000CD593ED041AB8EEC11AB4EE401AF1EE6D
:10F8C00010FA03D5BDEEC01A83ED041A260014D138
:10F8D00092ED171AB8EEC11AB4EE401AF1EE10FA12
:10F8E0000BD593ED011AB8EEC11AB4EE601AF1EE21
:10F8F00010FA02D50124D4703FE0012D0FD15E68CB
:10F9000006EBD676761001EE106AB8EEC11AF4EE68
:10F91000410AF1EE10FA02D50224D4702DE0002C39
:10F9200017D192ED171AB8EEC11AB4EE401AF1EEE3
:10F9300010FA0ED55C68644200EE104AB8EEC00AB8
:10F94000F4EE400AF1EE10FA03D54FF0FF34D47014
:10F9500013E015F1010F10D15C6804EBD47464104E
:10F96000644200EE104AB8EEC00AB4EE600AF1EE4E
:10F9700010FA02D56FF00104D47092F90340022C02
:10F9800002D014F1020F0AD104EBD47149101C69A2
:10F9900061430024D47022461A615A690260084605
:10F9A00040B270BC70470000000048420000FA44BA
:10F9B000DFF8C40590F901100A0014D190ED031A84
:10F9C000B8EEC11AB4EE401AF1EE10FA0BD590ED74
:10F9D000021AB8EEC11AB4EE601AF1EE10FA02D5AE
:10F9E000012141702DE0012A07D1B5EE400AF1EE68
:10F9F00010FA02D50021417023E0002917D1C16817
:10FA0000494201EE101AB8EEC11AB4EE410AF1EE05
:10FA100010FA0CD590ED021AB8EEC11AB4EE601AC5
:10FA2000F1EE10FA03D54FF0FF31417009E012F109
:10FA3000010F06D1B5EE400AF1EE10FA01DD00210A
:10FA4000417090F901100A4690F902309A4204D0B0
:10FA50008170C068484340B270470020704730B49E
:10FA60000021DFF8742292F900301C46012C0DDBD6
:10FA700092ED051AB8EEC11AB4EE401AF1EE10FA82
:10FA800013D5BDEEC01A82ED051A0EE0002C0CD580
:10FA900092ED051AB8EEC11AB4EE410AF1EE10FA71
:10FAA00003D5BDEEC01A82ED051A1D0014D192EDEA
:10FAB000031AB8EEC11AB4EE401AF1EE10FA0BD5E3
:10FAC00092ED021AB8EEC11AB4EE601AF1EE10FA15
:10FAD00002D5012313702EE0012C07D1B5EE400AA8
:10FAE000F1EE10FA02D50223137024E0002B17D197
:10FAF000D3685B4201EE103AB8EEC11AB4EE410A87
:10FB0000F1EE10FA0CD592ED021AB8EEC11AB4EE6D
:10FB1000601AF1EE10FA03D54FF0FF3313700AE0CC
:10FB200014F1010F07D1B5EE400AF1EE10FA02DD33
:10FB30006FF00103137092F90030022B02D013F121
:10FB4000020F0DD11170516900235361DFF820308D
:10FB500093F9033012695A4302EBD27252100260D9
:10FB6000084640B230BC70477023002001F4010009
:10FB7000802200208C23002030B4DFF8DC1801F153
:10FB80004500427E042A00F09A80082A00F09780FF
:10FB9000027E02F00102531E9B41DB43DB0F037028
:10FBA000027E920702D50122427002E000224270DA
:10FBB0000271027E02F00402531E9B41DB43DB0F05
:10FBC0008370027E02F00802531E9B41DB43DB0F71
:10FBD000C370027ED20607D5012202714278012A43
:10FBE00004D00122427001E000220271027E02F084
:10FBF0002002531E9B41DB43DB0F4371027E02F068
:10FC00004002531E9B41DB43DB0F8371027E02F0F7
:10FC10008002531E9B41DB43DB0FC371827E653143
:10FC2000130001D04A7301E000224A73C27E130020
:10FC300001D08A7301E000228A73037FDFF81C2859
:10FC40001C0002D0CB73D36502E00A23CB73D365CB
:10FC5000437FC94C1D0002D00B74E36002E00A230D
:10FC60000B74E360837F1C0002D04B74137002E0BE
:10FC700000234B741370C07F020001D0887401E030
:10FC8000002088740878020001D0C87401E00020C8
:10FC9000C8744878020001D0087501E0002008759A
:10FCA0008878020001D0087301E004200873C87846
:10FCB000020001D048750DE0002048750AE0042AD2
:10FCC00003D101206531887504E0082A02D10220A1
:10FCD0006531887530BC704758230020F8B5002482
:10FCE000DFF8745705F145063078002806D001206A
:10FCF0002870A87B40F00100A87305E0204628701A
:10FD0000A87B00F0FE00A87305F124077078002896
:10FD100043D0B2EE040ADFED990A994890ED001A3B
:10FD200031EE201A21EE001ABDEEC11A11EE100AB2
:10FD300000B23860934890ED001A31EE201A21EE9F
:10FD4000001ABDEEC11A11EE100A00B278608E489A
:10FD500090ED001A71EE200A20EE800ABDEEC00A76
:10FD600010EE100A00B2B86020460DE000EBD07132
:10FD7000491005EB8102526AC0EB4101C90008310C
:10FD80000A412918CA73401C0628EFDB012068705D
:10FD9000A87B40F00200A87305E020466870A87BAD
:10FDA00000F0FD00A873DFF8B8060078B1780029EC
:10FDB00036D0002801D100F0ABFEDFF8940690EDBC
:10FDC000000ABDEEC00A10EE100ADFF89816B1F96D
:10FDD0000010401AF86020460BE0F96800EBD07282
:10FDE0005210C0EB4202D200083211412A1851755C
:10FDF000401C0228F1DB00F06BFE002809D0DFF880
:10FE0000540600683874387C28770120DFF84C16D7
:10FE100048670120A870A87B40F00400A87309E09F
:10FE2000002801D000F07BFE2046A870A87B00F0DF
:10FE3000FB00A873F078002833D000F084FFDFF8CF
:10FE40000C16088000F090FFDFF81C26DFF81C3647
:10FE500000F0A0FF2246DFF8183600F09BFF01F00B
:10FE60006BF800EE100ADFF8E00580ED000A10EEF6
:10FE7000100A01F0A9F82246DFF8F83500F08AFFF1
:10FE800001F0CAF87874E8750120E8702046F07037
:10FE9000A87B40F00800A8730120DFF8C015486770
:10FEA00005E02046E870A87B00F0F700A8733079E1
:10FEB000002821D0DFF8A405C16C426D51EA02038D
:10FEC00014D0B974016DF9743A75816D7975B97C86
:10FED0002976F97C6976397DA976797DE976A97BE1
:10FEE00041F01001A9730121416705E02046287106
:10FEF000A87B00F0EF00A87395F87B00012817D1CC
:10FF00008020A873DFF870651021304601F0D8F822
:10FF1000204603E0315C2A18D173401C1028F9DB1D
:10FF2000204685F87B000120DFF83015486703E0A4
:10FF3000A87B00F07F00A873DFF840050088788375
:10FF400020460BE0798B00EBD0725210C0EB4202DE
:10FF5000D200083211412A18D177401C0228F1DB67
:10FF6000204604E02918897B0C19E4B2401C1328B0
:10FF7000F8DB85F82140F1BD582300200000344310
:10FF80006C21002074210020702100202DE9F8430D
:10FF90002DED048BDFF8C444D4F88000401CC4F875
:10FFA0008000DFF8DC8498F80000002810D0DFF82B
:10FFB000B0040078002804D100F094FD01F0B3F8FB
:10FFC00006E0DFF8C0040078002801D001F0ABF8AB
:10FFD000DFF8845405F144063078002803D0FFF799
:10FFE000CBFD0020307005F17107B078002800F0DB
:10FFF0002881FFF76FFAFFF7A3FA9FEDCB4ADFEDF9
:020000040002F8
:10000000CA3A9FEDC93AD4ED062A94ED052AD4EDFB
:10001000041A94ED0C1AD4ED0B0A94ED0A0A01F0BF
:1000200027F901F0C9F8B879010039D0DFF8589400
:100030009FEDBE8A00EE100AB8EE401AF0EE480AB4
:1000400004F1940104F1900099ED000AFFF75DFAC4
:1000500089ED000ADFF83494B87900EE100AB8EEA2
:10006000401AF0EE480A04F19C0104F1980099ED61
:10007000000AFFF74AFA89ED000ADFF81494B8790C
:1000800000EE100AB8EE401AF0EE480A04F1A4019E
:1000900004F1A00099ED000AFFF737FA89ED000A94
:1000A0007079002800F0CD8004F13C0204F13801A1
:1000B00004F1340094ED0C1AD4ED0B0A94ED0A0A05
:1000C00001F04CF804F1480204F1440104F140004D
:1000D00094ED061AD4ED050A94ED040A01F03EF8F9
:1000E000D4ED110A94ED100A20EE000A00EEA00AE9
:1000F00001F0FEFBF7EE000A80EE800A84ED190A9B
:10010000D4ED0E0A94ED0D0A20EE000A00EEA00ACE
:1001100001F0EEFBF7EE000A80EE800A84ED1C0A87
:10012000B0EE080AD4ED120A20EE808A84ED128A1D
:10013000D4ED190A20EE800A84ED190A9FEDA19BE7
:1001400094ED0F0ADFEDA10A30EE200A10EE100A3E
:1001500000F03AFF53EC192B00F01CFE00F0ECFE0F
:10016000E063206F00F030FF53EC192B00F012FE1B
:1001700000F0E2FE206794ED1F1AD4ED1E0A04F190
:10018000AC0104F1A800B0EE480AFFF7BEF984ED17
:10019000120A94ED1F1AD4ED1E0A04F1B40104F101
:1001A000B00094ED0F0AFFF7B0F984ED0F0A94ED5B
:1001B0001F1AD4ED1E0A04F1BC0104F1B80094ED3D
:1001C000190AFFF7A2F984ED190A94ED1F1AD4ED6C
:1001D0001E0A04F1C40104F1C00094ED1C0AFFF7EB
:1001E00094F9B0EE408A84ED1C8A94ED190AD4ED9E
:1001F0001A0A70EE600AC4ED1B0A84ED1A0AB2EE08
:10020000040A60EE800A94ED0F0A787A00280AD179
:10021000FFF7CEFB6065D4ED120AB0EE480AFFF797
:10022000CFFAE0640DE004F15000FFF718FC6065C0
:1002300004F15800D4ED120A94ED1C0AFFF71EFBDE
:10024000E064DFF8509299F80000002843D0B079BC
:10025000002809D07878010003D1642001F0CBFB9D
:1002600005E001F0C8FB02E0002001F0C4FBF079DA
:10027000002809D0B878010003D1642001F0C0FB48
:1002800005E001F0BDFB02E0002001F0B9FB307A8F
:10029000002802D0012088F80000B07E800701D538
:1002A00001202066B87A022815D10020B872DFF844
:1002B000C8811021404600F003FF002005E0291806
:1002C00091F85F1008F80010401C0E28F7DB102191
:1002D000404600F0E4FEFFF701FD99F80000002819
:1002E0001DD0707800280FD06B480168491C016050
:1002F0003A78914213DB00210160142205F10E01CE
:10030000664801F0C2FC0AE0606F002807D01422A2
:1003100005F10E01614801F0B8FC00206067002083
:10032000BDEC048BBDE8F283000000000AD7A33CBB
:1003300010B55B4C1C20A074012304F112021021A3
:100340000020FFF78DF80020A074012304F11202B1
:100350001121FFF785F88E20A074012304F1120209
:1003600058210020FFF77CF80920A074012304F134
:10037000120259210020FFF773F80020A074012316
:1003800004F112025A21FFF76BF88020A0740123B8
:1003900004F112025B210020FFF762F80820A0742C
:1003A000012304F112025E210020FFF759F810200A
:1003B000A074012304F1120215210020BDE81040B1
:1003C000FFF74EB86FA301BC0512843F00007AC44A
:1003D00010B582B000208DF80000314CA0690028D3
:1003E00031D105E001236A460F210020FFF74FF8C5
:1003F0009DF800006A28F5D14420A074012304F17F
:10040000120212210020FFF72BF87C20A074012398
:1004100004F1120211210020FFF722F8012304F158
:10042000120210210020FFF71BF80020A074012306
:1004300004F112021521FFF713F88020A0740220A6
:10044000A0740020A07413BD8030002084300020F0
:1004500098210020C02100200022002080220020BE
:1004600077300020F02B00205839B4C876BE1540F4
:100470000000103F0000344034300020EE2B0020FC
:10048000873000208C2100206C2100207421002066
:10049000702100208830002078300020282F002094
:1004A0007023002001224250704781B00022425048
:1004B00040580090009801B070474058401E80415D
:1004C000C043C00F7047C0F804137047C0F808134A
:1004D00070470721C0F80015704710B44FF4A164AD
:1004E000204401604260836010BC7047C0F824154E
:1004F000704700F2445001604260704700F234508F
:1005000001604260704713465B1E9B41DB43DB0F7B
:10051000012904D00BD3032907D003D307E043F00C
:10052000020304E043F0040301E043F00603C0F8D3
:1005300054357047C0F8C01570470121C0F85015F8
:1005400070470021C0F8501570470121C0F84015D0
:1005500070470021C0F84015704700F06040B0F1CE
:10056000005F01D101207047002070474FF0A0408C
:10057000704771B581B00C4615461E4601A8FFF7BD
:10058000F5FF44EA450141EA8602069942EA012262
:10059000079942EA0141019A00EB8200C0F8001776
:1005A00073BD00B583B00021019100910B4601227B
:1005B0001146FFF7DEFF07BD00B583B000220192B0
:1005C00000920B461146FFF7D4FF07BD01B5684600
:1005D000FFF7CCFF0121009A914000F00BF801BD1C
:1005E00001B56846FFF7C2FF0121009A914000F073
:1005F00004F801BDC0F808157047C0F80C15704725
:100600002DE9F84304460D46994E607916EB4017E4
:10061000387E002801D0082060E03A602878297BE5
:10062000022902DAFFF7DCFF01E0FFF7CFFF01202C
:1006300090492A7841F8220095F80180B8F1FF0F1F
:1006400006D04046FFF7CCFF4046FFF7AAFF01E087
:100650004FF0FF3895F80290B9F1FF0F04D0002158
:100660004846FFF7A9FF01E04FF0FF39E878FF287F
:1006700004D0FFF7ABFFE878FFF793FF607906EB54
:100680004010E978817626684B4642462978304604
:10069000FFF723FFA9683046FFF728FF6A7B297B15
:1006A0003046FFF730FF69793046FFF743FF38687F
:1006B000002803D040213046FFF705FF3046FFF702
:1006C00008FF3868002804D0297994F9040001F063
:1006D00037FB00207876012038760020BDE8F283D1
:1006E00000B585B0009102938DF8042006998DF82D
:1006F0000C100022694600F075F805B000BD10B579
:100700000446A07EFF2801D0FFF760FF002060763E
:100710002071201D2168BDE810400847002901D143
:100720004021D3E64021CEE638B504460D46E80721
:10073000204602D5FFF701FF01E0FFF702FFA807FF
:10074000204602D5BDE83240FFE6BDE8324000E772
:10075000F8B504460D4616461F463068002803D0FB
:10076000FFF7FBFE002806D0B068002807D0FFF78F
:10077000F4FE002803D1002068761020F2BD327903
:1007800031682046FFF7B5FE327BB1682046FFF79F
:10079000B5FE4FF48C712046FFF787FE39462046A0
:1007A000FFF7C2FF380703D410212046FFF77AFE77
:1007B000286800280CD14FF48C712046FFF77DFE8D
:1007C0000028F8D0A87EFF280AD0FFF7FFFE07E038
:1007D000B80800F0010080F001012046FFF79EFFFD
:1007E0000020F2BDF8B504460D4616462048617952
:1007F00010EB4117787E002801D01120F2BD386837
:10080000002804D016F0140F01D10120787695E865
:100810000F0007F1080C8CE80F00787F00F0FE0055
:10082000787700F0FD007877B87EFF2801D0FFF7D9
:10083000D7FE33462A463946206801B0BDE8F0406D
:1008400086E738B504460D464FF48C71FFF735FE48
:10085000002808D04FF48C712046FFF726FE28466A
:10086000BDE832404BE731BD01490348E9E70000EC
:10087000B42F0020000700500030004010B584B0B5
:1008800069460022134614461CC102906A46194666
:1008900044F2010001F072FA1FBDFEE7012100F0F1
:1008A0001F029140AF4A400942F8201070474FF0B4
:1008B000A040704771B581B00C4615461E4601A890
:1008C000FFF7F5FF44EA450141EA8602069942EA4C
:1008D0000122079942EA0141019A00EB8200C0F827
:1008E000001773BD00B583B00021019100910B4644
:1008F00001221146FFF7DEFF07BD00B583B00022DD
:10090000019200920B461146FFF7D4FF07BD01B5D7
:100910006846FFF7CCFF0121009A914000F01DF8D6
:1009200001BD01B56846FFF7C2FF0121009A914061
:1009300000F016F801BD002900D1F2E7E7E701B5A4
:100940006846FFF7B4FF00F005F80099C84000F0D2
:10095000010002BDD0F810057047C0F808157047B7
:10096000C0F80C157047000000283ED07E49096889
:100970007E4A00BF00BF00BF00BF00BF00BF00BF76
:1009800000BF91422FD000BF00BF00BF00BF00BF1B
:1009900000BF00BF00BF00BF00BF00BF00BF00BF5F
:1009A00000BF00BF00BF00BF00BF00BF00BF00BF4F
:1009B00000BF00BF00BF00BF00BF00BF00BF00BF3F
:1009C00000BF00BF00BF00BF00BF00BF00BF00BF2F
:1009D00000BF00BF00BF00BF00BF00BF00BF00BF1F
:1009E00000BF00BF00BF0138C3D1704756E7604861
:1009F0000178143100EE101A5E4981ED0B0A40783F
:100A00008862D1ED030A91ED051A30EEC11A81ED2D
:100A1000041AC1ED050A4A6B002A09D1F8EEC00A92
:100A2000F4EE410AF1EE10FA02D501204863704756
:100A3000002812D0012A10DBB8EEC00AB4EE410A39
:100A4000F1EE10FA09D54B6A5B1C4B62984212DA40
:100A500000204862501C48637047012A0BDB91ED6F
:100A60000C0AB8EEC00AB4EE401AF1EE10FA02D544
:100A7000002048624863704710B53E4C3E480078FD
:100A8000002804D000F02EF80120207010BD00F0E6
:100A90009BF86060B0F5702F06DDC043401C80B24B
:100AA000A0614042A06000E0A06094ED081AD4ED7F
:100AB000070A04F1400104F13C0094ED020AB8EE8B
:100AC000C00AFEF722FD84ED030ABDE810408EE760
:100AD0002848416B826B8A4202D0816301207047B3
:100AE0000020704780B51E2001F07BFB402000F005
:100AF000C9F806E04FF47A70FFF736FF402000F0A7
:100B0000C1F800F081F84028F4D1BDE80140FCE0D4
:100B100001201A4908700721062001F011B90020B0
:100B200016490870062061E780B501F09DFA00289B
:100B300001D0FFF7A3FE0FF2DC1000680090032045
:100B40008DF801000E4A69461E2001F0B7FA002810
:100B500001D0FFF793FE01211E2001F0E4FAFFF718
:100B6000DEFF01BD80E100E0C82300200024F40086
:100B7000782200208C210020873000207730002050
:100B8000790A020080B51F20FFF7ACFE242000F098
:100B900079F806E04FF47A70FFF7E6FE242000F0C3
:100BA00071F800F031F82428F4D1FFF7BDFFBDE85B
:100BB0000140AAE080B501211F20FFF7BCFE002103
:100BC0001F20BDE80440B6E638B5002421461E20AB
:100BD00001F0A9FA254609E0FFF7ECFF64001E20AA
:100BE000FFF7ADFE002800D0641C6D1C182DF3DB50
:100BF000FFF7E0FFFFF7DEFFFFF7DCFF01211E201C
:100C000001F091FA204632BD38B5002402E0FFF72A
:100C1000D1FF641C1B2CFADB1E20FFF763FEFFF7DD
:100C2000C9FFFFF7C7FF072406E000211E20FFF7DA
:100C300082FEFFF7BFFF641E012C09DB0120A040EC
:100C400010F0AC00F1D001211E20FFF774FEF0E798
:100C500003211E20FFF751FEFFF7ACFF00242546BD
:100C600009E06400FFF7A6FF1E20FFF768FE0028DA
:100C700000D0641C6D1C082DF3DBFFF79BFF2046A2
:100C8000C0B232BD38B50446002502E0FFF792FF3E
:100C90006D1C1B2DFADB1E20FFF724FEFFF78AFFD9
:100CA000FFF788FF072506E000211E20FFF743FE1F
:100CB000FFF780FF6D1E2846C0B2002808D0CA206A
:100CC0002841C007F0D501211E20FFF734FEEFE7D1
:100CD000FFF770FF072506E000211E20FFF72BFE1F
:100CE000FFF768FF6D1E002D08D420462841C0077D
:100CF000F2D501211E20FFF71EFEF1E703211E2081
:100D0000FFF7FBFDBDE8314054E701211F2012E64B
:100D10000000000002000001704710B584B0684672
:100D20000FF238011CC91CC00B49002001F043FC24
:100D30000020ADF80200694601F079FC002801D0DE
:100D4000FFF79CFD1FBD80B56946002001F091FCB6
:100D5000BDF9000002BD0000190D020000000000F6
:100D60000200000400000000010040F10780F4468A
:100D7000404200F003F851F00041604709D0B0FA5A
:100D800080F18840C91CC1F58461090501EBD021BF
:100D900040057047B0B581EA030C0CF0004C40F2FE
:100DA000FF7515EA11541DBF15EA1357AC42AF4247
:100DB00039E0E41923EA455343F48013C90241F0B2
:100DC000004141EA505EC7021100A7FB0202002861
:100DD0004FF00000EEFB01204FF00001E3FB072184
:100DE00018BF42F00102401800214941E3FB0E0107
:100DF000A4F580640F0302D252004041494154F1EE
:100E000001046CDD470872F1004250F1000051EB23
:100E10000451A1F580115CBF41EA0C01B0BD4CEA60
:100E200005510020B0BD05EA1357AC4214BFAF42D4
:100E300041E050EA410E1CBF52EA430E02E0614617
:100E40000020B0BD24423C441BD15FEA070EF6D01F
:100E5000090302BF01460020AEF1140EB1FA81F77A
:100E6000AEEB070401FA07FE0C37C7F1200100FAC8
:100E700007F7C8404EEA000E23EA455343F48013B7
:100E8000A2E733F00043B3FA83F704BFB2FA82FE5D
:100E900077440B3FE41BB7F1200E2FBF02FA0EF38D
:100EA000BB40C7F1200E22FA0EFE38BF43EA0E0304
:100EB000BA40641C82E750EA410E14BF52EA430E66
:100EC0006FF000014FF4001717EB430F8ABF19466C
:100ED00017EB410FB5E74CEA05510020B0BDD4F146
:100EE0000104B4F120070FDAC4F12007520828BF2B
:100EF00042F0010210FA07F501FA07F7E1BF2A43B1
:100F0000E0403843E1400FE0352C98DCC7F1200485
:100F100052EA400220FA07F218BF42F0010231FA09
:100F200007F0A1400A43002172F1004250F1000095
:100F300051EB0C01B0BDFEE74FEAF17CBCF1E04C97
:100F40002CBFBCF5001F11E05FEA4C0C34BFBCF1B4
:100F50007F5F2EE05FEA9C0C4FEA0C1C4FEA3C0CD2
:100F6000C10071F100414CEB50707047C90241EA79
:100F70005051C00218BF41F0010141F000414FEA59
:100F80006C50C0F10900212810D240EACC7CCCF191
:100F9000200C11FA0CF070F10040CCF1200C21FA79
:100FA0000CF00CF0004C40EB0C0070474FEACC709A
:100FB0007047490011F5001F04D84FEACC10FF30EC
:100FC000C0057047C81770475FF0FF0C1CEAD0518E
:100FD00014BF614506E0C110400721F0E04101F176
:100FE0006051704779B900F0004100020AD0B0FAB0
:100FF00080FC00FA0CF001F16051A1EB0C5101EB07
:10100000D0214005704741020CBF40F4E0016FF071
:10101000000100207047FEE7F446400D40EAC12081
:10102000490006D200F00EF8004248BF6FF00040C1
:10103000604700F007F84FF0004188428CBF084637
:101040004042604740F00040490DA1F58061491CD5
:1010500005D4D1F11F0154BFC840C01770474FF0ED
:101060000000704780B50078020006D10A0004D164
:1010700017494868401C486001BD01280ED100296D
:101080000CD113490868401C0860124800220092E5
:10109000042301F10802016801F0ADFC01BD80B537
:1010A000112900DB10210A4601460B4801F06CFDB6
:1010B0000848002301220168BDE8005001F0E2BCAD
:1010C000112900DB10210A460249096801F05CBDC4
:1010D000F42F0020D4230020FC2F00204FF0A0404C
:1010E000704771B581B00C4615461E4601A8FFF742
:1010F000F5FF44EA450141EA8602069942EA0122E7
:10110000079942EA0141019A00EB8200C0F80017FA
:1011100073BD00B583B00192002200920B461146C8
:10112000FFF7DFFF07BD80B502F04DF802F0E6F8EB
:1011300000F06BFC022200211020FFF7EAFF0222E0
:1011400001211620FFF7E5FFFFF7F2F80120024921
:10115000086032DF01BD00007C300020DFF88C37F2
:10116000D3ED001A61EE801A93ED012A42EE201AA7
:1011700093ED022A42EE011AC0ED001AD3ED031AD4
:1011800061EE801A93ED042A42EE201A93ED052AAF
:1011900042EE011AC1ED001AD3ED061A21EE800AC3
:1011A000D3ED071A01EEA00AD3ED080A00EE810A7A
:1011B00082ED000A7047000010B52DED048BDFF8BA
:1011C0002C472068FFF700FF41EC110BB0EE418A7D
:1011D000F0EE618AE068FFF7F7FE41EC100BB0EE2D
:1011E000481AF0EE681A02F01FFA51EC100BFFF7E4
:1011F000A3FEA0649FED1D9A94ED120A20EE090A49
:1012000084ED120A206AFFF7DFFE41EC110BB0EE0D
:10121000418AF0EE618AE069FFF7D6FE41EC100BDF
:10122000B0EE481AF0EE681A02F0FEF951EC100B1D
:10123000FFF782FEE06494ED130A20EE090A84EDC4
:10124000130AA069FFF7C0FE41EC100B02F086FA0A
:1012500051EC100BFFF770FE606494ED110A20EE64
:10126000090A84ED110ABDEC048B10BDBE2E654247
:101270002DE970432DED108B2DED051A8FB0F0EE9A
:10128000409AB0EE608AF0EE638AB0EE449ADFF8DE
:101290005C6696ED09AAD6ED0AAA96ED0BBAD6EDD4
:1012A0000CBAB0EE00CA6AEE0CCACDED0CCA2AEE3A
:1012B0008CFA8DED03FA2BEE0C0A8DED020A6BEE23
:1012C0008C0ACDED0B0A6CEE8B0ACDED0A0A20EEEE
:1012D0002B0A8DED0D0A2AEE0A0A8DED000A2AEE80
:1012E0002A0A8DED040A2AEE0B0A8DED090A2AEE70
:1012F0002B0A8DED080A2AEEAADA2AEE8B0A8DED6A
:10130000070A6AEEABDA2BEE0BEA2BEE2B0A8DED19
:10131000060A6BEEABEA29EEA90A08EE080ADDED33
:101320000F0A9DED0F1A00EE810A10EE100AFFF76A
:101330004BFE41EC100B02F019FA51EC100BFFF7C9
:10134000FBFD00EE100AB5EE400AF1EE10FA00F0D7
:10135000C482F7EE000A80EE800A69EE809A28EED9
:10136000008ADDED0F0A20EE800A8DED0F0A9DED5B
:10137000130A2CEE800A8DED010A6CEEA8FA2CEE11
:10138000890ADDED130A6FEE20CA9DED001A60EEAA
:10139000810A4FEEEB0A40EE0B0A9DED131A41EE67
:1013A0000D0A9DED031A21EE281A41EE0B0A9DED60
:1013B000031A21EE091A41EE2B0A9DED131A41EE94
:1013C0004E0A41EE6E0A9DED011A21EE2B1ADDED5B
:1013D000001A08EEA11A00EE6A1A0CEE8B1A08EE3B
:1013E000CD1A08EE8E1A9DED020A20EE090A00EED3
:1013F0002B1A08EEEE1A20EEA00A01EE010A10EEFA
:10140000100AFFF7E1FD41EC100B02F0AFF951ECCF
:10141000100BFFF791FD00EE900A2FEEAA0A9DED4A
:10142000011A01EE4B0A9DED001A09EE010A0CEEBD
:10143000AB0A09EE4D0A9DED021A21EE281A01EEC3
:101440002B0A09EE4E0A09EE2E0A20EE8C1A20EE27
:101450000C2ADDED091A71EEAD1ACDED001A61EE20
:10146000A01AF6EE002A72EECD2A72EECE2A42EED5
:10147000801A71EEC91ADDED042A9DED063A72EE6E
:10148000832ACDED012ADDED072A9DED083A72EEA3
:10149000C32ACDED052A62EEA02A9DED013A43EE66
:1014A000002A72EEE82A9DED093A3DEEC3FAB6EE47
:1014B000003A33EE4E3A33EE6E3A63EE204A4FEE88
:1014C000004A2DEE8C7A9DED0A3A33EE473A33EE20
:1014D000295A9DED043ADDED0D3A43EE0C3A33EE18
:1014E000C83A60EE8B5A20EEAB6A60EE2A3A20EEE4
:1014F0000B4ADDED036A23EE268ADDED026A05EE76
:10150000268ADDED136A76EEE46A04EE268A73EE2F
:10151000C66A06EEA28A05EEA18ADDED136A74EEB4
:10152000E64AF7EE008A4DEE4C8A2EEE0C9A79EEE2
:10153000686ADDED0F7A76EEA76ADDED0A7A37EE9E
:10154000677A37EE697A60EE0A7A20EE2B0AB1EEFE
:1015500000DADDED0B9A67EE299ADDED0CCA43EE59
:101560002C9A6AEE8DCA4CEEA69A40EE249A75EE3D
:10157000A75A45EEA29A02EE6A6A46EE219A60EEFA
:101580008A5A60EEAA0A9DED0B6A63EE06CA9DEDCB
:101590000C6A45EE06CA2BEE0D5A45EE26CA21EE20
:1015A0004B5A35EE675A45EE24CA30EE800A40EEBB
:1015B00022CAB0EE650A02EE4B0A40EE21CA9DED4A
:1015C000030A27EE00DA9DED020A03EE00DA41EE8F
:1015D0006B3A03EEA4DA34EE650A00EE22DA00EE8E
:1015E000A1DA28EE080A09EEA90A0CEEAC0A0DEE03
:1015F0000D0A10EE100AFFF7E7FC41EC100B02F0A9
:10160000B5F851EC100BFFF797FC00EE100AF7EE5F
:10161000000AC0EE80DAB6EE00EA9DED100A2AEE6E
:10162000C00ADDED110A0BEE600ADDED120A0BEEC9
:10163000E00A20EE0E0A10EE100AFFF7C5FC804605
:1016400089469FEDA80B02F091F853EC102B4FF058
:101650000050DFF8CC12FFF79DFB4FF00052DFF88F
:10166000C432FFF797FB04460D4628EE2D0A10EE14
:10167000100AFFF7A9FC22462B46FFF78BFB024618
:101680000B464046494602F0F1F8FFF755FC08EEDC
:10169000100A9DED100A2AEE000ADDED120A0BEE8B
:1016A000200ADDED110A0BEEE00A20EE0E0A10EE24
:1016B000100AFFF789FC804689469FED8A0B02F0ED
:1016C00055F853EC102B4FF00050DFF85412FFF791
:1016D00061FB4FF00052DFF84C32FFF75BFB044632
:1016E0000D4629EEAD0A10EE100AFFF76DFC2246FA
:1016F0002B46FFF74FFB02460B464046494602F099
:10170000B5F8FFF719FC09EE900A9DED110A2AEED3
:10171000000ADDED120A0AEEE00ADDED100A0BEE1A
:10172000A00A20EE0E0A10EE100AFFF74DFC8046CC
:1017300089469FED6C0B02F019F853EC102B4FF01B
:101740000050DFF8DC11FFF725FB4FF00052DFF807
:10175000D431FFF71FFB04460D462CEEAD0A10EE08
:10176000100AFFF731FC22462B46FFF713FB024617
:101770000B464046494602F079F8FFF7DDFB0CEED8
:10178000900A9DED120A2AEE000ADDED110A0AEE1A
:10179000A00ADDED100A0BEE600A20EE0E0A10EE34
:1017A000100AFFF711FC804689469FED4E0B01F0B1
:1017B000DDFF53EC102B4FF00050DFF86411FFF702
:1017C000E9FA4FF00052DFF85C31FFF7E3FA044624
:1017D0000D462DEE2D0A10EE100AFFF7F5FB2246FE
:1017E0002B46FFF7D7FA02460B464046494602F021
:1017F0003DF8FFF7A1FB00EE100AD6ED100A08EE47
:1018000020AA49EEA0AA0CEEA0BA40EE20BA2AEE19
:101810000A0A0AEEAA0A0BEE0B0A0BEEAB0A10EE4E
:10182000100AFFF7D1FB41EC100B01F09FFF51ECC8
:10183000100BFFF781FB00EE100AF7EE000A80EEB6
:10184000800A6AEE000AC6ED090A6AEE800AC6ED51
:101850000A0A6BEE000AC6ED0B0A2BEE800A86ED33
:101860000C0A2EEE8C0AF7EE000A70EEC90A70EE32
:10187000C00AC6ED000ADDED050A60EE8C0AC6ED71
:10188000010ADDED000A60EE8C0AC6ED020ADDED0C
:10189000070A9DED081A70EE810A60EE8C0AC6ED0B
:1018A000030A38EEC00A86ED040A9DED060ADDED56
:1018B000040A30EE600A20EE0C0A86ED050A2FEECF
:1018C0000C0A86ED060A9DED010A20EE0C0A86ED53
:1018D000070A38EEC90A86ED080A14B0BDEC108B71
:1018E000BDE87083000000000000E83F28210020D0
:1018F00081B08DED000A0C480099A0EB610000EE6C
:10190000900AB6EE001A20EE010A20EE200AB7EE89
:10191000081A00EE601A21EE200A01B0704700009C
:10192000FF210940C771AC3FDF59375F4FF0A0403E
:10193000704771B581B00C4615461E4601A8FFF7E9
:10194000F5FF44EA450141EA8602069942EA01228E
:10195000079942EA0141019A00EB8200C0F80017A2
:1019600073BD00B583B00021019100910B460122A7
:101970001146FFF7DEFF07BD01B56846FFF7D6FF4A
:101980000121009A914000F00FF801BD01B56846B1
:10199000FFF7CCFF0121009A914000F008F801BD4B
:1019A000002900D1F2E7E7E7C0F808157047C0F852
:1019B0000C15704710B584B068460FF2A4011CC91D
:1019C0001CC06420ADF80600204C0022694604F1DA
:1019D000080002F0EDF8002801D0FEF74FFF642068
:1019E00020806080022301220FF2640104F10800CC
:1019F00002F058F91FBD40F40040144908807047B8
:101A000040F4004011494880704710B50020FFF7AE
:101A1000F2FF0020FFF7F4FF0C4C012104F1080055
:101A200002F078F904F1080002F00AF90220FFF749
:101A300098FF00210220FFF7B3FF0320FFF791FF7B
:101A400000210320BDE81040AAE70000DC210020AF
:101A5000DC21002004000000000000000000000065
:101A60008283070400000000020000008988818250
:101A700070474FF6FF718182704710B50446C888E1
:101A80000246238A9A420CD10A8A022A09D101F11C
:101A9000120002F0D0F9401E8041C043C00FA07573
:101AA00010BDA288904208D1A369180005D00A8A07
:101AB00012312046BDE81040184710BD10B590B057
:101AC00004460022032101A802F0BCF911208DF880
:101AD00004008DF805009DF8060000F0F90040F0C4
:101AE00002008DF8060000221C2108A802F0AAF9C5
:101AF0009DF8200040F010008DF820000020099093
:101B00000B900C9001A80D9000200E9020788DF87D
:101B10000A000320ADF8080000220146684602F0E2
:101B200091F911208DF800008DF801009DF8020058
:101B300000F0E10040F003008DF8020000221421C3
:101B400003A802F07FF902A80390684604900120E0
:101B5000ADF814000020ADF816001420ADF8180000
:101B600004F10C0303AA08A96088A2DF10B010BD1D
:101B700010B58EB0044600221C2107A802F062F9BD
:101B80009DF81C0000F0F70040F004008DF81C00E8
:101B9000002008900A900B900C900D9020788DF802
:101BA00006000220ADF8040000220321684602F07E
:101BB00049F911208DF800008DF801009DF8020010
:101BC00000F0E10040F003008DF802000022142133
:101BD00002A802F037F901A802906846039001209C
:101BE000ADF810000020ADF812001420ADF814007C
:101BF000231D02AA07A96088A2DF0EB010BD00282D
:101C00000CD000290AD00A88102A04D0112A03D047
:101C1000502A02D0704729E72BE72EE7704770B5AE
:101C200086B004460D460FF2B8000FC801AE86E834
:101C30000F00002C01D0002D01D10E2023E04FF623
:101C4000FF70A0822868A0610020A075214601A82D
:101C500063DF002817D120788DF802000120ADF84D
:101C60000000A21C6946A0DF00280CD129462046AE
:101C7000FFF724FF002806D129462046FFF778FF0A
:101C8000002800D1002006B070BD34B584B00446F1
:101C90000D46002C01D10E201FE0A08A4FF6FF71E7
:101CA000884202D0A07D002801D1082015E010460E
:101CB000152801DB072010E000221021684602F001
:101CC000C1F8A089ADF80000039504A80290012096
:101CD0008DF802006946A08AA6DF05B030BD00007D
:101CE0009ECADC240EE5A9E093F3A3B50000406E84
:101CF000012100F01F0291400D4A400942F82010D6
:101D00007047012100F01F0291400A4A400942F841
:101D1000201070474901002806D5074A00F00F003F
:101D2000104400F8041C7047044A11547047000026
:101D300000E100E080E200E018ED00E000E400E0F7
:101D400010B50446FFF7E6FF2046FFF7DAFF20460E
:101D5000BDE81040CCE7FEE7BFF34F8F05480168B0
:101D600001F4E061044A11430160BFF34F8F00BFEB
:101D7000FDE700BF0CED00E00400FA05FFF7ECBF43
:101D800080B500F015F80068012801D1012002BDDE
:101D9000002002BD10B582B0044600F009F8002111
:101DA0000160204600F004F800680090009813BD20
:101DB00000F1804000F5C0407047DFF8FC15086076
:101DC0007047DFF8F81508607047DFF8EC15096810
:101DD00008407047DFF8E81551F8202042F0010272
:101DE00041F820207047DFF8D81551F8202052081C
:101DF000520041F82020704730B4DFF8C43553F862
:101E00002040DFF8C0552C4043F8204053F82040D4
:101E1000090201F4F851120402F440321143214343
:101E200043F8201030BC7047DFF8941551F82000BB
:101E3000C0F304207047DFF8881551F82000000C2B
:101E400000F0030070470021DFF8742542F82010ED
:101E500070474FF0A040704771B581B00C461546F1
:101E60001E4601A8FFF7F5FF44EA450141EA860254
:101E7000069942EA0122079942EA0141019A00EBE0
:101E80008200C0F8001773BD00B583B00022019234
:101E900000920B461146FFF7DFFF07BD00B583B088
:101EA0000021019100910B460122FFF7D5FF07BDEC
:101EB00001B56846FFF7CDFF009900EB8100D0F82F
:101EC000001721F00201C0F8001701BD11B581B063
:101ED0000C4601A8FFF7BDFF019900EB8101D1F885
:101EE000002722F44032C1F80027019900EB81005D
:101EF000D0F8001741EA0441C0F8001713BD01B53E
:101F00006846FFF7A6FF00F012F80099C84000F0FD
:101F1000010002BD01B56846FFF79BFF009900EB89
:101F20008100D0F80007000C00F0030002BDD0F8DB
:101F300010057047F8B504460D46164668460FF280
:101F40008C410A680260274607E0684650F827007F
:101F5000FFF7EDFF46F8040B7F1C28198742F4D3E6
:101F6000F1BD012200F007039A40C008085C104050
:101F7000704710B4C2088B5C012400F0070004FA1B
:101F800000F01843885410BC7047DFF83C14084434
:101F900090F9300008288041C00F401E8041C043A6
:101FA000C00F7047DFF82014084490F9300008286B
:101FB00001DB0120704700207047DFF80C14084453
:101FC00090F93000C043C00F704730B4DFF8F843D9
:101FD000251885F8301044F82120002B02D1214427
:101FE00081F8480030BC70474FF0FF31DFF8D8234C
:101FF000104480F830107047DFF8CC13084490F993
:1020000030007047DFF8C01351F820007047F8B572
:102010004FF0FF33140001D0002400E00824150025
:1020200001D0082502E00C2500E0641CAC420CD273
:10203000DFF8946356F824601F46BE42F5D113467C
:102040000A462146FFF7C1FF2346184640B2F2BDBB
:10205000DFF874134FF0FF3241F82020082802DB2C
:10206000084480F84820704738B5DFF85C4394F89E
:102070005400002801D0082032BD002503E0284686
:10208000FFF7B2FF6D1C202DF9DB002503E0284689
:10209000FFF7DEFF6D1C0C2DF9DB07210620FFF793
:1020A0004FFE4FF4BE70FFF775FE4FF00040FFF794
:1020B00084FE012084F85400002032BDF8B50646A5
:1020C0000F4615460024FFF778FF002801D00824AA
:1020D00027E0FA7829463046FFF799FF054615F1C3
:1020E000010F1DD0B878002803D03046FFF7E0FE7E
:1020F00003E079783046FFF7C7FE3A78F878002891
:1021000004D031462846FFF777FE0AE0AE48411971
:1021100091F8481041EA8211284480F8481000E004
:1021200004242046F2BD70B504460D46FFF73AFF81
:10213000002820461AD0FFF75FFFA349084490F813
:1021400048008009032808D12046FFF7D8FE002860
:1021500001D0032106E0022104E0012801D102217F
:1021600000E003212046BDE87040AFE6FFF70DFF19
:10217000002819D02046FFF73FFF0646FFF72AFE4A
:10218000B00000F5807000B2FFF704FE002D0BD008
:102190002046FFF731FFFFF735FF002804D001206C
:1021A000B040BDE8704008E670BD10B50446FFF7CA
:1021B000F9FE002804D000212046BDE8104085E645
:1021C0002046FFF7E2FE00280AD02046FFF714FF62
:1021D0000446FFF708FE0120A040BDE81040F0E5EE
:1021E00010BD10B50446FFF7E0FF2046FFF7CDFE17
:1021F000002804D02046FFF7FFFEFFF724FE20460C
:10220000FFF74CFE2046FFF7F7FEC0B2FFF720FFB6
:102210002046BDE81040E7E62DE9F04385B00025F3
:102220006846294601604FF4807601270C4612E08B
:10223000304600B2FFF7A4FD002809D03846FFF76A
:10224000C4FD002804D0304600B2FFF7A3FD3D4393
:102250007F00361D641C082CEAD34FF4BE70FFF7D4
:102260008FFD00280AD04FF4BE70FFF793FD45F0B4
:1022700000456A4601210020FFF75CFE280618D0C1
:102280000127002413E02F420FD02046FFF7CCFD9A
:1022900006462046FFF7CFFD80462046FFF7B2FEF8
:1022A000020002D04146304690477F00641C082C53
:1022B000E9D3002D7CD503A800210160084603E086
:1022C0004FF0FF30029001200028F9D000252C4665
:1022D0000BE002213046FFF7F9FD6D1C4046002857
:1022E00002D039463046C047641C042C3CD23648E4
:1022F000204490F950000746FFB227F0C00610F1C5
:10230000010FF1D002A93046FFF72BFE0028EBD0D9
:10231000B81100F003073046FFF76EFEFFF772FEBC
:102320008046002801D1032FDED1032F03D103A95A
:102330003046FFF71EFE3046FFF7ECFD814669464A
:102340003046FFF70EFE002802D0B9F1020F04D08C
:102350000028C9D1B9F1030FC6D1032FBED1B9F1FD
:10236000020FB6D10321B5E72846C0B200281CD021
:10237000012401AA21460020FFF7DCFD002000E037
:102380002046002804D1019800998842F8D0002402
:10239000002C01D0002508E0002004E00198009006
:1023A0000398029001200028F8D0EDB2002D8DD1C5
:1023B00005B0BDE8F08300000463004008630040FE
:1023C00010650040FFE0FCFFB82D00200000005029
:1023D0000121DFF8582311507047DFF850130858D7
:1023E000401E8041C043C00F704781B0DFF83C13EE
:1023F00000220A5008580090009801B0704710B4AD
:102400000001DFF82C331C186260195010BC7047B3
:10241000DFF8201308607047DFF81C13086070476E
:102420000120DFF8181308607047DFF814231060EC
:1024300051607047DFF80C1308607047DFF808132D
:102440000860704770B584B0DFF8004304F12D05D3
:102450004FF48270FFF7C1FF002827D04FF482703D
:10246000FFF7C3FF6878A97881F0010108421DD108
:1024700000218DF80010616801912189ADF80810E4
:10248000E168002902D1002020740AE0228B6283D7
:10249000616022810021E160002802D10846FFF737
:1024A00097FF6846216888470020A8706878002850
:1024B00036D04FF48070FFF790FF002830D04FF4F3
:1024C0008070FFF792FF29780A46638B10461E46FC
:1024D000B0420AD2981A60836268238980B2181ABF
:1024E00002EB4000FFF7A1FF13E018461646B0428A
:1024F00009D1E068002806D00122AA700022628378
:10250000FFF793FF05E0934203D10120A87000205C
:1025100060834FF48270FFF768FF0420FFF758FFD5
:102520004FF48870FFF759FF00280BD04FF48870E4
:10253000FFF75BFF0020207402208DF80000684642
:10254000216888474FF48A70FFF747FF002806D0BC
:102550004FF48A70FFF749FF002020747FBD656942
:1025600026E0B5FA85F04FF00041C1408D43800070
:1025700000F58C76304600B2FFF72FFF002817D009
:10258000304600B2FFF731FF01208DF8000036B26F
:10259000A6F58C70C0088DF80400F6B2B00800F003
:1025A000010080F001008DF8050068462168884729
:1025B000002DD6D17FBD70B50646DFF8904104F1FD
:1025C0002C052878002801D0082070BD080001D112
:1025D000072070BD002E01D10FF2741621603078F3
:1025E000FFF728FF7078FFF729FFF078A870012027
:1025F00028700020207468706061E8706FF00040FF
:10260000FFF70AFF4FF48270FFF7EFFEB178072063
:10261000FFF796FB0220FFF7FBFEA878002802D008
:102620000120FFF7F5FEFFF7FBFE002070BD38B577
:1026300004460D46454800F110010A78002A01D0F1
:10264000112032BD00EB4400027F002A02D14A7FF4
:10265000521C4A77E9790177297A41772946204641
:1026600001F016FC2A7AE9792046FFF7C8FE00201F
:1026700032BDF8B506460F46344C04F110052878F3
:10268000002801D01120F2BD012028700320FFF79F
:10269000C3FE01213846FFF7C8FE687F022809DB28
:1026A000002705E0002211463846FFF7A8FE7F1CF0
:1026B000082FF7DB04EB4600427F017F3046FFF72F
:1026C0009EFE0020FFF784FE0420FFF781FE42F209
:1026D000107600E0761E4FF48270FFF77EFE002831
:1026E00001D1002EF6D14FF48270FFF77EFE687F95
:1026F00002280DDB002607E004EB4000427F017F4B
:102700003046FFF77CFE761CF6B230460828F3DB35
:10271000A87F002803D00320FFF77AFE02E0022002
:10272000FFF776FE00202870F2BD00000070004028
:1027300010750040047300400873004000750040AD
:102740002C760040F0750040F4750040442F0020C6
:1027500003000700DFF81404006810F1010F03D133
:10276000DFF80C0400680003704730B585B00446FC
:102770000D4600221021684601F064FB207A0128F2
:1027800002D0022809D013E000208DF80000206953
:102790000290A08AADF80C000AE001208DF800003C
:1027A000A089E189401AADF80800A089ADF80A00B7
:1027B000606801902946684622689268904705B093
:1027C00030BD002809D0DFF8AC134A68904204D32A
:1027D0008968884201D2012070470020704718B4F0
:1027E000C18A0B46828AD41AB4F5806F01DA521A74
:1027F00001E04FF4806292B2C16801EB830100698D
:1028000000EB830029DF12BC7047808928DF704706
:10281000DFF86403416E491E416605D1DFF85413A9
:102820000A7802F0FD020A70016E491C0166042953
:1028300001D100210166704710B5DFF83C03016E3D
:1028400001EB410210EBC204406E00281FD0207A39
:10285000012802D0022804D007E02046FFF7BFFF7E
:1028600004E02046FFF7D1FF00E00920112807D13E
:10287000C048017801F0FD0141F00401017010BD74
:10288000002804D009212046BDE810406DE710BDA6
:10289000B84801780622114203D141F002010170CB
:1028A000CAE7704780B50021B44A1170017A012946
:1028B00002D0022912D001BDC18A828A531AB3F50F
:1028C000806F02DA521A92B201E04FF4806251181E
:1028D000C182828A89B2914210D109E08189491C62
:1028E0008181C189491CC181028A89B2914205D185
:1028F0000021FFF73AFFBDE8014089E701BD80B53F
:102900009E490A78521C0A70D2B2042A07DB0022C0
:102910000A700821FFF729FFBDE8014078E701BDF3
:1029200038B504469448416E042901D1002032BDD7
:10293000026E8A18042A00D3121F491C416602EB5A
:10294000420110EBC10500221821284601F0CAFA05
:102950002560012032BD2DE9F84389488949401A94
:1029600004092546FFF7F6FE82490A78D30701D508
:1029700000203EE000230AE04E6806EB03163768AD
:10298000002F03D07668002E00D06D1E5B1CA34282
:10299000F2D3002322E00EEB061EDEF80080B8F131
:1029A000000F04D0DEF80480B8F1000F07D19EF8C4
:1029B0000DE0E046F146C84501D2F4463746761CA4
:1029C000D1F804E0A642E6D3FFB20EEB0716706022
:1029D000377B3F037F42384430605B1CAB4204D2FC
:1029E0004FF0000C1F466646EAE742F0010008700F
:1029F0000020BDE8F283F8B504460D4616461F4692
:102A00005C480078C00701D40120F2BD2046FFF7E2
:102A1000D8FE002801D10220F2BD002E01D0002DE9
:102A200001D10320F2BD16F0030002D115F003001E
:102A300001D00620F2BD2068854204D3606805EB12
:102A40008701884201D20520F2BD380001D104205F
:102A5000F2BD6846FFF764FF002801D10720F2BDF0
:102A60000698009948600098046001200099087257
:102A70000098C6600098056100988782FFF708FFFC
:102A80000020F2BD2DE9F04182B004460D46164605
:102A90001F4638480078C00701D4012034E02046A2
:102AA000FFF78FFE002801D102202DE0002D01D17B
:102AB000032029E0280501D0062025E0A84620684B
:102AC000804504D3606805EB0631884201D20520B9
:102AD0001AE0300001D1042016E06846FFF720FF1D
:102AE000002801D107200FE000984760009804609B
:102AF0000220009908724FEA1830009988810098E6
:102B00000682FFF7C5FE0020BDE8F681002801D14E
:102B1000032070471849496E01600020704738B59E
:102B2000154A116E01EB410302EBC301114B1C78F6
:102B3000A5070CD5022802D0032804D012E00846CD
:102B4000FFF7B0FE0EE00846FFF7D9FE0AE0600787
:102B500008D504F0FB001870516E002902D040F037
:102B600002001870BDE8314066E600001410001045
:102B700014000010D0210020F42C0020863000200A
:102B8000E4230020D423002062B38B0708D0521E18
:102B900011F8013B00F8013B00F024808B07F6D1CF
:102BA000830740F0208000BF103A07D330B4B1E86B
:102BB0003810103AA0E83810F9D230BC530724BFBF
:102BC000B1E80810A0E8081044BF51F8043B40F8F1
:102BD000043BD20724BF31F8022B20F8022B44BF5C
:102BE0000B7803707047083A07D3B1E80810083A29
:102BF00040F8043B40F804CBF7D25307E4E7FEE784
:102C00004FF0A040704771B581B00C4615461E4686
:102C100001A8FFF7F5FF44EA450141EA860206995B
:102C200042EA0122079942EA0141019A00EB82003F
:102C3000C0F8001773BD00B583B000220192009266
:102C40000B461146FFF7DFFF07BD01B56846FFF7EA
:102C5000D7FF00F005F80099C84000F0010002BD60
:102C6000D0F810057047E0B511208DF80800092252
:102C70000FF23C6102A87CDF002801D0FDF7FEFDC9
:102C800000220821684601F0DDF81020ADF80000B0
:102C90003C20ADF802000020ADF804004FF4C870ED
:102CA000ADF8060068467ADF002801D0FDF7E6FDA2
:102CB000042077DF002801D0FDF7E0FD07BD30B428
:102CC000DFF8A40501230370002303E0CC5CC518E2
:102CD0006C765B1C9342F9D330BC704780B5DFF84B
:102CE0008C0500906946DFF88805FEF798FF0028FC
:102CF00001D0FDF7C3FD01BD0078002808D13B21BC
:102D0000DFF87005008876DF002801D0FDF7B6BD3A
:102D10007047FDF7B3BD00B587B000221C2168469F
:102D200001F090F8002000904FF4203001904FF413
:102D30007020029003208DF80C000020ADF80E00EA
:102D40008DF81000DFF830050590DFF830050690AB
:102D5000684601F036F9002801D0FDF78FFD07B075
:102D600000BD80B5002000F0B8FB002801D0FDF7C1
:102D700085FD01F023FA002801D0FDF77FFD32DF49
:102D8000002803D0BDE80240FDF778BD01BD80B545
:102D900000280AD003280BD1022000F09EFB002857
:102DA00006D0BDE80240FDF769BDBDE80140D8E7A7
:102DB00001BD10B588B004462088022851D01028E3
:102DC0000ED0112818D0132823D03B2839D05128F1
:102DD0004FD0522829D0552873D0562839D077E0C3
:102DE000072000F07AFB002801D0FDF747FDA088FE
:102DF000DFF8801408806BE0002000F06EFB0028F4
:102E000001D0FDF73BFD4FF6FF70DFF86814088036
:102E10005EE000231A468521DFF8580400887FDF32
:102E2000002855D0FDF72AFD52E000231A4611462E
:102E3000DFF840040088A9DF002849D0FDF71EFD17
:102E400046E01321A08876DF002841D0FDF716FD6B
:102E50003EE01321A08876DF002839D0FDF70EFD73
:102E600036E00021A08867DF002831D0FDF706FD9D
:102E70002EE06846A11D1022FFF786FE9DF8000097
:102E8000002825D09DF80800042803D0062801D08A
:102E900005281DD19DF80000022803D102208DF8DD
:102EA000100002E001208DF810004FF4C170ADF861
:102EB000140004A9A088A8DF002809D0FDF7DEFCD3
:102EC00006E01721A088ADDF002801D0FDF7D6FC71
:102ED00008B010BD10B5044601F01BF92146DFF81B
:102EE0009003FEF78CFE2046FFF763FF204601F0BB
:102EF00076FB2046BDE8104001F071B910B50446DC
:102F000001F096FB2046BDE81040FFF708BE00B573
:102F100089B00FF2AC300068009000235022DFF837
:102F20006013684601F06CFC002801D0FDF7A6FC98
:102F300001AA0121002001F0B9FC002801D0FDF711
:102F40009DFC1720ADF8140001A801F0C9FC002871
:102F500001D0FDF793FCDFF82C0301F087FC00287B
:102F600001D0FDF78BFCDFF8200301F087FC00287F
:102F700001D0FDF783FC09B000BD10B5B0B0002250
:102F80003C2111A800F05EFF02208DF844000020D3
:102F90008DF8460005208DF8470001A86DDFBB4C79
:102FA0009DF80A0020709DF8090060709DF80800E7
:102FB000A0709DF80700E0709DF8060020719DF854
:102FC0000500607144F64850ADF818002089ADF84E
:102FD0001C00089406A81A904FF43040ADF80C007D
:102FE00004F10C0005906089ADF810001AA803A93F
:102FF00041600121017200223C2120A800F022FF43
:103000000120ADF8900004F110002590002220214D
:1030100009A800F017FF01208DF8270040200D902F
:103020001E200E9000200090994B09AA20A911A8FB
:1030300001F0C8F9002801D0FDF720FC30B010BD28
:103040003EDF704738B5934CE088401CE080A178A3
:10305000002907D180B2652804DB0120A070002080
:10306000FEF7C9FCFCF792FF0A20FFF7EEFD0028EF
:1030700019D189480078002815D12079401C207189
:1030800040B2652802DB6FF06300207194F9040000
:10309000012801DBC0B200E04042C0B2FEF7B0FC44
:1030A0000020E07031BD0A20FFF7CFFD002807D0D7
:1030B0000920FFF7CAFD002802D00020E07031BDD2
:1030C0000A20FFF7C2FD002861D00920FFF7BDFDEF
:1030D00000285CD101206449C870E0706079401C10
:1030E000607140B2052804DB002060712079401C2B
:1030F000207194F90400652802DB6FF063002071F1
:1031000094F90400012801DBC0B200E04042C0B2E3
:10311000FEF776FCE068642811DA401CE060C928FC
:1031200035DB25695D480068FDF71EFE00225C4B1B
:1031300001F0F2FBFDF770FF4019206131BDC82896
:1031400025D1C920E0602069642190FBF1F0208145
:1031500000200BE0B4F9081000EBD0725210C0EB65
:103160004202D200083211412154401C0228F1DBF6
:103170004C4D10212846FDF7A3FF2078A8736078F6
:10318000E87310212846BDE83440FDF788BF31BD03
:1031900080B5454A01210FF2241001F074FF002888
:1031A00003D0BDE80240FDF769BB01BD80B5002238
:1031B00042213E4801F07FFF002803D0BDE80240D5
:1031C000FDF75CBB01BD80B5384801F091FF0028D8
:1031D00003D0BDE80240FDF751BB01BD10B5002191
:1031E0000A20FFF728FD00210920FFF724FDFEF744
:1031F000E1FB6420FEF7FFFBFDF7C4FCFFF7ABFB30
:10320000284C10212046FDF75BFF2248A17BE27B82
:1032100012EB01210181002300F11402052118465F
:1032200001F002FF002801D0FDF728FBFFF76FFE39
:10323000FFF719FDFFF752FDFFF79FFEFFF76BFD4C
:10324000032001F04BF9002801D0FDF717FBFCF734
:10325000DFF8FDF7BDF8FFF79BFFFDF75EFDFFF719
:10326000A5FFFFF7EDFEFCE744220020BF2C020083
:10327000282F0020D0230020F92C0200132D02005B
:10328000102E0020D52E0200FD2E0200EC21002081
:103290008F2D0200E82B0020883000209421002090
:1032A0000000E03F3430002045300200942F002021
:1032B0006F72696F7269312E32000000942F002006
:1032C000010000074FF0A040704711B581B00C46D7
:1032D00001A8FFF7F7FF019900EB8101D1F8002762
:1032E00022F44032C1F80027019900EB8100D0F8A8
:1032F000001741EA0441C0F8001713BD10B5DFF80C
:10330000344204F1200001F0F3FE04F14000BDE876
:10331000104001F0EDBE000070B505460026854C5A
:10332000607B002803D03046607301F06DFF2846B3
:10333000172800F2D080DFE800F0AC0C0C273242F6
:103340005D6A707C707CCB8A8A8A8A8AACB0B8C08D
:10335000CBCB2E46002001F042FF00280AD00020EF
:1033600001F04DFF022E02D14FF4E16035E04FF441
:103370007A6032E0002001F03DFF022E01D1C8202A
:103380002BE04FF4C87028E0304601F028FF0028F9
:103390001FD0304601F033FF4FF448701DE0304637
:1033A00001F01DFF0028304604D001F028FF4FF443
:1033B0007A6012E001F01EFF4FF4C8700DE0304655
:1033C00001F00DFF002804D0304601F018FFC8209E
:1033D00003E0304601F00EFFC8202573002261692A
:1033E0006423B0FBF3F0414304F1200001F063FEDD
:1033F000064670E0304601F01BFF0620207332467F
:10340000616904F1200001F056FE064663E0304693
:1034100001F0F0FE072020735DE00120607301F0F1
:1034200007FF3246616904F1200001F044FE0646C0
:1034300051E00120607301F0FBFE3246606900EB51
:10344000800104F1200001F036FE064643E004F15D
:10345000400001F04DFE0646D5F1110015D0002EBA
:1034600013D102280DD300226169C82313FB00F099
:103470006423B0FBF3F0414304F1400001F01BFE74
:103480000646022001F0B6FE25E0022001F0B7FE5C
:1034900021E001F0B9FE25731DE001F0B5FE3046D4
:1034A00001F0A8FE1320207315E001F0ADFE01200D
:1034B00001F0A0FE142020730DE001F0A5FE3046BF
:1034C00001F098FE012001F095FE1520207302E026
:1034D00001F0A4FE2573304670BD01460020154A58
:1034E000127ED20701D5084616E77047002304284C
:1034F0001DD2012A05D1012902D100F10E0200E0FE
:103500001A4600290DD0022905D010D2094900EB36
:1035100040000A540CE0074900EB400008444270A8
:1035200006E0044900EB40000844827000E00723F5
:1035300018467047742C002080B501F07DFE0321F1
:10354000FFF7C3FE002002BD38B50FB4DDE902016C
:1035500001F07AFE0546DDE9000101F075FE012D5E
:10356000B8BF012830DA0198002807D5DDE900014D
:1035700081F00041CDE90001082400E00024039817
:10358000002807D5DDE9020181F00041CDE9020103
:1035900084F00604DDE90201DDE9002301F074FE98
:1035A00004D201F089FE41EC100B29E0002D08D572
:1035B000DDE90001DDE9022301F07EFE41EC100BA4
:1035C00020E09FED150B1DE0022808BFDDE900019A
:1035D00020D0022D08BFDDE902011BD085420199F0
:1035E0000CBF9FED0F0B9FED0C0B002903994CBFF7
:1035F00008240024002948BF84F00604012801D1D2
:1036000084F00204224605B0BDE8304051EC100BB6
:1036100001F07EBF05B030BD0000000000000000DA
:10362000000000000000F03F80B553EC112B51EC7E
:10363000100BFFF789FF41EC100B01BDD0B52DED4C
:10364000048B82B041EC180B8DED008BDDE900237B
:10365000C3F30A5140F2FF72914212D019B9C3F379
:103660001301084311D051EC180B0022002301F084
:103670000BFE3DBF81F0004141EC180B08240024F3
:1036800009E0C3F313010843EDD002B051EC180B6D
:10369000BDEC048BD0BD51EC180B2B4A2B4B01F029
:1036A000F3FD1CD29FED2B9B51EC190B53EC182B07
:1036B00000F0DCF806460F4653EC182B51EC190BC2
:1036C00001F02AF932463B46FDF764FB00F056F85C
:1036D00041EC100B51EC180B53EC102B1EE00122A7
:1036E0001B4B01F0D1FD23D29FED1A9B51EC190B1E
:1036F00053EC182B00F0BAF806460F4653EC182B83
:1037000051EC190B01F008F932463B46FDF742FB3C
:1037100000F034F884F0020453EC182B01F0CCFDD7
:1037200002B02246BDEC048BBDE8D04001F0F0BEF3
:1037300001F0E6FF2121016002B04FF0FF30BDEC47
:10374000048B6FF00041D0BDCE3B7F669EA0E63F6C
:103750000000F03F000000000000F03F80B551EC99
:10376000100BFFF76BFF41EC100B01BD51EC100B80
:1037700010B500F003F841EC100B10BD40F2FF7CD7
:103780000B0D4DD0634566D230B421EA035141F4AC
:10379000801103F2FD3C5FEA5C0C01D30018494143
:1037A000890041EA907180004FF440140023E20246
:1037B000D50AB1F5100107D46D081DD2091B641993
:1037C00000184941491BF7D56D080AD20919641B35
:1037D00000184941491BEFD56D08F7D301E05208A5
:1037E00017D0C01861419B1AAC4100184941801A9A
:1037F000A941F4D452080AD0C01AA1419B186C41C7
:1038000000184941801AA941E9D45208F4D15B1C3F
:103810006C4161084FEA330001EB0C5130BC70473A
:1038200050EA0103FBD030B4B1FA81F311B9B0FA18
:1038300080F41B190B3BB3F120042FBF00FA04F1F5
:103840009940C3F1200420FA04F438BF2143984082
:10385000D3F101039DE76345E1D011F5801FDED868
:1038600050EA4101DBD0D94301F050BFF0B44FF032
:10387000004591EA030F44BF6B4001F057B800BF09
:10388000841A71EB030604D26E40001BB141121979
:1038900073414FF4001C1CEB410F34BF7CEB43061B
:1038A00084E00C0DA4EB1356362E7DDC012E43DC98
:1038B00045EAC32343EA525312BFD20292025B0885
:1038C000240545EAC12141EA5051D2EBC02099417B
:1038D00025D407D1B0FA80F610FA06F164D00020A2
:1038E000203608E0B1FA81F6B140C6F1200220FA94
:1038F00002F21143B0404FEAF474B4EB465434F092
:1039000001064FEA74040AD8D6F50016760D04F0C5
:103910000044F04061FA06F25040F1404840C00ACD
:1039200040EA415021F0004128BF5FEA500550F1C4
:10393000000044EBD12137E045EAC323DB0A45EA26
:10394000C121C90AB6F120050EDD42EA0242120C7D
:10395000C5F1200603FA06F6EB4042EA06056D4281
:10396000984161F100010DE062FA06F5F240554020
:1039700063FA06FC82EA0C02F3405A406D42904121
:1039800061EB030111F4801F05D1641E620502D0B2
:103990006D004041494121F48011430875F1004315
:1039A00050F1000041EB0451F0BC70471CEB410F9B
:1039B00015D223F0004352EA43060BD04FEA4C0CD9
:1039C000BCEB410F04D80C0D661E342EB7DDEBE7BF
:1039D000801A994150EA410608BF0021E4E708BF78
:1039E0001CEB430F28BF6FF00001DDE7012100F061
:1039F0001F029140DFF82824400942F82010704748
:103A000001224250704781B000224250405800903D
:103A1000009801B070474058401E8041C043C00F1D
:103A20007047C0F800127047C0F800137047D0F814
:103A300004030840401E8041C043C00F704701216D
:103A4000C0F8001570470021C0F80015704710B489
:103A5000002206E051F8223000EB8204C4F8603501
:103A6000521C022AF6DB10BC704700F20450816041
:103A700002604360704770B504460D4616463268D2
:103A800000F010F8B2882946204600F010F8B2681D
:103A90002946204600F010F8F26829462046BDE885
:103AA00070400EE000EB4110C0F82025704700EB9D
:103AB0004110C0F82425704700EB4110C0F82825BC
:103AC000704700EB4110C0F82C25704741EA0221F5
:103AD000C0F810157047C0F81415704786E7000B42
:103AE00040B270474FF0A040704771B581B00C46AE
:103AF00015461E4601A8FFF7F5FF44EA450141EAD5
:103B00008602069942EA0122079942EA0141019A96
:103B100000EB8200C0F8001773BD00B583B0002130
:103B2000019100910B4601221146FFF7DEFF07BD10
:103B300001B56846FFF7D6FF0121009A914000F0D9
:103B40000BF801BD01B56846FFF7CCFF0121009AD3
:103B5000914000F004F801BDC0F808157047C0F8A6
:103B60000C157047F0B583B004460D4600266F462D
:103B700004E04FF0FF3047F82600761C022E12DAE0
:103B8000A95DFF29F5D021F0800047F82600C9097A
:103B900002D0FFF7CDFF01E0FFF7D4FF57F8260072
:103BA000FFF7BBFFE9E769462068FFF750FFF7BD65
:103BB00070B504460D469B48217900EBC10630796B
:103BC000002801D0082070BD326029462046FFF74A
:103BD000C9FF2068FFF733FFEB882A79E97820686E
:103BE000FFF743FF6A7A297A2068FFF76FFF002109
:103BF0002068FFF716FF00212068FFF715FF4FF43C
:103C00008E712068FFF7FFFE4FF488712068FFF780
:103C1000FAFE4FF48A712068FFF7F5FE4FF48271C7
:103C20002068FFF7F0FE3068002805D02068FFF715
:103C300056FFA978FEF784F801203071002070BD8E
:103C400038B504467748217900EBC1052068FFF7B5
:103C500046FFFFF743FF2068FFF7F5FE00202871BD
:103C600031BD38B504461D46022008710868002899
:103C70000ED08221500700D59221100701D541F0C6
:103C80002001D00601D521F080012068FFF7CCFE8D
:103C90004FF482712068FFF7B6FE29462068BDE820
:103CA0003440ADE62DE9F04104460E4617461D4668
:103CB0005C48217900EBC108324600212068FFF7FB
:103CC000DAFE324601212068FFF7D5FE07F0010633
:103CD00006EB570189B22068FFF7FDFEE80701D522
:103CE000102108E0A80705D5002E01D0082102E028
:103CF000042100E000212068FFF793FE002E01D090
:103D00000C2300E008232A46D2B241462046BDE8F3
:103D1000F041A6E770B504460D46002600F011F804
:103D2000002808D104212068FFF76AFE204600F031
:103D300008F8002801D0012601E02800F6D130461D
:103D400070BD38B53749027901EBC20400252179ED
:103D5000022900D001254FF482710068FFF75BFE55
:103D6000002802D0012020710546284632BD38B512
:103D700004460D461021FFF75AFE00280ED04FF4DE
:103D800088712046FFF747FE002807D04FF488715E
:103D90002046FFF738FE0120296888472021204669
:103DA000FFF745FE00280ED04FF48A712046FFF73A
:103DB00032FE002807D04FF48A712046FFF723FE19
:103DC00002202968884780212046FFF730FE00281E
:103DD0000ED04FF48E712046FFF71DFE002807D04D
:103DE0004FF48E712046FFF70EFE002029688847A9
:103DF0004FF482712046FFF70EFE00280BD04FF4DF
:103E000082712046FFF7FFFD0120287103202968F9
:103E1000BDE83440084731BD02490348A7E7000028
:103E200080E100E06830002000C001400178407867
:103E300041EA0020704780B5FFF7F8FF00F001006D
:103E400002BDFEE762F30F2262F31F4200B500BF1E
:103E5000130096469446103928BFA0E80C50FAD8B3
:103E60005FEA417C28BF0CC048BF40F8042BC9075B
:103E700028BF20F8022B48BF00F8012B00BDFEE749
:103E800010B40001164B1C186260195010BC70472A
:103E90000A7802F003024B781B0103F030031A4347
:103EA0008B781B0203F4E0631A43CB781B0303F403
:103EB00080531A430B791B0403F4E0231A434B7914
:103EC0001B0503F480131A438B791B0603F08073E0
:103ED0001A43034B03EB00139A600A7AC979CFE7C0
:103EE0001075004062F30F2262F31F42401810F079
:103EF000030308D0C91A1FD3DB0748BF00F8012D00
:103F000028BF20F8022D130030B41446154610398E
:103F100028BF20E93C00FAD8490728BF20E90C0057
:103F200048BF40F8042D890028BF20F8022D48BF63
:103F300000F8012D30BC7047C91818BF00F8012DDA
:103F4000CB0728BF00F8012D7047FEE7408878496D
:103F500002460B889A4204D34988814201D301204A
:103F600070470020704710B582B0724CE08B4FF65E
:103F7000FF71884224D0217F491C2177227BC9B25E
:103F80008A4208D36A4975DF002819D0A1690A005E
:103F900016D0884713BD00212177217C002907D046
:103FA0003B2176DF002803D0A1690A0000D08847B2
:103FB0006169080004D000208DF800006846884739
:103FC00013BD38B504465B4D284621461C22FEF73A
:103FD000EBFD002068772168554C0029204614D05D
:103FE0000822FEF7D1FD20467ADF00280CD14FF6DB
:103FF000FF70E883002028774F4A01460FF24010F7
:10400000BDE8384001F03FB832BD7BDF0028EED07C
:1040100032BD10B582B0474C4848FFF797FF0028E3
:104020001DD1607F002808D0616908001FD00020E2
:104030008DF800006846884719E0207F002801D1EC
:10404000616800E0A168002204F1200001F033F86B
:1040500000280CD0A1690A0009D0884707E06169EF
:10406000080004D001208DF8000068468847002031
:10407000607713BD10B501462E4C8888E0832F4829
:1040800010310822FEF780FD00202077E08900280B
:1040900002D1BDE81040BCE710BD10B5254C4FF66D
:1040A000FF70E0830020207704F1200001F020F869
:1040B000002805D0A1690A0002D0BDE810400847D9
:1040C00010BD10B51B4CC188E289914216D1018AFE
:1040D000022913D11230FFF7AEFE002802D0BDE84E
:1040E000104096E704F1200001F002F8002805D006
:1040F000A1690A0002D0BDE81040084710BD80B594
:1041000001460E4808310822FEF73EFDBDE8014099
:104110007FE70188102906D0112905D0122905D082
:10412000502902D07047A5E7B7E7CAE7E7E70000E4
:1041300050300020602E0020673F020058300020E1
:10414000802E002080B5012200210846FFF7CEF91D
:10415000002801D0072812D1072202210120FFF7F1
:10416000C5F9002801D0072809D104220221002026
:10417000FFF7BCF9002801D0072800D1002002BDBC
:1041800080B5012202210020FFF7B0F9002801D0FC
:10419000072812D1072202210120FFF7A7F90028E2
:1041A00001D0072809D10A2200210846FFF79EF90D
:1041B000002801D0072800D1002002BD80B50020D2
:1041C000FFF7BAF9002801D0062807D10120FFF730
:1041D000B3F9002801D0062800D1002002BD10B597
:1041E0000088102802D0112810D010BD0F4C606834
:1041F000002807D1FFF7A6FF002803D021680A0096
:1042000000D088476068401C606010BD074C606843
:10421000401E606009D1FFF7B3FF002805D0216878
:104220000A0002D0BDE81040084710BD60300020F1
:10423000DFF82C0480797047002100E0491C062932
:1042400004D2425C002AF9D0012070470020704758
:10425000C17B012903D18088DFF8081448847047A6
:1042600010B50021DFF8F8231171DFF8F8438088DA
:10427000618C88420AD1012000F030F9002805D075
:10428000A16A0A0002D0BDE81040084710BD80B501
:104290006846FEF73BFC0098401E8041C043C00FBB
:1042A00002BD000038B50546DFF8B84304F12D0023
:1042B000FFF7C2FF6D1E032D18D8DFE805F00208D6
:1042C0000D1261780246114201D0012032BDA17861
:1042D000014201D0022032BDE078002801D0032045
:1042E00032BD2079002801D0042032BD002032BD2B
:1042F0000121DFF86C235170DFF86C13416001215C
:104300000170002181814181084670470221DFF858
:1043100050235170DFF84C1301F12C02426001224E
:104320000270CA688281896841810020704738B56F
:104330000446DFF83003016961814169A181DFF83A
:1043400020530078297981F00101084211D0FFF74C
:104350006FFF00280DD002202072DFF81003042127
:10436000C170002101F0B2FC002805D10520687061
:1043700001E003206870002032BD38B50446DFF844
:10438000E40281696181C169A181DFF8D4520078BA
:10439000297981F00101084210D0FFF749FF002878
:1043A0000CD002202072B1480421C170002101F01C
:1043B0008DFC002805D10620687001E0042068709B
:1043C000002032BDF8B504460D46002C01D0002A6D
:1043D00001D10E20F2BDA348012180F82010002158
:1043E0009F4EB17092EC080B80EC080B436206996B
:1043F00081624FF6FF714184002207212C30FFF7C4
:1044000021FD9A4E00223C213046FFF71BFD20780B
:104410003070A078B070E078F07060787070D4E997
:104420000401C6E90401D4E90201C6E90201D4E9A4
:104430000601C6E90601606A002813D08C4800F125
:10444000400171628860626A12880A80626A92889A
:104450008A80002104E0636A9B685B5C4354491CCA
:104460009142F8D3A06A00281ED0814800F1400193
:1044700000F120024A6100F14C02B262A26A928805
:104480000A82A26A12888A81002206E0A36A9B68D7
:104490009B5C871887F82030521C0B8A9A42F5D310
:1044A00094F82C0086F82C00206A00280BD0704865
:1044B00000F15801316200F14001206A40884883D0
:1044C000206A008808836068002800D07060294650
:1044D0003046BDE8F44001F0F9BB00007FB5064668
:1044E000604C94F82000002801D1082075E05C4D54
:1044F000AE70FFF7CCFE002803D00120287000200A
:104500006BE00022072104F12C00FFF79BFC607890
:10451000002802D0A87801280AD0A078010002D093
:10452000A978012904D000280CD0A878022809D144
:10453000616A080004D00120E8700820884701E083
:104540000020E8703046FFF7ADFEA870616A0A00EF
:1045500010D0032801D004280CD120782A7982F0C9
:104560000102104206D00020A871012068710720C6
:10457000884701E000206871002210216846FFF79B
:1045800061FC00208DF800008DF80800A878042850
:1045900016D8DFE800F01303070B0F006846FFF79B
:1045A000A7FE0DE06846FFF7B1FE09E06846FFF799
:1045B000BEFE05E06846FFF7E0FE01E000206870FF
:1045C000A878002803D0684673DF002805D1616A07
:1045D000080001D068788847002004B070BD10B58D
:1045E00004462088102804D011280CD01B2817D08E
:1045F00010BD01201F4908700020FDF701FA204678
:10460000BDE8104024E60020FDF7F5F90020FDF795
:10461000F7F90020174908702046BDE810401FE652
:1046200015480078002802D101201449087010BDF7
:10463000801E012800D9704780B5094801780029FB
:104640000DD0002101708078FFF748FF002806D0C8
:104650000449896A0A0002D0BDE80440084701BD48
:1046600070300020DC2E0020082F0020A02E00201B
:104670005C2D002088300020EB2B002087300020AC
:10468000012100F01F029140DFF86822400942F842
:1046900020107047012100F01F029140964A400906
:1046A00042F820107047002807D5944900F00F0009
:1046B000084410F8040C400970479149085C40090F
:1046C000704700F00301481E8041C00F704701464B
:1046D000202904DA8B49C14001F0010070474029CC
:1046E00008DA0121203801FA00F0401E8041C04361
:1046F000C00F704701207047082807D2002805D056
:10470000012803D0042801D0052801D100207047DA
:104710000120704710B50446FFF7D9FF002802D1E9
:1047200042F2010010BD2046FFF7BDFFFFF7E4FF96
:10473000002802D142F2020010BD734881680029AE
:104740000AD0610950F82120012304F01F04A3407E
:104750001A4340F8212002E02046FFF791FF002095
:1047600010BD6449420951F8221000F01F00C140F9
:1047700001F001007047FDF701BB7CB5634C207868
:10478000002839D00025E068002801D1012600E08A
:104790002E46002D15D1607800282DD1684648DFBF
:1047A000052801D101250CE0002802D0FCF766F8AD
:1047B00007E0009801F054FB2169080001D000983F
:1047C0008847002E14D16078002815D16088ADF894
:1047D000040001A9A06861DF052801D1012607E0D6
:1047E000002802D0FCF74AF802E0A068E168884798
:1047F000284631460842CCD073BD44480078704703
:104800002DE9F04104460D4616461F46002D04D002
:104810002846FFF756FF002801D1072024E0DFF8E3
:10482000EC80C8F80850A8F80260C8F804700020AE
:10483000FFF797FF050002D00020FFF72BFF344958
:10484000204610DF040006D0002D02D00020FFF724
:1048500017FF204608E0012088F8000001F005FB62
:104860001620BDE8F04155E7BDE8F081010001D117
:104870000E2070472549C86000207047010001D113
:104880000E207047214908610020704780B51F48FD
:104890004068010006D08047002806D0BDE80240ED
:1048A000FBF7ECBFBDE8014067E701BD70B5054609
:1048B0000E46144600221C212046FFF7C3FA0120B1
:1048C00020800020A061207D00F0FE00207526726F
:1048D00065722846002801D00120A072002070BD1A
:1048E00082B00C4900910099019101A960DF009903
:1048F00002B0704700E100E080E100E018ED00E068
:1049000000E400E0FC06FFBC443000202030002022
:104910007747020028210020F0B44FF0004591EACB
:10492000030C44BF6B40FEF7ABBF00BF841A71EBB2
:10493000030603D2001BB141121973414FF4001C4E
:104940001CEB410F34BF7CEB430443E00C0DA4EBA4
:104950001356352E50DC45EAC323DB0A45EAC12154
:10496000C912B6F120050DDD63FA05F6EB4086EAC3
:104970000305124218BF45F00105C01851F10001AE
:104980000CD213E062FA06F5F2405540F3415A406A
:10499000B340F3405A408018594107D349085FEAB1
:1049A00030005FEA350528BF45F0010501F58011AB
:1049B000420875F1004250F1000041EB0451F0BC97
:1049C0004FF4001C1CEB410F38BF70470020090D4D
:1049D000090570471CEB410F10D252EA43060BD079
:1049E000BCEB410F05D80C0DAB43661E342EB5DD74
:1049F00002E0AB4380185941F0BC7047F0BC7047EF
:104A0000012100F01F029140DFF80427400942F81D
:104A100020107047012100F01F029140DFF8F426BA
:104A2000400942F820107047012100F01F02914018
:104A3000DFF8E426400942F820107047012100F019
:104A40001F029140DFF8D426400942F82010704739
:104A50004901002807D5DFF8C82600F00F001044F0
:104A600000F8041C7047DFF8BC261154704700F0B2
:104A70000301481E8041C00F70470000002840D04D
:104A8000DFF8A4160968DFF8A42600BF00BF00BF46
:104A900000BF00BF00BF00BF00BF91422FD000BFCA
:104AA00000BF00BF00BF00BF00BF00BF00BF00BF0E
:104AB00000BF00BF00BF00BF00BF00BF00BF00BFFE
:104AC00000BF00BF00BF00BF00BF00BF00BF00BFEE
:104AD00000BF00BF00BF00BF00BF00BF00BF00BFDE
:104AE00000BF00BF00BF00BF00BF00BF00BF00BFCE
:104AF00000BF00BF00BF00BF00BF00BF00BF013844
:104B0000C3D17047DFF828160860072111209FE7FE
:104B100080B5DFF820064FF4803101640160112078
:104B2000FFF78CFF1120FFF76BFF0120DFF808165D
:104B300008602F20FFF7A2FF0120DFF8001688721F
:104B400001BD10B51120FFF765FFDFF8F4054FF444
:104B5000803101640160DFF8EC45012020602F20E6
:104B6000FFF78CFF01206060DFF8D0450020206156
:104B70002F20FFF783FF0020A07210BDDFF8C805CB
:104B800000687047401A20F07F407047DFF8BC157E
:104B90000860704710B4DFF8A415CA68002A01D174
:104BA000C8601AE013680468A34204D31B1B136097
:104BB000C261C86011E0114602E0E41A0A46C96900
:104BC000002902D00B68A342F7D3002902D00B685A
:104BD0001B1B0B600460C161D06110BC704710B436
:104BE000DFF85815CA6813461C4601E02346E469FD
:104BF000002C01D08442F9D1002C15D0A3420BD156
:104C0000D069C860002807D10120DFF84425106072
:104C1000002008610120C8722068E469DC61002C72
:104C200002D021684018206010BC70471120FBE6BC
:104C30001420F9E680B542698069DFF80015CB6978
:104C4000190008D0014610469847002806D0BDE854
:104C50000240FBF713BEBDE80240104701BDF8B5A6
:104C6000DFF8D844E668002E2AD00025FFF786FF3B
:104C70002169FFF787FF07460AE03F1A45193046CA
:104C8000F669017C002903D000210174FFF7D2FFEF
:104C9000002E02D030688742EFD2607A217A024635
:104CA000914206D1401C6072C0B2022801D100209E
:104CB0006072607A04EB80004561BDE8F140B7E7BF
:104CC000F1BD10B4DFF874140A7A13464C7AA3428B
:104CD00012D0521C0A72D2B2022A01D100220A72E8
:104CE0000A7A01EB8202526902600869101820F00A
:104CF0007F400861012002E000210160084610BCED
:104D0000704770B5DFF834442578E66802E0406803
:104D1000FFF765FF28466178C0B2884219D0606805
:104D2000EDB205EB450100EBC1006D1C2946A278F0
:104D3000C9B2914200D1002501780229E7D00329A8
:104D4000E8D1E0680028E5D000210174C069E06086
:104D5000F7E7E068B04201D0012070BD002070BDCF
:104D6000F0B40024DFF8D47311E0801B341900265E
:104D70001E60DE69FE60DE68002E08D0661826F030
:104D80007F465E60DE689E601668DE611560FD68C5
:104D9000002D05D02B461E68B042E6D2301A1860AE
:104DA000F0BC7047F8B50646DFF89043E5680BE0C5
